:020000040000FA
:0400000007EF00F016
:1000080027824DED01F036EF01F00F0EC16E800E24
:10001800116E250E126E000E136E000E146EFAECA1
:1000280000F0000E936E9290929292949296000E27
:100038008A6E8990899289948996000E266E000EA0
:100048001B6E2D0E1A6EFA0E2618D8B430D063D057
:100058001CC08AFF8986140E196E7A0EE82EFED708
:10006800192EFCD789961DC08AFF8984140E196E33
:100078007A0EE82EFED7192EFCD789941FC08AFF66
:100088008982140E196E7A0EE82EFED7192EFCD727
:1000980089921EC08AFF8980140E196E7A0EE82E86
:1000A800FED7192EFCD789901A06D8A01B061A501D
:1000B8001B10D8B4C4D7CCD720C08AFF8986140EA9
:1000C800196E7A0EE82EFED7192EFCD7899621C014
:1000D8008AFF8984140E196E7A0EE82EFED7192E1F
:1000E800FCD7899422C08AFF8982140E196E7A0E71
:1000F800E82EFED7192EFCD7899223C08AFF898063
:10010800140E196E7A0EE82EFED7192EFCD7899098
:100118001A06D8A01B061A501B10D8B490D7CCD7F3
:10012800000E0C6E0AAE0AD00A1E091E081E076CC5
:10013800000E082209220A22010E0C6E06AE0AD011
:10014800061E051E041E036C000E0422052206224C
:10015800010E0C1A000E0D6E000E0E6E000E0F6EC4
:10016800000E106E0750081009100A10D8B42AD0D3
:10017800010E0B6E06D0D8900736083609360A36B7
:100188000B2A0AAEF8D7D8900D360E360F36103631
:100198000750035C08500458095005580A5006587F
:1001A800D8A009D00750035E0850045A0950055AD0
:1001B8000A50065A0D80D8900A320932083207329E
:1001C8000B2EE1D70C50D8B408D0101E0F1E0E1EEF
:1001D8000D6C000E0E220F2210220DC003F00EC06F
:1001E80004F00FC005F010C006F01200949C948E25
:1001F80011C007F012C008F013C009F014C00AF0CB
:10020800000E036E1B0E046EB70E056E000E066E12
:1002180094EC00F003C015F004C016F005C017F008
:1002280006C018F015C003F016C004F017C005F09A
:1002380018C006F0400E076E000E086E000E096E1C
:10024800000E0A6E94EC00F00304AF6EAC94B896FE
:10025800AC98AB8EF28EF28C9D8AAC9CAC8AAB9C2F
:10026800AB881200C80EF66E020EF76E000EF86E1E
:1002780000EE1CF010EE09F00900F5CFEEFFE55096
:10028800E150FAE1266A256A27902792000109EFD2
:1002980000F006009EAA11D069EC01F0266E898A4A
:1002A800020E026E860E016E990EE82EFED7012E02
:1002B800FCD7022EFAD700F09E9A899A279211004D
:0902C800473E0E0E47056F6F0062
:0402D200AE50120018
:020000040020DA
:08000000FFFFFFFFFFFFFFFF00
:020000040030CA
:0E000000000C181EFF8481FF0FC00FE00F40A0
:00000001FF
