:020000040000FA
:0400000018EF20F0E5
:1008000000313D2B20323D2D20343D2A20383D2F14
:1008100000536567756E646F2064696769746F3A29
:100820000053656C656363696F6E3A2025303364ED
:100830000053656C656363696F6E61206C612000B5
:100840005072696D65722064696769746F3A00421D
:1008500069656E76656E69646F203A2A002A436185
:100860006C63756C61646F72612A005265737461A8
:100870003D202D25302E3364004E756D65726F3A24
:100880002025302E33660052657374613D2025307B
:100890002E33660053756D613D2025302E33660082
:1008A0004F7065726163696F6E0025302E3066206F
:1008B0002B0025302E3064202D0025302E30662070
:1008C0002D002025302E3064002025302E3066008B
:1008D000494E46004E414E00696E66006E616E00E4
:1008E0006C660000000E00017B6F000E7A6F30C056
:1008F0008CF031C08DF032C08EF033C08FF08FAFEE
:1009000016D0000E7B6F010E7A6F8CC001F08DC087
:1009100002F08EC003F08FC004F0D9EC1FF001C0CC
:100920008CF002C08DF003C08EF004C08FF0000E7A
:100930000001936F000E926FE8C07FF0E9C080F075
:100940007A517B11D8A402D0ECA513D07A517B1137
:10095000D8A404D0000E656F2B0E03D0000E656F77
:100960002D0E646F64C000F1924B932B7F07D8A0CB
:1009700080078CC001F08DC002F08EC003F08FC0E4
:1009800004F030EC1BF001040210D8A44CD0BF0ED0
:10099000356EFF0E366E3450376E386A3550372656
:1009A00036503822385006E11A0E375CD8B002D0E3
:1009B000010E01D0000E0001666F676B6651671172
:1009C000D8B40DD0000E9225016E010E9321026E57
:1009D000D00E036E080E046EBBEC1EF00CD0000EA1
:1009E0009225016E010E9321026ED80E036E080E41
:1009F000046EBBEC1EF00001FD0E7F27FF0E80236E
:100A00002EC011F02FC012F0000E136E010E146EE6
:100A10007FC015F080C016F094EC1CF011C02EF0D1
:100A200012C02FF012008CC001F08DC002F08EC0F9
:100A300003F08FC004F030EC1BF001500210D8A47A
:100A400035D0BF0E356EFF0E366E3450376E386AB5
:100A50003550372636503822385006E11A0E375CAA
:100A6000D8B002D0010E01D0000E0001686F696B92
:100A700068516911D8B40DD0000E9225016E010E97
:100A80009321026ED40E036E080E046EBBEC1EF0B2
:100A9000B2D7000E9225016E010E9321026EDC0E7C
:100AA000036E080E046EBBEC1EF0A5D7000E00010D
:100AB000946F000E956F800E966F3F0E976F000E2D
:100AC000916F000E906F8CC001F08DC002F08EC04F
:100AD00003F08FC004F0000E056E000E066E000ECF
:100AE000076E000E086E26EC1DF0D8A01ED076D042
:100AF00094C001F095C002F096C003F097C004F0D6
:100B0000000E056E000E066E200E076E410E086E7A
:100B1000CBEC0FF001C094F002C095F003C096F04A
:100B200004C097F00001904B912B8CC01AF08DC03F
:100B30001BF08EC01CF08FC01DF0000E056E000E65
:100B4000066E200E076E410E086E94C001F095C02F
:100B500002F096C003F097C004F0CBEC0FF001C098
:100B60001EF002C01FF003C020F004C021F0C8EC4A
:100B70001AF0D8A01FD0BCD794C001F095C002F0E5
:100B800096C003F097C004F0000E056E000E066ECE
:100B9000200E076E410E086EFAEC12F001C094F0C0
:100BA00002C095F003C096F004C097F000019007D2
:100BB000D8A091078CC01AF08DC01BF08EC01CF01D
:100BC0008FC01DF094C01EF095C01FF096C020F09D
:100BD00097C021F0C8EC1AF0D8A0CED734C007F0E7
:100BE000086A0CEC1FF007500001816F81C07EF095
:100BF000670E8119D8A419D0EA51EB11D8A404D0FA
:100C0000000EEB6F010EEA6FEBBF05D0EB5108E170
:100C1000EA05D8B005D0000E7D6F060E7C6F08D0B7
:100C2000EAC07CF0EBC07DF003D0EBAFF9D7F3D78F
:100C3000670E8119D8A422D091AF06D0FC0E905D2A
:100C4000FF0E9159D8A018D0FF0E356EFF0E366EEC
:100C50007CC037F07DC038F035503726365038220A
:100C60009051375C3850800A396E9151800A39585A
:100C7000D8A002D0660E01D0650E7E6F7CC074F0E5
:100C80007DC075F0670E8119D8A405D0660E7E1957
:100C9000D8B491AF02D0744B752B660E7E19D8A4D0
:100CA00016D091AF0CD0000E946F000E956F800E91
:100CB000966F3F0E976F000E916F000E906F670E4C
:100CC0008119D8B404D09051742791517523000E26
:100CD0008B6F000E8A6F8CC082F08DC083F08EC047
:100CE00084F08FC085F094C060F095C061F096C02C
:100CF00062F097C063F07BD082C001F083C002F045
:100D000084C003F085C004F094C005F095C006F0DF
:100D100096C007F097C008F0FAEC12F001C01AF084
:100D200002C01BF003C01CF004C01DF062EC15F003
:100D30001AC086F01BC087F01CC088F01DC089F067
:100D400086C001F087C002F088C003F089C004F0BB
:100D500096EC1BF001C078F002C079F082C01AF066
:100D600083C01BF084C01CF085C01DF094C005F04A
:100D700095C006F096C007F097C008F086C001F055
:100D800087C002F088C003F089C004F0CBEC0FF0FC
:100D900001C01EF002C01FF003C020F004C021F00B
:100DA00032EC1FF01AC082F01BC083F01CC084F02C
:100DB0001DC085F094C001F095C002F096C003F00C
:100DC00097C004F0000E056E000E066E200E076E32
:100DD000410E086EFAEC12F001C094F002C095F0DA
:100DE00003C096F004C097F000018A4B8B2B74511E
:100DF0008A5D8B51800A356E7551800A3558D8A0AE
:100E00007BD794C001F095C002F096C003F097C064
:100E100004F0000E056E000E066EA00E076E400E6A
:100E2000086ECBEC0FF001C086F002C087F003C063
:100E300088F004C089F082C01AF083C01BF084C01F
:100E40001CF085C01DF086C01EF087C01FF088C052
:100E500020F089C021F0C8EC1AF0D8B003D0000E01
:100E6000000118D082C001F083C002F084C003F0FA
:100E700085C004F086C005F087C006F088C007F082
:100E800089C008F026EC1DF0D8A00BD0000178B185
:100E900008D0000E866F000E876F000E886F000E60
:100EA000896F8CC001F08DC002F08EC003F08FC03E
:100EB00004F086C005F087C006F088C007F089C03E
:100EC00008F074EC11F001C082F002C083F003C09E
:100ED00084F004C085F060C094F061C095F062C0F9
:100EE00096F063C097F0650E00017E19D8B405D066
:100EF00090C076F091C077F004D0000E776F000EAE
:100F0000766F000E736F000E726F000E716F000E21
:100F1000706F000E8B6F000E8A6FC6D082C001F01A
:100F200083C002F084C003F085C004F094C005F0D3
:100F300095C006F096C007F097C008F0FAEC12F0E2
:100F400001C01AF002C01BF003C01CF004C01DF069
:100F500062EC15F01AC086F01BC087F01CC088F048
:100F60001DC089F086C001F087C002F088C003F080
:100F700089C004F096EC1BF001C078F002C079F053
:100F80000001ECB90CD078517911D8A408D0670EC3
:100F90008119D8B477AF03D0704B712B39D072510F
:100FA0007311D8B477AF22D0000E9225D96E010EFE
:100FB0009321DA6E2E0EDF6E924B932B7F07D8A013
:100FC0008007000E736F010E726F10D0000E922515
:100FD000D96E010E9321DA6E300EDF6E924B932B99
:100FE0007F07D8A080077007D8A0710770517111D2
:100FF000D8A4ECD7000E9225D96E010E9321DA6E9B
:101000007851300FDF6E924B932B7F07D8A080076B
:1010100082C01AF083C01BF084C01CF085C01DF094
:1010200094C005F095C006F096C007F097C008F090
:1010300086C001F087C002F088C003F089C004F0C8
:10104000CBEC0FF001C01EF002C01FF003C020F077
:1010500004C021F032EC1FF01AC082F01BC083F0F4
:101060001CC084F01DC085F094C001F095C002F052
:1010700096C003F097C004F0000E056E000E066ED9
:10108000200E076E410E086EFAEC12F001C094F0CB
:1010900002C095F003C096F004C097F000017607F7
:1010A000D8A077078A4B8B2B74518A5D8B51800AAD
:1010B000356E7551800A3558D8B008D093BF2ED7F9
:1010C000935104E14B0E925DD8A028D77251731151
:1010D000D8B4ECA90AD0000E9225D96E010E932146
:1010E000DA6E2E0EDF6E924B932B000E9225D96E88
:1010F000010E9321DA6E000EDF6E650E7E19D8A404
:101100007FD4000E8B6F4F0E8A6F000E8A25D96E2A
:10111000010E8B21DA6E000EDF6E000E7B6F000E6B
:101120007A6F91AF08D0000E7B6F010E7A6F906DD1
:10113000911FD8B0912B000E7D6F020E7C6F2BD0CB
:101140008A07D8A08B07000E8A25D96E010E8B2145
:10115000DA6E90C001F091C002F0000E046E0A0E2B
:10116000036EE8EC1DF00150300FDF6E90C001F00F
:1011700091C002F0000E046E0A0E036E6BEC1DF0BF
:1011800001C090F002C091F000017C07D8A07D075B
:101190007F07D8A0800790519111D8A4D1D77DBFE7
:1011A00005D07D51CDE17C05D8B0CAD78A07D8A03B
:1011B0008B077A517B11D8A404D0000E6B6F2B0ED5
:1011C00003D0000E6B6F2D0E6A6F000E8A25D96E4C
:1011D000010E8B21DA6E6AC0DFFF7F07D8A080077F
:1011E0008A07D8A08B07BF0E356EFF0E366E3450BF
:1011F000376E386A3550372636503822385006E177
:101200001A0E375CD8B002D0010E01D0000E6E6FFE
:101210006F6B6E516F11D8A404D0000E6D6F650E08
:1012200003D0000E6D6F450E6C6F000E8A25D96ECF
:10123000010E8B21DA6E6CC0DFFF7F07D8A080071C
:10124000000E9225016E010E9321026E000E8A257A
:10125000036E010E8B21046EBBEC1EF000EF05F057
:1012600093689482D9EC19F0010E49EC19F00C0E38
:1012700049EC19F0020E0001CB6F040ECA6FBA0ED2
:10128000E82EFED7CA2FFCD7CB2FFAD700F012D00A
:10129000010E046E4F0E056E080E066E010EADECCB
:1012A0001DF0010E046E5D0E056E080E066E020E38
:1012B000ADEC1DF082B2ECD7060E0001CB6F130E21
:1012C000CA6FAD0EE82EFED7CA2FFCD7CB2FFAD7A8
:1012D00000D0000E8A6E010E49EC19F0020E0001DA
:1012E000CB6F040ECA6FBA0EE82EFED7CA2FFCD7FA
:1012F000CB2FFAD700F0010E046E400E056E080EDB
:10130000066E010EADEC1DF02DD081500001BC6FBA
:10131000BD6BBE6BBF6B000EE1EC16F0BCC0D2F033
:10132000BDC0D3F0BEC0D4F0BFC0D5F0EE0E0001FA
:10133000B06F000EB16F790EB26F080EB36FD2C0EE
:10134000B4F0D3C0B5F0D4C0B6F0D5C0B7F0E4EC7B
:101350001EF0010E046EEE0E056E000E066E020EFD
:1013600020EC1EF082B2D1D7010E49EC19F0020E2A
:101370000001CB6F040ECA6FBA0EE82EFED7CA2F3B
:10138000FCD7CB2FFAD700F0010E046E110E056EBC
:10139000080E066E010EADEC1DF02DD0815000013F
:1013A000BC6FBD6BBE6BBF6B000EE1EC16F0BCC03A
:1013B000D6F0BDC0D7F0BEC0D8F0BFC0D9F0610E26
:1013C0000001B06F010EB16F790EB26F080EB36FEE
:1013D000D6C0B4F0D7C0B5F0D8C0B6F0D9C0B7F019
:1013E000E4EC1EF0010E046E610E056E010E066E39
:1013F000020E20EC1EF082B2D1D7010E49EC19F09A
:10140000020E0001CB6F040ECA6FBA0EE82EFED793
:10141000CA2FFCD7CB2FFAD700F0010E046E310E85
:10142000056E080E066E010EADEC1DF0030E046E87
:10143000A00E056E080E066E020EADEC1DF0150E28
:101440000001CB6F4B0ECA6FBE0EE82EFED7CA2F1F
:10145000FCD7CB2FFAD700F0010E49EC19F0020EA1
:101460000001CB6F040ECA6FBA0EE82EFED7CA2F4A
:10147000FCD7CB2FFAD700F025D081CFD0F00001D8
:10148000D16B010E046E010E056E080E066E010E84
:10149000ADEC1DF0500E0001B06F010EB16F210ECA
:1014A000B26F080EB36FD0C0B4F0D1C0B5F0E4ECA9
:1014B0001EF0010E046E500E056E010E066E020E39
:1014C00020EC1EF082B2D9D7010E49EC19F0020EC1
:1014D0000001CB6F040ECA6FBA0EE82EFED7CA2FDA
:1014E000FCD7CB2FFAD700F064D2D6C001F0D7C01A
:1014F00002F0D8C003F0D9C004F096EC1BF001C094
:101500000DF002C00EF0D2C001F0D3C002F0D4C082
:1015100003F0D5C004F096EC1BF001C00BF002C044
:101520000CF029EC20F00BC0BCF00CC0BDF00001A9
:10153000000EBDBFFF0EBE6FBF6F010EE1EC16F0D7
:10154000BCC0DAF0BDC0DBF0BEC0DCF0BFC0DDF077
:10155000EE0E0001B06F000EB16FAA0EB26F080E52
:10156000B36FD2C0B4F0D3C0B5F0D4C0B6F0D5C01C
:10157000B7F0E4EC1EF0610E0001B06F010EB16F28
:10158000C90EB26F080EB36FD6C0B4F0D7C0B5F0B5
:10159000D8C0B6F0D9C0B7F0E4EC1EF0720E00016E
:1015A000B06F010EB16F940EB26F080EB36FDAC058
:1015B000B4F0DBC0B5F0DCC0B6F0DDC0B7F0E4ECF1
:1015C0001EF0010E046EEE0E056E000E066E010E8C
:1015D00020EC1EF0060E046E610E056E010E066E06
:1015E000010E20EC1EF0010E046E720E056E010E4F
:1015F000066E020E20EC1EF082A26BD676D7D6C005
:1016000001F0D7C002F0D8C003F0D9C004F096ECC6
:101610001BF001C0CCF002C0CDF0D2C001F0D3C0AD
:1016200002F0D4C003F0D5C004F096EC1BF001C06A
:10163000CEF002C0CFF0CCC0BAF0CDC0BBF0CEC06F
:10164000B8F0CFC0B9F05CEC1AF00001B8C0BCF043
:10165000B9C0BDF0000EBDBFFF0EBE6FBF6F010E63
:10166000E1EC16F0BCC0DAF0BDC0DBF0BEC0DCF0CF
:10167000BFC0DDF0020E0001CB6F040ECA6FBA0EC0
:10168000E82EFED7CA2FFCD7CB2FFAD700F0010ED9
:1016900049EC19F0020E0001CB6F040ECA6FBA0EAE
:1016A000E82EFED7CA2FFCD7CB2FFAD700F056D0A2
:1016B0000001DDBF0ED6EE0EB06F000EB16FBA0E98
:1016C000B26F080EB36FD2C0B4F0D3C0B5F0D4C0BF
:1016D000B6F0D5C0B7F0E4EC1EF0610E0001B06FBB
:1016E000010EB16FC90EB26F080EB36FD6C0B4F061
:1016F000D7C0B5F0D8C0B6F0D9C0B7F0E4EC1EF052
:10170000720E0001B06F010EB16F870EB26F080E3E
:10171000B36FDAC0B4F0DBC0B5F0DCC0B6F0DDC04A
:10172000B7F0E4EC1EF0010E046EEE0E056E000E36
:10173000066E010E20EC1EF0060E046E610E056EA4
:10174000010E066E010E20EC1EF0010E046E720EEC
:10175000056E010E066E020E20EC1EF082A2B9D5B7
:10176000A7D7D6C001F0D7C002F0D8C003F0D9C0C7
:1017700004F096EC1BF001C00DF002C00EF0D2C0D8
:1017800001F0D3C002F0D4C003F0D5C004F096EC51
:101790001BF001C00BF002C00CF058EC1EF00BC0A7
:1017A000BCF00CC0BDF00001000EBDBFFF0EBE6F4F
:1017B000BF6F010EE1EC16F0BCC0DAF0BDC0DBF08B
:1017C000BEC0DCF0BFC0DDF0000E1A6E000E1B6E56
:1017D000000E1C6E000E1D6EDAC01EF0DBC01FF086
:1017E000DCC020F0DDC021F0C8EC1AF0D8A00DD08C
:1017F0001BD0DAC001F0DBC002F0DCC003F0DDC0BA
:1018000004F096EC1BF00150836E82B0F2D70B0E01
:101810000001CB6F260ECA6F5D0EE82EFED7CA2FD1
:10182000FCD7CB2FFAD754D50001DDBF0DD0EFD7B1
:10183000000E836E82844E0E0001CA6FEB0EE82EFE
:10184000FED7CA2FFCD7829482B0F2D70B0E0001CC
:10185000CB6F260ECA6F5D0EE82EFED7CA2FFCD7BF
:10186000CB2FFAD700D089D0D6C001F0D7C002F074
:10187000D8C003F0D9C004F096EC1BF001C00DF005
:1018800002C00EF0D2C001F0D3C002F0D4C003F009
:10189000D5C004F096EC1BF001C00BF002C00CF0B8
:1018A000E1EC1CF00BC0BCF00CC0BDF00001000E60
:1018B000BDBFFF0EBE6FBF6F010EE1EC16F0BCC0E6
:1018C000DAF0BDC0DBF0BEC0DCF0BFC0DDF0DAC0D6
:1018D00001F0DBC002F0DCC003F0DDC004F0000E5C
:1018E000056E000E066E000E076E000E086E26ECEA
:1018F0001DF0D8A011D08368020E0001CB6F040E3A
:10190000CA6FBA0EE82EFED7CA2FFCD7CB2FFAD754
:1019100000F0000E836EDDD4DAC001F0DBC002F00F
:10192000DCC003F0DDC004F0000E056E000E066E94
:10193000000E076E000E086E26EC1DF0D8A00DD02C
:101940001ED0DAC001F0DBC002F0DCC003F0DDC065
:1019500004F096EC1BF00150836E82B0F2D70B0EB0
:101960000001CB6F260ECA6F5D0EE82EFED7CA2F80
:10197000FCD7CB2FFAD700D082928294AAD4000150
:10198000DDBF05D03AD582828284000E836E82B09C
:10199000FAD70B0E0001CB6F260ECA6F5D0EE82E34
:1019A000FED7CA2FFCD7CB2FFAD700D082928294D1
:1019B000B0D7D0C0CAF0D1C0CBF00001CB51000AE3
:1019C000D8A41BD5CA51010AD8B416D6030AD8B474
:1019D00016D6060AD8B4C5D60C0AD8B445D70DD544
:1019E00042C0D9FF43C0DAFFDECFF6FFDDCFF7FFFD
:1019F0000800F550250AD8A4B4D242C0D9FF43C08C
:101A0000DAFFDE2A000EDD22000E0001E96F000E73
:101A1000E86FE8C0ECF0E9C0EDF0EA69EB69000EB0
:101A2000A16F000E14D0EC8142C0D9FF43C0DAFF91
:101A3000DE2A000EDD222ED0EC83F6D7EC85F4D71B
:101A4000EC87F2D7EC89F0D7000EA16F010EA06FE2
:101A500021D042C0D9FF43C0DAFFDECFF6FFDDCF91
:101A6000F7FF0800F550466E476A4750000AD8A4B1
:101A7000EBD74650200AD8B4E3D7030AD8B4E2D74C
:101A8000080AD8B4DBD7060AD8B4CDD71D0AD8B413
:101A9000D3D7DAD7A051A111D8B4DBD7ECB1EC93EE
:101AA00042C0D9FF43C0DAFFDECFF6FFDDCFF7FF3C
:101AB0000800F5502A0AD8A423D042C0D9FF43C059
:101AC000DAFFDE2A000EDD2244C0D9FF45C0DAFF6E
:101AD000DFCF46F0020EDE26DFCF47F0000EDD221C
:101AE00046C0D9FF47C0DAFFDECFE8F0DDCFE9F02E
:101AF000E9AF40D0EC81E86DE91FD8B0E92B3AD0CE
:101B000042C0D9FF43C0DAFFDECF08F0DDCF09F0D5
:101B100083EC17F008C0E8F009C0E9F007D042C034
:101B2000D9FF43C0DAFFDE2A000EDD22D00E466E5A
:101B3000FF0E476E42C0D9FF43C0DAFFDECFF6FF8B
:101B4000DDCFF7FF0800F550486E496A4650482639
:101B500047504922495006E10A0E485CD8B002D0ED
:101B6000010E01D0000E0001A26FA36BA251A311C0
:101B7000D8A4D5D742C0D9FF43C0DAFFDECFF6FFE5
:101B8000DDCFF7FF0800F5502E0AD8A46ED0000E66
:101B9000EB6F000EEA6F42C0D9FF43C0DAFFDE2AC6
:101BA000000EDD2242C0D9FF43C0DAFFDECFF6FFD0
:101BB000DDCFF7FF0800F5502A0AD8A41CD042C098
:101BC000D9FF43C0DAFFDE2A000EDD2244C0D9FF70
:101BD00045C0DAFFDFCF46F0020EDE26DFCF47F04A
:101BE000000EDD2246C0D9FF47C0DAFFDECFEAF0A3
:101BF000DDCFEBF03AD042C0D9FF43C0DAFFDECFF1
:101C000008F0DDCF09F083EC17F008C0EAF009C056
:101C1000EBF007D042C0D9FF43C0DAFFDE2A000E46
:101C2000DD22D00E466EFF0E476E42C0D9FF43C084
:101C3000DAFFDECFF6FFDDCFF7FF0800F550486E84
:101C4000496A4650482647504922495006E10A0E43
:101C5000485CD8B002D0010E01D0000E0001A46F84
:101C6000A56BA451A511D8A4D5D742C0D9FF43C0B4
:101C7000DAFFDECFF6FFDDCFF7FF0800F550076E85
:101C8000086A0CEC1FF007500001AC6FAC51D8B4DF
:101C900035D042C0D9FF43C0DAFFDECF46F0DDCFFA
:101CA00047F0010E4626000E472246C0F6FF47C009
:101CB000F7FF0800F550076E086A0CEC1FF007509C
:101CC0000001AD6FAD51D8B419D042C0D9FF43C0A7
:101CD000DAFFDECF46F0DDCF47F0020E4626000EDB
:101CE000472246C0F6FF47C0F7FF0800F550076ED1
:101CF000086A0CEC1FF007500001AE6F42C0D9FF1C
:101D000043C0DAFFDECFF6FFDDCFF7FF0800F55066
:101D1000640AD8B40DD042C0D9FF43C0DAFFDECF89
:101D2000F6FFDDCFF7FF0800F550690AD8A43FD0D1
:101D300042C0D9FF43C0DAFFDE2A000EDD2244C0D4
:101D4000D9FF45C0DAFFDFCF46F0020EDE26DFCF37
:101D500047F0000EDD2246C0D9FF47C0DAFFDECFD4
:101D600098F0DDCF99F0000E99BFFF0E9A6F9B6F30
:101D70009C6F9D6F9E6F9F6F40C01CF041C01DF017
:101D800098C01EF099C01FF09AC020F09BC021F0AF
:101D90009CC022F09DC023F09EC024F09FC025F07F
:101DA0003EEC14F01CC040F01DC041F01200660E65
:101DB000AC19D8A43FD042C0D9FF43C0DAFFDECF70
:101DC000F6FFDDCFF7FF0800F5CFAFF042C0D9FF37
:101DD00043C0DAFFDE2A000EDD2244C0D9FF45C031
:101DE000DAFFDFCF46F0040EDE26DFCF47F0000E2D
:101DF000DD2246C0D9FF47C0DAFFDECFA8F0DECF34
:101E0000A9F0DECFAAF0DECFABF040C02EF041C08B
:101E10002FF0A8C030F0A9C031F0AAC032F0ABC09A
:101E200033F0AFC034F072EC04F02EC040F02FC09D
:101E300041F01200AC0E016E000E026EE00E036E59
:101E4000080E046E000E066E020E056EF3EC1BF01B
:101E500001500210D8A456D042C0D9FF43C0DAFFC7
:101E6000DECF46F0DDCF47F0010E4626000E4722BA
:101E700046C0F6FF47C0F7FF0800F5CFAFF0BF0E32
:101E8000466EFF0E476E42C0D9FF43C0DAFFDECF79
:101E9000F6FFDDCFF7FF0800F550486E496A46505F
:101EA000482647504922495006E11A0E485CD8B0EE
:101EB00002D0010E01D0000E0001A66FA76BA65143
:101EC000A71144C0D9FF45C0DAFFDFCF46F0040EAA
:101ED000DE26DFCF47F0000EDD2246C0D9FF47C027
:101EE000DAFFDECFA8F0DECFA9F0DECFAAF0DECF9A
:101EF000ABF0020E42C0D9FF43C0DAFFDE26000E6F
:101F0000DD2283D742C0D9FF43C0DAFFDECFF6FF20
:101F1000DDCFF7FF0800F550250AD8A416D042C03F
:101F2000D9FF43C0DAFFDE2A000EDD22000E026E6A
:101F3000250E016E40C003F041C004F044EC1CF0DB
:101F4000000E416E010E406E120042C0D9FF43C028
:101F5000DAFFDE2A000EDD22000E416E000E406E1A
:101F6000120042C0D9FF43C0DAFFDECFF6FFDDCF5B
:101F7000F7FF0800F550016E026A40C003F041C04F
:101F800004F044EC1CF042C0D9FF43C0DAFFDE2A63
:101F9000000EDD22D5D70450800B0D6E04500424B2
:101FA000136E03BE13801350D8B40DD01328D8A4D9
:101FB00008D0000E016E000E026E000E036E000EC1
:101FC000046E038E08D0000E016E000E026E000E2D
:101FD000036E000E046E0850800B0D1A0850082482
:101FE000126E07BE12801250D8B40DD01228D8A499
:101FF00008D0000E056E000E066E000E076E000E75
:10200000086E078E08D0000E056E000E066E000EDC
:10201000076E000E086E1250D8B403D01350D8A427
:1020200009D0000E016E000E026E000E036E000E4F
:10203000046E120007500102F3CF18F0F4CF19F02C
:1020400018500E6E0F6A106A116A1950146E156AD4
:10205000166A176A06500202F3CF18F0F4CF19F08F
:1020600018500E26000E0F2210221122195014268D
:10207000000E15221622172205500302F3CF18F086
:10208000F4CF19F018500E26000E0F221022112244
:1020900019501426000E15221622172210C011F016
:1020A0000FC010F00EC00FF00E6A05500202F3CF01
:1020B00018F0F4CF19F018500E2619500F22000E08
:1020C0001022000E112206500102F3CF18F0F4CFB7
:1020D00019F018500E2619500F22000E1022000E73
:1020E000112210C011F00FC010F00EC00FF00E6AD8
:1020F00005500102F3CF18F0F4CF19F018500E2656
:1021000019500F22000E1022000E11220750020259
:10211000F3CF18F0F4CF19F01850142619501522E7
:10212000000E1622000E172206500302F3CF18F0FD
:10213000F4CF19F01850142619501522000E16224B
:10214000000E172207500302F3CF18F0F4CF19F056
:102150001850096E19500A6E0B6A0C6A0BC00CF00D
:102160000AC00BF009C00AF0096A095014260A5087
:1021700015220B5016220C5017220EC009F00FC06A
:102180000AF010C00BF011C00CF0190E05D0D89059
:102190000C320B320A320932E82EF9D709501426D4
:1021A0000A5015220B5016220C50172210C011F0A5
:1021B0000FC010F00EC00FF00E6A125013C009F0DD
:1021C0000A6A0926000E0A22820E0924186EFF0EE2
:1021D0000A20196E0FD0D8901436153616361736D9
:1021E00011BE1480D8900E360F36103611361806F0
:1021F000D8A0190616AEEFD7000E126E11AE17D08A
:10220000FF0E0E14096EFF0E0F140A6EFF0E10144F
:102210000B6E7F0E11140C6E09500A100B100C106F
:10222000D8B403D0010E126E02D014B0FBD71250F6
:10223000D8B41FD0010E1426000E15221622172224
:1022400017A017D014C009F015C00AF016C00BF083
:1022500017C00CF00C340C320B320A32093209C0B0
:1022600014F00AC015F00BC016F00CC017F0184A95
:10227000192A19BE0DD0195003E11828D8A008D08A
:10228000000E146E000E156E800E166E7F0E20D09E
:1022900019BE05D019500EE11804D8B00BD0000EAD
:1022A000146E000E156E000E166E000E176E000EE8
:1022B0000D6E0FD018C013F0FF0E1416FF0E15167A
:1022C0007F0E1616000E171613B0168ED890133008
:1022D000176E0D50171214C001F015C002F016C091
:1022E00003F017C004F012000450800B0D6E045070
:1022F00004240F6E03BE0F800F50D8B40DD00F28EA
:10230000D8A408D0000E016E000E026E000E036EFF
:10231000000E046E038E06D0000E016E000E026EDB
:10232000000E036E000E046E0850800B0E6E0D50F2
:102330000E18D8A40D8C085008240E6E07BE0E800F
:102340000E50D8B40DD00E28D8A408D0000E056EBB
:10235000000E066E000E076E000E086E078E06D089
:10236000000E056E000E066E000E076E000E086E63
:102370000F500E5CD8B022D00DAC02D0800E0D1ADA
:102380000FC010F00EC00FF010C00EF001C010F022
:1023900005C001F010C005F002C010F006C002F048
:1023A00010C006F003C010F007C003F010C007F023
:1023B00004C010F008C004F010C008F0000E106E49
:1023C0000F500EC009F00A6A095E000E0A5A0ABED2
:1023D0002CD00A5004E11A0E095CD8A026D0015076
:1023E000021003100410D8B402D0010E01D0000E68
:1023F000106E000E016E000E026E000E036E000ED7
:10240000046E0EC00FF015D010A005D0D89010307B
:102410000109106E02D0D890103201B0108E043431
:1024200004320332023201320F2A0E500F5CD8A060
:10243000EBD70DBC28D00F50D8A409D0000E016EE8
:10244000000E026E000E036E000E046E12000550A8
:10245000012606500222075003220850042204A03D
:1024600071D010A005D0D89010300109106E02D0A4
:10247000D890103201B0108E04340432033202328C
:1024800001320F2A5FD00550015C065002580750F8
:1024900003580450800A096E0850800A0958D8B0C1
:1024A00025D00150055C096E025006580A6E035093
:1024B00007580B6E045008580C6EFF0E0924016E6D
:1024C000FF0E0A20026EFF0E0B20036EFF0E0C2083
:1024D000046E800E0D1A106C1050D8A40FD0010E8F
:1024E0000126000E02220322042208D00550015EBC
:1024F0000650025A0750035A0850045A015002105D
:1025000003100410D8A41CD01050D8A419D0000E69
:10251000016E000E026E000E036E000E046E1200BD
:10252000D890013602360336043610BE018010A062
:1025300002D0D88001D0D89010360F50D8A40F0602
:1025400003AEEED7000E0E6E10AE0BD010C009F029
:102550007F0E0916D8B403D0010E0E6E02D001B062
:10256000FBD70E50D8B420D0010E0126000E022257
:102570000322042204A018D001C009F002C00AF00E
:1025800003C00BF004C00CF00C340C320B320A32D6
:10259000093209C001F00AC002F00BC003F00CC000
:1025A00004F00F28D8A40F2A0F28D8B403D00F5056
:1025B000D8A40DD0000E016E000E026E000E036E48
:1025C000000E046E0F50D8A402D0000E0D6E0FA0A6
:1025D00002D0038E01D0039ED8900F30046E0DBE42
:1025E000048E01C001F002C002F003C003F004C079
:1025F00004F012000450800B116E04500424186E75
:1026000003BE18801850D8B40DD01828D8A408D00C
:10261000000E016E000E026E000E036E000E046EC0
:10262000038E06D0000E016E000E026E000E036EC9
:10263000000E046E0850800B111A08500824196E01
:1026400007BE19801950D8B40DD01928D8A408D0C5
:10265000000E056E000E066E000E076E000E086E70
:10266000078E06D0000E056E000E066E000E076E79
:10267000000E086E0550061007100810D8A417D0D9
:10268000000E016E000E026E000E036E000E046E50
:10269000800E03127F0E04121150041201C001F0CB
:1026A00002C002F003C003F004C004F0120018508E
:1026B000D8A409D0000E016E000E026E000E036E4B
:1026C000000E046E1200195018C009F00A6A095E63
:1026D000000E0A5A7F0E0924126E000E0A20136E95
:1026E00001C00DF002C00EF003C00FF004C010F0E6
:1026F000000E016E000E026E000E036E000E046EE0
:10270000000E146E000E156E000E166E000E176E83
:10271000000E196E28D01950D8B411D0D8900D36AB
:102720000E360F361036D890013602360336043690
:1027300017BE0180D8901436153616361736055058
:102740000D5C06500E5807500F5808501058D8A06E
:1027500009D0178C05500D5E06500E5A07500F5ABF
:102760000850105A192A190E1964D5D70D500E1099
:102770000F101010D8B411D014800FD0D89001369B
:1027800002360336043617BE0180D890143615364B
:10279000163617361206D8A0130603AEEFD7000E72
:1027A000196E17AE17D0FF0E1414096EFF0E151414
:1027B0000A6EFF0E16140B6E7F0E17140C6E095066
:1027C0000A100B100C10D8B403D0010E196E02D0F1
:1027D00001B0FBD71950D8B41FD0010E0126000E4E
:1027E00002220322042204A017D001C009F002C073
:1027F0000AF003C00BF004C00CF00C340C320B32A6
:102800000A32093209C001F00AC002F00BC003F01D
:102810000CC004F0124A132A13BE10D0135003E167
:102820001228D8A00BD0000E136E1268000E016E95
:10283000000E026E000E036E000E046E13BE05D075
:10284000135011E11204D8B00ED0000E136E000E1A
:10285000126E000E016E000E026E000E036E000E70
:10286000046E000E116E12C018F018A002D0038E74
:1028700001D0039ED8901830046E0ED71EC036F0DB
:102880001FC037F020C038F021C039F022C03AF024
:1028900023C03BF024C03CF025C03DF03DAE02D04B
:1028A000010E01D0000E346E356A34503510D8B4A4
:1028B00010D03D1E3C1E3B1E3A1E391E381E371ED0
:1028C000366C000E3722382239223A223B223C2233
:1028D0003D220001EBAFEC93EBBF05D0EB5108E1DB
:1028E000EA05D8B005D0000E316E010E306E04D06E
:1028F000EAC030F0EBC031F0E8C032F0E9C033F0AC
:1029000034503510D8A402D0ECA503D03206D8A09C
:102910003306000E3F6E4F0E3E6E000E01014F6FEC
:102920007CD03E06D8A03F06000E3E24D96E010E94
:102930003F20DA6E36C001F037C002F038C003F035
:1029400039C004F03AC005F03BC006F03CC007F0C7
:102950003DC008F00A0E096E000E0A6E000E0B6EE6
:10296000000E0C6E000E0D6E000E0E6E000E0F6E41
:10297000000E106EB7EC18F001C026F002C027F070
:1029800003C028F004C029F005C02AF006C02BF0CF
:1029900007C02CF008C02DF026C013F028C014F09A
:1029A00090EC1FF01350300FDF6E3006D8A03106C8
:1029B0003206D8A0330636C001F037C002F038C066
:1029C00003F039C004F03AC005F03BC006F03CC04B
:1029D00007F03DC008F00A0E096E000E0A6E000EE8
:1029E0000B6E000E0C6E000E0D6E000E0E6E000EC5
:1029F0000F6E000E106E3DEC16F001C036F002C0F6
:102A000037F003C038F004C039F005C03AF006C012
:102A10003BF007C03CF008C03DF03FBE20D03F5027
:102A200003E13E04D8A01BD03650371038103910BF
:102A30003A103B103C103D10D8A473D731BE05D0DE
:102A4000315002E13004D8B06CD733BE08D03350D7
:102A500003E13204D8A003D00001ECB362D73450B4
:102A60003510D8A403D00001ECA517D03E06D8A09D
:102A70003F0634503510D8A404D0000E2F6E2B0E14
:102A800003D0000E2F6E2D0E2E6E000E3E24D96E3A
:102A9000010E3F20DA6E2EC0DFFF1CC011F01DC0FA
:102AA00012F0000E3E24136E010E3F20146E32C051
:102AB00015F033C016F094EC1CF011C01CF012C0DD
:102AC0001DF01200DEC02AF0DFC02BF0E0C02CF0B9
:102AD000E1C02DF01AC02AF01BC02BF01CC02CF056
:102AE0001DC02DF0810E1E6EFF0E1F6E2AC020F03D
:102AF0002BC021F02CC022F02DC023F0180E05D0E1
:102B0000D8902332223221322032E82EF9D72050B9
:102B10001E24286E000E1F20296E29BE0FD02950BA
:102B200004E1170E285CD8A009D01AC01AF01BC007
:102B30001BF01CC01CF01DC01DF0120029BE5ED091
:102B400028C01EF0FF0E1F6EFF0E206E7F0E216E3E
:102B5000000E226E1E6601D007D0223422322132AE
:102B600020321F321E2EF6D71FC024F020C025F0C1
:102B700021C026F022C027F024502A141E6E2550B2
:102B80002B141F6E26502C14206E27502D14216EEE
:102B90001E501F1020102110D8B4C7D72AC01EF015
:102BA0002BC01FF02CC020F02DC021F0200E05D02E
:102BB000D890213220321F321E32E82EF9D71E5013
:102BC0001F1020102110D8B408D024502A262550D8
:102BD0002B2226502C2227502D22241C1E6E251C11
:102BE0001F6E261C206E271C216E1E502A161F5099
:102BF0002B1620502C1621502D1636D02AC01EF030
:102C00002BC01FF02CC020F02DC021F0200E05D0CD
:102C1000D890213220321F321E32E82EF9D71E50B2
:102C20001F1020102110D8A408D0000E2A6E000E0C
:102C30002B6E000E2C6E000E16D0D8902A341E6E0D
:102C40002B341F6E2C34206E2D34216E1E501F101D
:102C500020102110D8B408D0000E2A6E000E2B6E62
:102C6000800E2C6EBF0E2D6E2AC01AF02BC01BF0EA
:102C70002CC01CF02DC01DF01200000E126E10AE04
:102C800012D0101E0F1E0E1E0D1E0C1E0B1E0A1E35
:102C9000096C000E0A220B220C220D220E220F229A
:102CA0001022010E126E08AE12D0081E071E061E5C
:102CB000051E041E031E021E016C000E02220322CA
:102CC00004220522062207220822010E121A20EEF3
:102CD00013F0070EDE6AE806FDE209500A100B1039
:102CE0000C100D100E100F101010D8B446D0010E9D
:102CF000116E0AD0D89009360A360B360C360D36CE
:102D00000E360F361036112A10AEF4D7D89013367F
:102D10001436153616361736183619361A3609503F
:102D2000015C0A5002580B5003580C5004580D50C7
:102D300005580E5006580F50075810500858D8A084
:102D400011D00950015E0A50025A0B50035A0C5020
:102D5000045A0D50055A0E50065A0F50075A10507B
:102D6000085A1380D89010320F320E320D320C32C6
:102D70000B320A320932112EC9D71250D8B410D0F2
:102D80001A1E191E181E171E161E151E141E136C51
:102D9000000E1422152216221722182219221A2296
:102DA00013C001F014C002F015C003F016C004F007
:102DB00017C005F018C006F019C007F01AC008F0D7
:102DC00012000001C46F0001C451D8A4BFAF1AD0D3
:102DD000BCC0C0F0BDC0C1F0BEC0C2F0BFC0C3F037
:102DE000C01FC11FC21FC31FC02B000EC123C2239F
:102DF000C323C0C0C6F0C1C0C7F0C2C0C8F0C3C0C2
:102E0000C9F008D0BCC0C6F0BDC0C7F0BEC0C8F095
:102E1000BFC0C9F0BC51BD11BE11BF11D8A409D0AB
:102E2000000EBC6F000EBD6F000EBE6F000EBF6FB8
:102E30001200960EC56F06D0C52BD890C933C83383
:102E4000C733C633000EC615C06F000EC715C16F5D
:102E5000000EC815C26FFE0EC915C36FC051C11157
:102E6000C211C311D8B40DD0E7D7C52B010EC627A8
:102E7000000EC723C823C923D890C933C833C7332A
:102E8000C633000EC615C06F000EC715C16F000E09
:102E9000C815C26FFF0EC915C36FC051C111C21151
:102EA000C311D8B407D0E1D7C507D890C637C73704
:102EB000C837C937C8BF03D0020EC561F5D7C5A151
:102EC000C89FD890C533C5C0C0F0C16BC26BC36B7F
:102ED000C0C0C3F0C26BC16BC06BC051C613C1513F
:102EE000C713C251C813C351C913C451D8A4BFAF2B
:102EF00001D0C98FC6C0BCF0C7C0BDF0C8C0BEF00D
:102F0000C9C0BFF01200000E166E000E156E000E46
:102F10000F6E000E0E6E02D0084A092A010E146EC2
:102F200008C0F6FF09C0F7FF0800F550200AD8B422
:102F300018D0F70E0A6EFF0E0B6E08C0F6FF09C020
:102F4000F7FF0800F5500C6E0D6A0A500C260B5066
:102F50000D220D5004E1050E0C5CD8A002D0000E2D
:102F6000146E14C010F0116A10501110D8B408D0AB
:102F7000D3D7000E0F6E010E0E6E084A092A2ED00E
:102F800008C0F6FF09C0F7FF0800F5500A6E0B6A8B
:102F90000B50000AD8A422D00A502B0AD8B4EDD77F
:102FA000060AD8B4E6D71AD015C001F016C002F050
:102FB000000E046E0A0E036E05EC20F008C0F6FF4A
:102FC00009C0F7FF0800F550015E000E025A300EEE
:102FD0000124156E000E0220166ECFD7D00E0A6E99
:102FE000FF0E0B6E08C0F6FF09C0F7FF0800F55092
:102FF0000C6E0D6A0A500C260B500D220D5006E186
:103000000A0E0C5CD8B002D0010E01D0000E126E78
:10301000136A12501310D8A4C7D70E500F10D8A49B
:103020000DD015C00AF016C00BF00A1E0B1E0A4A7E
:103030000B2A0AC008F00BC009F0120015C008F0F6
:1030400016C009F01200036E839A8388016A03AEEA
:1030500001D0012A010E01160146014601468350A6
:103060000118F70B0118836E03C001F0060E026E03
:10307000D8900132022EFCD7010E011601460146FE
:1030800083500118FB0B0118836E03C001F0050E7D
:10309000026ED8900132022EFCD7010E01160146B5
:1030A00083500118FD0B0118836E03C001F0013A33
:1030B0000F0E0116010E011683500118FE0B0118A8
:1030C000836E030EE82EFED700F0838A030EE82EEF
:1030D000FED700F0839A03C001F0D8900132D89057
:1030E0000132D8900132010E011601460146014617
:1030F00083500118F70B0118836E03C001F0D890BC
:103100000132D8900132010E01160146014683506A
:103110000118FB0B0118836E03C001F0D890013237
:10312000010E0116014683500118FD0B0118836E34
:1031300003C001F0010E011683500118FE0B0118A7
:10314000836E030EE82EFED700F0838A030EE82E6E
:10315000FED700F0839A030EE82EFED700F00F0E84
:10316000016E480EE82EFED7012EFCD71200000E8D
:10317000126E08AE12D0081E071E061E051E041E83
:10318000031E021E016C000E0222032204220522ED
:10319000062207220822010E126E10AE10D0101E59
:1031A0000F1E0E1E0D1E0C1E0B1E0A1E096C000E9D
:1031B0000A220B220C220D220E220F22102209506D
:1031C0000A100B100C100D100E100F101010D8B4A8
:1031D0003CD0010E116E0AD0D89009360A360B3653
:1031E0000C360D360E360F361036112A10AEF4D7C7
:1031F0000950015C0A5002580B5003580C500458F7
:103200000D5005580E5006580F50075810500858CA
:10321000D8A010D00950015E0A50025A0B50035A30
:103220000C50045A0D50055A0E50065A0F50075AAA
:103230001050085AD89010320F320E320D320C3224
:103240000B320A320932112ED3D71250D8B410D013
:10325000081E071E061E051E041E031E021E016C0C
:10326000000E02220322042205220622072208223F
:1032700001C001F002C002F003C003F004C004F07A
:1032800005C005F006C006F007C007F008C008F04A
:103290001200036E839A8398016A03AE01D0012A5B
:1032A000010E011601460146014683500118F70B35
:1032B0000118836E03C001F0060E026ED890013231
:1032C000022EFCD7010E011601460146835001185B
:1032D000FB0B0118836E03C001F0050E026ED8903F
:1032E0000132022EFCD7010E01160146835001184F
:1032F000FD0B0118836E03C001F0013A0F0E011699
:10330000010E011683500118FE0B0118836E030E87
:10331000E82EFED700F0838A030EE82EFED700F0D9
:10332000839A03C001F0D8900132D8900132D8902E
:103330000132010E01160146014601468350011873
:10334000F70B0118836E03C001F0D8900132D890BA
:103350000132010E01160146014683500118FB0B94
:103360000118836E03C001F0D8900132010E0116DE
:10337000014683500118FD0B0118836E03C001F054
:10338000010E011683500118FE0B0118836E030E07
:10339000E82EFED700F0838A030EE82EFED700F059
:1033A000839A0F0E016E480EE82EFED7012EFCD731
:1033B00012009596959495929590959A95988396E6
:1033C000839483928390839A83980F0E046E480EA1
:1033D000E82EFED7042EFCD70F0E046E480EE82E02
:1033E000FED7042EFCD70F0E046E480EE82EFED733
:1033F000042EFCD70F0E046E480EE82EFED7042EC6
:10340000FCD70F0E046E480EE82EFED7042EFCD714
:103410000F0E046E480EE82EFED7042EFCD7010EC8
:10342000056E8396839483828380839A83988396A0
:10343000839483828380838A8398030EE82EFED749
:1034400000F08396839483828380839A83980F0EFF
:10345000046E480EE82EFED7042EFCD7052A030E74
:103460000564DFD78396839483828390839A8398BD
:103470008396839483828390838A8398030EE82EB5
:10348000FED700F08396839483828390839A8398F7
:103490000F0E046E480EE82EFED7042EFCD7280E21
:1034A00049EC19F0100E49EC19F0010E49EC19F035
:1034B0000F0E49EC19F012000001BA51B85D5E6EB2
:1034C000BB51B9595F6E5FAE5ED05E6C5F1ED8B007
:1034D0005F2A48D0EE0E0001B06F000EB16FB20E41
:1034E000B26F080EB36FB8C0B4F0B9C0B5F0E4EC79
:1034F0001EF0610E0001B06F010EB16FC20EB26F0F
:10350000080EB36FBAC0B4F0BBC0B5F0E4EC1EF067
:10351000720E0001B06F010EB16F6B0EB26F080E2C
:10352000B36F5EC0B4F05FC0B5F0E4EC1EF0010E06
:10353000046EEE0E056E000E066E010E20EC1EF0FF
:10354000060E046E610E056E010E066E010E20EC75
:103550001EF0010E046E720E056E010E066E020E56
:1035600020EC1EF082B2B6D70B0E5D6E260E5C6E9E
:103570005E0EE82EFED75C2EFCD75D2EFAD700013A
:10358000B869B96912005EC0B8F05FC0B9F0120046
:10359000000E1A14226E000E1B14236E800E1C14D3
:1035A000246E7F0E1D14256E22502310241025102A
:1035B000D8A408D0000E1A6E000E1B6E000E1C6EF2
:1035C000000E1D6E000E1E14226E000E1F14236EC0
:1035D000800E2014246E7F0E2114256E225023109D
:1035E00024102510D8A408D0000E1E6E000E1F6EE9
:1035F000000E206E000E216E1DAE09D01A6C1B1E2F
:10360000D8B01B2A1C1ED8B01C2A800E1D5621AE15
:1036100009D01E6C1F1ED8B01F2A201ED8B0202A29
:10362000800E2156000E1A1A000E1B1A000E1C1ACC
:10363000800E1D1A000E1E1A000E1F1A000E201AF0
:10364000800E211A1E501A5C1F501B5820501C5807
:1036500021501D58D8B002D0D8901200D880120046
:10366000E2C00BF0E3C00CF0E4C00DF0E5C00EF0DA
:1036700001C00BF002C00CF003C00DF004C00EF04E
:103680000BC005F00CC006F00DC007F00EC008F02E
:10369000180E05D0D8900832073206320532E82ECF
:1036A000F9D70550096E0A6A09500A10D8A419D032
:1036B000D8900B34056E0C34066E0D34076E0E3444
:1036C000086E0550061007100810D8A405D0000E8B
:1036D000026E020E016E1200000E026E030E016EEB
:1036E000120009280A10D8A41CD00BC005F00CC089
:1036F00006F00DC007F00EC008F0090ED890053690
:10370000063607360836E82EF9D70550061007109A
:103710000810D8A402D0010E01D0000E016E026A7A
:103720001200000E026E040E016E12000334043407
:103730000A6E0A50D8A409D0000E016E000E026E67
:10374000000E036E000E046E120001C005F002C0F0
:1037500006F003C007F004C008F0200E05D0D89092
:103760000832073206320532E82EF9D70550096EC5
:10377000038EFF0E0116FF0E0216FF0E0316000E3B
:103780000416960E0A5E0AAE0DD00A50800A970FF4
:10379000D8A0D2D7D89004320332023201320A3E86
:1037A000F9D70DD01F0E0A6407D0C6D7D8900136BE
:1037B0000236033604360A060A50D8A4F7D7095051
:1037C000D8B408D0041E031E021E016C000E022293
:1037D0000322042201C001F002C002F003C003F082
:1037E00004C004F0120001C008F002C009F003C0D8
:1037F0000AF004C00BF00506D8A0060605280FE164
:103800000628D8A40CD0000E026E000E016E120025
:10381000084A092A0A4A0B2A0506D8A0060608C043
:10382000D9FF09C0DAFFDF50D8B41CD00AC0F6FFB8
:103830000BC0F7FF0800F5500009D8B413D00550AD
:103840000610D8B40FD008C0D9FF09C0DAFFDF5086
:10385000076E0AC0F6FF0BC0F7FF0800F550071807
:10386000D8B4D6D708C0D9FF09C0DAFFDF50076E39
:103870000AC0F6FF0BC0F7FF0800F550075C016EA9
:10388000026AD8A00206120003500410D8B404D073
:1038900003500410D8A404D0015034EC20F01200DE
:1038A00020EE04F00350D9260450DA22DE50DE1058
:1038B000D8B416D020EE04F00350D9260450DA22F2
:1038C00010EE02F00350E1260450E222DE50E65CE6
:1038D000E650800A096EDE50800A0958D8B01200FE
:1038E00020EE02F00350D9260450DA22DECF05F094
:1038F000DDCF06F003C0D9FF04C0DAFFDECF07F04A
:10390000DDCF08F005500724D96E06500820DA6E86
:1039100001C0DFFF20EE02F00350D9260450DA2266
:10392000DE2A000EDD2212000001ECA10AD013C035
:103930000AF014C00BF011C00CF012C00DF074ECC2
:103940001FF016BE05D015C01AF016C01BF004D02B
:10395000000E1B6E000E1A6E000E196E000E186E11
:103960000CD0000E026E200E016E11C003F012C0CA
:1039700004F044EC1CF0184A192A1A50185C19502B
:10398000800A176E1B50800A1758D8A0EAD700018A
:10399000ECB10AD013C00AF014C00BF011C00CF047
:1039A00012C00DF074EC1FF013C001F014C002F04F
:1039B000F0EC1FF01A500124116E1B500220126E01
:1039C0001200000E126E000E116E000E146E000E2C
:1039D000136E0BC011F00CC012F00DC013F00EC02E
:1039E00014F013501410D8A41ED0000E186E000E40
:1039F000176E17C083FF020E106E040E0F6EBA0E04
:103A0000E82EFED70F2EFCD7102EFAD700D0174A7B
:103A1000182A18BEEED71804D8A0EBD7000E0C6EEB
:103A2000000E0B6E120011C001F012C002F013C0A4
:103A300003F014C004F06BEC1DF001C015F002C0DF
:103A400016F015C00BF016C00CF01200000E011499
:103A5000096E000E02140A6E800E03140B6E7F0EA8
:103A600004140C6E09500A100B100C10D8A408D0C6
:103A7000000E016E000E026E000E036E000E046E4C
:103A8000000E0514096E000E06140A6E800E07144F
:103A90000B6E7F0E08140C6E09500A100B100C10E0
:103AA000D8A408D0000E056E000E066E000E076E3C
:103AB000000E086E055001180AE10650021807E1D1
:103AC0000750031804E108500418D8B402D0D89065
:103AD0001200D8801200000E066E04AE06D0036CF1
:103AE000041ED8B0042A010E066E02AE06D0016C88
:103AF000021ED8B0022A010E061A000E086E000E31
:103B0000076E03500410D8B41CD0010E056E04D00B
:103B1000D89003360436052A04AEFAD7D890073673
:103B200008360350015C04500258D8A005D0035059
:103B3000015E0450025A0780D89004320332052EE9
:103B4000EDD70650D8B404D0076C081ED8B0082AA8
:103B500007C001F008C002F01200096E0DD0045039
:103B6000800F08D00450C00F05D00450940F02D02D
:103B70000450D40F0A6E14D00950076E086A08501A
:103B8000000AD8A40DD00750010AD8B4E8D7030A18
:103B9000D8B4E8D7010AD8B4E8D7070AD8B4E8D728
:103BA0000A5049EC19F00AD005C0F6FF06C0F7FF2D
:103BB0000800F55023EC18F0054A062A05C0F6FF68
:103BC00006C0F7FF0800F5500009D8B41200ECD782
:103BD000000E066E02AE06D0016C021ED8B0022A9C
:103BE000010E066E04AE04D0036C041ED8B0042A85
:103BF00003500410D8B418D0010E056E04D0D8902C
:103C000003360436052A04AEFAD70350015C04508B
:103C10000258D8A004D00350015E0450025AD89034
:103C200004320332052EF1D70650D8B404D0016C0B
:103C3000021ED8B0022A01C001F002C002F0120038
:103C4000096E0DD00450800F08D00450C00F05D06D
:103C50000450940F02D00450D40F0A6E14D00950AF
:103C6000076E086A0850000AD8A40DD00750010A50
:103C7000D8B4E8D7030AD8B4E8D7010AD8B4E8D74B
:103C8000070AD8B4E8D70A5049EC19F009D005C0A2
:103C9000D9FF06C0DAFFDF5023EC18F0054A062AE8
:103CA00005C0D9FF06C0DAFFDF50D8B41200EFD745
:103CB0000BC001F00CC002F00DC003F00EC004F008
:103CC00005EC20F001C013F002C014F014BE23D0A4
:103CD0001404D8A020D0000E126E000E116E11C078
:103CE00083FF020E106E040E0F6EBA0EE82EFED782
:103CF0000F2EFCD7102EFAD700D00A0E1126000E78
:103D0000122212BEECD7125003E11128D8A0E7D737
:103D10000B680C68120013C00BF014C00CF01200FA
:103D20004CC050F04DC051F0000E0001E76F000E86
:103D3000E66F13D04AC040F04BC041F0500E426EC7
:103D4000000E436E4EC044F04FC045F0F0EC0CF056
:103D500040500001E6274150E72350C0F6FF51C014
:103D6000F7FF0800F5500009D8A4E4D7E6C04AF0F0
:103D7000E7C04BF0120003C007F004C008F001C018
:103D800009F002C00AF00750056E0850066E074A97
:103D9000082A05C0F6FF06C0F7FFF86A09C0D9FF78
:103DA0000AC0DAFF094A0A2A070EF76403D008009E
:103DB000F55005D0F6CFE1FFF7CFE2FFE750DF6E19
:103DC000DF50D8B41200DFD7B40E546E000E556E1B
:103DD000B0C056F0B1C057F0000E596E000E586ECC
:103DE000000E5B6E000E5A6E560E4A6E000E4B6E43
:103DF000B2C04CF0B3C04DF0540E4E6E000E4F6E7C
:103E000090EC1EF058500001B025D96E5950B121E8
:103E1000DA6E000EDF6E1200BF0E096EFF0E0A6E24
:103E200007C00BF008C00CF009500B260A500C22FA
:103E30000C5006E11A0E0B5CD8B002D0010E01D076
:103E4000000E0D6E0E6A0D500E10D8B406D0200E66
:103E50000710076E0850086E120007C007F008C070
:103E600008F01200000E1E1A000E1F1A000E201A73
:103E7000800E211A1AC001F01BC002F01CC003F012
:103E80001DC004F01EC005F01FC006F020C007F0E2
:103E900021C008F074EC11F001C01AF002C01BF050
:103EA00003C01CF004C01DF01200010E076E200EAE
:103EB00001180210D8B414D0F70E036EFF0E046E72
:103EC00001C005F002C006F003500526045006228A
:103ED000065004E1050E055CD8A002D0000E076E66
:103EE00007C001F0026A1200000E106E000E0F6E85
:103EF0000BD00EC001F0026A0CC003F00DC004F03C
:103F000044EC1CF00F4A102A0F500A24D96E1050AE
:103F10000B20DA6EDF500E6E0E50D8B41200E9D7C7
:103F200014BE05D0145010E11304D8B00DD013C046
:103F300015F014C016F0151E161E154A162A15C0C7
:103F400013F016C014F0120013C013F014C014F0D4
:103F50001200BF0E036EFF0E046E01C005F002C01A
:103F600006F00350052604500622065006E11A0EFC
:103F7000055CD8B002D0010E01D0000E016E026ABD
:103F80001200D00E036EFF0E046E01C005F002C0D9
:103F900006F00350052604500622065006E10A0EDC
:103FA000055CD8B002D0010E01D0000E016E026A8D
:103FB00012000150021003100410D8B408D0000EF3
:103FC000011A000E021A000E031A800E041A01C014
:103FD00001F002C002F003C003F004C004F01200BC
:103FE00001C003F002C004F002D0014A022A01C05D
:103FF000D9FF02C0DAFFDF50D8A4F7D70350015C25
:10400000016E04500258026E120001500302F3CFF9
:1040100005F0F4CF06F001500402F35006260250DA
:104020000302F350062605C001F006C002F012009C
:1040300001EE00F0830EEE6AE806FDE100EEDEF030
:10404000210EEE6AE806FDE1000EF86E000130EF89
:1040500009F00D500B240F6E0E500C20106E0FC087
:0A4060000BF010C00CF0120012006B
:020000040020DA
:08000000FFFFFFFFFFFFFFFF00
:020000040030CA
:0E000000000C181EFF8481FF0FC00FE00F40A0
:00000001FF
