:020000040000FA
:04000000ECEF23F00E
:1047B000120001500302F3CF05F0F4CF06F00150D0
:1047C0000402F350062602500302F350062605C0E9
:1047D00001F006C002F0120001EE00F0720EEE6A67
:1047E000E806FDE100EEC6F0300EEE6AE806FDE1F7
:1047F0005F6A5E6A000EF86E000125EF36F001C0B8
:1048000003F002C004F002D0014A022A01C0D9FF1D
:1048100002C0DAFFDF50D8A4F7D70350015C016E65
:1048200004500258026E12000150021003100410CE
:10483000D8B408D0000E011A000E021A000E031A96
:10484000800E041A01C001F002C002F003C003F0A0
:1048500004C004F01200D00E036EFF0E046E01C0FF
:1048600005F002C006F0035005260450062206504B
:1048700006E10A0E055CD8B002D0010E01D0000E90
:10488000016E026A1200BF0E036EFF0E046E01C0BD
:1048900005F002C006F0035005260450062206501B
:1048A00006E11A0E055CD8B002D0010E01D0000E50
:1048B000016E026A120014BE05D0145010E11304F8
:1048C000D8B00DD013C015F014C016F0151E161E6A
:1048D000154A162A15C013F016C014F0120013C0A2
:1048E00013F014C014F01200000E106E000E0F6EC4
:1048F0000BD00EC001F0026A0CC003F00DC004F032
:10490000F1EC26F00F4A102A0F500A24D96E1050ED
:104910000B20DA6EDF500E6E0E50D8B41200E9D7BD
:10492000010E076E200E01180210D8B414D0F70E35
:10493000036EFF0E046E01C005F002C006F00350C6
:10494000052604500622065004E1050E055CD8A099
:1049500002D0000E076E07C001F0026A1200000EBE
:104960001E1A000E1F1A000E201A800E211A1AC0DD
:1049700001F01BC002F01CC003F01DC004F01EC0FB
:1049800005F01FC006F020C007F021C008F01BECA6
:1049900030F001C01AF002C01BF003C01CF004C0CC
:1049A0001DF01200BF0E096EFF0E0A6E07C00BF05D
:1049B00008C00CF009500B260A500C220C5006E1DE
:1049C0001A0E0B5CD8B002D0010E01D0000E0D6E95
:1049D0000E6A0D500E10D8B406D0200E0710076EC8
:1049E0000850086E120007C007F008C008F0120057
:1049F000B40E546E000E556EB0C056F0B1C057F0F4
:104A0000000E596E000E586E000E5B6E000E5A6E50
:104A1000560E4A6E000E4B6EB2C04CF0B3C04DF055
:104A2000540E4E6E000E4F6E49EC25F058500001AA
:104A3000B025D96E5950B121DA6E000EDF6E12002A
:104A400003C007F004C008F001C009F002C00AF07A
:104A50000750056E0850066E074A082A05C0F6FF83
:104A600006C0F7FFF86A09C0D9FF0AC0DAFF094A91
:104A70000A2A070EF76403D00800F55005D0F6CFD8
:104A8000E1FFF7CFE2FFE750DF6EDF50D8B412004E
:104A9000DFD74CC050F04DC051F0000E0001CF6F79
:104AA000000ECE6F13D04AC040F04BC041F0500E04
:104AB000426E000E436E4EC044F04FC045F04AECCB
:104AC00033F040500001CE274150CF2350C0F6FFB5
:104AD00051C0F7FF0800F5500009D8A4E4D7CEC0B4
:104AE0004AF0CFC04BF01200096E0DD00450800F79
:104AF00008D00450C00F05D00450940F02D00450C9
:104B0000D40F0A6E14D00950076E086A0850000AC4
:104B1000D8A40DD00750010AD8B4E8D7030AD8B4F6
:104B2000E8D7010AD8B4E8D7070AD8B4E8D70A50BA
:104B300040EC29F009D005C0D9FF06C0DAFFDF50EC
:104B400062EC2AF0054A062A05C0D9FF06C0DAFF42
:104B5000DF50D8B41200EFD7000E066E02AE06D0BA
:104B6000016C021ED8B0022A010E066E04AE04D0FB
:104B7000036C041ED8B0042A03500410D8B418D013
:104B8000010E056E04D0D89003360436052A04AE13
:104B9000FAD70350015C04500258D8A004D0035047
:104BA000015E0450025AD89004320332052EF1D728
:104BB0000650D8B404D0016C021ED8B0022A01C03D
:104BC00001F002C002F01200096E0DD00450800FF7
:104BD00008D00450C00F05D00450940F02D00450E8
:104BE000D40F0A6E14D00950076E086A0850000AE4
:104BF000D8A40DD00750010AD8B4E8D7030AD8B416
:104C0000E8D7010AD8B4E8D7070AD8B4E8D70A50D9
:104C100040EC29F00AD005C0F6FF06C0F7FF0800F7
:104C2000F55062EC2AF0054A062A05C0F6FF06C0D8
:104C3000F7FF0800F5500009D8B41200ECD7000EB9
:104C4000066E04AE06D0036C041ED8B0042A010E12
:104C5000066E02AE06D0016C021ED8B0022A010E0A
:104C6000061A000E086E000E076E03500410D8B42A
:104C70001CD0010E056E04D0D89003360436052AE8
:104C800004AEFAD7D890073608360350015C0450BA
:104C90000258D8A005D00350015E0450025A078084
:104CA000D89004320332052EEDD70650D8B404D084
:104CB000076C081ED8B0082A07C001F008C002F02F
:104CC0001200000E0114096E000E02140A6E800E0E
:104CD00003140B6E7F0E04140C6E09500A100B1097
:104CE0000C10D8A408D0000E016E000E026E000E4B
:104CF000036E000E046E000E0514096E000E0614FD
:104D00000A6E800E07140B6E7F0E08140C6E09508D
:104D10000A100B100C10D8A408D0000E056E000E5F
:104D2000066E000E076E000E086E055001180AE1AF
:104D30000650021807E10750031804E10850041850
:104D4000D8B402D0D8901200D88012005EA00AD049
:104D500013C00AF014C00BF011C00CF012C00DF01B
:104D600074EC24F016BE05D015C01AF016C01BF066
:104D700004D0000E1B6E000E1A6E000E196E000E8F
:104D8000186E0CD0000E026E200E016E11C003F0E2
:104D900012C004F0F1EC26F0184A192A1A50185CD7
:104DA0001950800A176E1B50800A1758D8A0EAD7EE
:104DB0005EB00AD013C00AF014C00BF011C00CF0A2
:104DC00012C00DF074EC24F013C001F014C002F016
:104DD000FFEC23F01A500124116E1B500220126EBA
:104DE000120003500410D8B404D003500410D8A407
:104DF00004D00150D8EC23F0120020EE04F0035050
:104E0000D9260450DA22DE50DE10D8B416D020EEB7
:104E100004F00350D9260450DA2210EE02F00350B9
:104E2000E1260450E222DE50E65CE650800A096E7C
:104E3000DE50800A0958D8B0120020EE02F003506C
:104E4000D9260450DA22DECF05F0DDCF06F003C00C
:104E5000D9FF04C0DAFFDECF07F0DDCF08F0055040
:104E60000724D96E06500820DA6E01C0DFFF20EE5D
:104E700002F00350D9260450DA22DE2A000EDD2289
:104E8000120001C008F002C009F003C00AF004C01B
:104E90000BF00506D8A0060605280FE10628D8A4C1
:104EA0000CD0000E026E000E016E1200084A092A94
:104EB0000A4A0B2A0506D8A0060608C0D9FF09C071
:104EC000DAFFDF50D8B41CD00AC0F6FF0BC0F7FFE2
:104ED0000800F5500009D8B413D005500610D8B416
:104EE0000FD008C0D9FF09C0DAFFDF50076E0AC033
:104EF000F6FF0BC0F7FF0800F5500718D8B4D6D757
:104F000008C0D9FF09C0DAFFDF50076E0AC0F6FFFC
:104F10000BC0F7FF0800F550075C016E026AD8A0CD
:104F200002061200033404340A6E0A50D8A409D0D1
:104F3000000E016E000E026E000E036E000E046E77
:104F4000120001C005F002C006F003C007F004C063
:104F500008F0200E05D0D89008320732063205320C
:104F6000E82EF9D70550096E038EFF0E0116FF0ECD
:104F70000216FF0E0316000E0416960E0A5E0AAE07
:104F80000DD00A50800A970FD8A0D2D7D8900432FB
:104F90000332023201320A3EF9D70DD01F0E0A64E5
:104FA00007D0C6D7D89001360236033604360A0633
:104FB0000A50D8A4F7D70950D8B408D0041E031E4D
:104FC000021E016C000E02220322042201C001F025
:104FD00002C002F003C003F004C004F01200CAC013
:104FE0000BF0CBC00CF0CCC00DF0CDC00EF001C06A
:104FF0000BF002C00CF003C00DF004C00EF00BC0AB
:1050000005F00CC006F00DC007F00EC008F0180E39
:1050100005D0D8900832073206320532E82EF9D78B
:105020000550096E0A6A09500A10D8A419D0D89000
:105030000B34056E0C34066E0D34076E0E34086E9C
:105040000550061007100810D8A405D0000E026EF7
:10505000020E016E1200000E026E030E016E1200AF
:1050600009280A10D8A41CD00BC005F00CC006F00B
:105070000DC007F00EC008F0090ED89005360636B0
:1050800007360836E82EF9D7055006100710081025
:10509000D8A402D0010E01D0000E016E026A1200E7
:1050A000000E026E040E016E1200000E1A14226E23
:1050B000000E1B14236E800E1C14246E7F0E1D1414
:1050C000256E2250231024102510D8A408D0000EDD
:1050D0001A6E000E1B6E000E1C6E000E1D6E000E72
:1050E0001E14226E000E1F14236E800E2014246ED8
:1050F0007F0E2114256E2250231024102510D8A4D1
:1051000008D0000E1E6E000E1F6E000E206E000EE8
:10511000216E1DAE09D01A6C1B1ED8B01B2A1C1E96
:10512000D8B01C2A800E1D5621AE09D01E6C1F1E41
:10513000D8B01F2A201ED8B0202A800E2156000E7B
:105140001A1A000E1B1A000E1C1A800E1D1A000ED1
:105150001E1A000E1F1A000E201A800E211A1E5051
:105160001A5C1F501B5820501C5821501D58D8B095
:1051700002D0D8901200D8801200959695949592FE
:105180009590959A95988396839483928390839A29
:1051900083980F0E046E480EE82EFED7042EFCD71F
:1051A0000F0E046E480EE82EFED7042EFCD70F0E0D
:1051B000046E480EE82EFED7042EFCD70F0E046EA8
:1051C000480EE82EFED7042EFCD70F0E046E480EB4
:1051D000E82EFED7042EFCD70F0E046E480EE82EE4
:1051E000FED7042EFCD7010E056E8396839483822E
:1051F0008380839A83988396839483828380838A2F
:105200008398030EE82EFED700F083968394838262
:105210008380839A83980F0E046E480EE82EFED783
:10522000042EFCD7052A030E0564DFD783968394EA
:1052300083828390839A83988396839483828390D6
:10524000838A8398030EE82EFED700F0839683941A
:1052500083828390839A83980F0E046E480EE82E03
:10526000FED7042EFCD7280E40EC29F0100E40EC9F
:1052700029F0010E40EC29F00F0E40EC29F012004D
:10528000036E839A8398016A03AE01D0012A010E4E
:10529000011601460146014683500118F70B01181B
:1052A000836E03C001F0060E026ED8900132022E0A
:1052B000FCD7010E01160146014683500118FB0B75
:1052C0000118836E03C001F0050E026ED890013202
:1052D000022EFCD7010E0116014683500118FD0B6A
:1052E0000118836E03C001F0013A0F0E0116010E82
:1052F000011683500118FE0B0118836E030EE82E71
:10530000FED700F0838A030EE82EFED700F0839AC2
:1053100003C001F0D8900132D8900132D890013208
:10532000010E011601460146014683500118F70B94
:105330000118836E03C001F0D8900132D890013279
:10534000010E01160146014683500118FB0B01189E
:10535000836E03C001F0D8900132010E01160146A0
:1053600083500118FD0B0118836E03C001F0010E7C
:10537000011683500118FE0B0118836E030EE82EF0
:10538000FED700F0838A030EE82EFED700F0839A42
:105390000F0E016E480EE82EFED7012EFCD712002C
:1053A000000E126E08AE12D0081E071E061E051E45
:1053B000041E031E021E016C000E022203220422A0
:1053C0000522062207220822010E126E10AE10D00E
:1053D000101E0F1E0E1E0D1E0C1E0B1E0A1E096C2B
:1053E000000E0A220B220C220D220E220F22102266
:1053F00009500A100B100C100D100E100F10101089
:10540000D8B43CD0010E116E0AD0D89009360A36B5
:105410000B360C360D360E360F361036112A10AEFE
:10542000F4D70950015C0A5002580B5003580C5035
:1054300004580D5005580E5006580F50075810507C
:105440000858D8A010D00950015E0A50025A0B50DB
:10545000035A0C50045A0D50055A0E50065A0F505C
:10546000075A1050085AD89010320F320E320D32AF
:105470000C320B320A320932112ED3D71250D8B463
:1054800010D0081E071E061E051E041E031E021E47
:10549000016C000E022203220422052206220722AA
:1054A000082201C001F002C002F003C003F004C0F2
:1054B00004F005C005F006C006F007C007F008C0FC
:1054C00008F01200036E839A8388016A03AE01D04C
:1054D000012A010E011601460146014683500118BA
:1054E000F70B0118836E03C001F0060E026ED89010
:1054F0000132022EFCD7010E0116014601468350EF
:105500000118FB0B0118836E03C001F0050E026E3B
:10551000D8900132022EFCD7010E011601468350AD
:105520000118FD0B0118836E03C001F0013A0F0E44
:105530000116010E011683500118FE0B0118836E2F
:10554000030EE82EFED700F0838A030EE82EFED766
:1055500000F0839A03C001F0D8900132D890013254
:10556000D8900132010E01160146014601468350D2
:105570000118F70B0118836E03C001F0D8900132B7
:10558000D8900132010E01160146014683500118E0
:10559000FB0B0118836E03C001F0D8900132010E9D
:1055A0000116014683500118FD0B0118836E03C0DC
:1055B00001F0010E011683500118FE0B0118836ED5
:1055C000030EE82EFED700F0838A030EE82EFED7E6
:1055D00000F0839A030EE82EFED700F00F0E016E46
:1055E000480EE82EFED7012EFCD71200096E095096
:1055F000D8A404AE1AD001C005F002C006F003C062
:1056000007F004C008F0051E061E071E081E052A26
:10561000000E06220722082205C00BF006C00CF07F
:1056200007C00DF008C00EF008D001C00BF002C09A
:105630000CF003C00DF004C00EF001500210031076
:105640000410D8A409D0000E016E000E026E000EE8
:10565000036E000E046E1200960E0A6E06D00A2A21
:10566000D8900E320D320C320B32000E0B14056E38
:10567000000E0C14066E000E0D14076EFE0E0E14B6
:10568000086E0550061007100810D8B40DD0E7D7E3
:105690000A2A010E0B26000E0C220D220E22D89093
:1056A0000E320D320C320B32000E0B14056E000E52
:1056B0000C14066E000E0D14076EFF0E0E14086E0D
:1056C0000550061007100810D8B407D0E1D70A0615
:1056D000D8900B360C360D360E360DBE03D0020EAA
:1056E0000A60F5D70AA00D9ED8900A320AC005F0CC
:1056F000066A076A086A05C008F0076A066A056A4A
:1057000005500B1206500C1207500D1208500E12C5
:105710000950D8A404AE01D00E8E0BC001F00CC00D
:1057200002F00DC003F00EC004F01200000E166E61
:10573000000E156E000E0F6E000E0E6E02D0084A9F
:10574000092A010E146E08C0F6FF09C0F7FF080011
:10575000F550200AD8B418D0F70E0A6EFF0E0B6E63
:1057600008C0F6FF09C0F7FF0800F5500C6E0D6A7F
:105770000A500C260B500D220D5004E1050E0C5C56
:10578000D8A002D0000E146E14C010F0116A105090
:105790001110D8B408D0D3D7000E0F6E010E0E6EC4
:1057A000084A092A2ED008C0F6FF09C0F7FF0800F2
:1057B000F5500A6E0B6A0B50000AD8A422D00A508A
:1057C0002B0AD8B4EDD7060AD8B4E6D71AD015C03C
:1057D00001F016C002F0000E046E0A0E036ED9EC42
:1057E00023F008C0F6FF09C0F7FF0800F550015E7E
:1057F000000E025A300E0124156E000E0220166EA5
:10580000CFD7D00E0A6EFF0E0B6E08C0F6FF09C090
:10581000F7FF0800F5500C6E0D6A0A500C260B506D
:105820000D220D5006E10A0E0C5CD8B002D0010E1C
:1058300001D0000E126E136A12501310D8A4C7D7ED
:105840000E500F10D8A40DD015C00AF016C00BF0E2
:105850000A1E0B1E0A4A0B2A0AC008F00BC009F0E8
:10586000120015C008F016C009F01200000E126EEA
:1058700010AE12D0101E0F1E0E1E0D1E0C1E0B1E83
:105880000A1E096C000E0A220B220C220D220E2287
:105890000F221022010E126E08AE12D0081E071E33
:1058A000061E051E041E031E021E016C000E0222AF
:1058B000032204220522062207220822010E121AC0
:1058C00020EE13F0070EDE6AE806FDE209500A102A
:1058D0000B100C100D100E100F101010D8B446D075
:1058E000010E116E0AD0D89009360A360B360C36E6
:1058F0000D360E360F361036112A10AEF4D7D8906A
:1059000013361436153616361736183619361A3633
:105910000950015C0A5002580B5003580C500458AF
:105920000D5005580E5006580F5007581050085883
:10593000D8A011D00950015E0A50025A0B50035AE8
:105940000C50045A0D50055A0E50065A0F50075A63
:105950001050085A1380D89010320F320E320D3288
:105960000C320B320A320932112EC9D71250D8B478
:1059700010D01A1E191E181E171E161E151E141ED4
:10598000136C000E14221522162217221822192237
:105990001A2213C001F014C002F015C003F016C0A3
:1059A00004F017C005F018C006F019C007F01AC0BF
:1059B00008F01200C6C02AF0C7C02BF0C8C02CF0F7
:1059C000C9C02DF01AC02AF01BC02BF01CC02CF04F
:1059D0001DC02DF0810E1E6EFF0E1F6E2AC020F01E
:1059E0002BC021F02CC022F02DC023F0180E05D0C2
:1059F000D8902332223221322032E82EF9D720509B
:105A00001E24286E000E1F20296E29BE0FD029509B
:105A100004E1170E285CD8A009D01AC01AF01BC0E8
:105A20001BF01CC01CF01DC01DF0120029BE5ED072
:105A300028C01EF0FF0E1F6EFF0E206E7F0E216E1F
:105A4000000E226E1E6601D007D02234223221328F
:105A500020321F321E2EF6D71FC024F020C025F0A2
:105A600021C026F022C027F024502A141E6E255093
:105A70002B141F6E26502C14206E27502D14216ECF
:105A80001E501F1020102110D8B4C7D72AC01EF0F6
:105A90002BC01FF02CC020F02DC021F0200E05D00F
:105AA000D890213220321F321E32E82EF9D71E50F4
:105AB0001F1020102110D8B408D024502A262550B9
:105AC0002B2226502C2227502D22241C1E6E251CF2
:105AD0001F6E261C206E271C216E1E502A161F507A
:105AE0002B1620502C1621502D1636D02AC01EF011
:105AF0002BC01FF02CC020F02DC021F0200E05D0AF
:105B0000D890213220321F321E32E82EF9D71E5093
:105B10001F1020102110D8A408D0000E2A6E000EED
:105B20002B6E000E2C6E000E16D0D8902A341E6EEE
:105B30002B341F6E2C34206E2D34216E1E501F10FE
:105B400020102110D8B408D0000E2A6E000E2B6E43
:105B5000800E2C6EBF0E2D6E2AC01AF02BC01BF0CB
:105B60002CC01CF02DC01DF012001EC036F01FC04E
:105B700037F020C038F021C039F022C03AF023C0FD
:105B80003BF024C03CF025C03DF03DAE02D0010EFC
:105B900001D0000E346E356A34503510D8B410D0B0
:105BA0003D1E3C1E3B1E3A1E391E381E371E366CEB
:105BB000000E3722382239223A223B223C223D2253
:105BC0000001D3AF5E92D3BF05D0D35108E1D20517
:105BD000D8B005D0000E316E010E306E04D0D2C0A8
:105BE00030F0D3C031F0D0C032F0D1C033F03450F7
:105BF0003510D8A402D05EA403D03206D8A0330654
:105C0000000E3F6E4F0E3E6E000E01014F6F7CD0B6
:105C10003E06D8A03F06000E3E24D96E010E3F205E
:105C2000DA6E36C001F037C002F038C003F039C078
:105C300004F03AC005F03BC006F03CC007F03DC0A0
:105C400008F00A0E096E000E0A6E000E0B6E000EB2
:105C50000C6E000E0D6E000E0E6E000E0F6E000E1E
:105C6000106ED0EC29F001C026F002C027F003C06E
:105C700028F004C029F005C02AF006C02BF007C0A8
:105C80002CF008C02DF026C013F028C014F05BECF7
:105C900024F01350300FDF6E3006D8A031063206E4
:105CA000D8A0330636C001F037C002F038C003F088
:105CB00039C004F03AC005F03BC006F03CC007F024
:105CC0003DC008F00A0E096E000E0A6E000E0B6E43
:105CD000000E0C6E000E0D6E000E0E6E000E0F6E9E
:105CE000000E106E36EC2CF001C036F002C037F01A
:105CF00003C038F004C039F005C03AF006C03BF0EC
:105D000007C03CF008C03DF03FBE1FD03F5003E14C
:105D10003E04D8A01AD036503710381039103A1037
:105D20003B103C103D10D8A473D731BE05D0315084
:105D300002E13004D8B06CD733BE07D0335003E152
:105D40003204D8A002D05EB263D734503510D8A444
:105D500002D05EA417D03E06D8A03F0634503510BE
:105D6000D8A404D0000E2F6E2B0E03D0000E2F6E81
:105D70002D0E2E6E000E3E24D96E010E3F20DA6EDF
:105D80002EC0DFFF1CC011F01DC012F0000E3E241B
:105D9000136E010E3F20146E32C015F033C016F0A2
:105DA000A6EC26F011C01CF012C01DF01200045029
:105DB000800B116E04500424186E03BE1880185016
:105DC000D8B40DD01828D8A408D0000E016E000E4B
:105DD000026E000E036E000E046E038E06D0000EDF
:105DE000016E000E026E000E036E000E046E08506F
:105DF000800B111A08500824196E07BE198019501B
:105E0000D8B40DD01928D8A408D0000E056E000E05
:105E1000066E000E076E000E086E078E06D0000E8E
:105E2000056E000E066E000E076E000E086E055021
:105E3000061007100810D8A417D0000E016E000E2F
:105E4000026E000E036E000E046E800E03127F0EB3
:105E500004121150041201C001F002C002F003C08C
:105E600003F004C004F012001850D8A409D0000EAA
:105E7000016E000E026E000E036E000E046E120024
:105E8000195018C009F00A6A095E000E0A5A7F0EFE
:105E90000924126E000E0A20136E01C00DF002C01C
:105EA0000EF003C00FF004C010F0000E016E000EE3
:105EB000026E000E036E000E046E000E146E000ED5
:105EC000156E000E166E000E176E000E196E28D09D
:105ED0001950D8B411D0D8900D360E360F36103672
:105EE000D890013602360336043617BE0180D890AA
:105EF000143615361636173605500D5C06500E58FA
:105F000007500F5808501058D8A009D0178C0550CA
:105F10000D5E06500E5A07500F5A0850105A192A93
:105F2000190E1964D5D70D500E100F101010D8B4DB
:105F300011D014800FD0D8900136023603360436C3
:105F400017BE0180D890143615361636173612064D
:105F5000D8A0130603AEEFD7000E196E17AE17D0F8
:105F6000FF0E1414096EFF0E15140A6EFF0E1614A0
:105F70000B6E7F0E17140C6E09500A100B100C10CC
:105F8000D8B403D0010E196E02D001B0FBD719505E
:105F9000D8B41FD0010E0126000E022203220422D3
:105FA00004A017D001C009F002C00AF003C00BF032
:105FB00004C00CF00C340C320B320A32093209C026
:105FC00001F00AC002F00BC003F00CC004F0124A4A
:105FD000132A13BE10D0135003E11228D8A00BD0FF
:105FE000000E136E1268000E016E000E026E000E9F
:105FF000036E000E046E13BE05D0135011E112049F
:10600000D8B00ED0000E136E000E126E000E016E90
:10601000000E026E000E036E000E046E000E116E76
:1060200012C018F018A002D0038E01D0039ED890A1
:106030001830046E0ED70450800B0D6E04500424EB
:106040000F6E03BE0F800F50D8B40DD00F28D8A408
:1060500008D0000E016E000E026E000E036E000EE0
:10606000046E038E06D0000E016E000E026E000E4E
:10607000036E000E046E0850800B0E6E0D500E184D
:10608000D8A40D8C085008240E6E07BE0E800E504A
:10609000D8B40DD00E28D8A408D0000E056E000E7E
:1060A000066E000E076E000E086E078E06D0000EFC
:1060B000056E000E066E000E076E000E086E0F5085
:1060C0000E5CD8B022D00DAC02D0800E0D1A0FC0DD
:1060D00010F00EC00FF010C00EF001C010F005C09F
:1060E00001F010C005F002C010F006C002F010C0B0
:1060F00006F003C010F007C003F010C007F004C0A2
:1061000010F008C004F010C008F0000E106E0F5020
:106110000EC009F00A6A095E000E0A5A0ABE2CD0A7
:106120000A5004E11A0E095CD8A026D001500210D2
:1061300003100410D8B402D0010E01D0000E106E6E
:10614000000E016E000E026E000E036E000E046E55
:106150000EC00FF015D010A005D0D8901030010956
:10616000106E02D0D890103201B0108E0434043278
:106170000332023201320F2A0E500F5CD8A0EBD747
:106180000DBC28D00F50D8A409D0000E016E000E0F
:10619000026E000E036E000E046E12000550012602
:1061A00006500222075003220850042204A071D096
:1061B00010A005D0D89010300109106E02D0D890F0
:1061C000103201B0108E0434043203320232013234
:1061D0000F2A5FD00550015C065002580750035843
:1061E0000450800A096E0850800A0958D8B025D09A
:1061F0000150055C096E025006580A6E035007589C
:106200000B6E045008580C6EFF0E0924016EFF0E31
:106210000A20026EFF0E0B20036EFF0E0C20046E90
:10622000800E0D1A106C1050D8A40FD0010E01264C
:10623000000E02220322042208D00550015E0650FF
:10624000025A0750035A0850045A01500210031012
:106250000410D8A41CD01050D8A419D0000E016E80
:10626000000E026E000E036E000E046E1200D89037
:10627000013602360336043610BE018010A002D06B
:10628000D88001D0D89010360F50D8A40F0603AE96
:10629000EED7000E0E6E10AE0BD010C009F07F0EC0
:1062A0000916D8B403D0010E0E6E02D001B0FBD790
:1062B0000E50D8B420D0010E0126000E0222032277
:1062C000042204A018D001C009F002C00AF003C0E3
:1062D0000BF004C00CF00C340C320B320A320932D1
:1062E00009C001F00AC002F00BC003F00CC004F0BA
:1062F0000F28D8A40F2A0F28D8B403D00F50D8A441
:106300000DD0000E016E000E026E000E036E000E28
:10631000046E0F50D8A402D0000E0D6E0FA002D054
:10632000038E01D0039ED8900F30046E0DBE048EF4
:1063300001C001F002C002F003C003F004C004F089
:1063400012000450800B0D6E04500424136E03BE23
:1063500013801350D8B40DD01328D8A408D0000E41
:10636000016E000E026E000E036E000E046E038EB0
:1063700008D0000E016E000E026E000E036E000EBD
:10638000046E0850800B0D1A08500824126E07BEC8
:1063900012801250D8B40DD01228D8A408D0000E04
:1063A000056E000E066E000E076E000E086E078E5C
:1063B00008D0000E056E000E066E000E076E000E71
:1063C000086E1250D8B403D01350D8A409D0000ED0
:1063D000016E000E026E000E036E000E046E1200BF
:1063E00007500102F3CF18F0F4CF19F018500E6ED9
:1063F0000F6A106A116A1950146E156A166A176AC4
:1064000006500202F3CF18F0F4CF19F018500E2600
:10641000000E0F221022112219501426000E1522F0
:106420001622172205500302F3CF18F0F4CF19F00B
:1064300018500E26000E0F22102211221950142679
:10644000000E15221622172210C011F00FC010F0F6
:106450000EC00FF00E6A05500202F3CF18F0F4CF11
:1064600019F018500E2619500F22000E1022000E9F
:10647000112206500102F3CF18F0F4CF19F0185092
:106480000E2619500F22000E1022000E112210C0ED
:1064900011F00FC010F00EC00FF00E6A055001028F
:1064A000F3CF18F0F4CF19F018500E2619500F2220
:1064B000000E1022000E112207500202F3CF18F036
:1064C000F4CF19F01850142619501522000E162278
:1064D000000E172206500302F3CF18F0F4CF19F084
:1064E0001850142619501522000E1622000E1722DD
:1064F00007500302F3CF18F0F4CF19F01850096ECB
:1065000019500A6E0B6A0C6A0BC00CF00AC00BF033
:1065100009C00AF0096A095014260A5015220B50C6
:1065200016220C5017220EC009F00FC00AF010C03E
:106530000BF011C00CF0190E05D0D8900C320B32B4
:106540000A320932E82EF9D7095014260A501522CA
:106550000B5016220C50172210C011F00FC010F073
:106560000EC00FF00E6A125013C009F00A6A092615
:10657000000E0A22820E0924186EFF0E0A20196EE0
:106580000FD0D890143615361636173611BE148033
:10659000D8900E360F36103611361806D8A01906C8
:1065A00016AEEFD7000E126E11AE17D0FF0E0E14FE
:1065B000096EFF0E0F140A6EFF0E10140B6E7F0E85
:1065C00011140C6E09500A100B100C10D8B403D023
:1065D000010E126E02D014B0FBD71250D8B41FD0E7
:1065E000010E1426000E15221622172217A017D00E
:1065F00014C009F015C00AF016C00BF017C00CF05B
:106600000C340C320B320A32093209C014F00AC0C1
:1066100015F00BC016F00CC017F0184A192A19BE55
:106620000DD0195003E11828D8A008D0000E146E20
:10663000000E156E800E166E7F0E20D019BE05D08E
:1066400019500EE11804D8B00BD0000E146E000ED5
:10665000156E000E166E000E176E000E0D6E0FD02A
:1066600018C013F0FF0E1416FF0E15167F0E161627
:10667000000E171613B0168ED8901330176E0D50EB
:10668000171214C001F015C002F016C003F017C0B5
:1066900004F0120042C0D9FF43C0DAFFDECFF6FF9C
:1066A000DDCFF7FF0800F550250AD8A4B4D242C0C8
:1066B000D9FF43C0DAFFDE2A000EDD22000E000102
:1066C000D16F000ED06FD0C05EF0D1C05FF0D26944
:1066D000D369000EA16F000E14D05E8042C0D9FFB6
:1066E00043C0DAFFDE2A000EDD222ED05E82F6D70E
:1066F0005E84F4D75E86F2D75E88F0D7000EA16F75
:10670000010EA06F21D042C0D9FF43C0DAFFDECF17
:10671000F6FFDDCFF7FF0800F550466E476A475099
:10672000000AD8A4EBD74650200AD8B4E3D7030A0E
:10673000D8B4E2D7080AD8B4DBD7060AD8B4CDD784
:106740001D0AD8B4D3D7DAD7A051A111D8B4DBD75A
:106750005EB05E9242C0D9FF43C0DAFFDECFF6FFE3
:10676000DDCFF7FF0800F5502A0AD8A423D042C095
:10677000D9FF43C0DAFFDE2A000EDD2244C0D9FF74
:1067800045C0DAFFDFCF46F0020EDE26DFCF47F04E
:10679000000EDD2246C0D9FF47C0DAFFDECFD0F0C1
:1067A000DDCFD1F0D1AF40D05E80D06DD11FD8B059
:1067B000D12B3AD042C0D9FF43C0DAFFDECF08F078
:1067C000DDCF09F096EC2BF008C0D0F009C0D1F075
:1067D00007D042C0D9FF43C0DAFFDE2A000EDD2217
:1067E000D00E466EFF0E476E42C0D9FF43C0DAFF9F
:1067F000DECFF6FFDDCFF7FF0800F550486E496A9F
:106800004650482647504922495006E10A0E485C46
:10681000D8B002D0010E01D0000E0001A26FA36B10
:10682000A251A311D8A4D5D742C0D9FF43C0DAFFE3
:10683000DECFF6FFDDCFF7FF0800F5502E0AD8A413
:106840006ED0000ED36F000ED26F42C0D9FF43C08E
:10685000DAFFDE2A000EDD2242C0D9FF43C0DAFF94
:10686000DECFF6FFDDCFF7FF0800F5502A0AD8A4E7
:106870001CD042C0D9FF43C0DAFFDE2A000EDD2261
:1068800044C0D9FF45C0DAFFDFCF46F0020EDE2656
:10689000DFCF47F0000EDD2246C0D9FF47C0DAFF48
:1068A000DECFD2F0DDCFD3F03AD042C0D9FF43C023
:1068B000DAFFDECF08F0DDCF09F096EC2BF008C050
:1068C000D2F009C0D3F007D042C0D9FF43C0DAFFED
:1068D000DE2A000EDD22D00E466EFF0E476E42C04D
:1068E000D9FF43C0DAFFDECFF6FFDDCFF7FF0800A8
:1068F000F550486E496A465048264750492249504B
:1069000006E10A0E485CD8B002D0010E01D0000E9C
:106910000001A46FA56BA451A511D8A4D5D742C07E
:10692000D9FF43C0DAFFDECFF6FFDDCFF7FF080067
:10693000F550076E086AD2EC24F007500001AC6FE6
:10694000AC51D8B435D042C0D9FF43C0DAFFDECF56
:1069500046F0DDCF47F0010E4626000E472246C026
:10696000F6FF47C0F7FF0800F550076E086AD2EC43
:1069700024F007500001AD6FAD51D8B419D042C01A
:10698000D9FF43C0DAFFDECF46F0DDCF47F0020E7D
:106990004626000E472246C0F6FF47C0F7FF080014
:1069A000F550076E086AD2EC24F007500001AE6F74
:1069B00042C0D9FF43C0DAFFDECFF6FFDDCFF7FFDD
:1069C0000800F550640AD8B40DD042C0D9FF43C0C6
:1069D000DAFFDECFF6FFDDCFF7FF0800F550690ADA
:1069E000D8A43FD042C0D9FF43C0DAFFDE2A000E50
:1069F000DD2244C0D9FF45C0DAFFDFCF46F0020EEA
:106A0000DE26DFCF47F0000EDD2246C0D9FF47C0AB
:106A1000DAFFDECF98F0DDCF99F0000E99BFFF0EC0
:106A20009A6F9B6F9C6F9D6F9E6F9F6F40C01CF015
:106A300041C01DF098C01EF099C01FF09AC020F010
:106A40009BC021F09CC022F09DC023F09EC024F08A
:106A50009FC025F0B5EC2DF01CC040F01DC041F0EA
:106A60001200660EAC19D8A43FD042C0D9FF43C073
:106A7000DAFFDECFF6FFDDCFF7FF0800F5CFAFF08E
:106A800042C0D9FF43C0DAFFDE2A000EDD2244C037
:106A9000D9FF45C0DAFFDFCF46F0040EDE26DFCF98
:106AA00047F0000EDD2246C0D9FF47C0DAFFDECF37
:106AB000A8F0DECFA9F0DECFAAF0DECFABF040C069
:106AC0002EF041C02FF0A8C030F0A9C031F0AAC00C
:106AD00032F0ABC033F0AFC034F0BEEC3AF02EC0B1
:106AE00040F02FC041F01200AC0E016E000E026E9D
:106AF000FB0E036E7F0E046E000E066E020E056E18
:106B000041EC27F001500210D8A456D042C0D9FF62
:106B100043C0DAFFDECF46F0DDCF47F0010E462658
:106B2000000E472246C0F6FF47C0F7FF0800F5CF2A
:106B3000AFF0BF0E466EFF0E476E42C0D9FF43C096
:106B4000DAFFDECFF6FFDDCFF7FF0800F550486E25
:106B5000496A4650482647504922495006E11A0ED4
:106B6000485CD8B002D0010E01D0000E0001A66F23
:106B7000A76BA651A71144C0D9FF45C0DAFFDFCFEC
:106B800046F0040EDE26DFCF47F0000EDD2246C0C1
:106B9000D9FF47C0DAFFDECFA8F0DECFA9F0DECF05
:106BA000AAF0DECFABF0020E42C0D9FF43C0DAFF3D
:106BB000DE26000EDD2283D742C0D9FF43C0DAFFB4
:106BC000DECFF6FFDDCFF7FF0800F550250AD8A489
:106BD00016D042C0D9FF43C0DAFFDE2A000EDD2204
:106BE000000E026E250E016E40C003F041C004F09D
:106BF000F1EC26F0000E416E010E406E120042C014
:106C0000D9FF43C0DAFFDE2A000EDD22000E416EFE
:106C1000000E406E120042C0D9FF43C0DAFFDECF43
:106C2000F6FFDDCFF7FF0800F550016E026A40C0A5
:106C300003F041C004F0F1EC26F042C0D9FF43C09C
:106C4000DAFFDE2A000EDD22D5D70F0EC16E936863
:106C500094829484BDEC28F0010E40EC29F00C0ED7
:106C600040EC29F0020E5D6E040E5C6EBA0EE82E4A
:106C7000FED75C2EFCD75D2EFAD700D012D0010EC5
:106C8000046EAF0E056E7F0E066E010EE4EC25F06D
:106C9000010E046E3A0E056E7F0E066E020EE4ECD7
:106CA00025F082B2ECD7010E40EC29F0020E5D6EA9
:106CB000040E5C6EBA0EE82EFED75C2EFCD75D2E5D
:106CC000FAD700D0010E046E2B0E056E7F0E066EF5
:106CD000010EE4EC25F02CD08150016E026A036AAB
:106CE000046A000EF6EC2AF001C0BEF002C0BFF04C
:106CF00003C0C0F004C0C1F0E50E0001B06F000E8B
:106D0000B16F560EB26F7F0EB36FBEC0B4F0BFC08E
:106D1000B5F0C0C0B6F0C1C0B7F0F8EC24F0010E79
:106D2000046EE50E056E000E066E020E74EC25F084
:106D300082B2D2D7010E40EC29F0020E5D6E040E35
:106D40005C6EBA0EE82EFED75C2EFCD75D2EFAD70D
:106D500000D0060E5D6E130E5C6EAE0EE82EFED7F2
:106D60005C2EFCD75D2EFAD7010E046E0B0E056E5D
:106D70007F0E066E010EE4EC25F02CD08150016EE2
:106D8000026A036A046A000EF6EC2AF001C0C2F03F
:106D900002C0C3F003C0C4F004C0C5F0D40E0001AB
:106DA000B06F000EB16F560EB26F7F0EB36FC2C0E0
:106DB000B4F0C3C0B5F0C4C0B6F0C5C0B7F0F8ECCD
:106DC00024F0010E046ED40E056E000E066E020E47
:106DD00074EC25F082B2D2D7010E40EC29F0020EFD
:106DE0005D6E040E5C6EBA0EE82EFED75C2EFCD7EC
:106DF0005D2EFAD700D0010E046E480E056E7F0E90
:106E0000066E010EE4EC25F0030E046EBA0E056E5C
:106E10007F0E066E020EE4EC25F0150E5D6E4B0E35
:106E20005C6EBE0EE82EFED75C2EFCD75D2EFAD728
:106E300000D0010E40EC29F0020E5D6E040E5C6E77
:106E4000BA0EE82EFED75C2EFCD75D2EFAD700D006
:106E500025D081CFB8F00001B96B010E046EFB0E96
:106E6000056E7E0E066E010EE4EC25F0500E00015C
:106E7000B06F010EB16F1B0EB26F7F0EB36FB8C053
:106E8000B4F0B9C0B5F0F8EC24F0010E046E500E69
:106E9000056E010E066E020E74EC25F082B2D9D793
:106EA000010E40EC29F0020E5D6E040E5C6EBA0E0F
:106EB000E82EFED75C2EFCD75D2EFAD700D0020E4E
:106EC0005D6E040E5C6EBA0EE82EFED75C2EFCD70B
:106ED0005D2EFAD700D0020E5D6E040E5C6EBA0E07
:106EE000E82EFED75C2EFCD75D2EFAD700D000012D
:106EF000B805B911D8A48FD0010E40EC29F0020ECC
:106F00005D6E040E5C6EBA0EE82EFED75C2EFCD7CA
:106F10005D2EFAD700D06ED0BEC001F0BFC002F027
:106F2000C0C003F0C1C004F0C2C005F0C3C006F089
:106F3000C4C007F0C5C008F01BEC30F001C0BAF0C7
:106F400002C0BBF003C0BCF004C0BDF0E50E000100
:106F5000B06F000EB16FCC0EB26F7F0EB36FBEC0BC
:106F6000B4F0BFC0B5F0C0C0B6F0C1C0B7F0F8EC27
:106F700024F0D40E0001B06F000EB16FE40EB26FBA
:106F80007F0EB36FC2C0B4F0C3C0B5F0C4C0B6F0DA
:106F9000C5C0B7F0F8EC24F0610E0001B06F010E2F
:106FA000B16F8C0EB26F7F0EB36FBAC0B4F0BBC0BE
:106FB000B5F0BCC0B6F0BDC0B7F0F8EC24F0010EDF
:106FC000046EE50E056E000E066E010E74EC25F0E3
:106FD000060E046ED40E056E000E066E010E74ECE5
:106FE00025F0010E046E610E056E010E066E020E96
:106FF00074EC25F082B290D70B0E5D6E260E5C6E9F
:107000005E0EE82EFED75C2EFCD75D2EFAD7010E61
:1070100040EC29F04BD6020EB819B911D8A44CD1C6
:10702000BEC01AF0BFC01BF0C0C01CF0C1C01DF034
:10703000C2C01EF0C3C01FF0C4C020F0C5C021F004
:1070400055EC28F0D8B0A9D0010E40EC29F0020E82
:107050005D6E040E5C6EBA0EE82EFED75C2EFCD779
:107060005D2EFAD700D088D0BEC01AF0BFC01BF08A
:10707000C0C01CF0C1C01DF0C2C01EF0C3C01FF0D4
:10708000C4C020F0C5C021F0AFEC24F01AC0BAF0A3
:107090001BC0BBF01CC0BCF01DC0BDF0BAC001F0ED
:1070A000BBC002F0BCC003F0BDC004F0000E056E12
:1070B000000E066E800E076EBF0E086EA1EC31F05A
:1070C00001C0BAF002C0BBF003C0BCF004C0BDF008
:1070D000E50E0001B06F000EB16FD40EB26F7F0EDF
:1070E000B36FBEC0B4F0BFC0B5F0C0C0B6F0C1C091
:1070F000B7F0F8EC24F0D40E0001B06F000EB16FC1
:10710000E40EB26F7F0EB36FC2C0B4F0C3C0B5F06F
:10711000C4C0B6F0C5C0B7F0F8EC24F0610E0001B1
:10712000B06F010EB16F640EB26F7F0EB36FBAC055
:10713000B4F0BBC0B5F0BCC0B6F0BDC0B7F0F8EC61
:1071400024F0010E046EE50E056E000E066E010EB3
:1071500074EC25F0060E046ED40E056E000E066E5D
:10716000010E74EC25F0010E046E610E056E010E29
:10717000066E020E74EC25F082B276D70B0E5D6EB1
:10718000260E5C6E5E0EE82EFED75C2EFCD75D2EC2
:10719000FAD7010E40EC29F089D5010E40EC29F018
:1071A000020E5D6E040E5C6EBA0EE82EFED75C2EEB
:1071B000FCD75D2EFAD700D06ED0BEC01AF0BFC08B
:1071C0001BF0C0C01CF0C1C01DF0C2C01EF0C3C087
:1071D0001FF0C4C020F0C5C021F0AFEC24F01AC0ED
:1071E000BAF01BC0BBF01CC0BCF01DC0BDF0E50E6A
:1071F0000001B06F000EB16FD40EB26F7F0EB36F8F
:10720000BEC0B4F0BFC0B5F0C0C0B6F0C1C0B7F0EA
:10721000F8EC24F0D40E0001B06F000EB16FE40E54
:10722000B26F7F0EB36FC2C0B4F0C3C0B5F0C4C0BC
:10723000B6F0C5C0B7F0F8EC24F0610E0001B06FF5
:10724000010EB16F7F0EB26F7F0EB36FBAC0B4F094
:10725000BBC0B5F0BCC0B6F0BDC0B7F0F8EC24F0D0
:10726000010E046EE50E056E000E066E010E74EC46
:1072700025F0060E046ED40E056E000E066E010E8D
:1072800074EC25F0010E046E610E056E010E066EA3
:10729000020E74EC25F082B290D70B0E5D6E260EB6
:1072A0005C6E5E0EE82EFED75C2EFCD75D2EFAD704
:1072B000010E40EC29F0FAD4040EB819B911D8A483
:1072C0008FD0010E40EC29F0020E5D6E040E5C6E54
:1072D000BA0EE82EFED75C2EFCD75D2EFAD700D072
:1072E0006ED0BEC001F0BFC002F0C0C003F0C1C08C
:1072F00004F0C2C005F0C3C006F0C4C007F0C5C0AA
:1073000008F0A1EC31F001C0BAF002C0BBF003C03C
:10731000BCF004C0BDF0E50E0001B06F000EB16F0F
:10732000C40EB26F7F0EB36FBEC0B4F0BFC0B5F075
:10733000C0C0B6F0C1C0B7F0F8EC24F0D40E000124
:10734000B06F000EB16FE40EB26F7F0EB36FC2C0AC
:10735000B4F0C3C0B5F0C4C0B6F0C5C0B7F0F8EC27
:1073600024F0610E0001B06F010EB16F980EB26F84
:107370007F0EB36FBAC0B4F0BBC0B5F0BCC0B6F0FE
:10738000BDC0B7F0F8EC24F0010E046EE50E056EFA
:10739000000E066E010E74EC25F0060E046ED40E7F
:1073A000056E000E066E010E74EC25F0010E046EE3
:1073B000610E056E010E066E020E74EC25F082B2AF
:1073C00090D70B0E5D6E260E5C6E5E0EE82EFED71D
:1073D0005C2EFCD75D2EFAD7010E40EC29F066D466
:1073E000080EB819B911D8A424D5BEC001F0BFC089
:1073F00002F0C0C003F0C1C004F0C2C005F0C3C0B9
:1074000006F0C4C007F0C5C008F0D7EC2EF001C0EC
:10741000BAF002C0BBF003C0BCF004C0BDF0C2C0F3
:1074200001F0C3C002F0C4C003F0C5C004F0000EF8
:10743000056E000E066E000E076E000E086E61EC03
:1074400026F0D8B00AD088D0030E046E720E056EF6
:107450007F0E066E010EE4EC25F082B2F5D70B0E1E
:107460005D6E260E5C6E5E0EE82EFED75C2EFCD79F
:107470005D2EFAD7010E40EC29F018D4BEC001F001
:10748000BFC002F0C0C003F0C1C004F0C2C005F02C
:10749000C3C006F0C4C007F0C5C008F0D7EC2EF09A
:1074A00001C0BAF002C0BBF003C0BCF004C0BDF024
:1074B000E50E0001B06F000EB16FDC0EB26F7F0EF3
:1074C000B36FBEC0B4F0BFC0B5F0C0C0B6F0C1C0AD
:1074D000B7F0F8EC24F0D40E0001B06F000EB16FDD
:1074E000E40EB26F7F0EB36FC2C0B4F0C3C0B5F08C
:1074F000C4C0B6F0C5C0B7F0F8EC24F0610E0001CE
:10750000B06F010EB16FA40EB26F7F0EB36FBAC031
:10751000B4F0BBC0B5F0BCC0B6F0BDC0B7F0F8EC7D
:1075200024F0010E046EE50E056E000E066E010ECF
:1075300074EC25F0060E046ED40E056E000E066E79
:10754000010E74EC25F0010E046E610E056E010E45
:10755000066E020E74EC25F082B290D70B0E5D6EB3
:10756000260E5C6E5E0EE82EFED75C2EFCD75D2EDE
:10757000FAD7010E40EC29F056EF36F0000E00016C
:107580007B6F000E7A6F30C08CF031C08DF032C04E
:107590008EF033C08FF08FAF16D0000E7B6F010ED0
:1075A0007A6F8CC001F08DC002F08EC003F08FC0E6
:1075B00004F014EC24F001C08CF002C08DF003C084
:1075C0008EF004C08FF0000E0001936F000E926FDA
:1075D000D0C07FF0D1C080F07A517B11D8A402D006
:1075E0005EA413D07A517B11D8A404D0000E656F2D
:1075F0002B0E03D0000E656F2D0E646F64C000F17A
:10760000924B932B7F07D8A080078CC001F08DC0D0
:1076100002F08EC003F08FC004F0EFEC27F00104FD
:107620000210D8A44CD0BF0E356EFF0E366E34500B
:10763000376E386A3550372636503822385006E1D2
:107640001A0E375CD8B002D0010E01D0000E000136
:10765000666F676B66516711D8B40DD0000E922526
:10766000016E010E9321026EEB0E036E7F0E046E0F
:1076700020EC25F00CD0000E9225016E010E932116
:10768000026EF30E036E7F0E046E20EC25F00001F7
:10769000FD0E7F27FF0E80232EC011F02FC012F0A9
:1076A000000E136E010E146E7FC015F080C016F030
:1076B000A6EC26F011C02EF012C02FF012008CC0E4
:1076C00001F08DC002F08EC003F08FC004F0EFEC2B
:1076D00027F001500210D8A435D0BF0E356EFF0E32
:1076E000366E3450376E386A355037263650382269
:1076F000385006E11A0E375CD8B002D0010E01D026
:10770000000E0001686F696B68516911D8B40DD023
:10771000000E9225016E010E9321026EEF0E036E94
:107720007F0E046E20EC25F0B2D7000E9225016E7C
:10773000010E9321026EF70E036E7F0E046E20EC95
:1077400025F0A5D7000E0001946F000E956F800EF6
:10775000966F3F0E976F000E916F000E906F8CC06A
:1077600001F08DC002F08EC003F08FC004F0000E57
:10777000056E000E066E000E076E000E086E61ECC0
:1077800026F0D8A01ED076D094C001F095C002F0AB
:1077900096C003F097C004F0000E056E000E066E52
:1077A000200E076E410E086EA1EC31F001C094F07E
:1077B00002C095F003C096F004C097F00001904B12
:1077C000912B8CC01AF08DC01BF08EC01CF08FC0A6
:1077D0001DF0000E056E000E066E200E076E410EA7
:1077E000086E94C001F095C002F096C003F097C0F7
:1077F00004F0A1EC31F001C01EF002C01FF003C084
:1078000020F004C021F055EC28F0D8A01FD0BCD740
:1078100094C001F095C002F096C003F097C004F048
:10782000000E056E000E066E200E076E410E086EED
:10783000D7EC2EF001C094F002C095F003C096F092
:1078400004C097F000019007D8A091078CC01AF0EF
:107850008DC01BF08EC01CF08FC01DF094C01EF0B8
:1078600095C01FF096C020F097C021F055EC28F08D
:10787000D8A0CED734C007F0086AD2EC24F0075065
:107880000001816F81C07EF0670E8119D8A419D0E4
:10789000D251D311D8A404D0000ED36F010ED26FF1
:1078A000D3BF05D0D35108E1D205D8B005D0000E22
:1078B0007D6F060E7C6F08D0D2C07CF0D3C07DF007
:1078C00003D0D3AFF9D7F3D7670E8119D8A422D04C
:1078D00091AF06D0FC0E905DFF0E9159D8A018D044
:1078E000FF0E356EFF0E366E7CC037F07DC038F06F
:1078F00035503726365038229051375C3850800A40
:10790000396E9151800A3958D8A002D0660E01D044
:10791000650E7E6F7CC074F07DC075F0670E8119B6
:10792000D8A405D0660E7E19D8B491AF02D0744B9E
:10793000752B660E7E19D8A416D091AF0CD0000E10
:10794000946F000E956F800E966F3F0E976F000E2E
:10795000916F000E906F670E8119D8B404D09051CA
:10796000742791517523000E8B6F000E8A6F8CC0A7
:1079700082F08DC083F08EC084F08FC085F094C0FB
:1079800060F095C061F096C062F097C063F07BD064
:1079900082C001F083C002F084C003F085C004F00F
:1079A00094C005F095C006F096C007F097C008F0A7
:1079B000D7EC2EF001C01AF002C01BF003C01CF07F
:1079C00004C01DF0DAEC2CF01AC086F01BC087F062
:1079D0001CC088F01DC089F086C001F087C002F08D
:1079E00088C003F089C004F092EC27F001C078F061
:1079F00002C079F082C01AF083C01BF084C01CF072
:107A000085C01DF094C005F095C006F096C007F043
:107A100097C008F086C001F087C002F088C003F06C
:107A200089C004F0A1EC31F001C01EF002C01FF0CB
:107A300003C020F004C021F0AFEC24F01AC082F0A3
:107A40001BC083F01CC084F01DC085F094C001F001
:107A500095C002F096C003F097C004F0000E056ECA
:107A6000000E066E200E076E410E086ED7EC2EF04B
:107A700001C094F002C095F003C096F004C097F0E6
:107A800000018A4B8B2B74518A5D8B51800A356EB5
:107A90007551800A3558D8A07BD794C001F095C0A5
:107AA00002F096C003F097C004F0000E056E000EC1
:107AB000066EA00E076E400E086EA1EC31F001C0FC
:107AC00086F002C087F003C088F004C089F082C04D
:107AD0001AF083C01BF084C01CF085C01DF086C066
:107AE0001EF087C01FF088C020F089C021F055EC3F
:107AF00028F0D8B003D0000E000118D082C001F0E9
:107B000083C002F084C003F085C004F086C005F095
:107B100087C006F088C007F089C008F061EC26F045
:107B2000D8A00BD0000178B108D0000E866F000EEF
:107B3000876F000E886F000E896F8CC001F08DC0BA
:107B400002F08EC003F08FC004F086C005F087C03D
:107B500006F088C007F089C008F01BEC30F001C0C7
:107B600082F002C083F003C084F004C085F060C0DE
:107B700094F061C095F062C096F063C097F0650E16
:107B800000017E19D8B405D090C076F091C077F08E
:107B900004D0000E776F000E766F000E736F000E2C
:107BA000726F000E716F000E706F000E8B6F000E03
:107BB0008A6FC7D082C001F083C002F084C003F096
:107BC00085C004F094C005F095C006F096C007F09B
:107BD00097C008F0D7EC2EF001C01AF002C01BF0DD
:107BE00003C01CF004C01DF0DAEC2CF01AC086F0C3
:107BF0001BC087F01CC088F01DC089F086C001F052
:107C000087C002F088C003F089C004F092EC27F02E
:107C100001C078F002C079F05EB80DD00001785153
:107C20007911D8A408D0670E8119D8B477AF03D0E2
:107C3000704B712B3AD0000172517311D8B477AFE9
:107C400022D0000E9225D96E010E9321DA6E2E0EEF
:107C5000DF6E924B932B7F07D8A08007000E736FC7
:107C6000010E726F10D0000E9225D96E010E932175
:107C7000DA6E300EDF6E924B932B7F07D8A0800711
:107C80007007D8A0710770517111D8A4ECD7000EFD
:107C90009225D96E010E9321DA6E7851300FDF6E86
:107CA000924B932B7F07D8A0800782C01AF083C025
:107CB0001BF084C01CF085C01DF094C005F095C079
:107CC00006F096C007F097C008F086C001F087C0A4
:107CD00002F088C003F089C004F0A1EC31F001C0CB
:107CE0001EF002C01FF003C020F004C021F0AFEC72
:107CF00024F01AC082F01BC083F01CC084F01DC0A9
:107D000085F094C001F095C002F096C003F097C0D2
:107D100004F0000E056E000E066E200E076E410E7A
:107D2000086ED7EC2EF001C094F002C095F003C0AD
:107D300096F004C097F000017607D8A077078A4B29
:107D40008B2B74518A5D8B51800A356E7551800A78
:107D50003558D8B008D093BF2DD7935104E14B0EBE
:107D6000925DD8A027D772517311D8B45EA80AD0FB
:107D7000000E9225D96E010E9321DA6E2E0EDF6E63
:107D8000924B932B000E9225D96E010E9321DA6E41
:107D9000000EDF6E650E7E19D8A47ED4000E8B6FA8
:107DA0004F0E8A6F000E8A25D96E010E8B21DA6E76
:107DB000000EDF6E000E7B6F000E7A6F91AF08D061
:107DC000000E7B6F010E7A6F906D911FD8B0912BD2
:107DD000000E7D6F020E7C6F2BD08A07D8A08B0718
:107DE000000E8A25D96E010E8B21DA6E90C001F04B
:107DF00091C002F0000E046E0A0E036EACEC25F08A
:107E00000150300FDF6E90C001F091C002F0000E03
:107E1000046E0A0E036E1FEC26F001C090F002C043
:107E200091F000017C07D8A07D077F07D8A08007CC
:107E300090519111D8A4D1D77DBF05D07D51CDE10E
:107E40007C05D8B0CAD78A07D8A08B077A517B1196
:107E5000D8A404D0000E6B6F2B0E03D0000E6B6FF6
:107E60002D0E6A6F000E8A25D96E010E8B21DA6EF7
:107E70006AC0DFFF7F07D8A080078A07D8A08B07DA
:107E8000BF0E356EFF0E366E3450376E386A355081
:107E9000372636503822385006E11A0E375CD8B0F3
:107EA00002D0010E01D0000E6E6F6F6B6E516F111C
:107EB000D8A404D0000E6D6F650E03D0000E6D6F58
:107EC000450E6C6F000E8A25D96E010E8B21DA6E7D
:107ED0006CC0DFFF7F07D8A08007000E9225016EDF
:107EE000010E9321026E000E8A25036E010E8B2176
:107EF000046E20EC25F04CEF3BF000313D2B20329E
:107F00003D2D20343D2A20383D2F00536567756E86
:107F1000646F2064696769746F3A0053656C6563C8
:107F200063696F6E3A2025303364005072696D6565
:107F3000722064696769746F3A002A43616C6375E3
:107F40006C61646F72612A0053656C656363696F6D
:107F50006E61206C61004E756D65726F3A20253040
:107F60002E33660052657374613D202D25302E330B
:107F7000660053594E544158204552524F520052B8
:107F8000657374613D2025302E33660053756D6135
:107F90003D2025302E3366004D756C743D20253014
:107FA0002E3366004469763D2025302E336600422C
:107FB00069656E76656E69646F004F7065726163A6
:107FC000696F6E0025302E3066202A0025302E3055
:107FD00066202B0025302E3066202D0025302E30D7
:107FE00066202F002025302E306600494E46004E78
:0F7FF000414E00696E66006E616E006C660000A7
:020000040020DA
:08000000FFFFFFFFFFFFFFFF00
:020000040030CA
:0E000000000C181EFF8481FF0FC00FE00F40A0
:00000001FF
