:040000000CEF00F011
:10000800FACF01F0FBCF02F0E9CF03F00EED00F0DC
:1000180070EF00F00600EACF04F0E1CF05F0E2CF80
:1000280006F0D9CF07F0DACF08F0F3CF09F0F4CF14
:100038000AF0F6CF0BF0F7CF0CF0F8CF0DF0F5CFB4
:100048000EF09EA20DD00FC0BEFF10A002D0BD8A38
:1000580001D0BD9A10A002D0BD8801D0BD989E9253
:100068000EC0F5FF0DC0F8FF0CC0F7FF0BC0F6FF80
:100078000AC0F4FF09C0F3FF08C0DAFF07C0D9FFC0
:1000880006C0E2FF05C0E1FF04C0EAFF03C0E9FFC4
:1000980002C0FBFF01C0FAFF11000E0EC16E928074
:1000A80094940E0EC06E030EC26ECB68070ECA6E15
:1000B8000C0EBD6E000EBE6EBD9ABD98F28EF28C0F
:1000C800D09E9E929F829D82C2B2FED7C4CF0FF06F
:1000D800C3CF10F0C282F8D7106A0F6A000151EF3F
:0200E80000F026
:020000040020DA
:08000000FFFFFFFFFFFFFFFF00
:020000040030CA
:0E0000000002181EFF8080FF0FC00FE00F40AF
:00000001FF
