:040000000CEF00F011
:10000800FACF01F0FBCF02F0E9CF03F00EED00F0DC
:100018005DEF00F00600EACF04F0E1CF05F0E2CF93
:1000280006F0D9CF07F0DACF08F0F3CF09F0F4CF14
:100038000AF0F6CF0BF0F7CF0CF0F8CF0DF0F5CFB4
:100048000EF0F2A406D0832A480ED76EE50ED66EBF
:10005800F2940EC0F5FF0DC0F8FF0CC0F7FF0BC0FF
:10006800F6FF0AC0F4FF09C0F3FF08C0DAFF07C0B3
:10007800D9FF06C0E2FF05C0E1FF04C0EAFF03C0E4
:10008800E9FF02C0FBFF01C0FAFF11000F0EC16EAD
:10009800000E956E000E836E480ED76EE50ED66E76
:1000A800970ED56EF28EF28CD09EF294F184F28A7D
:0800B800FFD700014AEF00F040
:020000040020DA
:08000000FFFFFFFFFFFFFFFF00
:020000040030CA
:0E0000000002181EFF8080FF0FC00FE00F40AF
:00000001FF
