:020000040000FA
:0400000040EF00F0DD
:06000800538258ED21F0C7
:100018005380D8CF07F0E8CF08F0E0CF09F0F0A080
:1000280023D0F090000E0B6E000E0A6E000E8C6E40
:1000380019D00AC08CFF0A4A0B2A020E066E040E5B
:10004800056EBA0EE82EFED7052EFCD7062EFAD777
:1000580000D00BBE07D00B04D8A004D0000E0B6E46
:10006800000E0A6E81A2E5D709C0E0FF08C0E8FFCC
:0C00780007C0D8FF53901000A1EF21F04A
:100800000000000000DCCFD1350000000000C01562
:100810003F6042A20D70A5EC363BAAB83F4F387638
:100820003F3CAA38338CBEBF350072313F1872315D
:100830003F4CBB31330EEADDB555B38A38610B3618
:10084000BBABAA2A3E42F1533E55326C3E05A38B08
:100850003EABAAAA3EB76DDB3E9A99193F6042A211
:100860000DCAF249710000804B0000803F0000C0BB
:0F0870003F00AAB83FC623F6B80040763F00000D
:100880008DC0B8F18EC0B9F18FC0BAF190C0BBF184
:10089000B8C160F1B9C161F1BAC162F1BBC163F124
:1008A00091C0B8F192C0B9F193C0BAF194C0BBF154
:1008B000B8C17CF1B9C17DF1BAC17EF1BBC17FF194
:1008C000FF0E01016015A86FFF0E6115A96FFF0EE5
:1008D0006215AA6F7F0E6315AB6FFF0E7C15906FCC
:1008E000FF0E7D15916FFF0E7E15926F7F0E7F15A7
:1008F000936F9051911192119311D8A40AD0000EC8
:1009000000018D6F000E8E6F800E8F6F3F0E906F07
:100910001200800E621910E13F0E6319601161111F
:10092000D8A40AD0000E00018D6F000E8E6F800ECD
:100930008F6F3F0E906F1200ABBF09D0A805000E5D
:10094000A959800EAA597F0EAB59D8B00BD093BFCE
:1009500024D09005000E9159800E92597F0E935924
:10096000D8A01BD08DC00CF08EC00DF08FC00EF043
:1009700090C00FF091C010F092C011F093C012F02F
:1009800094C013F0CCEC1BF00CC08DF00DC08EF0B9
:100990000EC08FF00FC090F01200000E506F000ECE
:1009A000516F000E526F000E536F63AFB1D093BF03
:1009B0000ED0800E925D4B0E9359D8A008D0020E37
:1009C000506F000E516F000E526F000EA0D093BFFB
:1009D0009FD0800E925D3F0E9359D8A099D0170EEC
:1009E0000001956F90C196F091C197F092C198F077
:1009F00093C199F0956701D007D099359933983311
:100A000097339633952FF6D7810E00019625010175
:100A1000A06FFF0E000197210101A16FFF0E0001E1
:100A200098210101A26FFF0E000199210101A36F1E
:100A3000A05117080001956F90C196F091C197F0F1
:100A400092C198F093C199F0956701D007D099357C
:100A50009933983397339633952FF6D796C0ACF1E8
:100A600097C0ADF198C0AEF199C0AFF10101A051AE
:100A700017080001956FACC196F0ADC197F0AEC1FB
:100A800098F0AFC199F0952B05D0D890963797374D
:100A900098379937952FF9D7010190510001961990
:100AA00037E1010191510001971932E101019251A1
:100AB000000198192DE10101935100019919D8A461
:100AC00027D0010E0101AC150001956F000E010148
:100AD000AD150001966F000E0101AE150001976F74
:100AE000000E0101AF150001986F95510208010138
:100AF000506F000E000196550101516F000E00016C
:100B000097550101526F000E000198550101536F76
:100B1000800E0101921958E17F0E931990119111E5
:100B2000D8A452D0800EAA1910E13F0EAB19A8111B
:100B3000A911D8A40AD0000E00018D6F000E8E6F8F
:100B4000800E8F6F3F0E906F1200ABBF1ED0A805B6
:100B5000000EA959800EAA593F0EAB59D8A015D046
:100B60007FAF0AD0000E00018D6F000E8E6F000E59
:100B70008F6F000E906F120091C08DF092C08EF0BA
:100B800093C08FF094C090F012007FAF13D091C04B
:100B90000CF092C00DF093C00EF094C00FF0D6ECA4
:100BA00021F00CC08DF00DC08EF00EC08FF00FC084
:100BB00090F01200000E00018D6F000E8E6F000E7F
:100BC0008F6F000E906F1200800E92192CE13F0E75
:100BD000931990119111D8A426D07FAF1BD0000E8D
:100BE0003D6E000E3E6E800E3F6E3F0E406E8DC01D
:100BF00041F08EC042F08FC043F090C044F052EC00
:100C00001DF03DC08DF03EC08EF03FC08FF040C063
:100C100090F012008DC08DF08EC08EF08FC08FF0DE
:100C200090C090F01200400E7F197C117D117E1152
:100C3000D8A41BD08DC01CF08EC01DF08FC01EF03C
:100C400090C01FF08DC020F08EC021F08FC022F028
:100C500090C023F023EC1AF01CC08DF01DC08EF064
:100C60001EC08FF01FC090F012003F0E7F197C1144
:100C70007D117E11D8B463BF13D08DC049F08EC0F2
:100C80004AF08FC04BF090C04CF00BEC18F049C00C
:100C90008DF04AC08EF04BC08FF04CC090F0120027
:100CA0008DC00CF08EC00DF08FC00EF090C00FF014
:100CB000BCEC21F00CC070F10DC071F10EC072F1EE
:100CC0000FC073F1800E0101AA1906E17F0EAB1966
:100CD000A811A911D8B40FD0A851A911AA11AB110C
:100CE000D8B409D0800EAA1905E13F0EAB19A8119E
:100CF000A911D8A4B5D070C1B4F171C1B5F172C158
:100D0000B6F173C1B7F17FAF1AD0000E3D6E000E81
:100D10003E6E800E3F6E3F0E406EB4C141F0B5C1D5
:100D200042F0B6C143F0B7C144F052EC1DF03DC0F3
:100D3000B4F13EC0B5F13FC0B6F140C0B7F101011A
:100D400063AF85D0000EA8250001956F000E01014C
:100D5000A9210001966F800E0101AA210001976F61
:100D6000C00E0101AB210001986F0101505100013B
:100D70009511996F01015151000196119A6F01016E
:100D80005251000197119B6F0101535100019811BD
:100D90009C6F99519A119B119C11D8A43FD0B4C15A
:100DA00039F0B5C13AF0B6C13BF0B7C13CF0B4C1BF
:100DB00035F0B5C136F0B6C137F0B7C138F07EECCA
:100DC00021F035C03DF036C03EF037C03FF038C0AE
:100DD00040F0B4C139F0B5C13AF0B6C13BF0B7C18B
:100DE0003CF0B4C135F0B5C136F0B6C137F0B7C18B
:100DF00038F07EEC21F035C041F036C042F037C00B
:100E000043F038C044F052EC1DF03DC0B4F13EC098
:100E1000B5F13FC0B6F140C0B7F119D0010150059E
:100E2000511152115311D8A412D0B4C10CF0B5C154
:100E30000DF0B6C10EF0B7C10FF0D6EC21F00CC02A
:100E4000B4F10DC0B5F10EC0B6F10FC0B7F1B4C129
:100E50008DF0B5C18EF0B6C18FF0B7C190F0120021
:100E6000000E886F000E896F800E8A6F3F0E8B6FA9
:100E700063AF53D05051511152115311D8A43FD0E8
:100E80008DC039F08EC03AF08FC03BF090C03CF07E
:100E90008DC035F08EC036F08FC037F090C038F07E
:100EA0007EEC21F035C03DF036C03EF037C03FF05B
:100EB00038C040F08DC039F08EC03AF08FC03BF0A2
:100EC00090C03CF08DC035F08EC036F08FC037F04A
:100ED00090C038F07EEC21F035C041F036C042F0D1
:100EE00037C043F038C044F052EC1DF03DC08DF0E7
:100EF0003EC08EF03FC08FF040C090F01200500511
:100F0000511152115311D8A408D0000E886F000E51
:100F1000896F800E8A6FBF0E8B6F93BF6BD2900567
:100F2000000E9159000E92594D0E9359D8A062D2DD
:100F3000ABBF0AD0F80EA85DFF0EA9597F0EAA59C3
:100F40003F0EAB59D8B06CD07FBF35D0600E206E4D
:100F5000420E216EA20E226E0D0E236E88C11CF071
:100F600089C11DF08AC11EF08BC11FF023EC1AF05D
:100F70001CC0A4F11DC0A5F11EC0A6F11FC0A7F1A1
:100F8000A4C11CF0A5C11DF0A6C11EF0A7C11FF091
:100F9000600E206E420E216EA20E226E0D0E236E8A
:100FA00023EC1AF01CC08DF01DC08EF01EC08FF017
:100FB0001FC090F01200CA0E206EF20E216E490E74
:100FC000226E710E236E88C11CF089C11DF08AC18A
:100FD0001EF08BC11FF023EC1AF01CC0A4F11DC041
:100FE000A5F11EC0A6F11FC0A7F1A4C11CF0A5C1A8
:100FF0001DF0A6C11EF0A7C11FF0CA0E206EF20E92
:10100000216E490E226E710E236E23EC1AF01CC065
:101010008DF01DC08EF01EC08FF01FC090F012002A
:10102000ABBF7DD0080EA85D000EA959800EAA594D
:101030003F0EAB59D8A073D07FBF07D07F517E1130
:101040007D1138E17C05D8B035D0600E206E420E9F
:10105000216EA20E226E0D0E236E88C11CF089C176
:101060001DF08AC11EF08BC11FF023EC1AF01CC0CA
:10107000A4F11DC0A5F11EC0A6F11FC0A7F1A4C117
:101080001CF0A5C11DF0A6C11EF0A7C11FF0600E87
:10109000206E420E216EA20E226E0D0E236E23ECE8
:1010A0001AF01CC08DF01DC08EF01EC08FF01FC046
:1010B00090F01200CA0E206EF20E216E490E226EC2
:1010C000710E236E88C11CF089C11DF08AC11EF00B
:1010D0008BC11FF023EC1AF01CC0A4F11DC0A5F1B8
:1010E0001EC0A6F11FC0A7F1A4C11CF0A5C11DF030
:1010F000A6C11EF0A7C11FF0CA0E206EF20E216E0F
:10110000490E226E710E236E23EC1AF01CC08DF076
:101110001DC08EF01EC08FF01FC090F0120070C175
:101120000CF071C10DF072C10EF073C10FF0000E22
:10113000106E000E116E800E126EBF0E136ECCEC90
:101140001BF00CC0B0F10DC0B1F10EC0B2F10FC078
:10115000B3F1000E206E000E216E800E226E3E0E48
:10116000236EB0C11CF0B1C11DF0B2C11EF0B3C1FD
:101170001FF023EC1AF01CC039F01DC03AF01EC05D
:101180003BF01FC03CF0AB0E356EAA0E366EAA0EB9
:10119000376E3E0E386E7EEC21F035C0A4F136C0BD
:1011A000A5F137C0A6F138C0A7F1B0C120F0B1C198
:1011B00021F0B2C122F0B3C123F0B0C11CF0B1C123
:1011C0001DF0B2C11EF0B3C11FF023EC1AF01CC019
:1011D00054F11DC055F11EC056F11FC057F1B0C1EA
:1011E00020F0B1C121F0B2C122F0B3C123F0A4C1FB
:1011F0001CF0A5C11DF0A6C11EF0A7C11FF023EC75
:101200001AF01CC039F01DC03AF01EC03BF01FC0E0
:101210003CF0000E356E000E366E000E376E3F0E3F
:10122000386E7EEC21F035C048F136C049F137C048
:101230004AF138C04BF154C11CF055C11DF056C1E4
:101240001EF057C11FF048C120F049C121F04AC12A
:1012500022F04BC123F023EC1AF01CC044F11DC056
:1012600045F11EC046F11FC047F1B0C11CF0B1C12D
:101270001DF0B2C11EF0B3C11FF0000E206EAA0E09
:10128000216EB80E226E3F0E236E23EC1AF01CC0A6
:1012900074F11DC075F11EC076F11FC077F1700E9C
:1012A000206EA50E216EEC0E226E360E236EB0C19E
:1012B0001CF0B1C11DF0B2C11EF0B3C11FF023EC90
:1012C0001AF01CC035F01DC036F01EC037F01FC02C
:1012D00038F03B0E206EAA0E216EB80E226E3F0E25
:1012E000236E44C11CF045C11DF046C11EF047C12C
:1012F0001FF023EC1AF01CC039F01DC03AF01EC0DC
:101300003BF01FC03CF07EEC21F035C078F136C0D8
:1013100079F137C07AF138C07BF174C10CF075C136
:101320000DF076C10EF077C10FF078C110F079C1E1
:1013300011F07AC112F07BC113F0CCEC1BF00CC0A1
:1013400084F10DC085F10EC086F10FC087F184C114
:10135000B8F185C1B9F186C1BAF187C1BBF1B8C195
:1013600094F1B9C195F1BAC196F1BBC197F1000EE4
:1013700001019415B86FF00E9515B96FFF0E961513
:10138000BA6FFF0E9715BB6FB8C184F1B9C185F173
:10139000BAC186F1BBC187F174C139F075C13AF0A9
:1013A00076C13BF077C13CF084C135F085C136F0A1
:1013B00086C137F087C138F07EEC21F035C098F156
:1013C00036C099F137C09AF138C09BF178C135F039
:1013D00079C136F07AC137F07BC138F098C139F065
:1013E00099C13AF09AC13BF09BC13CF07EEC21F0F0
:1013F00041EF11F0000E806F000E816F000E826FC2
:10140000000E836FABBF06D0AB5137E1800EAA5DF3
:10141000D8B033D070C11CF071C11DF072C11EF084
:1014200073C11FF0000E206E000E216E800E226E22
:101430004B0E236E23EC1AF01CC070F11DC071F12D
:101440001EC072F11FC073F1E80E01018027FF0E6C
:101450008123FF0E8223FF0E832370C1B8F171C177
:10146000B9F172C1BAF173C1BBF1B8C1A8F1B9C188
:10147000A9F1BAC1AAF1BBC1ABF1170E0001956F7A
:10148000A8C196F0A9C197F0AAC198F0ABC199F094
:10149000956701D007D099359933983397339633B0
:1014A000952FF6D7810E000196259A6FFF0E972192
:1014B0009B6FFF0E98219C6FFF0E99219D6F9A5193
:1014C0000101802700019B510101812300019C51F2
:1014D0000101822300019D5101018323FF0EA81504
:1014E000AC6FFF0EA915AD6F7F0EAA15AE6F000E83
:1014F000AB15AF6F000EAC11A86F000EAD11A96F48
:10150000800EAE11AA6F3F0EAF11AB6FAFBF0AD006
:10151000AF510AE1720EAC5DC40EAD591C0EAE594E
:10152000D8B002D0000E0DD0AFBF0AD0AF5111E13C
:10153000D70EAC5DB30EAD595D0EAE59D8B009D023
:10154000010EA06F000EA16F000EA26F000EA36F20
:1015500016D0000EA06F000EA16F000EA26F000E3D
:10156000A36F010E8027000E812382238323000EA8
:10157000A827000EA923800EAA23FF0EAB23A8C123
:10158000B8F1A9C1B9F1AAC1BAF1ABC1BBF1B8C1F7
:1015900070F1B9C171F1BAC172F1BBC173F170C11F
:1015A00035F071C136F072C137F073C138F0A0C1A7
:1015B00095F0A1C196F00001D89095379637D89054
:1015C00095379637690E9525F66E080E9621F76EBB
:1015D0000900F5CF39F00900F5CF3AF00900F5CF51
:1015E0003BF00A00F5CF3CF07EEC21F035C074F101
:1015F00036C075F137C076F138C077F1000E3D6E18
:10160000000E3E6E800E3F6E3F0E406E70C110F0B9
:1016100071C111F072C112F073C113F0A0C195F045
:10162000A1C196F00001D89095379637D89095379C
:101630009637690E9525F66E080E9621F76E09000D
:10164000F5CF0CF00900F5CF0DF00900F5CF0EF045
:101650000A00F5CF0FF0CCEC1BF00CC041F00DC030
:1016600042F00EC043F00FC044F052EC1DF03DC0FC
:1016700078F13EC079F13FC07AF140C07BF174C18E
:101680001CF075C11DF076C11EF077C11FF078C146
:1016900020F079C121F07AC122F07BC123F023EC44
:1016A0001AF01CC05CF11DC05DF11EC05EF11FC0D0
:1016B0005FF15CC16CF15DC16DF15EC16EF15FC146
:1016C0006FF16CC1B8F16DC1B9F16EC1BAF16FC102
:1016D000BBF1B8C194F1B9C195F1BAC196F1BBC1E2
:1016E00097F1000E01019415B86FF00E9515B96FC2
:1016F000FF0E9615BA6FFF0E9715BB6FB8C16CF150
:10170000B9C16DF1BAC16EF1BBC16FF1A8C195F05D
:10171000A9C196F0AAC197F0ABC198F00001983525
:101720009833973396339533000E9515996FF00ED5
:1017300096159A6FFF0E97159B6FFF0E98159C6F6D
:10174000000E99110101946F000E00019A11010120
:10175000956F000E00019B110101966F200E000194
:101760009C110101976FA0C195F0A1C196F0A2C193
:1017700097F0A3C198F0150ED890000195379637D1
:1017800097379837E82EF8D7010194510001952535
:10179000996F01019551000196219A6F01019651AF
:1017A000000197219B6F01019751000198219C6FC7
:1017B000000E99250101B86F000E00019A21010168
:1017C000B96F400E00019B210101BA6F000E0001AC
:1017D0009C210101BB6FB8C168F1B9C169F1BAC1FF
:1017E0006AF1BBC16BF1A0C195F0A1C196F00001F7
:1017F000D89095379637D89095379637690E9525B6
:10180000F66E080E9621F76E0900F5CF39F0090043
:10181000F5CF3AF00900F5CF3BF00A00F5CF3CF0E8
:1018200068C135F069C136F06AC137F06BC138F074
:101830007EEC21F035C098F136C099F137C09AF1AD
:1018400038C09BF170C135F071C136F072C137F00C
:1018500073C138F098C139F099C13AF09AC13BF0A0
:101860009BC13CF07EEC21F035C034F136C035F13F
:1018700037C036F138C037F168C120F069C121F0B6
:101880006AC122F06BC123F06CC11CF06DC11DF068
:101890006EC11EF06FC11FF023EC1AF01CC039F0AE
:1018A0001DC03AF01EC03BF01FC03CF074C135F0C3
:1018B00075C136F076C137F077C138F07EEC21F093
:1018C00035C098F136C099F137C09AF138C09BF114
:1018D00034C120F035C121F036C122F037C123F0E8
:1018E0006CC11CF06DC11DF06EC11EF06FC11FF008
:1018F00023EC1AF01CC039F01DC03AF01EC03BF0BA
:101900001FC03CF098C135F099C136F09AC137F04C
:101910009BC138F07EEC21F035C054F136C055F152
:1019200037C056F138C057F154C11CF055C11DF0F5
:1019300056C11EF057C11FF078C120F079C121F0C7
:101940007AC122F07BC123F023EC1AF01CC030F1E5
:101950001DC031F11EC032F11FC033F15CC11CF05B
:101960005DC11DF05EC11EF05FC11FF05CC120F0C3
:101970005DC121F05EC122F05FC123F023EC1AF0BB
:101980001CC08CF11DC08DF11EC08EF11FC08FF1E7
:10199000550E106E320E116E6C0E126E3E0E136EE0
:1019A000420E206EF10E216E530E226E3E0E236EFD
:1019B0008CC11CF08DC11DF08EC11EF08FC11FF0B7
:1019C00023EC1AF01CC00CF01DC00DF01EC00EF070
:1019D0001FC00FF0CCEC1BF00CC0A4F10DC0A5F1A2
:1019E0000EC0A6F10FC0A7F1050E106EA30E116E6A
:1019F0008B0E126E3E0E136E8CC120F08DC121F045
:101A00008EC122F08FC123F0A4C11CF0A5C11DF02E
:101A1000A6C11EF0A7C11FF023EC1AF01CC00CF0E9
:101A20001DC00DF01EC00EF01FC00FF0CCEC1BF05F
:101A30000CC054F10DC055F10EC056F10FC057F156
:101A4000AB0E106EAA0E116EAA0E126E3E0E136E23
:101A50008CC120F08DC121F08EC122F08FC123F006
:101A600054C11CF055C11DF056C11EF057C11FF0E6
:101A700023EC1AF01CC00CF01DC00DF01EC00EF0BF
:101A80001FC00FF0CCEC1BF00CC048F10DC049F1A9
:101A90000EC04AF10FC04BF1B70E106E6D0E116EF5
:101AA000DB0E126E3E0E136E8CC120F08DC121F044
:101AB0008EC122F08FC123F048C11CF049C11DF036
:101AC0004AC11EF04BC11FF023EC1AF01CC00CF0F1
:101AD0001DC00DF01EC00EF01FC00FF0CCEC1BF0AF
:101AE0000CC038F10DC039F10EC03AF10FC03BF116
:101AF0009A0E106E990E116E190E126E3F0E136E25
:101B00008CC120F08DC121F08EC122F08FC123F055
:101B100038C11CF039C11DF03AC11EF03BC11FF0A5
:101B200023EC1AF01CC00CF01DC00DF01EC00EF00E
:101B30001FC00FF0CCEC1BF00CC000F10DC001F188
:101B40000EC002F10FC003F18CC120F08DC121F055
:101B50008EC122F08FC123F08CC11CF08DC11DF00D
:101B60008EC11EF08FC11FF023EC1AF01CC004F1CF
:101B70001DC005F11EC006F11FC007F100C11CF019
:101B800001C11DF002C11EF003C11FF004C120F00D
:101B900005C121F006C122F007C123F023EC1AF0A1
:101BA0001CC04CF11DC04DF11EC04EF11FC04FF1C5
:101BB00030C120F031C121F032C122F033C123F015
:101BC0005CC110F05DC111F05EC112F05FC113F095
:101BD0006CC10CF06DC10DF06EC10EF06FC10FF055
:101BE000CCEC1BF00CC01CF00DC01DF00EC01EF0A4
:101BF0000FC01FF023EC1AF01CC058F11DC059F1A2
:101C00001EC05AF11FC05BF14CC10CF04DC10DF06C
:101C10004EC10EF04FC10FF058C110F059C111F074
:101C20005AC112F05BC113F0CCEC1BF00CC04CF1AC
:101C30000DC04DF10EC04EF10FC04FF16CC11CF044
:101C40006DC11DF06EC11EF06FC11FF06CC120F0A0
:101C50006DC121F06EC122F06FC123F023EC1AF0A8
:101C60001CC08CF11DC08DF11EC08EF11FC08FF104
:101C7000000E106E000E116E400E126E400E136EAE
:101C80008CC10CF08DC10DF08EC10EF08FC10FF024
:101C9000CCEC1BF00CC058F10DC059F10EC05AF13C
:101CA0000FC05BF158C10CF059C10DF05AC10EF0D4
:101CB0005BC10FF04CC110F04DC111F04EC112F0DC
:101CC0004FC113F0CCEC1BF00CC068F10DC069F1F2
:101CD0000EC06AF10FC06BF168C1B8F169C1B9F10A
:101CE0006AC1BAF16BC1BBF1B8C194F1B9C195F148
:101CF000BAC196F1BBC197F1000E01019415B86FFE
:101D0000F00E9515B96FFF0E9615BA6FFF0E971569
:101D1000BB6FB8C168F1B9C169F1BAC16AF1BBC1A1
:101D20006BF1000E106E000E116E400E126EC00EA2
:101D3000136E68C10CF069C10DF06AC10EF06BC181
:101D40000FF0CCEC1BF00CC03CF10DC03DF10EC00F
:101D50003EF10FC03FF18CC139F08DC13AF08EC118
:101D60003BF08FC13CF03CC135F03DC136F03EC187
:101D700037F03FC138F07EEC21F035C040F136C07D
:101D800041F137C042F138C043F14CC135F04DC18B
:101D900036F04EC137F04FC138F040C139F041C183
:101DA0003AF042C13BF043C13CF07EEC21F035C03B
:101DB00034F136C035F137C036F138C037F16CC177
:101DC0001CF06DC11DF06EC11EF06FC11FF068C127
:101DD00020F069C121F06AC122F06BC123F023EC2D
:101DE0001AF01CC074F11DC075F11EC076F11FC041
:101DF00077F168C120F069C121F06AC122F06BC19E
:101E000023F030C11CF031C11DF032C11EF033C1CE
:101E10001FF023EC1AF01CC00CF01DC00DF01EC00A
:101E20000EF01FC00FF05CC120F05DC121F05EC15B
:101E300022F05FC123F034C11CF035C11DF036C162
:101E40001EF037C11FF023EC1AF01CC010F01DC0AB
:101E500011F01EC012F01FC013F0CCEC1BF00CC030
:101E600078F10DC079F10EC07AF10FC07BF174C129
:101E70000CF075C10DF076C10EF077C10FF078C18E
:101E800010F079C111F07AC112F07BC113F0CCECE3
:101E90001BF00CC09CF10DC09DF10EC09EF10FC057
:101EA0009FF19CC1B8F19DC1B9F19EC1BAF19FC12A
:101EB000BBF1B8C194F1B9C195F1BAC196F1BBC1FA
:101EC00097F1000E01019415B86FF00E9515B96FDA
:101ED000FF0E9615BA6FFF0E9715BB6FB8C19CF138
:101EE000B9C19DF1BAC19EF1BBC19FF174C139F076
:101EF00075C13AF076C13BF077C13CF09CC135F03A
:101F00009DC136F09EC137F09FC138F07EEC21F0C4
:101F100035C098F136C099F137C09AF138C09BF1BD
:101F200078C135F079C136F07AC137F07BC138F02D
:101F300098C139F099C13AF09AC13BF09BC13CF08D
:101F40007EEC21F035C064F136C065F137C066F132
:101F500038C067F19CC11CF09DC11DF09EC11EF0F0
:101F60009FC11FF0000E206E400E216E760E226E75
:101F70003F0E236E23EC1AF01CC020F11DC021F18E
:101F80001EC022F11FC023F14F0E206E380E216EAD
:101F9000760E226E3F0E236E64C11CF065C11DF0EB
:101FA00066C11EF067C11FF023EC1AF01CC010F0D0
:101FB0001DC011F01EC012F01FC013F0C60E206E1F
:101FC000230E216EF60E226EB80E236E9CC11CF0FD
:101FD0009DC11DF09EC11EF09FC11FF023EC1AF0A1
:101FE0001CC00CF01DC00DF01EC00EF01FC00FF085
:101FF000CCEC1BF00CC058F10DC059F10EC05AF1D9
:102000000FC05BF158C10CF059C10DF05AC10EF070
:102010005BC10FF0A0C195F0A1C196F00001D8906E
:1020200095379637D89095379637010E9525F66EE9
:10203000080E9621F76E0900F5CF10F00900F5CFD4
:1020400011F00900F5CF12F00A00F5CF13F0CCEC37
:102050001BF00CC024F10DC025F10EC026F10FC0FD
:1020600027F180C10CF081C10DF082C10EF083C157
:102070000FF0010E8AEC1FF00CC0B0F10DC0B1F1F1
:102080000EC0B2F10FC0B3F124C110F025C111F0A0
:1020900026C112F027C113F020C10CF021C10DF0B0
:1020A00022C10EF023C10FF0CCEC1BF00CC058F194
:1020B0000DC059F10EC05AF10FC05BF1A0C195F0EF
:1020C000A1C196F00001D89095379637D8909537F2
:1020D0009637090E9525F66E080E9621F76E0900C3
:1020E000F5CF10F00900F5CF11F00900F5CF12F08F
:1020F0000A00F5CF13F058C10CF059C10DF05AC1C8
:102100000EF05BC10FF0CCEC1BF00CC008F10DC061
:1021100009F10EC00AF10FC00BF108C10CF009C1A2
:102120000DF00AC10EF00BC10FF0B0C110F0B1C13B
:1021300011F0B2C112F0B3C113F0CCEC1BF00CC023
:1021400084F10DC085F10EC086F10FC087F184C106
:10215000B8F185C1B9F186C1BAF187C1BBF1B8C187
:1021600094F1B9C195F1BAC196F1BBC197F1000ED6
:1021700001019415B86FF00E9515B96FFF0E961505
:10218000BA6FFF0E9715BB6FB8C184F1B9C185F165
:10219000BAC186F1BBC187F1B0C139F0B1C13AF023
:1021A000B2C13BF0B3C13CF084C135F085C136F01B
:1021B00086C137F087C138F07EEC21F035C098F148
:1021C00036C099F137C09AF138C09BF1A0C195F0A3
:1021D000A1C196F00001D89095379637D8909537E1
:1021E0009637090E9525F66E080E9621F76E0900B2
:1021F000F5CF39F00900F5CF3AF00900F5CF3BF003
:102200000A00F5CF3CF098C135F099C136F09AC17B
:1022100037F09BC138F07EEC21F035C040F136C07C
:1022200041F137C042F138C043F120C139F021C13A
:102230003AF022C13BF023C13CF040C135F041C12E
:1022400036F042C137F043C138F07EEC21F035C0A2
:102250000CF136C00DF137C00EF138C00FF124C1BA
:1022600035F025C136F026C137F027C138F00CC152
:1022700039F00DC13AF00EC13BF00FC13CF07EECDD
:1022800021F035C01CF136C01DF137C01EF138C039
:102290001FF191C0B8F192C0B9F193C0BAF194C0E6
:1022A000BBF1B8C194F1B9C195F1BAC196F1BBC106
:1022B00097F1000E01019415B86FF00E9515B96FE6
:1022C000FF0E9615BA6FFF0E9715BB6FB8C128F1B8
:1022D000B9C129F1BAC12AF1BBC12BF184C120F0E7
:1022E00085C121F086C122F087C123F028C139F0D1
:1022F00029C13AF02AC13BF02BC13CF091C035F026
:1023000092C036F093C037F094C038F07EEC21F0E4
:1023100035C01CF036C01DF037C01EF038C01FF0AD
:1023200023EC1AF01CC010F11DC011F11EC012F1F7
:102330001FC013F110C10CF011C10DF012C10EF04D
:1023400013C10FF01CC120F01DC121F01EC122F0ED
:102350001FC123F091C01CF092C01DF093C01EF06D
:1023600094C01FF023EC1AF01CC010F01DC011F037
:102370001EC012F01FC013F0CCEC1BF00CC064F1B7
:102380000DC065F10EC066F10FC067F128C11CF0E9
:1023900029C11DF02AC11EF02BC11FF084C120F0FD
:1023A00085C121F086C122F087C123F023EC1AF009
:1023B0001CC09CF11DC09DF11EC09EF11FC09FF16D
:1023C00064C10CF065C10DF066C10EF067C10FF07D
:1023D0009CC110F09DC111F09EC112F09FC113F07D
:1023E000CCEC1BF00CC0B4F10DC0B5F10EC0B6F1D1
:1023F0000FC0B7F1B4C1B8F1B5C1B9F1B6C1BAF106
:10240000B7C1BBF1B8C1ACF1B9C1ADF1BAC1AEF160
:10241000BBC1AFF10101AFBF3ED0AC05000EAD595D
:10242000000EAE59430EAF59D8A035D0CA0E206E5B
:10243000F20E216E490E226E710E236E88C11CF0C1
:1024400089C11DF08AC11EF08BC11FF023EC1AF068
:102450001CC0A4F11DC0A5F11EC0A6F11FC0A7F1AC
:10246000A4C11CF0A5C11DF0A6C11EF0A7C11FF09C
:10247000CA0E206EF20E216E490E226E710E236E70
:1024800023EC1AF01CC08DF01DC08EF01EC08FF022
:102490001FC090F01200430EAF19AC11AD11AE1178
:1024A000D8A46DD09CC139F09DC13AF09EC13BF0DB
:1024B0009FC13CF0B4C135F0B5C136F0B6C137F0BC
:1024C000B7C138F07EEC21F035C03DF036C03EF0AB
:1024D00037C03FF038C040F03C0E106EAA0E116EAF
:1024E000380E126E330E136E64C10CF065C10DF020
:1024F00066C10EF067C10FF0CCEC1BF00CC041F0D0
:102500000DC042F00EC043F00FC044F092EC20F03A
:10251000D8B0EDD0CA0E206EF20E216E490E226E9A
:10252000710E236E88C11CF089C11DF08AC11EF096
:102530008BC11FF023EC1AF01CC0A4F11DC0A5F143
:102540001EC0A6F11FC0A7F1A4C11CF0A5C11DF0BB
:10255000A6C11EF0A7C11FF0CA0E206EF20E216E9A
:10256000490E226E710E236E23EC1AF01CC08DF002
:102570001DC08EF01EC08FF01FC090F01200FF0E25
:10258000AC150001956FFF0E0101AD150001966FAE
:10259000FF0E0101AE150001976F7F0E0101AF150F
:1025A0000001986F98BF3ED09505000E9659160E03
:1025B0009759430E9859D8A035D0600E206E420E20
:1025C000216EA20E226E0D0E236E88C11CF089C1F1
:1025D0001DF08AC11EF08BC11FF023EC1AF01CC045
:1025E000A4F11DC0A5F11EC0A6F11FC0A7F1A4C192
:1025F0001CF0A5C11DF0A6C11EF0A7C11FF0600E02
:10260000206E420E216EA20E226E0D0E236E23EC62
:102610001AF01CC08DF01DC08EF01EC08FF01FC0C0
:1026200090F01200160E0101AE1961E1C30EAF1950
:10263000AC11AD11D8A45BD09CC139F09DC13AF06A
:102640009EC13BF09FC13CF0B4C135F0B5C136F03E
:10265000B6C137F0B7C138F07EEC21F035C03DF09F
:1026600036C03EF037C03FF038C040F064C141F0A2
:1026700065C142F066C143F067C144F092EC20F0BE
:10268000D8A035D0600E206E420E216EA20E226EB2
:102690000D0E236E88C11CF089C11DF08AC11EF089
:1026A0008BC11FF023EC1AF01CC0A4F11DC0A5F1D2
:1026B0001EC0A6F11FC0A7F1A4C11CF0A5C11DF04A
:1026C000A6C11EF0A7C11FF0600E206E420E216E43
:1026D000A20E226E0D0E236E23EC1AF01CC08DF09C
:1026E0001DC08EF01EC08FF01FC090F01200FF0EB4
:1026F0000101AC152C6FFF0EAD152D6FFF0EAE1541
:102700002E6F7F0EAF152F6F170E0001956F2CC126
:1027100096F02DC197F02EC198F02FC199F09567D2
:1027200001D007D099359933983397339633952F45
:10273000F6D7810E000196250101A06FFF0E000162
:1027400097210101A16FFF0E000198210101A26FE5
:10275000FF0E000199210101A36F000E806F000E92
:10276000816F000E826F000E836F2FBFFCD02C058F
:10277000000E2D59000E2E593F0E2F59D8A0F3D020
:10278000A0C195F0010E00019527000E966F000E76
:10279000976F800E986F000E996F956701D007D0E4
:1027A00099359933983397339633952FF6D701019E
:1027B000AC51000196250101806FAD5100019721B8
:1027C0000101816FAE51000198210101826FAF516B
:1027D000000199210101836F810E0001956FFF0EA9
:1027E000966FFF0E976FFF0E986F170E996F80C14F
:1027F0009AF081C19BF082C19CF083C19DF09967E2
:1028000001D007D09D359D339C339B339A33992F4C
:10281000F6D700019A5195250101A06F000E000125
:1028200096210101A16F000E000197210101A26F05
:10283000000E000198210101A36FA0C195F0FF0EC9
:102840000001966FFF0E976F7F0E986F000E996FC5
:10285000956701D007D099359933983397339633DC
:10286000952FF6D70001961D9A6F971D9B6F981DA7
:102870009C6F991D9D6F0101805100019A15010106
:10288000B86F815100019B150101B96F82510001A0
:102890009C150101BA6F835100019D150101BB6FA9
:1028A000B8C1B0F1B9C1B1F1BAC1B2F1BBC1B3F1B4
:1028B000A05117080001956FFF0E0101801500015E
:1028C000966FFF0E010181150001976F7F0E0101C8
:1028D00082150001986F000E010183150001996FA8
:1028E000000E96119A6F000E97119B6F800E981133
:1028F0009C6F000E99119D6F956701D007D09D3593
:102900009D339C339B339A33952FF6D79AC080F131
:102910009BC081F19CC082F19DC083F10101AFAFEA
:1029200008D0831F821F811F806D000E81238223A8
:1029300083239CC135F09DC136F09EC137F09FC105
:1029400038F0B0C139F0B1C13AF0B2C13BF0B3C117
:102950003CF07EEC21F035C09CF136C09DF137C0D3
:102960009EF138C09FF164C10CF065C10DF066C1E5
:102970000EF067C10FF09CC110F09DC111F09EC117
:1029800012F09FC113F0CCEC1BF00CC0B0F10DC0E5
:10299000B1F10EC0B2F10FC0B3F1B0C1B8F1B1C125
:1029A000B9F1B2C1BAF1B3C1BBF1B8C194F1B9C1C7
:1029B00095F1BAC196F1BBC197F1000E01019415D2
:1029C000B86F800E9515B96FFF0E9615BA6FFF0E92
:1029D0009715BB6FB8C1B0F1B9C1B1F1BAC1B2F1CD
:1029E000BBC1B3F1B0C11CF0B1C11DF0B2C11EF04A
:1029F000B3C11FF0000E206E720E216E310E226EDA
:102A00003F0E236E23EC1AF01CC074F11DC075F14B
:102A10001EC076F11FC077F19CC139F09DC13AF01C
:102A20009EC13BF09FC13CF0B0C135F0B1C136F062
:102A3000B2C137F0B3C138F07EEC21F035C098F167
:102A400036C099F137C09AF138C09BF1180E206E4C
:102A5000720E216E310E226E3F0E236E98C139F038
:102A600099C13AF09AC13BF09BC13CF064C135F08A
:102A700065C136F066C137F067C138F07EEC21F0F1
:102A800035C01CF036C01DF037C01EF038C01FF036
:102A900023EC1AF01CC014F11DC015F11EC016F174
:102AA0001FC017F114C10CF015C10DF016C10EF0C6
:102AB00017C10FF08C0E206EBE0E216EBF0E226E5F
:102AC000350E236EB0C11CF0B1C11DF0B2C11EF0B5
:102AD000B3C11FF023EC1AF01CC010F01DC011F0A0
:102AE0001EC012F01FC013F0CCEC1BF00CC078F12C
:102AF0000DC079F10EC07AF10FC07BF174C10CF0FA
:102B000075C10DF076C10EF077C10FF078C110F0ED
:102B100079C111F07AC112F07BC113F0CCEC1BF03B
:102B20000CC0B4F10DC0B5F10EC0B6F10FC0B7F1D5
:102B300074C139F075C13AF076C13BF077C13CF011
:102B4000B4C135F0B5C136F0B6C137F0B7C138F011
:102B50007EEC21F035C098F136C099F137C09AF17A
:102B600038C09BF178C135F079C136F07AC137F0C1
:102B70007BC138F098C139F099C13AF09AC13BF065
:102B80009BC13CF07EEC21F035C044F136C045F1EC
:102B900037C046F138C047F1B4C11CF0B5C11DF0D3
:102BA000B6C11EF0B7C11FF0B4C120F0B5C121F00D
:102BB000B6C122F0B7C123F023EC1AF01CC0B0F16B
:102BC0001DC0B1F11EC0B2F11FC0B3F10E0E106EE8
:102BD000EA0E116EDD0E126EB50E136E4C0E206EE7
:102BE000BB0E216E310E226E330E236EB0C11CF06F
:102BF000B1C11DF0B2C11EF0B3C11FF023EC1AF039
:102C00001CC00CF01DC00DF01EC00EF01FC00FF058
:102C1000CCEC1BF00CC0A4F10DC0A5F10EC0A6F1C8
:102C20000FC0A7F1550E106EB30E116E8A0E126E04
:102C3000380E136EB0C120F0B1C121F0B2C122F044
:102C4000B3C123F0A4C11CF0A5C11DF0A6C11EF0A4
:102C5000A7C11FF023EC1AF01CC00CF01DC00DF032
:102C60001EC00EF01FC00FF0CCEC1BF00CC054F1D6
:102C70000DC055F10EC056F10FC057F1610E106E28
:102C80000B0E116E360E126EBB0E136EB0C120F01D
:102C9000B1C121F0B2C122F0B3C123F054C11CF084
:102CA00055C11DF056C11EF057C11FF023EC1AF09C
:102CB0001CC00CF01DC00DF01EC00EF01FC00FF0A8
:102CC000CCEC1BF00CC048F10DC049F10EC04AF12C
:102CD0000FC04BF1AB0E106EAA0E116E2A0E126EC3
:102CE0003E0E136EB0C120F0B1C121F0B2C122F08E
:102CF000B3C123F048C11CF049C11DF04AC11EF008
:102D00004BC11FF023EC1AF01CC00CF01DC00DF0DD
:102D10001EC00EF01FC00FF0CCEC1BF00CC038F141
:102D20000DC039F10EC03AF10FC03BF1B4C135F01E
:102D3000B5C136F0B6C137F0B7C138F0B0C120F038
:102D4000B1C121F0B2C122F0B3C123F038C11CF0EF
:102D500039C11DF03AC11EF03BC11FF023EC1AF03F
:102D60001CC039F01DC03AF01EC03BF01FC03CF043
:102D70007EEC21F035C084F136C085F137C086F194
:102D800038C087F1000E106E000E116E000E126E2C
:102D9000C00E136E84C10CF085C10DF086C10EF01B
:102DA00087C10FF0CCEC1BF00CC041F00DC042F01D
:102DB0000EC043F00FC044F084C120F085C121F063
:102DC00086C122F087C123F0B4C11CF0B5C11DF04B
:102DD000B6C11EF0B7C11FF023EC1AF01CC03DF0C5
:102DE0001DC03EF01EC03FF01FC040F052EC1DF071
:102DF0003DC03CF13EC03DF13FC03EF140C03FF11F
:102E000044C110F045C111F046C112F047C113F0A2
:102E100044C120F045C121F046C122F047C123F052
:102E2000B4C11CF0B5C11DF0B6C11EF0B7C11FF092
:102E300023EC1AF01CC00CF01DC00DF01EC00EF0EB
:102E40001FC00FF0CCEC1BF00CC018F10DC019F135
:102E50000EC01AF10FC01BF13CC135F03DC136F078
:102E60003EC137F03FC138F018C139F019C13AF00E
:102E70001AC13BF01BC13CF07EEC21F035C04CF197
:102E800036C04DF137C04EF138C04FF1B4C139F002
:102E9000B5C13AF0B6C13BF0B7C13CF04CC135F01A
:102EA0004DC136F04EC137F04FC138F07EEC21F005
:102EB00035C098F136C099F137C09AF138C09BF10E
:102EC000000E356E000E366E800E376E3F0E386E79
:102ED00098C139F099C13AF09AC13BF09BC13CF0DE
:102EE0007EEC21F035C0B4F136C0B5F137C0B6F193
:102EF00038C0B7F1B4C1B8F1B5C1B9F1B6C1BAF1D2
:102F0000B7C1BBF1B8C1ACF1B9C1ADF1BAC1AEF155
:102F1000BBC1AFF180C195F081C196F082C197F03D
:102F200083C198F0170ED8900001953796379737E0
:102F30009837E82EF8D795510101AC27000196513A
:102F40000101AD23000197510101AE230001985109
:102F50000101AF23170E0001956FACC196F0ADC112
:102F600097F0AEC198F0AFC199F0956701D007D046
:102F700099359933983397339633952FF6D70001C7
:102F800099BF07D09951981197111AE19605D8B0B9
:102F900017D0B4C135F0B5C136F0B6C137F0B7C1FE
:102FA00038F080C139F081C13AF097EC1EF035C09D
:102FB000B4F136C0B5F137C0B6F138C0B7F110D0B2
:102FC000ACC1B8F1ADC1B9F1AEC1BAF1AFC1BBF19D
:102FD000B8C1B4F1B9C1B5F1BAC1B6F1BBC1B7F16D
:102FE00088C11CF089C11DF08AC11EF08BC11FF081
:102FF000B4C120F0B5C121F0B6C122F0B7C123F0B1
:1030000023EC1AF01CC08DF01DC08EF01EC08FF096
:103010001FC090F0120049C071F04AC072F04BC05E
:1030200073F04CC074F071C089F072C08AF073C044
:103030008BF074C08CF0000E00018915606F000EDB
:103040008A15616F800E8B15626F7F0E8C15636F12
:10305000800E621933E17F0E631960116111D8A4EB
:103060002DD049C020F04AC021F04BC022F04CC006
:1030700023F049C01CF04AC01DF04BC01EF04CC0EC
:103080001FF023EC1AF01CC00CF01DC00DF01EC088
:103090000EF01FC00FF049C010F04AC011F04BC035
:1030A00012F04CC013F0CCEC1BF00CC049F00DC07A
:1030B0004AF00EC04BF00FC04CF012008CBF07D08E
:1030C0008C518B118A1133E18905D8B030D0FF0EB5
:1030D0008915606FFF0E8A15616FFF0E8B15626F89
:1030E0007F0E8C15636F6051611162116311D8A45A
:1030F00009D049C049F04AC04AF04BC04BF04CC01F
:103100004CF012008CAF13D0000E526E210E516E97
:103110007D0E0C6E080E0D6EEDEC21F00CC049F02A
:103120000DC04AF00EC04BF00FC04CF01200170E4D
:10313000606F89C061F08AC062F08BC063F08CC0A0
:1031400064F0606701D007D0643564336333623361
:103150006133602FF6D761C081F062C082F063C036
:1031600083F064C084F000018151821183118411C5
:10317000D8A42AD0000E6D6F000E6E6F000E6F6F18
:10318000000E706F0BD0D89089378A378B378C3709
:10319000010E6D27000E6E236F2370238BAFF3D7C4
:1031A000FF0E6D25606FFF0E6E21616FFF0E6F21A8
:1031B000626FFF0E7021636F6051815F6151825BAE
:1031C0006251835B6351845B810E8127FF0E8223F2
:1031D000FF0E8323FF0E8423FF0E8915606FFF0E01
:1031E0008A15616F7F0E8B15626F000E8C15636FF1
:1031F000000E6011896F000E61118A6F800E6211DE
:103200008B6F000E63118C6F81A108D089518927C3
:103210008A518A238B518B238C518C2384358433A0
:10322000833382338133895189278A518A238B5191
:103230008B238C518C23000E696F000E6A6F000E79
:103240006B6F000E6C6F69C075F06AC076F06BC072
:1032500077F06CC078F0000E856F000E866F000E60
:10326000876F010E886F43D085516925796F86512C
:103270006A217A6F87516B217B6F88516C217C6F3B
:103280007951895D7A518A597B518B598C51800AC9
:10329000606F7C51800A6059D8A01CD08551792577
:1032A000696F86517A216A6F87517B216B6F8851D4
:1032B0007C216C6F7951895F7A518A5B7B518B5B82
:1032C0007C518C5B855175278651762387517723F6
:1032D00088517823895189278A518A238B518B23DE
:1032E0008C518C23D890883387338633853385512E
:1032F000861187118811D8A4B7D789518A118B11EB
:103300008C11D8B455D0000E7D6F000E7E6F800EEC
:103310007F6F3F0E806F7DC03DF07EC03EF07FC06E
:103320003FF080C040F0000E416E000E426E800EF5
:10333000436E3F0E446E92EC20F0D8A039D0000EC0
:1033400000017D6F000E7E6F800E7F6F3F0E806FDD
:10335000000E3D6E000E3E6E800E3F6E3F0E406EC4
:103360007DC041F07EC042F07FC043F080C044F099
:1033700092EC20F0D8B007D0020E00017527000EA5
:103380007623772314D0010E00017515606F000EAF
:103390007615616F000E7715626F000E7815636FFA
:1033A00060517527615176236251772363517823E9
:1033B00075C060F076C061F077C062F078C063F0ED
:1033C000000163356333623361336033000E60257F
:1033D000896F000E61218A6F000E62218B6F3F0E94
:1033E00063218C6F81C060F082C061F083C062F0A5
:1033F00084C063F0170ED890603761376237633747
:10340000E82EF9D76051892761518A2362518B23B5
:1034100063518C2389C071F08AC072F08BC073F045
:103420008CC074F071C07DF072C07EF073C07FF00C
:1034300074C080F07DC049F07EC04AF07FC04BF080
:1034400080C04CF012001F50800B286E1F501F24AC
:103450002E6E1EBE2E802E50D8B40DD02E28D8A48D
:1034600008D0000E1C6E000E1D6E000E1E6E000EAB
:103470001F6E1E8E08D0000E1C6E000E1D6E000EFC
:103480001E6E000E1F6E2350800B281A235023241B
:103490002D6E22BE2D802D50D8B40DD02D28D8A44D
:1034A00008D0000E206E000E216E000E226E000E5F
:1034B000236E228E08D0000E206E000E216E000EAC
:1034C000226E000E236E2D50D8B403D02E50D8A4F7
:1034D00009D0000E1C6E000E1D6E000E1E6E000E3A
:1034E0001F6E120022501C02F3CF33F0F4CF34F0E1
:1034F0003350296E2A6A2B6A2C6A34502F6E306A38
:10350000316A326A21501D02F3CF33F0F4CF34F028
:1035100033502926000E2A222B222C2234502F260B
:10352000000E30223122322220501E02F3CF33F01F
:10353000F4CF34F033502926000E2A222B222C22DD
:1035400034502F26000E3022312232222BC02CF094
:103550002AC02BF029C02AF0296A20501D02F3CF7F
:1035600033F0F4CF34F03350292634502A22000EA1
:103570002B22000E2C2221501C02F3CF33F0F4CF6B
:1035800034F03350292634502A22000E2B22000E0C
:103590002C222BC02CF02AC02BF029C02AF0296A3B
:1035A00020501C02F3CF33F0F4CF34F033502926EF
:1035B00034502A22000E2B22000E2C2222501D02F3
:1035C000F3CF33F0F4CF34F033502F263450302281
:1035D000000E3122000E322221501E02F3CF33F0B2
:1035E000F4CF34F033502F2634503022000E3122E5
:1035F000000E322222501E02F3CF33F0F4CF34F00B
:103600003350246E3450256E266A276A26C027F070
:1036100025C026F024C025F0246A24502F262550EA
:103620003022265031222750322229C024F02AC0CD
:1036300025F02BC026F02CC027F0190E05D0D8900D
:103640002732263225322432E82EF9D724502F266D
:103650002550302226503122275032222BC02CF008
:103660002AC02BF029C02AF0296A2D502EC024F040
:10367000256A2426000E2522820E2424336EFF0E96
:103680002520346E0FD0D8902F3630363136323672
:103690002CBE2F80D89029362A362B362C3633066E
:1036A000D8A0340631AEEFD7000E2D6E2CAE17D059
:1036B000FF0E2914246EFF0E2A14256EFF0E2B1404
:1036C000266E7F0E2C14276E2450251026102710EE
:1036D000D8B403D0010E2D6E02D02FB0FBD72D50E1
:1036E000D8B41FD0010E2F26000E302231223222F4
:1036F00032A017D02FC024F030C025F031C026F002
:1037000032C027F02734273226322532243224C013
:103710002FF025C030F026C031F027C032F0334AF8
:10372000342A34BE0DD0345003E13328D8A008D059
:10373000000E2F6E000E306E800E316E7F0E20D088
:1037400034BE05D034500EE13304D8B00BD0000E97
:103750002F6E000E306E000E316E000E326E000EB7
:10376000286E0FD033C02EF0FF0E2F16FF0E30162E
:103770007F0E3116000E32162EB0318ED8902E30BC
:10378000326E285032122FC01CF030C01DF031C0F4
:103790001EF032C01FF012000F50800B186E0F5039
:1037A0000F241A6E0EBE1A801A50D8B40DD01A28E3
:1037B000D8A408D0000E0C6E000E0D6E000E0E6E1A
:1037C000000E0F6E0E8E06D0000E0C6E000E0D6EEB
:1037D000000E0E6E000E0F6E1350800B196E1850F7
:1037E0001918D8A4188C13501324196E12BE1980FE
:1037F0001950D8B40DD01928D8A408D0000E106ED6
:10380000000E116E000E126E000E136E128E06D098
:10381000000E106E000E116E000E126E000E136E72
:103820001A50195CD8B022D018AC02D0800E181AE9
:103830001AC01BF019C01AF01BC019F00CC01BF005
:1038400010C00CF01BC010F00DC01BF011C00DF02B
:103850001BC011F00EC01BF012C00EF01BC012F006
:103860000FC01BF013C00FF01BC013F0000E1B6E37
:103870001A5019C014F0156A145E000E155A15BEC0
:103880002CD0155004E11A0E145CD8A026D00C5090
:103890000D100E100F10D8B402D0010E01D0000E82
:1038A0001B6E000E0C6E000E0D6E000E0E6E000EE6
:1038B0000F6E19C01AF015D01BA005D0D8901B3080
:1038C00001091B6E02D0D8901B320CB01B8E0F3436
:1038D0000F320E320D320C321A2A19501A5CD8A04F
:1038E000EBD718BC28D01A50D8A409D0000E0C6E03
:1038F000000E0D6E000E0E6E000E0F6E12001050B8
:103900000C2611500D2212500E2213500F220FA020
:1039100071D01BA005D0D8901B3001091B6E02D0BE
:10392000D8901B320CB01B8E0F340F320E320D327A
:103930000C321A2A5FD010500C5C11500D581250E6
:103940000E580F50800A146E1350800A1458D8B0C5
:1039500025D00C50105C146E0D501158156E0E5081
:103960001258166E0F501358176EFF0E14240C6E5B
:10397000FF0E15200D6EFF0E16200E6EFF0E172087
:103980000F6E800E181A1B6C1B50D8A40FD0010E9E
:103990000C26000E0D220E220F2208D010500C5EB5
:1039A00011500D5A12500E5A13500F5A0C500D1040
:1039B0000E100F10D8A41CD01B50D8A419D0000E84
:1039C0000C6E000E0D6E000E0E6E000E0F6E1200CD
:1039D000D8900C360D360E360F361BBE0C801BA051
:1039E00002D0D88001D0D8901B361A50D8A41A061D
:1039F0000EAEEED7000E196E1BAE0BD01BC014F02E
:103A00007F0E1416D8B403D0010E196E02D00CB07C
:103A1000FBD71950D8B420D0010E0C26000E0D2271
:103A20000E220F220FA018D00CC014F00DC015F0FC
:103A30000EC016F00FC017F01734173216321532B9
:103A4000143214C00CF015C00DF016C00EF017C0E3
:103A50000FF01A28D8A41A2A1A28D8B403D01A505A
:103A6000D8A40DD0000E0C6E000E0D6E000E0E6E62
:103A7000000E0F6E1A50D8A402D0000E186E1AA0B5
:103A800002D00E8E01D00E9ED8901A300F6E18BE46
:103A90000F8E0CC00CF00DC00DF00EC00EF00FC05C
:103AA0000FF012004050800B0001646F4050402422
:103AB0006B6F3FBE6B816B51D8B40DD06B29D8A40E
:103AC00008D0000E3D6E000E3E6E000E3F6E000EE2
:103AD000406E3F8E06D0000E3D6E000E3E6E000E14
:103AE0003F6E000E406E4450800B641B44504424D3
:103AF0006C6F43BE6C816C51D8B40DD06C29D8A4C6
:103B000008D0000E416E000E426E000E436E000E95
:103B1000446E438E06D0000E416E000E426E000EC3
:103B2000436E000E446E4150421043104410D8A41E
:103B300017D0000E3D6E000E3E6E000E3F6E000E62
:103B4000406E800E3F127F0E4012645140123DC005
:103B50003DF03EC03EF03FC03FF040C040F012009C
:103B60006B51D8A409D0000E3D6E000E3E6E000EC3
:103B70003F6E000E406E12006C516BC045F0466AFD
:103B8000455E000E465A7F0E4524656F000E4620A6
:103B9000666F3DC060F03EC061F03FC062F040C063
:103BA00063F0000E3D6E000E3E6E000E3F6E000E86
:103BB000406E000E676F000E686F000E696F000E9A
:103BC0006A6F000E6C6F28D06C51D8B411D0D890A9
:103BD0006037613762376337D8903D363E363F36BF
:103BE00040366ABF3D80D8906737683769376A3793
:103BF0004150605D4250615943506259445063598D
:103C0000D8A009D06A8D4150605F4250615B43503B
:103C1000625B4450635B6C2B190E6C65D5D76051A9
:103C2000611162116311D8B411D067810FD0D8909F
:103C30003D363E363F3640366ABF3D80D8906737C6
:103C4000683769376A376507D8A066073FAEEFD790
:103C5000000E6C6F6AAF17D0FF0E6715456EFF0E32
:103C60006815466EFF0E6915476E7F0E6A15486E21
:103C70004550461047104810D8B403D0010E6C6F61
:103C800002D03DB0FBD76C51D8B41FD0010E3D26F9
:103C9000000E3E223F22402240A017D03DC045F0FA
:103CA0003EC046F03FC047F040C048F0483448327C
:103CB00047324632453245C03DF046C03EF047C02F
:103CC0003FF048C040F0654B662B66BF10D0665190
:103CD00003E16529D8A00BD0000E666F6569000E60
:103CE0003D6E000E3E6E000E3F6E000E406E66BFD3
:103CF00005D0665111E16505D8B00ED0000E666F93
:103D0000000E656F000E3D6E000E3E6E000E3F6EA3
:103D1000000E406E000E646F65C06BF06BA102D0A8
:103D20003F8E01D03F9ED8906B31406E0ED735C08C
:103D300043F036C044F037C045F038C046F03ABED4
:103D400056D03A5004E1800E395CD8A050D043C020
:103D50001CF044C01DF045C01EF046C01FF0000E10
:103D6000206E000E216E000E226E7F0E236E23EC5D
:103D70001AF01CC043F01DC044F01EC045F01FC027
:103D800046F0810E3926FF0E3A223ABE88D03A50CC
:103D900004E1800E395CD8A082D043C01CF044C03E
:103DA0001DF045C01EF046C01FF0000E206E000E34
:103DB000216E000E226E7F0E236E23EC1AF01CC0C3
:103DC00043F01DC044F01EC045F01FC046F0810EF8
:103DD0003926FF0E3A223ABE62D03A5004E1800EF4
:103DE000395CD8A05CD0000E3A6E7F0E57D03AAE48
:103DF00056D0820E395CFF0E3A58D8B050D043C02E
:103E00001CF044C01DF045C01EF046C01FF0000E5F
:103E1000206E000E216E800E226E0C0E236E23EC9F
:103E20001AF01CC043F01DC044F01EC045F01FC076
:103E300046F0660E3926000E3A223AAE30D0820E97
:103E4000395CFF0E3A58D8B02AD043C01CF044C0A9
:103E50001DF045C01EF046C01FF0000E206E000E83
:103E6000216E800E226E0C0E236E23EC1AF01CC005
:103E700043F01DC044F01EC045F01FC046F0660E62
:103E80003926000E3A223AAE0AD0820E395CFF0E75
:103E90003A58D8B004D0FF0E3A6E820E396E7F0EBB
:103EA00039243B6E000E3A203C6E3D6A3E6A170E86
:103EB000D8903B363C363D363E36E82EF9D73BC0EF
:103EC0003FF03CC040F03DC041F03EC042F03FC03A
:103ED0001CF040C01DF041C01EF042C01FF043C0A6
:103EE00020F044C021F045C022F046C023F023EC6E
:103EF0001AF01CC035F01DC036F01EC037F01FC0D0
:103F000038F035C035F036C036F037C037F038C03D
:103F100038F01200146E1450D8A40FAE1AD00CC092
:103F200010F00DC011F00EC012F00FC013F0101EF3
:103F3000111E121E131E102A000E1122122213220D
:103F400010C016F011C017F012C018F013C019F00D
:103F500008D00CC016F00DC017F00EC018F00FC03E
:103F600019F00C500D100E100F10D8A409D0000E2F
:103F70000C6E000E0D6E000E0E6E000E0F6E120017
:103F8000960E156E06D0152AD890193218321732AF
:103F90001632000E1614106E000E1714116E000E5D
:103FA0001814126EFE0E1914136E10501110121008
:103FB0001310D8B40DD0E7D7152A010E1626000E1F
:103FC000172218221922D8901932183217321632B5
:103FD000000E1614106E000E1714116E000E181439
:103FE000126EFF0E1914136E1050111012101310D0
:103FF000D8B407D0E1D71506D8901636173618363C
:10400000193618BE03D0020E1560F5D715A0189EFC
:10401000D890153215C010F0116A126A136A10C0D8
:1040200013F0126A116A106A10501612115017120A
:1040300012501812135019121450D8A40FAE01D0F8
:10404000198E16C00CF017C00DF018C00EF019C074
:104050000FF012000F0EC16E000E956E93809382CA
:10406000939EF28ED08EF28EF28CF288F292F086CF
:10407000F090F09CF19CF19A000E8C6E000E000105
:10408000B16F000EB06FB0C00CF0B1C00DF0000EFB
:104090000DBEFF0E0E6E0F6E010E8AEC1FF00CC0EF
:1040A000AAF00DC0ABF00EC0ACF00FC0ADF0AAC0CE
:1040B00091F0ABC092F0ACC093F0ADC094F0000EA4
:1040C00000018D6F000E8E6F000E8F6F400E906F8F
:1040D00040EC04F08DC09EF08EC09FF08FC0A0F029
:1040E00090C0A1F0FAEC20F09EC0AEF09FC0AFF0FF
:1040F000AEC08CFF050E0001A96F0F0EA86FF10E68
:10410000E82EFED7A82FFCD7A92FFAD70001B04B75
:10411000B12BB1BFB8D7B151B1E1080EB05DD8B085
:10412000ADD7B1D7000E3D14456E000E3E14466E5D
:10413000800E3F14476E7F0E4014486E4550461067
:1041400047104810D8A408D0000E3D6E000E3E6EF9
:10415000000E3F6E000E406E000E4114456E000EC4
:104160004214466E800E4314476E7F0E4414486E10
:104170004550461047104810D8A408D0000E416E94
:10418000000E426E000E436E000E446E40AE09D02B
:104190003D6C3E1ED8B03E2A3F1ED8B03F2A800E4E
:1041A000405644AE09D0416C421ED8B0422A431E4C
:1041B000D8B0432A800E4456000E3D1A000E3E1A17
:1041C000000E3F1A800E401A000E411A000E421ACD
:1041D000000E431A800E441A41503D5C42503E5836
:1041E00043503F5844504058D8B002D0D8901200A5
:1041F000D88012000001A035A135A76FA751D8A41F
:1042000009D0000E9E6F000E9F6F000EA06F000E73
:10421000A16F12009EC0A2F09FC0A3F0A0C0A4F0A6
:10422000A1C0A5F0200E05D0D890A533A433A333A8
:10423000A233E82EF9D7A251A66FA08FFF0E9E17CA
:10424000FF0E9F17FF0EA017000EA117960EA75F77
:10425000A7AF0DD0A751800A970FD8A0D2D7D8907A
:10426000A133A0339F339E33A73FF9D70DD01F0E44
:10427000A76507D0C6D7D8909E379F37A037A137FC
:10428000A707A751D8A4F7D7A651D8B408D0A11F23
:10429000A01F9F1F9E6D000E9F23A023A1239EC0E1
:1042A0009EF09FC09FF0A0C0A0F0A1C0A1F012009E
:1042B0000600F2A221D0F292000E046E000E036EF0
:1042C0008C688A8E16D003C08CFF0306D8A0040623
:1042D000020E026E040E016EBA0EE82EFED7012EFB
:1042E000FCD7022EFAD700D004AE03D0000E046E25
:1042F000036881A0E8D78A9E53921100000E391AF4
:10430000000E3A1A000E3B1A800E3C1A35C00CF013
:1043100036C00DF037C00EF038C00FF039C010F0C5
:104320003AC011F03BC012F03CC013F0CCEC1BF0D3
:104330000CC035F00DC036F00EC037F00FC038F0AD
:104340001200FC0EF66E430EF76E000EF86E0900BA
:10435000F5CFB2F00900F5CFB3F0526A516A506A56
:104360004F6A4E6A4D6A53905392000EF86E080ED3
:10437000F76E00012AEF20F04DC010F04EC011F092
:104380004FC012F050C013F00CC010F00DC011F06F
:104390000EC012F00FC013F0139E10C00CF011C02D
:1043A0000DF012C00EF013C00FF012000C500D10E3
:1043B0000E100F10D8B408D0000E0C1A000E0D1AF3
:1043C000000E0E1A800E0F1A0CC00CF00DC00DF06E
:1043D0000EC00EF00FC00FF01200FF0E106EFF0E99
:1043E000116EFF0E126E7F0E136E10C00CF011C016
:0E43F0000DF012C00EF013C00FF0120002000C
:020000040020DA
:08000000FFFFFFFFFFFFFFFF00
:020000040030CA
:0E000000000C181EFF8481FF0FC00FE00F40A0
:00000001FF
