:020000040000FA
:0400000007EF00F016
:100008005F8297ED25F0E7EF23F0800E0F6E250E47
:10001800106E000E116E000E126E9EEC22F0F19E14
:100028000F0EC16E958C958E9490F00E936E000E07
:10003800966E9280B7EC1EF0010E28EC1EF00C0EA6
:1000480028EC1EF0020E0001E56F860EE46F990E93
:10005800E82EFED7E42FFCD7E52FFAD7839C839EA2
:100068008B90000E816E000E8D6E8090000E000148
:10007800F76F000EF66F000EF56F000EF46F000EAE
:10008800F96F000EF86F83AE03D083BC17EF08F04A
:100098000001F851F911D8A40BD0F651F711D8A4E2
:1000A80007D0F451F511D8A403D0FA0EA6EC25F028
:1000B800010E28EC1EF0020E0001E56F860EE46FBB
:1000C800990EE82EFED7E42FFCD7E52FFAD7010EBC
:1000D800046ECF0E056E7D0E066E010EDAEC22F070
:1000E800010E046EDE0E056E7D0E066E020EDAEC53
:1000F80022F01F0E0001E56F710EE46F1E0EE82E50
:10010800FED7E42FFCD7E52FFAD700F0010E28EC34
:100118001EF0020E0001E56F860EE46F990EE82EC0
:10012800FED7E42FFCD7E52FFAD7010E046E800E18
:10013800056E7D0E066E010EDAEC22F0040E046EDA
:10014800900E056E7F0E066E020EDAEC22F01F0E80
:100158000001E56F710EE46F1E0EE82EFED7E42F46
:10016800FCD7E52FFAD700F0010E28EC1EF0020E9E
:100178000001E56F860EE46F990EE82EFED7E42F96
:10018800FCD7E52FFAD7010E046E5F0E056E7D0EC3
:10019800066E010EDAEC22F0010E046E4E0E056EAC
:1001A8007D0E066E020EDAEC22F01F0E0001E56FDE
:1001B800710EE46F1E0EE82EFED7E42FFCD7E52F54
:1001C800FAD700F0010E28EC1EF0020E0001E56FD0
:1001D800860EE46F990EE82EFED7E42FFCD7E52FA4
:1001E800FAD7010E046E3D0E056E7D0E066E010EE9
:1001F800DAEC22F0020E046E470E056E7E0E066ED5
:10020800020EDAEC22F01F0E0001E56F710EE46FAA
:100218001E0EE82EFED7E42FFCD7E52FFAD700F004
:10022800010E28EC1EF0020E0001E56F860EE46F49
:10023800990EE82EFED7E42FFCD7E52FFAD7010E4A
:10024800046EC00E056E7D0E066E010EDAEC22F00D
:10025800010E046E700E056E7D0E066E020EDAEC4F
:1002680022F01F0E0001E56F710EE46F1E0EE82EDE
:10027800FED7E42FFCD7E52FFAD700F0010E28ECC3
:100288001EF0020E0001E56F860EE46F990EE82E4F
:10029800FED7E42FFCD7E52FFAD7010E046EFC0E2B
:1002A800056E7D0E066E010EDAEC22F0040E046E69
:1002B800CC0E056E7F0E066E020EDAEC22F01F0ED3
:1002C8000001E56F710EE46F1E0EE82EFED7E42FD5
:1002D800FCD7E52FFAD700F0010E28EC1EF0020E2D
:1002E8000001E56F860EE46F990EE82EFED7E42F25
:1002F800FCD7E52FFAD7010E046E550E056E7E0E5B
:10030800066E010EDAEC22F0040E046E710E056E14
:100318007E0E066E020EDAEC22F01F0E0001E56F6B
:10032800710EE46F1E0EE82EFED7E42FFCD7E52FE2
:10033800FAD700F0010E28EC1EF0010E046EF10E43
:10034800056E7E0E066E010EDAEC22F09D0E00019F
:10035800A06F010EA16F0B0EA26F7E0EA36FF8C0E7
:10036800A4F0F9C0A5F011EC24F0010E046E9D0E66
:10037800056E010E066E020E4DEC23F01F0E0001F5
:10038800E56F710EE46F1E0EE82EFED7E42FFCD742
:10039800E52FFAD700F0010E28EC1EF0010E046ECE
:1003A800630E056E7E0E066E010EDAEC22F08C0EE0
:1003B8000001A06F010EA16F0B0EA26F7E0EA36F3E
:1003C800F6C0A4F0F7C0A5F011EC24F0010E046EFD
:1003D8008C0E056E010E066E020E4DEC23F01F0EFC
:1003E8000001E56F710EE46F1E0EE82EFED7E42FB4
:1003F800FCD7E52FFAD700F0010E28EC1EF0010E0D
:10040800046E980E056E7E0E066E010EDAEC22F072
:100418007B0E0001A06F010EA16F0B0EA26F7E0E66
:10042800A36FF4C0A4F0F5C0A5F011EC24F0010E00
:10043800046E7B0E056E010E066E020E4DEC23F067
:100448001F0E0001E56F710EE46F1E0EE82EFED739
:10045800E42FFCD7E52FFAD700F0010E28EC1EF0A8
:10046800010E046E1A0E056E7E0E066E010EDAEC93
:1004780022F0000E0001FF6F2BD0D1EC20F0310EDE
:100488000001FF19D8B40CD0320EFF19D8B408D027
:10049800330EFF19D8B404D0410EFF19D8A418D0D0
:1004A800FFC0FEF09D0EA06F010EA16F980EA26F07
:1004B8007F0EA36FFEC0A4F0A56B11EC24F0010E13
:1004C800046E9D0E056E010E066E020E4DEC23F0B5
:1004D8002A0E0001FF19D8A4D0D7000EFF6FF851DB
:1004E800F911D8A4ECEF07F0F651F711D8A4ECEF06
:1004F80007F0F451F511D8A4ECEF07F0000EFF6FE8
:10050800010E28EC1EF0020E0001E56F860EE46F66
:10051800990EE82EFED7E42FFCD7E52FFAD7010E67
:10052800046E410E056E7F0E066E010EDAEC22F0A7
:10053800010E046E900E056E7D0E066E020EDAEC4C
:1005480022F01F0E0001E56F710EE46F1E0EE82EFB
:10055800FED7E42FFCD7E52FFAD700F0010E28ECE0
:100568001EF0020E0001E56F860EE46F990EE82E6C
:10057800FED7E42FFCD7E52FFAD7010E046E870EBD
:10058800056E7F0E066E010EDAEC22F0010E046E87
:10059800900E056E7D0E066E020EDAEC22F01F0E2E
:1005A8000001E56F710EE46F1E0EE82EFED7E42FF2
:1005B800FCD7E52FFAD700F0010E28EC1EF0020E4A
:1005C8000001E56F860EE46F990EE82EFED7E42F42
:1005D800FCD7E52FFAD7010E046EA80E056E7F0E24
:1005E800066E010EDAEC22F0010E046E740E056E32
:1005F8007F0E066E020EDAEC22F01F0E0001E56F88
:10060800710EE46F1E0EE82EFED7E42FFCD7E52FFF
:10061800FAD700F0010E28EC1EF0020E0001E56F7B
:10062800860EE46F990EE82EFED7E42FFCD7E52F4F
:10063800FAD7010E046EE50E056E7E0E066E010EEB
:10064800DAEC22F0010E046E900E056E7D0E066E39
:10065800020EDAEC22F01F0E0001E56F710EE46F56
:100668001E0EE82EFED7E42FFCD7E52FFAD700F0B0
:10067800010E28EC1EF0020E0001E56F860EE46FF5
:10068800990EE82EFED7E42FFCD7E52FFAD72FD006
:10069800D1EC20F0410E0001FF19D8B408D0420E69
:1006A800FF19D8B404D0430EFF19D8A420D0FF51A5
:1006B800E86FE96BEA6BEB6B7B0EA06F010EA16F25
:1006C800600EA26F7F0EA36FE8C0A4F0E9C0A5F08A
:1006D800EAC0A6F0EBC0A7F011EC24F0010E046EFE
:1006E8007B0E056E010E066E020E4DEC23F02A0EEF
:1006F8000001FF19D8B44BD1CBD7000EFF6F010E04
:1007080028EC1EF0020E0001E56F860EE46F990ECC
:10071800E82EFED7E42FFCD7E52FFAD7010E046E9A
:10072800A50E056E7E0E066E010EDAEC22F0010EA5
:10073800046E8B0E056E7E0E066E020EDAEC22F04B
:10074800170E0001E56FD50EE46F160EE82EFED7E2
:10075800E42FFCD7E52FFAD700F0010E28EC1EF0A5
:10076800020E0001E56F860EE46F990EE82EFED7A3
:10077800E42FFCD7E52FFAD7010E046E290E056E7B
:100788007E0E066E010EDAEC22F0010E046ECC0E1F
:10079800056E7E0E066E020EDAEC22F0170E0001D0
:1007A800E56FD50EE46F160EE82EFED7E42FFCD7C2
:1007B800E52FFAD700F0010E28EC1EF0020E00011A
:1007C800E56F860EE46F990EE82EFED7E42FFCD76E
:1007D800E52FFAD7010E046E900E056E7D0E066E9B
:1007E800010EDAEC22F0010E046E900E056E7D0EFD
:1007F800066E020EDAEC22F0170E0001E56FD50E38
:10080800E46F160EE82EFED7E42FFCD7E52FFAD7B3
:1008180000F0010E28EC1EF0020E0001E56F860EB6
:10082800E46F990EE82EFED7E42FFCD7E52FFAD710
:1008380077EC1AF0100E0001E56F390EE46F0D0E1B
:10084800E82EFED7E42FFCD7E52FFAD700D0C0D387
:10085800010E28EC1EF0020E0001E56F860EE46F13
:10086800990EE82EFED7E42FFCD7E52FFAD7010E14
:10087800046E560E056E7F0E066E010EDAEC22F03F
:10088800010E046EED0E056E7D0E066E020EDAEC9C
:1008980022F0170E0001E56FD50EE46F160EE82E54
:1008A800FED7E42FFCD7E52FFAD700F0010E28EC8D
:1008B8001EF0020E0001E56F860EE46F990EE82E19
:1008C800FED7E42FFCD7E52FFAD7010E046E900E61
:1008D800056E7D0E066E010EDAEC22F0010E046E36
:1008E800900E056E7D0E066E020EDAEC22F0170EE3
:1008F8000001E56FD50EE46F160EE82EFED7E42F43
:10090800FCD7E52FFAD700F0010E28EC1EF0020EF6
:100918000001E56F860EE46F990EE82EFED7E42FEE
:10092800FCD7E52FFAD7000E0001FB6F000EFA6F17
:1009380016D08B80040E0001E46FE40EE82EFED77B
:10094800E42FFCD700F08B904B0E0001E46F050EEE
:10095800E82EFED7E42FFCD70001FA4BFB2B640EE0
:10096800FA19FB11D8A4E5D74D0E0001E56F190E51
:10097800E46F4F0EE82EFED7E42FFCD7E52FFAD709
:1009880000D0000E000101D0410EFE6F21D3E8C057
:10099800E4F0E9C0E5F0EAC0E6F0EBC0E7F0E751C3
:1009A800000AD8B410D014D3E551000AD8A410D343
:1009B800E451410AD8B4A1D6030AD8B449D7010AE8
:1009C800D8B4E2D705D3E651000AD8B4EDD700D39E
:1009D800000EFF6FF851F911D8B476D00C0EF82537
:1009E800D96E010EF921DA6E460EDF6E010E28EC83
:1009F8001EF0020E0001E56F860EE46F990EE82ED8
:100A0800FED7E42FFCD7E52FFAD7010E046E1E0E91
:100A1800056E7E0E066E010EDAEC22F0010E046EF3
:100A2800F60E056E7E0E066E020EDAEC22F01F0E32
:100A38000001E56F710EE46F1E0EE82EFED7E42F5D
:100A4800FCD7E52FFAD700F0010E28EC1EF0020EB5
:100A58000001E56F860EE46F990EE82EFED7E42FAD
:100A6800FCD7E52FFAD7000E0001B36FFA0EB26F6C
:100A7800EFEC11F0F8C002F0000E046E000E036EE9
:100A88000A0E85EC23F016D08B80040E0001E46F6B
:100A9800E40EE82EFED7E42FFCD700F08B904B0E27
:100AA8000001E46F050EE82EFED7E42FFCD7000105
:100AB800FA4BFB2B640E0001FA19FB11D8A4E4D7FA
:100AC800F807D8A0F9079AD2010E28EC1EF0020EFA
:100AD8000001E56F860EE46F990EE82EFED7E42F2D
:100AE800FCD7E52FFAD7050E046ED80E056E7F0EDB
:100AF800066E010EDAEC22F0010E046EA00E056EF1
:100B08007D0E066E020EDAEC22F0010E28EC1EF0C5
:100B1800020E0001E56F860EE46F990EE82EFED7EF
:100B2800E42FFCD7E52FFAD7050E046E4C0E056EA0
:100B38007F0E066E010EDAEC22F0010E046E090E2D
:100B4800056E7F0E066E020EDAEC22F0010E28EC1E
:100B58001EF0020E0001E56F860EE46F990EE82E76
:100B6800FED7E42FFCD7E52FFAD728EC0DF046D2B4
:100B7800000EFF6FF651F711D8B476D0060EF625A1
:100B8800D96E010EF721DA6E460EDF6E010E28ECE3
:100B98001EF0020E0001E56F860EE46F990EE82E36
:100BA800FED7E42FFCD7E52FFAD7010E046E1E0EF0
:100BB800056E7E0E066E010EDAEC22F0010E046E52
:100BC800680E056E7E0E066E020EDAEC22F01F0E1F
:100BD8000001E56F710EE46F1E0EE82EFED7E42FBC
:100BE800FCD7E52FFAD700F0010E28EC1EF0020E14
:100BF8000001E56F860EE46F990EE82EFED7E42F0C
:100C0800FCD7E52FFAD7010E0001B36FC20EB26F01
:100C1800EFEC11F0F6C002F0000E046E000E036E49
:100C2800140E85EC23F016D08B80040E0001E46FBF
:100C3800E40EE82EFED7E42FFCD700F08B904B0E85
:100C48000001E46F050EE82EFED7E42FFCD7000163
:100C5800FA4BFB2B640E0001FA19FB11D8A4E4D758
:100C6800F607D8A0F707CAD1010E28EC1EF0020E2D
:100C78000001E56F860EE46F990EE82EFED7E42F8B
:100C8800FCD7E52FFAD7050E046ED80E056E7F0E39
:100C9800066E010EDAEC22F0010E046EA00E056E4F
:100CA8007D0E066E020EDAEC22F0010E28EC1EF024
:100CB800020E0001E56F860EE46F990EE82EFED74E
:100CC800E42FFCD7E52FFAD7050E046E4C0E056EFF
:100CD8007F0E066E010EDAEC22F0010E046E090E8C
:100CE800056E7F0E066E020EDAEC22F0010E28EC7D
:100CF8001EF02FD7000EFF6FF451F511D8B476D03F
:100D0800000EF425D96E010EF521DA6E460EDF6E5F
:100D1800010E28EC1EF0020E0001E56F860EE46F4E
:100D2800990EE82EFED7E42FFCD7E52FFAD7010E4F
:100D3800046E1E0E056E7E0E066E010EDAEC22F0B3
:100D4800010E046EC50E056E7F0E066E020EDAECFD
:100D580022F01F0E0001E56F710EE46F1E0EE82EE3
:100D6800FED7E42FFCD7E52FFAD700F0010E28ECC8
:100D78001EF0020E0001E56F860EE46F990EE82E54
:100D8800FED7E42FFCD7E52FFAD7020E0001B36F88
:100D9800580EB26FEFEC11F0F4C002F0000E046EC2
:100DA800000E036E1E0E85EC23F016D08B80040E09
:100DB8000001E46FE40EE82EFED7E42FFCD700F024
:100DC8008B904B0E0001E46F050EE82EFED7E42F42
:100DD800FCD70001FA4BFB2B640E0001FA19FB113A
:100DE800D8A4E4D7F407D8A0F50708D1010E28EC59
:100DF8001EF0020E0001E56F860EE46F990EE82ED4
:100E0800FED7E42FFCD7E52FFAD7050E046ED80ECF
:100E1800056E7F0E066E010EDAEC22F0010E046EEE
:100E2800A00E056E7D0E066E020EDAEC22F0010EA3
:100E380028EC1EF0020E0001E56F860EE46F990E95
:100E4800E82EFED7E42FFCD7E52FFAD7050E046E5F
:100E58004C0E056E7F0E066E010EDAEC22F0010EC6
:100E6800046E090E056E7F0E066E020EDAEC22F095
:100E7800010E28EC1EF06DD6000EFF6F010E28EC57
:100E88001EF0020E0001E56F860EE46F990EE82E43
:100E9800FED7E42FFCD7E52FFAD7030E046ED90E40
:100EA800056E7E0E066E010EDAEC22F0050E046E5B
:100EB800E20E056E7F0E066E020EDAEC22F01F0EB1
:100EC8000001E56F710EE46F1E0EE82EFED7E42FC9
:100ED800FCD7E52FFAD700F0010E28EC1EF0020E21
:100EE8000001E56F860EE46F990EE82EFED7E42F19
:100EF800FCD7E52FFAD7010E046EB00E056E7F0EF3
:100F0800066E010EDAEC22F0050E046EBE0E056EBA
:100F18007F0E066E020EDAEC22F01F0E0001E56F5E
:100F2800710EE46F1E0EE82EFED7E42FFCD7E52FD6
:100F3800FAD700F0010E28EC1EF0020E0001E56F52
:100F4800860EE46F990EE82EFED7E42FFCD7E52F26
:100F5800FAD7000E0001FB6F000EFA6F16D08B80D7
:100F6800040E0001E46FE40EE82EFED7E42FFCD750
:100F780000F08B904B0E0001E46F050EE82EFED7B3
:100F8800E42FFCD70001FA4BFB2B640EFA19FB1176
:100F9800D8A4E5D74D0E0001E56F190EE46F4F0E8A
:100FA800E82EFED7E42FFCD7E52FFAD700D026D0BD
:100FB800010E28EC1EF0020E0001E56F860EE46FAC
:100FC800990EE82EFED7E42FFCD7E52FFAD716D0D6
:100FD8000001FE51E46FE56BE551000AD8A4E8D79B
:100FE800E451310AD8B4F4D4030AD8B4C1D5010AFB
:100FF800D8B480D6720AD8B43FD7DAD70001F851EE
:10100800F911D8A447EF00F0F651F711D8A447EF2B
:1010180000F0F451F511D8A447EF00F0FA0EA6EC51
:1010280025F047EF00F0020E046E200E056E7F0ECD
:10103800066E010EDAEC22F0020E046E150E056E35
:101048007F0E066E020EDAEC22F02BD08B80080E93
:101058000001E46FC90EE82EFED7E42FFCD700D0BC
:101068008B90470E0001E46F1F0EE82EFED7E42F89
:10107800FCD700D080B015D0010E28EC1EF0020E6F
:101088000001E56F860EE46F990EE82EFED7E42F77
:10109800FCD7E52FFAD777EC1AF0F90EA6EC25F075
:1010A80004D083AE02D083BCD1D7010E28EC1EF049
:1010B800020E0001E56F860EE46F990EE82EFED74A
:1010C800E42FFCD7E52FFAD747EF00F0000E000118
:1010D8007B6F000E7A6F34C08CF035C08DF036C04F
:1010E8008EF037C08FF08FAF16D0000E7B6F010ED9
:1010F8007A6F8CC001F08DC002F08EC003F08FC0F3
:1011080004F058EC25F001C08CF002C08DF003C04B
:101118008EF004C08FF0000E0001936F000E926FE6
:10112800EEC07FF0EFC080F07A517B11D8A402D0D6
:10113800F2A513D07A517B11D8A404D0000E656FA4
:101148002B0E03D0000E656F2D0E646F64C01AF16C
:10115800924B932B7F07D8A080078CC001F08DC0DD
:1011680002F08EC003F08FC004F0A8EC1FF0010459
:101178000210D8A44CD0BF0E396EFF0E3A6E38500C
:101188003B6E3C6A39503B263A503C223C5006E1C3
:101198001A0E3B5CD8B002D0010E01D0000E00013F
:1011A800666F676B66516711D8B40DD01A0E922519
:1011B800016E010E9321026EEC0E036E7F0E046E1B
:1011C8003AEC24F00CD01A0E9225016E010E9321F0
:1011D800026EF40E036E7F0E046E3AEC24F00001EA
:1011E800FD0E7F27FF0E802332C011F033C012F0AE
:1011F8001A0E136E010E146E7FC015F080C016F023
:10120800CAEC21F011C032F012C033F012008CC0C9
:1012180001F08DC002F08EC003F08FC004F0A8EC7E
:101228001FF001500210D8A435D0BF0E396EFF0E42
:101238003A6E38503B6E3C6A39503B263A503C2255
:101248003C5006E11A0E3B5CD8B002D0010E01D02A
:10125800000E0001686F696B68516911D8B40DD030
:101268001A0E9225016E010E9321026EF00E036E86
:101278007F0E046E3AEC24F0B2D71A0E9225016E56
:10128800010E9321026EF80E036E7F0E046E3AEC87
:1012980024F0A5D7000E0001946F000E956F800E04
:1012A800966F3F0E976F000E916F000E906F8CC077
:1012B80001F08DC002F08EC003F08FC004F0000E64
:1012C800056E000E066E000E076E000E086E17EC17
:1012D80022F0D8A01ED076D094C001F095C002F0BC
:1012E80096C003F097C004F0000E056E000E066E5F
:1012F800200E076E410E086E05EC14F001C094F044
:1013080002C095F003C096F004C097F00001904B1E
:10131800912B8CC01AF08DC01BF08EC01CF08FC0B2
:101328001DF0000E056E000E066E200E076E410EB3
:10133800086E94C001F095C002F096C003F097C003
:1013480004F005EC14F001C01EF002C01FF003C049
:1013580020F004C021F040EC1FF0D8A01FD0BCD76B
:1013680094C001F095C002F096C003F097C004F055
:10137800000E056E000E066E200E076E410E086EFA
:1013880034EC17F001C094F002C095F003C096F059
:1013980004C097F000019007D8A091078CC01AF0FC
:1013A8008DC01BF08EC01CF08FC01DF094C01EF0C5
:1013B80095C01FF096C020F097C021F040EC1FF0B8
:1013C800D8A0CED738C007F0086A8BEC24F00750B5
:1013D8000001816F81C07EF0670E8119D8A419D0F1
:1013E800F051F111D8A404D0000EF16F010EF06F86
:1013F800F1BF05D0F15108E1F005D8B005D0000ED5
:101408007D6F060E7C6F08D0F0C07CF0F1C07DF0D7
:1014180003D0F1AFF9D7F3D7670E8119D8A422D03A
:1014280091AF06D0FC0E905DFF0E9159D8A018D050
:10143800FF0E396EFF0E3A6E7CC03BF07DC03CF06B
:1014480039503B263A503C2290513B5C3C50800A34
:101458003D6E9151800A3D58D8A002D0660E01D049
:10146800650E7E6F7CC074F07DC075F0670E8119C3
:10147800D8A405D0660E7E19D8B491AF02D0744BAB
:10148800752B660E7E19D8A416D091AF0CD0000E1D
:10149800946F000E956F800E966F3F0E976F000E3B
:1014A800916F000E906F670E8119D8B404D09051D7
:1014B800742791517523000E8B6F000E8A6F8CC0B4
:1014C80082F08DC083F08EC084F08FC085F094C008
:1014D80060F095C061F096C062F097C063F07BD071
:1014E80082C001F083C002F084C003F085C004F01C
:1014F80094C005F095C006F096C007F097C008F0B4
:1015080034EC17F001C01AF002C01BF003C01CF045
:1015180004C01DF09CEC19F01AC086F01BC087F0BF
:101528001CC088F01DC089F086C001F087C002F099
:1015380088C003F089C004F074EC20F001C078F092
:1015480002C079F082C02AF083C02BF084C02CF04E
:1015580085C02DF094C005F095C006F096C007F040
:1015680097C008F086C001F087C002F088C003F079
:1015780089C004F005EC14F001C02EF002C02FF071
:1015880003C030F004C031F0B1EC24F02AC082F07E
:101598002BC083F02CC084F02DC085F094C001F0DE
:1015A80095C002F096C003F097C004F0000E056ED7
:1015B800000E066E200E076E410E086E34EC17F012
:1015C80001C094F002C095F003C096F004C097F0F3
:1015D80000018A4B8B2B74518A5D8B51800A396EBE
:1015E8007551800A3958D8A07BD794C001F095C0AE
:1015F80002F096C003F097C004F0000E056E000ECE
:10160800066EA00E076E400E086E05EC14F001C0C1
:1016180086F002C087F003C088F004C089F082C059
:101628001AF083C01BF084C01CF085C01DF086C072
:101638001EF087C01FF088C020F089C021F040EC60
:101648001FF0D8B003D0000E000118D082C001F0FE
:1016580083C002F084C003F085C004F086C005F0A2
:1016680087C006F088C007F089C008F017EC22F0A0
:10167800D8A00BD0000178B108D0000E866F000EFC
:10168800876F000E886F000E896F8CC01AF08DC0AE
:101698001BF08EC01CF08FC01DF086C01EF087C0E6
:1016A8001FF088C020F089C021F0AEEC15F01AC0F8
:1016B80082F01BC083F01CC084F01DC085F060C0A0
:1016C80094F061C095F062C096F063C097F0650E23
:1016D80000017E19D8B405D090C076F091C077F09B
:1016E80004D0000E776F000E766F000E736F000E39
:1016F800726F000E716F000E706F000E8B6F000E10
:101708008A6FC6D082C001F083C002F084C003F0A3
:1017180085C004F094C005F095C006F096C007F0A7
:1017280097C008F034EC17F001C01AF002C01BF0A3
:1017380003C01CF004C01DF09CEC19F01AC086F020
:101748001BC087F01CC088F01DC089F086C001F05E
:1017580087C002F088C003F089C004F074EC20F060
:1017680001C078F002C079F00001F2B90CD07851CC
:101778007911D8A408D0670E8119D8B477AF03D0EF
:10178800704B712B39D072517311D8B477AF22D006
:101798001A0E9225D96E010E9321DA6E2E0EDF6E87
:1017A800924B932B7F07D8A08007000E736F010E12
:1017B800726F10D01A0E9225D96E010E9321DA6E2F
:1017C800300EDF6E924B932B7F07D8A080077007EF
:1017D800D8A0710770517111D8A4ECD71A0E9225B0
:1017E800D96E010E9321DA6E7851300FDF6E924B6D
:1017F800932B7F07D8A0800782C02AF083C02BF0E4
:1018080084C02CF085C02DF094C005F095C006F07A
:1018180096C007F097C008F086C001F087C002F0B4
:1018280088C003F089C004F005EC14F001C02EF064
:1018380002C02FF003C030F004C031F0B1EC24F046
:101848002AC082F02BC083F02CC084F02DC085F014
:1018580094C001F095C002F096C003F097C004F060
:10186800000E056E000E066E200E076E410E086E05
:1018780034EC17F001C094F002C095F003C096F064
:1018880004C097F000017607D8A077078A4B8B2B06
:1018980074518A5D8B51800A396E7551800A3958A6
:1018A800D8B008D093BF2ED7935104E14B0E925D68
:1018B800D8A028D772517311D8B4F2A90AD01A0E39
:1018C8009225D96E010E9321DA6E2E0EDF6E924BA1
:1018D800932B1A0E9225D96E010E9321DA6E000E03
:1018E800DF6E650E7E19D8A47FD4000E8B6F4F0E65
:1018F8008A6F1A0E8A25D96E010E8B21DA6E000EB8
:10190800DF6E000E7B6F000E7A6F91AF08D0000E6D
:101918007B6F010E7A6F906D911FD8B0912B000EDE
:101928007D6F020E7C6F2BD08A07D8A08B071A0E0A
:101938008A25D96E010E8B21DA6E90C001F091C014
:1019480002F0000E046E0A0E036E15EC23F001502F
:10195800300FDF6E90C001F091C002F0000E046EEF
:101968000A0E036E5CEC22F001C090F002C091F008
:1019780000017C07D8A07D077F07D8A08007905179
:101988009111D8A4D1D77DBF05D07D51CDE17C057B
:10199800D8B0CAD78A07D8A08B077A517B11D8A4A8
:1019A80004D0000E6B6F2B0E03D0000E6B6F2D0E44
:1019B8006A6F1A0E8A25D96E010E8B21DA6E6AC0FB
:1019C800DFFF7F07D8A080078A07D8A08B07BF0E44
:1019D800396EFF0E3A6E38503B6E3C6A39503B26E2
:1019E8003A503C223C5006E11A0E3B5CD8B002D07B
:1019F800010E01D0000E6E6F6F6B6E516F11D8A47F
:101A080004D0000E6D6F650E03D0000E6D6F450E8D
:101A18006C6F1A0E8A25D96E010E8B21DA6E6CC096
:101A2800DFFF7F07D8A080071A0E9225016E010EEE
:101A38009321026E1A0E8A25036E010E8B21046E05
:101A48003AEC24F0F8EF08F0010E28EC1EF0020E34
:101A58000001DD6F860EDC6F990EE82EFED7DC2FB5
:101A6800FCD7DD2FFAD7010E046EBF0E056E7E0E71
:101A7800066E010EDAEC22F0030E046E7E0E056E81
:101A88007E0E066E020EDAEC22F01F0E0001DD6FEC
:101A9800710EDC6F1E0EE82EFED7DC2FFCD7DD2F73
:101AA800FAD700F0010E28EC1EF0020E0001DD6FDF
:101AB800860EDC6F990EE82EFED7DC2FFCD7DD2FC3
:101AC800FAD7010E046E870E056E7F0E066E010EA4
:101AD800DAEC22F0010E046E900E056E7D0E066E95
:101AE800020EDAEC22F01F0E0001DD6F710EDC6FC2
:101AF8001E0EE82EFED7DC2FFCD7DD2FFAD700F01C
:101B0800010E28EC1EF0020E0001DD6F860EDC6F60
:101B1800990EE82EFED7DC2FFCD7DD2FFAD7010E61
:101B2800046EA80E056E7F0E066E010EDAEC22F02A
:101B3800010E046E740E056E7F0E066E020EDAEC50
:101B480022F01F0E0001DD6F710EDC6F1E0EE82EF5
:101B5800FED7DC2FFCD7DD2FFAD700F0010E28ECDA
:101B68001EF0020E0001DD6F860EDC6F990EE82E66
:101B7800FED7DC2FFCD7DD2FFAD7010E046EE50E59
:101B8800056E7E0E066E010EDAEC22F0010E046E72
:101B9800900E056E7D0E066E020EDAEC22F01F0E18
:101BA8000001DD6F710EDC6F1E0EE82EFED7DC2FF4
:101BB800FCD7DD2FFAD700F0010E28EC1EF0020E3C
:101BC8000001DD6F860EDC6F990EE82EFED7DC2F44
:101BD800FCD7DD2FFAD79BD1D1EC20F0410E0001C4
:101BE800FF19D8B408D0420EFF19D8B404D0430E58
:101BF800FF19D8A46BD1FF51E86FE96BEA6BEB6B67
:101C08007B0EA06F010EA16F600EA26F7F0EA36FF7
:101C1800E8C0A4F0E9C0A5F0EAC0A6F0EBC0A7F0C0
:101C280011EC24F0010E046E7B0E056E010E066E9B
:101C3800020E4DEC23F04AD1000EFF6F010E28EC86
:101C48001EF0020E0001DD6F860EDC6F990EE82E85
:101C5800FED7DC2FFCD7DD2FFAD7010E046EA50EB8
:101C6800056E7E0E066E010EDAEC22F0010E046E91
:101C78008B0E056E7E0E066E020EDAEC22F0170E43
:101C88000001DD6FD50EDC6F160EE82EFED7DC2FB7
:101C9800FCD7DD2FFAD700F0010E28EC1EF0020E5B
:101CA8000001DD6F860EDC6F990EE82EFED7DC2F63
:101CB800FCD7DD2FFAD7010E046E290E056E7E0EB5
:101CC800066E010EDAEC22F0010E046ECC0E056EE3
:101CD8007E0E066E020EDAEC22F0170E0001DD6FA2
:101CE800D50EDC6F160EE82EFED7DC2FFCD7DD2FC5
:101CF800FAD700F0010E28EC1EF0020E0001DD6F8D
:101D0800860EDC6F990EE82EFED7DC2FFCD7DD2F70
:101D1800FAD7010E046E900E056E7D0E066E010E4A
:101D2800DAEC22F0010E046E900E056E7D0E066E42
:101D3800020EDAEC22F0170E0001DD6FD50EDC6F13
:101D4800160EE82EFED7DC2FFCD7DD2FFAD700F0D1
:101D5800010E28EC1EF0020E0001DD6F860EDC6F0E
:101D6800990EE82EFED7DC2FFCD7DD2FFAD777ECBB
:101D78001AF0100E0001DD6F390EDC6F0D0EE82E23
:101D8800FED7DC2FFCD7DD2FFAD700D0C0D0010E4C
:101D980028EC1EF0020E0001DD6F860EDC6F990E36
:101DA800E82EFED7DC2FFCD7DD2FFAD7010E046E04
:101DB800560E056E7F0E066E010EDAEC22F0010E4D
:101DC800046EED0E056E7D0E066E020EDAEC22F044
:101DD800170E0001DD6FD50EDC6F160EE82EFED74C
:101DE800DC2FFCD7DD2FFAD700F0010E28EC1EF00F
:101DF800020E0001DD6F860EDC6F990EE82EFED70D
:101E0800DC2FFCD7DD2FFAD7010E046E900E056E7D
:101E18007D0E066E010EDAEC22F0010E046E900EB5
:101E2800056E7D0E066E020EDAEC22F0170E00012A
:101E3800DD6FD50EDC6F160EE82EFED7DC2FFCD733
:101E4800DD2FFAD700F0010E28EC1EF0020E00017B
:101E5800DD6F860EDC6F990EE82EFED7DC2FFCD7DF
:101E6800DD2FFAD7000E0001FB6F000EFA6F16D0B7
:101E78008B80040E0001DC6FE40EE82EFED7DC2F09
:101E8800FCD700F08B904B0E0001DC6F050EE82E9E
:101E9800FED7DC2FFCD70001FA4BFB2B640EFA1996
:101EA800FB11D8A4E5D74D0E0001DD6F190EDC6FCC
:101EB8004F0EE82EFED7DC2FFCD7DD2FFAD700D047
:101EC800000E000101D0410EFE6F21D0E8C0DCF009
:101ED800E9C0DDF0EAC0DEF0EBC0DFF00001DF5161
:101EE800000AD8B410D013D0DD51000AD8A40FD0FE
:101EF800DC51410AD8B4A0D6030AD8B448D7010A9D
:101F0800D8B4E1D704D0DE51000AD8B4EDD72A0EF0
:101F18000001FF19D8B412005FD642C0D9FF43C0F0
:101F2800DAFFDECFF6FFDDCFF7FF0800F550250A10
:101F3800D8A437D242C0D9FF43C0DAFFDE2A000E48
:101F4800DD22000E0001EF6F000EEE6FEEC0F2F022
:101F5800EFC0F3F0F069F16942C0D9FF43C0DAFF7E
:101F6800DECFF6FFDDCFF7FF0800F5502E0AD8A424
:101F78006DD0000EF16F000EF06F42C0D9FF43C064
:101F8800DAFFDE2A000EDD2242C0D9FF43C0DAFFA5
:101F9800DECFF6FFDDCFF7FF0800F5502A0AD8A4F8
:101FA8001CD042C0D9FF43C0DAFFDE2A000EDD2272
:101FB80044C0D9FF45C0DAFFDFCF46F0020EDE2667
:101FC800DFCF47F0000EDD2246C0D9FF47C0DAFF59
:101FD800DECFF0F0DDCFF1F039D042C0D9FF43C0F9
:101FE800DAFFDECF08F0DDCF09F064EC1CF008C0A2
:101FF800F0F009C0F1F007D042C0D9FF43C0DAFFC2
:10200800DE2A000EDD22D00E466EFF0E476E42C05D
:10201800D9FF43C0DAFFDECFF6FFDDCFF7FF0800B8
:10202800F550486E496A465048264750492249505B
:1020380006E10A0E485CD8B002D0010E01D0000EAD
:10204800526E536A52505310D8A4D6D742C0D9FF03
:1020580043C0DAFFDECFF6FFDDCFF7FF0800F5500B
:10206800076E086A8BEC24F007505A6E5A50D8B4A1
:1020780033D042C0D9FF43C0DAFFDECF46F0DDCF10
:1020880047F0010E4626000E472246C0F6FF47C01D
:10209800F7FF0800F550076E086A8BEC24F007502C
:1020A8005B6E5B50D8B418D042C0D9FF43C0DAFF8A
:1020B800DECF46F0DDCF47F0020E4626000E47225F
:1020C80046C0F6FF47C0F7FF0800F550076E086ADC
:1020D8008BEC24F007505C6E42C0D9FF43C0DAFF96
:1020E800DECFF6FFDDCFF7FF0800F550630AD8A46E
:1020F80026D042C0D9FF43C0DAFFDE2A000EDD2217
:1021080044C0D9FF45C0DAFFDFCF46F0020EDE2615
:10211800DFCF47F0000EDD2246C0D9FF47C0DAFF07
:10212800DF505D6E40C01CF041C01DF05DC01EF068
:1021380063EC24F01CC040F01DC041F0120042C006
:10214800D9FF43C0DAFFDECFF6FFDDCFF7FF080087
:10215800F550640AD8B40DD042C0D9FF43C0DAFFA5
:10216800DECFF6FFDDCFF7FF0800F550690AD8A4E7
:102178003FD042C0D9FF43C0DAFFDE2A000EDD227D
:1021880044C0D9FF45C0DAFFDFCF46F0020EDE2695
:10219800DFCF47F0000EDD2246C0D9FF47C0DAFF87
:1021A800DECF4AF0DDCF4BF0000E4BBEFF0E4C6E7B
:1021B8004D6E4E6E4F6E506E516E40C01CF041C059
:1021C8001DF04AC01EF04BC01FF04CC020F04DC09F
:1021D80021F04EC022F04FC023F050C024F051C06F
:1021E80025F078EC18F01CC040F01DC041F012003A
:1021F800660E5A18D8A43FD042C0D9FF43C0DAFFB0
:10220800DECFF6FFDDCFF7FF0800F5CF5DF042C067
:10221800D9FF43C0DAFFDE2A000EDD2244C0D9FF11
:1022280045C0DAFFDFCF46F0040EDE26DFCF47F0E9
:10223800000EDD2246C0D9FF47C0DAFFDECF56F0D8
:10224800DECF57F0DECF58F0DECF59F040C032F085
:1022580041C033F056C034F057C035F058C036F09E
:1022680059C037F05DC038F06AEC08F032C040F071
:1022780033C041F012005A0E016E000E026EFC0EC1
:10228800036E7F0E046E000E066E020E056E29ECBC
:1022980021F001500210D8A455D042C0D9FF43C044
:1022A800DAFFDECF46F0DDCF47F0010E4626000EFE
:1022B800472246C0F6FF47C0F7FF0800F5CF5DF09C
:1022C800BF0E466EFF0E476E42C0D9FF43C0DAFF0D
:1022D800DECFF6FFDDCFF7FF0800F550486E496AFC
:1022E8004650482647504922495006E11A0E485C94
:1022F800D8B002D0010E01D0000E546E556A545069
:10230800551044C0D9FF45C0DAFFDFCF46F0040EB0
:10231800DE26DFCF47F0000EDD2246C0D9FF47C0DA
:10232800DAFFDECF56F0DECF57F0DECF58F0DECF43
:1023380059F0020E42C0D9FF43C0DAFFDE26000E74
:10234800DD2284D742C0D9FF43C0DAFFDECFF6FFD3
:10235800DDCFF7FF0800F550250AD8A416D042C0F3
:10236800D9FF43C0DAFFDE2A000EDD22000E026E1E
:10237800250E016E40C003F041C004F07AEC21F054
:10238800000E416E010E406E120042C0D9FF43C0DC
:10239800DAFFDE2A000EDD22000E416E000E406ECE
:1023A800120042C0D9FF43C0DAFFDECFF6FFDDCF0F
:1023B800F7FF0800F550016E026A40C003F041C003
:1023C80004F07AEC21F042C0D9FF43C0DAFFDE2ADC
:1023D800000EDD22D5D7000E0001DF6F010EDE6F83
:1023E800000EE06F000EE16F000EE26F000EE36F6B
:1023F8006A0EA06F010EA16FDD0EA26F7F0EA36F94
:10240800B2C0A4F0B3C0A5F011EC24F0010E046E24
:10241800A00E056E7F0E066E010EDAEC22F0010E9C
:10242800046E6A0E056E010E066E020E4DEC23F068
:10243800170E0001B56FD50EB46F160EE82EFED735
:10244800B42FFCD7B52FFAD700F0010E28EC1EF0F8
:10245800020E0001B56F860EB46F990EE82EFED7F6
:10246800B42FFCD7B52FFAD7C90E0001A06F000E04
:10247800A16F6A0EA26F7F0EA36FB2C0A4F0B3C0A3
:10248800A5F011EC24F0B7D1010E046EC90E056E4B
:10249800000E066E010E4DEC23F069D0D1EC20F051
:1024A8002F0E0001FF6563D03A0EFF6160D0000E69
:1024B800056E000E066E200E076E410E086EE0C017
:1024C80001F0E1C002F0E2C003F0E3C004F005EC63
:1024D80014F001C01AF002C01BF003C01CF004C0C5
:1024E8001DF0D00E0001B46FFF0EB56FFF51B66F2F
:1024F800B76BB451B627B551B723B6C001F0B7C012
:1025080002F0000E02BEFF0E036E046E010EC4EC54
:102518001BF001C01EF002C01FF003C020F004C071
:1025280021F0AEEC15F01AC0E0F01BC0E1F01CC0C1
:10253800E2F01DC0E3F0B80E0001A06F000EA16F1D
:10254800360EA26F7F0EA36FE0C0A4F0E1C0A5F025
:10255800E2C0A6F0E3C0A7F011EC24F0010E046E6F
:10256800B80E056E000E066E020E4DEC23F02A0E14
:102578000001FF19D8A492D7E0C01AF0E1C01BF0FF
:10258800E2C01CF0E3C01DF0B2C001F0B3C002F01D
:10259800000E02BEFF0E036E046E010EC4EC1BF0AB
:1025A80001C01EF002C01FF003C020F004C021F0DB
:1025B80040EC1FF0D8B077D0000E0001FF6F000E7E
:1025C800E06F000EE16F000EE26F000EE36F010E88
:1025D80028EC1EF0020E0001B56F860EB46F990E3E
:1025E800E82EFED7B42FFCD7B52FFAD7010E046E0C
:1025F8007E0E056E7F0E066E010EDAEC22F0010EDD
:10260800046EFD0E056E7E0E066E020EDAEC22F0EA
:10261800170E0001B56FD50EB46F160EE82EFED753
:10262800B42FFCD7B52FFAD700F0010E28EC1EF016
:10263800020E0001B56F860EB46F990EE82EFED714
:10264800B42FFCD7B52FFAD7010E046EB00E056E65
:102658007D0E066E010EDAEC22F0010E046E900E6D
:10266800056E7D0E066E020EDAEC22F0100E0001E9
:10267800B56F390EB46F0D0EE82EFED7B42FFCD708
:10268800B52FFAD700D0010E28EC1EF0020E00017B
:10269800B56F860EB46F990EE82EFED7B42FFCD70F
:1026A800B52FFAD7A8D0000E0001FF6F010E28EC55
:1026B8001EF0020E0001B56F860EB46F990EE82E5B
:1026C800FED7B42FFCD7B52FFAD7E0C02AF0E1C067
:1026D8002BF0E2C02CF0E3C02DF0B2C001F0B3C083
:1026E80002F0000E02BEFF0E036E046E010EC4EC73
:1026F8001BF001C02EF002C02FF003C030F004C060
:1027080031F0B1EC24F02AC0DAF02BC0DBF02CC099
:10271800DCF02DC0DDF0C90E0001A06F000EA16F26
:10272800D20EA26F7F0EA36FDAC0A4F0DBC0A5F0B3
:10273800DCC0A6F0DDC0A7F011EC24F0010E046E99
:10274800B20E056E7E0E066E010EDAEC22F0010E58
:10275800046EC90E056E000E066E020E4DEC23F0D7
:10276800170E0001B56FD50EB46F160EE82EFED702
:10277800B42FFCD7B52FFAD700F0010E28EC1EF0C5
:10278800020E0001B56F860EB46F990EE82EFED7C3
:10279800B42FFCD7B52FFAD7010E046E380E056E8C
:1027A8007E0E066E010EDAEC22F0040E046EE70EC1
:1027B800056E7F0E066E020EDAEC22F0100E000196
:1027C800B56F390EB46F0D0EE82EFED7B42FFCD7B7
:1027D800B52FFAD700D0010E28EC1EF0020E00012A
:1027E800B56F860EB46F990EE82EFED7B42FFCD7BE
:1027F800B52FFAD712000001DE51DF11D8B412004C
:1028080043D60450800B0D6E04500424136E03BE8F
:1028180013801350D8B40DD01328D8A408D0000EB4
:10282800016E000E026E000E036E000E046E038E23
:1028380008D0000E016E000E026E000E036E000E30
:10284800046E0850800B0D1A08500824126E07BE3B
:1028580012801250D8B40DD01228D8A408D0000E77
:10286800056E000E066E000E076E000E086E078ECF
:1028780008D0000E056E000E066E000E076E000EE4
:10288800086E1250D8B403D01350D8A409D0000E43
:10289800016E000E026E000E036E000E046E120032
:1028A80007500102F3CF18F0F4CF19F018500E6E4C
:1028B8000F6A106A116A1950146E156A166A176A37
:1028C80006500202F3CF18F0F4CF19F018500E2674
:1028D800000E0F221022112219501426000E152264
:1028E8001622172205500302F3CF18F0F4CF19F07F
:1028F80018500E26000E0F221022112219501426ED
:10290800000E15221622172210C011F00FC010F069
:102918000EC00FF00E6A05500202F3CF18F0F4CF84
:1029280019F018500E2619500F22000E1022000E12
:10293800112206500102F3CF18F0F4CF19F0185005
:102948000E2619500F22000E1022000E112210C060
:1029580011F00FC010F00EC00FF00E6A0550010202
:10296800F3CF18F0F4CF19F018500E2619500F2293
:10297800000E1022000E112207500202F3CF18F0A9
:10298800F4CF19F01850142619501522000E1622EB
:10299800000E172206500302F3CF18F0F4CF19F0F7
:1029A8001850142619501522000E1622000E172250
:1029B80007500302F3CF18F0F4CF19F01850096E3E
:1029C80019500A6E0B6A0C6A0BC00CF00AC00BF0A7
:1029D80009C00AF0096A095014260A5015220B503A
:1029E80016220C5017220EC009F00FC00AF010C0B2
:1029F8000BF011C00CF0190E05D0D8900C320B3228
:102A08000A320932E82EF9D7095014260A5015223D
:102A18000B5016220C50172210C011F00FC010F0E6
:102A28000EC00FF00E6A125013C009F00A6A092688
:102A3800000E0A22820E0924186EFF0E0A20196E53
:102A48000FD0D890143615361636173611BE1480A6
:102A5800D8900E360F36103611361806D8A019063B
:102A680016AEEFD7000E126E11AE17D0FF0E0E1471
:102A7800096EFF0E0F140A6EFF0E10140B6E7F0EF8
:102A880011140C6E09500A100B100C10D8B403D096
:102A9800010E126E02D014B0FBD71250D8B41FD05A
:102AA800010E1426000E15221622172217A017D081
:102AB80014C009F015C00AF016C00BF017C00CF0CE
:102AC8000C340C320B320A32093209C014F00AC035
:102AD80015F00BC016F00CC017F0184A192A19BEC9
:102AE8000DD0195003E11828D8A008D0000E146E94
:102AF800000E156E800E166E7F0E20D019BE05D002
:102B080019500EE11804D8B00BD0000E146E000E48
:102B1800156E000E166E000E176E000E0D6E0FD09D
:102B280018C013F0FF0E1416FF0E15167F0E16169A
:102B3800000E171613B0168ED8901330176E0D505E
:102B4800171214C001F015C002F016C003F017C028
:102B580004F012001D50800B266E1D501D24286E97
:102B68001CBE28802850D8B40DD02828D8A408D056
:102B7800000E1A6E000E1B6E000E1C6E000E1D6EEF
:102B88001C8E06D0000E1A6E000E1B6E000E1C6EF8
:102B9800000E1D6E2150800B276E26502718D8A4D2
:102BA800268C21502124276E20BE27802750D8B498
:102BB8000DD02728D8A408D0000E1E6E000E1F6E58
:102BC800000E206E000E216E208E06D0000E1E6EA6
:102BD800000E1F6E000E206E000E216E2850275C1E
:102BE800D8B022D026AC02D0800E261A28C029F0F0
:102BF80027C028F029C027F01AC029F01EC01AF0F3
:102C080029C01EF01BC029F01FC01BF029C01FF0EF
:102C18001CC029F020C01CF029C020F01DC029F0DC
:102C280021C01DF029C021F0000E296E285027C0B0
:102C380022F0236A225E000E235A23BE2CD0235092
:102C480004E11A0E225CD8A026D01A501B101C10C2
:102C58001D10D8B402D0010E01D0000E296E000E4E
:102C68001A6E000E1B6E000E1C6E000E1D6E27C025
:102C780028F015D029A005D0D89029300109296E4F
:102C880002D0D89029321AB0298E1D341D321C3238
:102C98001B321A32282A2750285CD8A0EBD726BC2A
:102CA80028D02850D8A409D0000E1A6E000E1B6E2A
:102CB800000E1C6E000E1D6E12001E501A261F50AC
:102CC8001B2220501C2221501D221DA071D029A09A
:102CD80005D0D89029300109296E02D0D890293220
:102CE8001AB0298E1D341D321C321B321A32282A82
:102CF8005FD01E501A5C1F501B5820501C581D5086
:102D0800800A226E2150800A2258D8B025D01A5045
:102D18001E5C226E1B501F58236E1C502058246EB8
:102D28001D502158256EFF0E22241A6EFF0E2320F7
:102D38001B6EFF0E24201C6EFF0E25201D6E800EBC
:102D4800261A296C2950D8A40FD0010E1A26000E75
:102D58001B221C221D2208D01E501A5E1F501B5A0F
:102D680020501C5A21501D5A1A501B101C101D109F
:102D7800D8A41CD02950D8A419D0000E1A6E000E61
:102D88001B6E000E1C6E000E1D6E1200D8901A36B7
:102D98001B361C361D3629BE1A8029A002D0D880C1
:102DA80001D0D89029362850D8A428061CAEEED7D2
:102DB800000E276E29AE0BD029C022F07F0E2216F6
:102DC800D8B403D0010E276E02D01AB0FBD7275013
:102DD800D8B420D0010E1A26000E1B221C221D2258
:102DE8001DA018D01AC022F01BC023F01CC024F06C
:102DF8001DC025F02534253224322332223222C048
:102E08001AF023C01BF024C01CF025C01DF0282890
:102E1800D8A4282A2828D8B403D02850D8A40DD05C
:102E2800000E1A6E000E1B6E000E1C6E000E1D6E3C
:102E38002850D8A402D0000E266E28A002D01C8EDE
:102E480001D01C9ED89028301D6E26BE1D8E1AC03B
:102E58001AF01BC01BF01CC01CF01DC01DF0120096
:102E68000450800B116E04500424186E03BE1880A1
:102E78001850D8B40DD01828D8A408D0000E016E68
:102E8800000E026E000E036E000E046E038E06D056
:102E9800000E016E000E026E000E036E000E046E30
:102EA8000850800B111A08500824196E07BE1980A3
:102EB8001950D8B40DD01928D8A408D0000E056E22
:102EC800000E066E000E076E000E086E078E06D006
:102ED800000E056E000E066E000E076E000E086EE0
:102EE8000550061007100810D8A417D0000E016E60
:102EF800000E026E000E036E000E046E800E0312AA
:102F08007F0E04121150041201C001F002C002F039
:102F180003C003F004C004F012001850D8A409D06C
:102F2800000E016E000E026E000E036E000E046E9F
:102F38001200195018C009F00A6A095E000E0A5AF0
:102F48007F0E0924126E000E0A20136E01C00DF0C8
:102F580002C00EF003C00FF004C010F0000E016EA6
:102F6800000E026E000E036E000E046E000E146E4C
:102F7800000E156E000E166E000E176E000E196EFE
:102F880028D01950D8B411D0D8900D360E360F3637
:102F98001036D890013602360336043617BE018043
:102FA800D890143615361636173605500D5C06506F
:102FB8000E5807500F5808501058D8A009D0178C31
:102FC80005500D5E06500E5A07500F5A0850105AF9
:102FD800192A190E1964D5D70D500E100F1010109C
:102FE800D8B411D014800FD0D890013602360336E9
:102FF800043617BE0180D8901436153616361736A3
:103008001206D8A0130603AEEFD7000E196E17AE3E
:1030180017D0FF0E1414096EFF0E15140A6EFF0E5A
:1030280016140B6E7F0E17140C6E09500A100B1035
:103038000C10D8B403D0010E196E02D001B0FBD722
:103048001950D8B41FD0010E0126000E0222032207
:10305800042204A017D001C009F002C00AF003C07E
:103068000BF004C00CF00C340C320B320A3209326B
:1030780009C001F00AC002F00BC003F00CC004F054
:10308800124A132A13BE10D0135003E11228D8A0F5
:103098000BD0000E136E1268000E016E000E026E49
:1030A800000E036E000E046E13BE05D0135011E11E
:1030B8001204D8B00ED0000E136E000E126E000E61
:1030C800016E000E026E000E036E000E046E000EFE
:1030D800116E12C018F018A002D0038E01D0039E02
:1030E800D8901830046E0ED71EC036F01FC037F0C7
:1030F80020C038F021C039F022C03AF023C03BF09C
:1031080024C03CF025C03DF03DAE02D0010E01D0F8
:10311800000E346E356A34503510D8B410D03D1EC8
:103128003C1E3B1E3A1E391E381E371E366C000EDA
:103138003722382239223A223B223C223D22000102
:10314800F1AFF293F1BF05D0F15108E1F005D8B025
:1031580005D0000E316E010E306E04D0F0C030F094
:10316800F1C031F0EEC032F0EFC033F0345035101A
:10317800D8A402D0F2A503D03206D8A03306000E98
:103188003F6E4F0E3E6E000E0101696F7CD03E0609
:10319800D8A03F061A0E3E24D96E010E3F20DA6EE3
:1031A80036C001F037C002F038C003F039C004F06F
:1031B8003AC005F03BC006F03CC007F03DC008F03F
:1031C8000A0E096E000E0A6E000E0B6E000E0C6ED3
:1031D800000E0D6E000E0E6E000E0F6E000E106EBD
:1031E80004EC1DF001C026F002C027F003C028F04F
:1031F80004C029F005C02AF006C02BF007C02CF047
:1032080008C02DF026C013F028C014F00FEC25F0EC
:103218001350300FDF6E3006D8A031063206D8A022
:10322800330636C001F037C002F038C003F039C0A9
:1032380004F03AC005F03BC006F03CC007F03DC0C2
:1032480008F00A0E096E000E0A6E000E0B6E000ED4
:103258000C6E000E0D6E000E0E6E000E0F6E000E40
:10326800106E20EC1BF001C036F002C037F003C02E
:1032780038F004C039F005C03AF006C03BF007C08A
:103288003CF008C03DF03FBE20D03F5003E13E0473
:10329800D8A01BD036503710381039103A103B10D0
:1032A8003C103D10D8A473D731BE05D0315002E18F
:1032B8003004D8B06CD733BE08D0335003E13204A1
:1032C800D8A003D00001F2B362D734503510D8A487
:1032D80003D00001F2A517D03E06D8A03F0634500F
:1032E8003510D8A404D0000E2F6E2B0E03D0000E7C
:1032F8002F6E2D0E2E6E1A0E3E24D96E010E3F2013
:10330800DA6E2EC0DFFF1CC011F01DC012F01A0EBD
:103318003E24136E010E3F20146E32C015F033C0E8
:1033280016F0CAEC21F011C01CF012C01DF01200FA
:1033380012C12AF013C12BF014C12CF015C12DF0C5
:103348001AC02AF01BC02BF01CC02CF01DC02DF099
:10335800810E1E6EFF0E1F6E2AC020F02BC021F0BA
:103368002CC022F02DC023F0180E05D0D89023329F
:10337800223221322032E82EF9D720501E24286E1E
:10338800000E1F20296E29BE0FD0295004E1170E08
:10339800285CD8A009D01AC01AF01BC01BF01CC0AA
:1033A8001CF01DC01DF0120029BE5ED028C01EF002
:1033B800FF0E1F6EFF0E206E7F0E216E000E226E16
:1033C8001E6601D007D022342232213220321F3229
:1033D8001E2EF6D71FC024F020C025F021C026F0ED
:1033E80022C027F024502A141E6E25502B141F6E5D
:1033F80026502C14206E27502D14216E1E501F109D
:1034080020102110D8B4C7D72AC01EF02BC01FF037
:103418002CC020F02DC021F0200E05D0D8902132EC
:1034280020321F321E32E82EF9D71E501F102010EE
:103438002110D8B408D024502A2625502B222650F3
:103448002C2227502D22241C1E6E251C1F6E261C84
:10345800206E271C216E1E502A161F502B16205036
:103468002C1621502D1636D02AC01EF02BC01FF066
:103478002CC020F02DC021F0200E05D0D89021328C
:1034880020321F321E32E82EF9D71E501F1020108E
:103498002110D8A408D0000E2A6E000E2B6E000E44
:1034A8002C6E000E16D0D8902A341E6E2B341F6E48
:1034B8002C34206E2D34216E1E501F102010211028
:1034C800D8B408D0000E2A6E000E2B6E800E2C6E1B
:1034D800BF0E2D6E2AC01AF02BC01BF02CC01CF09A
:1034E8002DC01DF01200000E0001FF6F000EDA6FF4
:1034F800000EDB6F000ED96F000ED86F010E046E40
:103508002B0E056E7F0E066E010EDAEC22F027D028
:10351800D1EC20F0310E0001FF19D8B408D0320EDA
:10352800FF19D8B404D0330EFF19D8A418D0FFC09F
:10353800DAF0B40EA06F000EA16F980EA26F7F0E86
:10354800A36FDAC0A4F0A56B11EC24F0010E046E91
:10355800B40E056E000E066E020E4DEC23F02A0E18
:103568000001FF19D8A4D4D7000EFF6F21D0D1ECE9
:1035780020F02F0E0001FF651BD0360EFF6118D01A
:10358800FFC0DBF0C50EA06F000EA16FB70EA26FD3
:103598007F0EA36FDBC0A4F0A56B11EC24F0080E1E
:1035A800046EC50E056E000E066E020E4DEC23F07D
:1035B8002A0E0001FF19D8B41CD0D9D7F84BF92B23
:1035C8000C0EDB25D96EDA6A010E0FD0F64BF72BFD
:1035D800060EDB25D96EDA6A010E07D0F44BF52BFF
:1035E800000EDB25D96EDA6A010EDA22000EDF6ED4
:1035F80011D0DA51B26FB36BB351000AD8A40AD014
:10360800B251310AD8B4DAD7030AD8B4DFD7010ADD
:10361800D8B4E4D7000EFF6F010E28EC1EF0020E9E
:103628000001B36F860EB26F990EE82EFED7B22F47
:10363800FCD7B32FFAD71200000E126E10AE12D0BC
:10364800101E0F1E0E1E0D1E0C1E0B1E0A1E096CD0
:10365800000E0A220B220C220D220E220F2210220B
:10366800010E126E08AE12D0081E071E061E051E99
:10367800041E031E021E016C000E022203220422F5
:103688000522062207220822010E121A20EE13F044
:10369800070EDE6AE806FDE209500A100B100C104E
:1036A8000D100E100F101010D8B446D0010E116E68
:1036B8000AD0D89009360A360B360C360D360E3637
:1036C8000F361036112A10AEF4D7D89013361436A8
:1036D800153616361736183619361A360950015C5B
:1036E8000A5002580B5003580C5004580D500558F6
:1036F8000E5006580F50075810500858D8A011D02F
:103708000950015E0A50025A0B50035A0C50045AD1
:103718000D50055A0E50065A0F50075A1050085AA5
:103728001380D89010320F320E320D320C320B3219
:103738000A320932112EC9D71250D8B410D01A1E25
:10374800191E181E171E161E151E141E136C000EA9
:103758001422152216221722182219221A2213C0FF
:1037680001F014C002F015C003F016C004F017C031
:1037780005F018C006F019C007F01AC008F01200CA
:10378800096E0950D8A404AE1AD001C005F002C0D1
:1037980006F003C007F004C008F0051E061E071E49
:1037A800081E052A000E06220722082205C00BF073
:1037B80006C00CF007C00DF008C00EF008D001C01C
:1037C8000BF002C00CF003C00DF004C00EF0015065
:1037D800021003100410D8A409D0000E016E000EC8
:1037E800026E000E036E000E046E1200960E0A6E34
:1037F80006D00A2AD8900E320D320C320B32000E47
:103808000B14056E000E0C14066E000E0D14076ED8
:10381800FE0E0E14086E0550061007100810D8B4D6
:103828000DD0E7D70A2A010E0B26000E0C220D2216
:103838000E22D8900E320D320C320B32000E0B14C1
:10384800056E000E0C14066E000E0D14076EFF0EAA
:103858000E14086E0550061007100810D8B407D0CB
:10386800E1D70A06D8900B360C360D360E360DBE4B
:1038780003D0020E0A60F5D70AA00D9ED8900A322E
:103888000AC005F0066A076A086A05C008F0076AF0
:10389800066A056A05500B1206500C1207500D12E5
:1038A80008500E120950D8A404AE01D00E8E0BC0D9
:1038B80001F00CC002F00DC003F00EC004F01200BD
:1038C800000E166E000E156E000E0F6E000E0E6EB8
:1038D80002D0084A092A010E146E08C0F6FF09C072
:1038E800F7FF0800F550200AD8B418D0F70E0A6E72
:1038F800FF0E0B6E08C0F6FF09C0F7FF0800F55071
:103908000C6E0D6A0A500C260B500D220D5004E166
:10391800050E0C5CD8A002D0000E146E14C010F076
:10392800116A10501110D8B408D0D3D7000E0F6EFA
:10393800010E0E6E084A092A2ED008C0F6FF09C0EB
:10394800F7FF0800F5500A6E0B6A0B50000AD8A45E
:1039580022D00A502B0AD8B4EDD7060AD8B4E6D735
:103968001AD015C001F016C002F0000E046E0A0E3F
:10397800036E84EC25F008C0F6FF09C0F7FF0800C5
:10398800F550015E000E025A300E0124156E000E2D
:103998000220166ECFD7D00E0A6EFF0E0B6E08C02F
:1039A800F6FF09C0F7FF0800F5500C6E0D6A0A50C3
:1039B8000C260B500D220D5006E10A0E0C5CD8B0F7
:1039C80002D0010E01D0000E126E136A12501310AD
:1039D800D8A4C7D70E500F10D8A40DD015C00AF020
:1039E80016C00BF00A1E0B1E0A4A0B2A0AC008F062
:1039F8000BC009F0120015C008F016C009F012003B
:103A0800000E126E08AE12D0081E071E061E051EF6
:103A1800041E031E021E016C000E02220322042251
:103A28000522062207220822010E126E10AE10D0BF
:103A3800101E0F1E0E1E0D1E0C1E0B1E0A1E096CDC
:103A4800000E0A220B220C220D220E220F22102217
:103A580009500A100B100C100D100E100F1010103A
:103A6800D8B43CD0010E116E0AD0D89009360A3667
:103A78000B360C360D360E360F361036112A10AEB0
:103A8800F4D70950015C0A5002580B5003580C50E7
:103A980004580D5005580E5006580F50075810502E
:103AA8000858D8A010D00950015E0A50025A0B508D
:103AB800035A0C50045A0D50055A0E50065A0F500E
:103AC800075A1050085AD89010320F320E320D3261
:103AD8000C320B320A320932112ED3D71250D8B415
:103AE80010D0081E071E061E051E041E031E021EF9
:103AF800016C000E0222032204220522062207225C
:103B0800082201C001F002C002F003C003F004C0A3
:103B180004F005C005F006C006F007C007F008C0AD
:103B280008F01200036E839A8388016A03AE01D0FD
:103B3800012A010E0116014601460146835001186B
:103B4800F70B0118836E03C001F0060E026ED890C1
:103B58000132022EFCD7010E0116014601468350A0
:103B68000118FB0B0118836E03C001F0050E026EED
:103B7800D8900132022EFCD7010E0116014683505F
:103B88000118FD0B0118836E03C001F0013A0F0EF6
:103B98000116010E011683500118FE0B0118836EE1
:103BA800030EE82EFED700F0838A050EE82EFED716
:103BB800839A03C001F0D8900132D8900132D8908E
:103BC8000132010E011601460146014683500118D3
:103BD800F70B0118836E03C001F0D8900132D8901A
:103BE8000132010E01160146014683500118FB0BF4
:103BF8000118836E03C001F0D8900132010E01163E
:103C0800014683500118FD0B0118836E03C001F0B3
:103C1800010E011683500118FE0B0118836E030E66
:103C2800E82EFED700F0838A050EE82EFED7839A89
:103C3800050EE82EFED7160E016E6C0EE82EFED786
:103C4800012EFCD700D01200036E839A8398016A74
:103C580003AE01D0012A010E0116014601460146B4
:103C680083500118F70B0118836E03C001F0060E8C
:103C7800026ED8900132022EFCD7010E01160146C1
:103C8800014683500118FB0B0118836E03C001F035
:103C9800050E026ED8900132022EFCD7010E0116D5
:103CA800014683500118FD0B0118836E03C001F013
:103CB800013A0F0E0116010E011683500118FE0B72
:103CC8000118836E030EE82EFED700F0838A050ED6
:103CD800E82EFED7839A03C001F0D8900132D8901D
:103CE8000132D8900132010E011601460146014603
:103CF80083500118F70B0118836E03C001F0D890A8
:103D08000132D8900132010E011601460146835056
:103D18000118FB0B0118836E03C001F0D890013223
:103D2800010E0116014683500118FD0B0118836E20
:103D380003C001F0010E011683500118FE0B011893
:103D4800836E030EE82EFED700F0838A050EE82E58
:103D5800FED7839A160E016E6C0EE82EFED7012E42
:103D6800FCD700D012009596959495929590959AC7
:103D780095988396839483928390839A8398160E5A
:103D8800046E6C0EE82EFED7042EFCD700D0160E5B
:103D9800046E6C0EE82EFED7042EFCD700D0160E4B
:103DA800046E6C0EE82EFED7042EFCD700D0160E3B
:103DB800046E6C0EE82EFED7042EFCD700D0160E2B
:103DC800046E6C0EE82EFED7042EFCD700D0160E1B
:103DD800046E6C0EE82EFED7042EFCD700D0010E20
:103DE800056E8396839483828380839A83988396CF
:103DF800839483828380838A8398050EE82EFED776
:103E08008396839483828380839A8398160E046EA4
:103E18006C0EE82EFED7042EFCD700D0052A030E20
:103E28000564DFD78396839483828390839A8398EB
:103E38008396839483828390838A8398050EE82EE1
:103E4800FED78396839483828390839A8398160EF1
:103E5800046E6C0EE82EFED7042EFCD700D0280E78
:103E680028EC1EF0100E28EC1EF0010E28EC1EF0B7
:103E78000F0E28EC1EF01200000E1A14226E000E0F
:103E88001B14236E800E1C14246E7F0E1D14256EC9
:103E98002250231024102510D8A408D0000E1A6E22
:103EA800000E1B6E000E1C6E000E1D6E000E1E1402
:103EB800226E000E1F14236E800E2014246E7F0EB7
:103EC8002114256E2250231024102510D8A408D0C0
:103ED800000E1E6E000E1F6E000E206E000E216E6C
:103EE8001DAE09D01A6C1B1ED8B01B2A1C1ED8B0D8
:103EF8001C2A800E1D5621AE09D01E6C1F1ED8B07C
:103F08001F2A201ED8B0202A800E2156000E1A1A09
:103F1800000E1B1A000E1C1A800E1D1A000E1E1A07
:103F2800000E1F1A000E201A800E211A1E501A5C4D
:103F38001F501B5820501C5821501D58D8B002D073
:103F4800D8901200D880120016C10BF017C10CF0DF
:103F580018C10DF019C10EF001C00BF002C00CF031
:103F680003C00DF004C00EF00BC005F00CC006F045
:103F78000DC007F00EC008F0180E05D0D890083212
:103F8800073206320532E82EF9D70550096E0A6A5B
:103F980009500A10D8A419D0D8900B34056E0C34E7
:103FA800066E0D34076E0E34086E055006100710A5
:103FB8000810D8A405D0000E026E020E016E120081
:103FC800000E026E030E016E120009280A10D8A412
:103FD8001CD00BC005F00CC006F00DC007F00EC0D9
:103FE80008F0090ED8900536063607360836E82E4A
:103FF800F9D70550061007100810D8A402D0010EF2
:1040080001D0000E016E026A1200000E026E040E4C
:10401800016E1200000E0A6E08AE0AD0081E071EB6
:10402800061E056C000E062207220822010E0A6EE3
:1040380004AE0AD0041E031E021E016C000E0222EA
:1040480003220422010E0A1A000E0B6E000E0C6EDB
:10405800000E0D6E000E0E6E0550061007100810AB
:10406800D8B42AD0010E096E06D0D8900536063687
:1040780007360836092A08AEF8D7D8900B360C361A
:104088000D360E360550015C06500258075003588D
:1040980008500458D8A009D00550015E0650025AAD
:1040A8000750035A0850045A0B80D8900832073238
:1040B80006320532092EE1D70A50D8B408D00E1EB0
:1040C8000D1E0C1E0B6C000E0C220D220E220BC0B6
:1040D80001F00CC002F00DC003F00EC004F0120095
:1040E800033404340A6E0A50D8A409D0000E016EB5
:1040F800000E026E000E036E000E046E120001C068
:1041080005F002C006F003C007F004C008F0200E56
:1041180005D0D8900832073206320532E82EF9D792
:104128000550096E038EFF0E0116FF0E0216FF0ED4
:104138000316000E0416960E0A5E0AAE0DD00A503B
:10414800800A970FD8A0D2D7D8900432033202320F
:1041580001320A3EF9D70DD01F0E0A6407D0C6D720
:10416800D89001360236033604360A060A50D8A417
:10417800F7D70950D8B408D0041E031E021E016CDC
:10418800000E02220322042201C001F002C002F044
:1041980003C003F004C004F01200000E0001FF6F1A
:1041A800F00E816EF00E8118D8B448D0FE0E816EE4
:1041B80081B802D02A0EFF6F81BA02D0300EFF6F8D
:1041C80081BC02D0230EFF6F81BE02D0440EFF6F68
:1041D800FD0E816E81B802D0370EFF6F81BA02D012
:1041E800380EFF6F81BC02D0390EFF6F81BE02D03E
:1041F800430EFF6FFB0E816E81B802D0340EFF6F45
:1042080081BA02D0350EFF6F81BC02D0360EFF6F27
:1042180081BE02D0420EFF6FF70E816E81B802D0C8
:10422800310EFF6F81BA02D0320EFF6F81BC02D00F
:10423800330EFF6F81BE02D0410EFF6FF00E816E0C
:10424800F00E8118D8B41200FBD701C008F002C0E4
:1042580009F003C00AF004C00BF00506D8A0060652
:1042680005280FE10628D8A40CD0000E026E000E17
:10427800016E1200084A092A0A4A0B2A0506D8A024
:10428800060608C0D9FF09C0DAFFDF50D8B41CD031
:104298000AC0F6FF0BC0F7FF0800F5500009D8B4B4
:1042A80013D005500610D8B40FD008C0D9FF09C0E4
:1042B800DAFFDF50076E0AC0F6FF0BC0F7FF0800F1
:1042C800F5500718D8B4D6D708C0D9FF09C0DAFF07
:1042D800DF50076E0AC0F6FF0BC0F7FF0800F55065
:1042E800075C016E026AD8A002061200035004108F
:1042F800D8B404D003500410D8A404D00150ACECB6
:1043080025F0120020EE04F00350D9260450DA22DA
:10431800DE50DE10D8B416D020EE04F00350D926B3
:104328000450DA2210EE02F00350E1260450E22293
:10433800DE50E65CE650800A096EDE50800A0958B5
:10434800D8B0120020EE02F00350D9260450DA2229
:10435800DECF05F0DDCF06F003C0D9FF04C0DAFFD9
:10436800DECF07F0DDCF08F005500724D96E0650E0
:104378000820DA6E01C0DFFF20EE02F00350D926D4
:104388000450DA22DE2A000EDD2212000001F2A11A
:104398000AD013C00AF014C00BF011C00CF012C000
:1043A8000DF0F3EC24F016BE05D015C01AF016C0B7
:1043B8001BF004D0000E1B6E000E1A6E000E196E54
:1043C800000E186E0CD0000E026E200E016E11C089
:1043D80003F012C004F07AEC21F0184A192A1A5096
:1043E800185C1950800A176E1B50800A1758D8A0FD
:1043F800EAD70001F2B10AD013C00AF014C00BF0DA
:1044080011C00CF012C00DF0F3EC24F013C001F051
:1044180014C002F06FEC25F01A500124116E1B50E5
:104428000220126E1200000E0114096E000E021412
:104438000A6E800E03140B6E7F0E04140C6E095066
:104448000A100B100C10D8A408D0000E016E000E34
:10445800026E000E036E000E046E000E0514096E47
:10446800000E06140A6E800E07140B6E7F0E0814D9
:104478000C6E09500A100B100C10D8A408D0000EAE
:10448800056E000E066E000E076E000E086E0550D3
:1044980001180AE10650021807E10750031804E161
:1044A80008500418D8B402D0D8901200D88012004E
:1044B800000E066E04AE06D0036C041ED8B0042AA3
:1044C800010E066E02AE06D0016C021ED8B0022A9A
:1044D800010E061A000E086E000E076E0350041037
:1044E800D8B41CD0010E056E04D0D890033604361B
:1044F800052A04AEFAD7D890073608360350015C6F
:1045080004500258D8A005D00350015E0450025A46
:104518000780D89004320332052EEDD70650D8B460
:1045280004D0076C081ED8B0082A07C001F008C0DC
:1045380002F01200949C948E0FC005F010C006F093
:1045480011C007F012C008F0000E016E1B0E026EBB
:10455800B70E036E000E046E0EEC20F001C013F0CF
:1045680002C014F003C015F004C016F013C001F027
:1045780014C002F015C003F016C004F0400E056E1A
:10458800000E066E000E076E000E086E0EEC20F090
:104598000104AF6EAC94B896AC98AB8EF28EF28CE8
:1045A8009D8AAC9CAC8AAB9CAB881200096E0DD07E
:1045B8000450800F08D00450C00F05D00450940F49
:1045C80002D00450D40F0A6E14D00950076E086A3E
:1045D8000850000AD8A40DD00750010AD8B4E8D76B
:1045E800030AD8B4E8D7010AD8B4E8D7070AD8B478
:1045F800E8D70A5028EC1EF00AD005C0F6FF06C01E
:10460800F7FF0800F55096EC1DF0054A062A05C08C
:10461800F6FF06C0F7FF0800F5500009D8B41200ED
:10462800ECD7000E066E02AE06D0016C021ED8B0A2
:10463800022A010E066E04AE04D0036C041ED8B024
:10464800042A03500410D8B418D0010E056E04D003
:10465800D89003360436052A04AEFAD70350015C15
:1046680004500258D8A004D00350015E0450025AE6
:10467800D89004320332052EF1D70650D8B404D0AE
:10468800016C021ED8B0022A01C001F002C002F07B
:104698001200096E0DD00450800F08D00450C00FCE
:1046A80005D00450940F02D00450D40F0A6E14D0D1
:1046B8000950076E086A0850000AD8A40DD00750A0
:1046C800010AD8B4E8D7030AD8B4E8D7010AD8B49D
:1046D800E8D7070AD8B4E8D70A5028EC1EF009D062
:1046E80005C0D9FF06C0DAFFDF5096EC1DF0054A79
:1046F800062A05C0D9FF06C0DAFFDF50D8B4120079
:10470800EFD7076E1FD0070E8D6E07500226025096
:10471800A6EC25F0020E066E860E056E990EE82EA2
:10472800FED7052EFCD7062EFAD700F0000E8D6EA8
:104738001200060E8D6E1200050E8D6E1200040E0C
:104748008D6E120003C005F004C006F00650000A82
:10475800D8A412000550000AD8B4D5D7010AD8B495
:10476800E8D7030AD8B4E8D7010AD8A41200E7D7D3
:104778009AC09EF09BC09FF0000E0001ED6F000EE6
:10478800EC6F13D098C040F099C041F09E0E426E75
:10479800000E436E9CC044F09DC045F091EC0FF0B4
:1047A80040500001EC274150ED239EC0F6FF9FC00A
:1047B800F7FF0800F5500009D8A4E4D7ECC098F03A
:1047C800EDC099F01200400EF66E4B0EF76E000E1B
:1047D800F86E01EEAEF010EE0CF00900F5CFEEFF2A
:1047E800E550E150FAE102EE00F0480EEE6AE80604
:1047F800FDE101EE00F0AE0EEE6AE806FDE100EE26
:10480800E8F0180EEE6AE806FDE15E6A5F905F92D6
:10481800000EF86E000109EF00F0A40E0001AA6F67
:10482800000EAB6FA0C0ACF0A1C0ADF0000EAF6F32
:10483800000EAE6F000EB16F000EB06FAC0E986F29
:10484800000E996FA2C09AF0A3C09BF0AA0E9C6FAD
:10485800000E9D6FBCEC23F00001AE51A025D96E6F
:10486800AF51A121DA6E000EDF6E120003C007F00F
:1048780004C008F001C009F002C00AF00750056E34
:104888000850066E074A082A05C0F6FF06C0F7FF5B
:10489800F86A09C0D9FF0AC0DAFF094A0A2A070ECE
:1048A800F76403D00800F55005D0F6CFE1FFF7CF45
:1048B800E2FFE750DF6EDF50D8B41200DFD7000107
:1048C800EE51EF11D8A405D0EEC01FF0EFC020F0D4
:1048D80006D0FF0EEE251F6EFF0EEF21206E1EC0C4
:1048E8001AF1000E01011B6F1CC011F01DC012F05F
:1048F8001A0E136E010E146E1FC015F020C016F0AC
:10490800CAEC21F011C01CF012C01DF01200BF0E3D
:10491800096EFF0E0A6E07C00BF008C00CF00950B4
:104928000B260A500C220C5006E11A0E0B5CD8B06C
:1049380002D0010E01D0000E0D6E0E6A0D500E1041
:10494800D8B406D0200E0710076E0850086E120063
:1049580007C007F008C008F01200000E2E1A000E5B
:104968002F1A000E301A800E311A2AC01AF02BC0E6
:104978001BF02CC01CF02DC01DF02EC01EF02FC047
:104988001FF030C020F031C021F0AEEC15F01AC095
:104998002AF01BC02BF01CC02CF01DC02DF01200FB
:1049A800010E076E200E01180210D8B414D0F70EAD
:1049B800036EFF0E046E01C005F002C006F003503E
:1049C800052604500622065004E1050E055CD8A011
:1049D80002D0000E076E07C001F0026A1200000E36
:1049E800106E000E0F6E0BD00EC001F0026A0CC0E4
:1049F80003F00DC004F07AEC21F00F4A102A0F5092
:104A08000A24D96E10500B20DA6EDF500E6E0E504D
:104A1800D8B41200E9D714BE05D0145010E113041D
:104A2800D8B00DD013C015F014C016F0151E161E00
:104A3800154A162A15C013F016C014F0120013C038
:104A480013F014C014F01200BF0E036EFF0E046EB4
:104A580001C005F002C006F00350052604500622E6
:104A6800065006E11A0E055CD8B002D0010E01D03E
:104A7800000E016E026A1200D00E036EFF0E046E65
:104A880001C005F002C006F00350052604500622B6
:104A9800065006E10A0E055CD8B002D0010E01D01E
:104AA800000E016E026A1200015002100310041079
:104AB800D8B408D0000E011A000E021A000E031A0C
:104AC800800E041A01C001F002C002F003C003F016
:104AD80004C004F0120001C003F002C004F002D0C8
:104AE800014A022A01C0D9FF02C0DAFFDF50D8A468
:104AF800F7D70350015C016E04500258026E120091
:104B080001500302F3CF05F0F4CF06F00150040280
:104B1800F350062602500302F350062605C001F0A2
:104B280006C002F0120006009EAA03D0AAEC25F0E7
:104B38005E6E9E9A5F92110000007A430000E14386
:104B48000000FA43016E01C0ADFF1200AE50120022
:024B5800120049
:107D3C00004E6F726D616C20206A6163757A7A698E
:107D4C00200064652068616269746163696F6E65A7
:107D5C0073200054656E656D6F73203320746970E9
:107D6C006F7320004A6163757A7A6920612024342C
:107D7C0035302000517565206861626974616369F2
:107D8C006F6E20002A2A2A2A2A2A2A2A2A2A2A2AF2
:107D9C002A2A2A0048616269746163696F6E65738F
:107DAC002064650044696E65726F20792072617081
:107DBC0069646F004E6F726D616C206120243235E6
:107DCC003020004269656E76656E69646F20616C67
:107DDC0020004D4F54454C204C41204D494C5041B6
:107DEC000053414C412044452045535045524100DD
:107DFC004D617374657220737569746520610044FC
:107E0C006973706C6F6E69626C653A2564004573BA
:107E1C00632048616269746163696F6E00436865D1
:107E2C00636172656D6F73206C617300477261637F
:107E3C0069617320706F72207375004D6173746586
:107E4C00722073756974652000486162697461639E
:107E5C00696F6E6573200048616274204A616375B6
:107E6C007878786900646973706F6E69626C657399
:107E7C0020002A2A2A4C4C656E61732A2A2A006338
:107E8C006F6E20656C2041444D494E004D617374FA
:107E9C006572205375697465005065726D69746103
:107EAC006D652069720053752063616D62696F2086
:107EBC0065730048616269746163696F6E65730014
:107ECC0068616269746163696F6E65730051756591
:107EDC00206C65207661796100433A526574697251
:107EEC00617273650048616274204E6F726D616CD3
:107EFC00004120636F6E7365677569720064697306
:107F0C00706F6E69626C6573005041534520555318
:107F1C00544544004249454E56454E49444F005342
:107F2C00656C656363696F6E65005061676F3A20BD
:107F3C00252E326600546F646F206C6C656E6F007A
:107F4C00657365207469706F200050415345204162
:107F5C00204C41004F7063696F6E3A256300436F8C
:107F6C0073746F2024256400423A45737065726106
:107F7C007200506F627265205844004F7063696FD5
:107F8C006E65730064657365613F20005469706FA2
:107F9C003A2563005061676F20646500413A416483
:107FAC006D696E005675656C7661004861623A25A4
:107FBC00630050726F6E746F004D61737465720064
:107FCC002436303020003A252E32660053696E205C
:107FDC000024202564006269656E005061676F00A3
:107FEC00494E46004E414E00696E66006E616E0051
:047FFC006C660000AF
:020000040020DA
:08000000FFFFFFFFFFFFFFFF00
:020000040030CA
:0E000000000C181EFF8481FF0FC00FE00F40A0
:00000001FF
