:020000040000FA
:04000000CAEF3FF014
:107F94000001CDEF3FF00F0EC16E000E956E000E86
:107FA4008C6E94940C0EBD6E3E0ECB6E070ECA6E94
:107FB400000EBE6EBD9ABD98000E046E000E036ED8
:107FC400040E026E0C0E016E340EE82EFED7012E46
:107FD400FCD7022EFAD703C0BEFFBD8ABD8803C0FA
:107FE4008CFF060E0326000E042204BEE9D70450BB
:0C7FF400E3E13F0E035CD8B0DFD7E2D71A
:020000040020DA
:08000000FFFFFFFFFFFFFFFF00
:020000040030CA
:0E000000000C181EFF8481FF0FC00FE00F40A0
:00000001FF
