:020000040000FA
:0400000043EF00F0DA
:060008005A82B3ED3BF04B
:100018005A80D8CFAAF0E8CFABF0E0CFACF0F0A090
:1000280026D0F090000E8C6E1ED00F0E8C6E040E33
:100038000001A96F0C0EA86F330EE82EFED7A82F6B
:10004800FCD7A92FFAD700D0F00E8C6E040E000151
:10005800A96F0C0EA86F330EE82EFED7A82FFCD779
:10006800A92FFAD700D081A2E0D7000E8C6EACC0C1
:10007800E0FFABC0E8FFAAC0D8FF5A90100096EF87
:020088003EF048
:100800000000000000DCCFD1350000000000C01562
:100810003F6042A20D70A5EC363BAAB83F4F387638
:100820003F3CAA38338CBEBF350072313F1872315D
:100830003F4CBB31330EEADDB555B38A38610B3618
:10084000BBABAA2A3E42F1533E55326C3E05A38B08
:100850003EABAAAA3EB76DDB3E9A99193F6042A211
:100860000DCAF249710000804B0000803F0000C0BB
:0F0870003F00AAB83FC623F6B80040763F00000D
:100880006EC2B8F36FC2B9F370C2BAF371C2BBF3F0
:10089000B8C360F3B9C361F3BAC362F3BBC363F314
:1008A00072C2B8F373C2B9F374C2BAF375C2BBF3C0
:1008B000B8C384F3B9C385F3BAC386F3BBC387F364
:1008C000FF0E03016015A86FFF0E6115A96FFF0EE3
:1008D0006215AA6F7F0E6315AB6FFF0E8415986FBC
:1008E000FF0E8515996FFF0E86159A6F7F0E87157F
:1008F0009B6F985199119A119B11D8A40AD0000EA0
:1009000002016E6F000E6F6F800E706F3F0E716F81
:100910001200800E621910E13F0E6319601161111F
:10092000D8A40AD0000E02016E6F000E6F6F800E09
:10093000706F3F0E716F1200ABBF09D0A805000E9B
:10094000A959800EAA597F0EAB59D8B00BD09BBFC6
:1009500024D09805000E9959800E9A597F0E9B5904
:10096000D8A01BD06EC200F26FC201F270C202F2B8
:1009700071C203F272C204F273C205F274C206F2CB
:1009800075C207F2F0EC32F000C26EF201C26FF2F3
:1009900002C270F203C271F21200000E506F000E1C
:1009A000516F000E526F000E536F63AFB1D09BBFFB
:1009B0000ED0800E9A5D4B0E9B59D8A008D0020E27
:1009C000506F000E516F000E526F000EA0D09BBFF3
:1009D0009FD0800E9A5D3F0E9B59D8A099D0170EDC
:1009E0000201766F98C377F299C378F29AC379F2CD
:1009F0009BC37AF2766701D007D07A357A337933A0
:100A000078337733762FF6D7810E020177250301ED
:100A1000A06FFF0E020178210301A16FFF0E0201FA
:100A200079210301A26FFF0E02017A210301A36F56
:100A3000A05117080201766F98C377F299C378F234
:100A40009AC379F29BC37AF2766701D007D07A35E0
:100A50007A33793378337733762FF6D777C2ACF39E
:100A600078C2ADF379C2AEF37AC2AFF30301A051FD
:100A700017080201766FACC377F2ADC378F2AEC34C
:100A800079F2AFC37AF2762B05D0D89077377837E2
:100A900079377A37762FF9D7030198510201771900
:100AA00037E1030199510201781932E103019A51AA
:100AB000020179192DE103019B5102017A19D8A491
:100AC00027D0010E0301AC150201766F000E030161
:100AD000AD150201776F000E0301AE150201786FAC
:100AE000000E0301AF150201796F76510208030170
:100AF000506F000E020177550301516F000E020185
:100B000078550301526F000E020179550301536FAE
:100B1000800E03019A1958E17F0E9B1998119911C3
:100B2000D8A452D0800EAA1910E13F0EAB19A8111B
:100B3000A911D8A40AD0000E02016E6F000E6F6FCB
:100B4000800E706F3F0E716F1200ABBF1ED0A805F4
:100B5000000EA959800EAA593F0EAB59D8A015D046
:100B600087AF0AD0000E02016E6F000E6F6F000E8D
:100B7000706F000E716F120072C26EF273C26FF26C
:100B800074C270F275C271F2120087AF13D072C2D4
:100B900000F273C201F274C202F275C203F2E7EC12
:100BA0003EF000C26EF201C26FF202C270F203C2E6
:100BB00071F21200000E02016E6F000E6F6F000ED8
:100BC000706F000E716F1200800E9A192DE13F0EAA
:100BD0009B1998119911D8A427D087AF1CD0000E6B
:100BE0000201316F000E326F800E336F3F0E346F93
:100BF0006EC235F26FC236F270C237F271C238F28D
:100C0000FDEC35F031C26EF232C26FF233C270F2D7
:100C100034C271F212006EC26EF26FC26FF270C215
:100C200070F271C271F21200400E871984118511A1
:100C30008611D8A41BD06EC210F26FC211F270C21E
:100C400012F271C213F26EC214F26FC215F270C2C8
:100C500016F271C217F29DEC2FF010C26EF211C2A3
:100C60006FF212C270F213C271F212003F0E8719B6
:100C7000841185118611D8B463BF13D06EC23DF2C2
:100C80006FC23EF270C23FF271C240F287EC2DF0AB
:100C90003DC26EF23EC26FF23FC270F240C271F2CC
:100CA00012006EC200F26FC201F270C202F271C293
:100CB00003F2B2EC3EF000C270F301C271F302C263
:100CC00072F303C273F3800E0301AA1906E17F0ECB
:100CD000AB19A811A911D8B40FD0A851A911AA1104
:100CE000AB11D8B409D0800EAA1905E13F0EAB199B
:100CF000A811A911D8A4B6D070C3B4F371C3B5F3C9
:100D000072C3B6F373C3B7F387AF1BD0000E0201F3
:100D1000316F000E326F800E336F3F0E346FB4C3ED
:100D200035F2B5C336F2B6C337F2B7C338F2FDECCD
:100D300035F031C2B4F332C2B5F333C2B6F334C2C4
:100D4000B7F3030163AF85D0000EA8250201766FCB
:100D5000000E0301A9210201776F800E0301AA2171
:100D60000201786FC00E0301AB210201796F03010C
:100D70005051020176117A6F03015151020177112E
:100D80007B6F03015251020178117C6F03015351B3
:100D9000020179117D6F7A517B117C117D11D8A4EC
:100DA0003FD0B4C32DF2B5C32EF2B6C32FF2B7C3F2
:100DB00030F2B4C329F2B5C32AF2B6C32BF2B7C3DB
:100DC0002CF24FEC3EF029C231F22AC232F22BC291
:100DD00033F22CC234F2B4C32DF2B5C32EF2B6C333
:100DE0002FF2B7C330F2B4C329F2B5C32AF2B6C3A7
:100DF0002BF2B7C32CF24FEC3EF029C235F22AC2D7
:100E000036F22BC237F22CC238F2FDEC35F031C28B
:100E1000B4F332C2B5F333C2B6F334C2B7F319D068
:100E200003015005511152115311D8A412D0B4C36B
:100E300000F2B5C301F2B6C302F2B7C303F2E7ECA6
:100E40003EF000C2B4F301C2B5F302C2B6F303C26E
:100E5000B7F3B4C36EF2B5C36FF2B6C370F2B7C3E3
:100E600071F21200000E886F000E896F800E8A6F7B
:100E70003F0E8B6F63AF53D050515111521153112C
:100E8000D8A43FD06EC22DF26FC22EF270C22FF2E4
:100E900071C230F26EC229F26FC22AF270C22BF216
:100EA00071C22CF24FEC3EF029C231F22AC232F26A
:100EB0002BC233F22CC234F26EC22DF26FC22EF26C
:100EC00070C22FF271C230F26EC229F26FC22AF2E2
:100ED00070C22BF271C22CF24FEC3EF029C235F2F7
:100EE0002AC236F22BC237F22CC238F2FDEC35F0B2
:100EF00031C26EF232C26FF233C270F234C271F29A
:100F000012005005511152115311D8A408D0000EEF
:100F1000886F000E896F800E8A6FBF0E8B6F9BBF2C
:100F20007AD29805000E9959000E9A594D0E9B5988
:100F3000D8A071D2ABBF0AD0F80EA85DFF0EA95998
:100F40007F0EAA593F0EAB59D8B070D087BF37D0AB
:100F5000600E0201146F420E156FA20E166F0D0E79
:100F6000176F88C310F289C311F28AC312F28BC3C0
:100F700013F29DEC2FF010C2A4F311C2A5F312C21C
:100F8000A6F313C2A7F3A4C310F2A5C311F2A6C31C
:100F900012F2A7C313F2600E0201146F420E156F16
:100FA000A20E166F0D0E176F9DEC2FF010C26EF291
:100FB00011C26FF212C270F213C271F21200CA0EA5
:100FC0000201146FF20E156F490E166F710E176F36
:100FD00088C310F289C311F28AC312F28BC313F2D1
:100FE0009DEC2FF010C2A4F311C2A5F312C2A6F318
:100FF00013C2A7F3A4C310F2A5C311F2A6C312F241
:10100000A7C313F2CA0E0201146FF20E156F490E38
:10101000166F710E176F9DEC2FF010C26EF211C299
:101020006FF212C270F213C271F21200ABBF81D024
:10103000080EA85D000EA959800EAA593F0EAB59A3
:10104000D8A077D087BF07D08751861185113AE1A4
:101050008405D8B037D0600E0201146F420E156FB0
:10106000A20E166F0D0E176F88C310F289C311F20E
:101070008AC312F28BC313F29DEC2FF010C2A4F3BB
:1010800011C2A5F312C2A6F313C2A7F3A4C310F2B0
:10109000A5C311F2A6C312F2A7C313F2600E020198
:1010A000146F420E156FA20E166F0D0E176F9DEC8A
:1010B0002FF010C26EF211C26FF212C270F213C2A0
:1010C00071F21200CA0E0201146FF20E156F490E72
:1010D000166F710E176F88C310F289C311F28AC39D
:1010E00012F28BC313F29DEC2FF010C2A4F311C2C5
:1010F000A5F312C2A6F313C2A7F3A4C310F2A5C3AB
:1011000011F2A6C312F2A7C313F2CA0E0201146FA2
:10111000F20E156F490E166F710E176F9DEC2FF0C2
:1011200010C26EF211C26FF212C270F213C271F2EB
:10113000120070C300F271C301F272C302F273C3F2
:1011400003F2000E0201046F000E056F800E066FA1
:10115000BF0E076FF0EC32F000C2B0F301C2B1F382
:1011600002C2B2F303C2B3F3000E0201146F000E09
:10117000156F800E166F3E0E176FB0C310F2B1C31D
:1011800011F2B2C312F2B3C313F29DEC2FF010C2EE
:101190002DF211C22EF212C22FF213C230F2AB0E98
:1011A0000201296FAA0E2A6FAA0E2B6F3E0E2C6F1A
:1011B0004FEC3EF029C2A4F32AC2A5F32BC2A6F33A
:1011C0002CC2A7F3B0C314F2B1C315F2B2C316F226
:1011D000B3C317F2B0C310F2B1C311F2B2C312F22B
:1011E000B3C313F29DEC2FF010C254F311C255F3A8
:1011F00012C256F313C257F3B0C314F2B1C315F2BF
:10120000B2C316F2B3C317F2A4C310F2A5C311F20E
:10121000A6C312F2A7C313F29DEC2FF010C22DF259
:1012200011C22EF212C22FF213C230F2000E0201CE
:10123000296F000E2A6F000E2B6F3F0E2C6F4FECA4
:101240003EF029C248F32AC249F32BC24AF32CC20A
:101250004BF354C310F255C311F256C312F257C3E5
:1012600013F248C314F249C315F24AC316F24BC332
:1012700017F29DEC2FF010C244F311C245F312C2D5
:1012800046F313C247F3B0C310F2B1C311F2B2C3B5
:1012900012F2B3C313F2000E0201146FAA0E156FFF
:1012A000B80E166F3F0E176F9DEC2FF010C274F33F
:1012B00011C275F312C276F313C277F3700E0201F6
:1012C000146FA50E156FEC0E166F360E176FB0C3A8
:1012D00010F2B1C311F2B2C312F2B3C313F29DEC18
:1012E0002FF010C229F211C22AF212C22BF213C23D
:1012F0002CF23B0E0201146FAA0E156FB80E166F7A
:101300003F0E176F44C310F245C311F246C312F2E9
:1013100047C313F29DEC2FF010C22DF211C22EF232
:1013200012C22FF213C230F24FEC3EF029C278F312
:101330002AC279F32BC27AF32CC27BF374C300F276
:1013400075C301F276C302F277C303F278C304F2E5
:1013500079C305F27AC306F27BC307F2F0EC32F0F0
:1013600000C280F301C281F302C282F303C283F39D
:1013700080C3B8F381C3B9F382C3BAF383C3BBF3A9
:10138000B8C390F3B9C391F3BAC392F3BBC393F359
:10139000000E03019015B86FF00E9115B96FFF0E96
:1013A0009215BA6FFF0E9315BB6FB8C380F3B9C324
:1013B00081F3BAC382F3BBC383F374C32DF275C345
:1013C0002EF276C32FF277C330F280C329F281C3A5
:1013D0002AF282C32BF283C32CF24FEC3EF029C2D7
:1013E00094F32AC295F32BC296F32CC297F378C3D9
:1013F00029F279C32AF27AC32BF27BC32CF294C36D
:101400002DF295C32EF296C32FF297C330F24FEC14
:101410003EF05DEF11F0000E7C6F000E7D6F000E50
:101420007E6F000E7F6FABBF06D0AB5138E1800EF0
:10143000AA5DD8B034D070C310F271C311F272C378
:1014400012F273C313F2000E0201146F000E156F37
:10145000800E166F4B0E176F9DEC2FF010C270F3BD
:1014600011C271F312C272F313C273F3E80E0301D7
:101470007C27FF0E7D23FF0E7E23FF0E7F2370C38C
:10148000B8F371C3B9F372C3BAF373C3BBF3B8C390
:10149000A8F3B9C3A9F3BAC3AAF3BBC3ABF3170E3E
:1014A0000201766FA8C377F2A9C378F2AAC379F2D2
:1014B000ABC37AF2766701D007D07A357A337933C5
:1014C00078337733762FF6D7810E020177257B6F3D
:1014D000FF0E78217C6FFF0E79217D6FFF0E7A2140
:1014E0007E6F7B5103017C2702017C5103017D2328
:1014F00002017D5103017E2302017E5103017F23FE
:10150000FF0EA815AC6FFF0EA915AD6F7F0EAA15C3
:10151000AE6F000EAB15AF6F000EAC11A86F000ED2
:10152000AD11A96F800EAE11AA6F3F0EAF11AB6F58
:10153000AFBF0AD0AF510AE1720EAC5DC40EAD5917
:101540001C0EAE59D8B002D0000E0DD0AFBF0AD0DD
:10155000AF5111E1D70EAC5DB30EAD595D0EAE5972
:10156000D8B009D0010EA06F000EA16F000EA26FBF
:10157000000EA36F16D0000EA06F000EA16F000E1C
:10158000A26F000EA36F010E7C27000E7D237E2329
:101590007F23000EA827000EA923800EAA23FF0E8A
:1015A000AB23A8C3B8F3A9C3B9F3AAC3BAF3ABC3B7
:1015B000BBF3B8C370F3B9C371F3BAC372F3BBC35F
:1015C00073F370C329F271C32AF272C32BF273C38F
:1015D0002CF2A0C376F2A1C377F20201D89076373D
:1015E0007737D89076377737690E7625F66E080EFE
:1015F0007721F76E0900F5CF2DF20900F5CF2EF215
:101600000900F5CF2FF20A00F5CF30F24FEC3EF093
:1016100029C274F32AC275F32BC276F32CC277F376
:10162000000E0201316F000E326F800E336F3F0EDD
:10163000346F70C304F271C305F272C306F273C350
:1016400007F2A0C376F2A1C377F2D8907637773746
:10165000D89076377737690E7625F66E080E7721A3
:10166000F76E0900F5CF00F20900F5CF01F209008D
:10167000F5CF02F20A00F5CF03F2F0EC32F000C22F
:1016800035F201C236F202C237F203C238F2FDEC83
:1016900035F031C278F332C279F333C27AF334C20F
:1016A0007BF374C310F275C311F276C312F277C3E1
:1016B00013F278C314F279C315F27AC316F27BC31E
:1016C00017F29DEC2FF010C25CF311C25DF312C251
:1016D0005EF313C25FF35CC36CF35DC36DF35EC373
:1016E0006EF35FC36FF36CC3B8F36DC3B9F36EC32E
:1016F000BAF36FC3BBF3B8C390F3B9C391F3BAC3E2
:1017000092F3BBC393F3000E03019015B86FF00E74
:101710009115B96FFF0E9215BA6FFF0E9315BB6F3F
:10172000B8C36CF3B9C36DF3BAC36EF3BBC36FF345
:10173000A8C376F2A9C377F2AAC378F2ABC379F251
:10174000020179357933783377337633000E7615A5
:101750007A6FF00E77157B6FFF0E78157C6FFF0E9A
:1017600079157D6F000E7A110301906F000E020152
:101770007B110301916F000E02017C110301926F36
:10178000200E02017D110301936FA0C376F2A1C365
:1017900077F2A2C378F2A3C379F2150ED8900201B2
:1017A0007637773778377937E82EF8D703019051B5
:1017B000020176257A6F03019151020177217B6F37
:1017C00003019251020178217C6F030193510201C0
:1017D00079217D6F000E7A250301B86F000E02019A
:1017E0007B210301B96F400E02017C210301BA6F16
:1017F000000E02017D210301BB6FB8C368F3B9C3BA
:1018000069F3BAC36AF3BBC36BF3A0C376F2A1C397
:1018100077F20201D89076377737D89076377737D6
:10182000690E7625F66E080E7721F76E0900F5CF62
:101830002DF20900F5CF2EF20900F5CF2FF20A00A4
:10184000F5CF30F268C329F269C32AF26AC32BF2DA
:101850006BC32CF24FEC3EF029C294F32AC295F3ED
:101860002BC296F32CC297F370C329F271C32AF2EC
:1018700072C32BF273C32CF294C32DF295C32EF2D4
:1018800096C32FF297C330F24FEC3EF029C234F3E7
:101890002AC235F32BC236F32CC237F368C314F2D5
:1018A00069C315F26AC316F26BC317F26CC310F268
:1018B0006DC311F26EC312F26FC313F29DEC2FF0E1
:1018C00010C22DF211C22EF212C22FF213C230F248
:1018D00074C329F275C32AF276C32BF277C32CF2B4
:1018E0004FEC3EF029C294F32AC295F32BC296F333
:1018F0002CC297F334C314F235C315F236C316F273
:1019000037C317F26CC310F26DC311F26EC312F23B
:101910006FC313F29DEC2FF010C22DF211C22EF204
:1019200012C22FF213C230F294C329F295C32AF2E5
:1019300096C32BF297C32CF24FEC3EF029C254F31E
:101940002AC255F32BC256F32CC257F354C310F2DC
:1019500055C311F256C312F257C313F278C314F2EF
:1019600079C315F27AC316F27BC317F29DEC2FF000
:1019700010C230F311C231F312C232F313C233F387
:101980005CC310F25DC311F25EC312F25FC313F2C7
:101990005CC314F25DC315F25EC316F25FC317F2A7
:1019A0009DEC2FF010C28CF311C28DF312C28EF396
:1019B00013C28FF3550E0201046F320E056F6C0EC9
:1019C000066F3E0E076F420E146FF10E156F530E29
:1019D000166F3E0E176F8CC310F28DC311F28EC3BB
:1019E00012F28FC313F29DEC2FF010C200F211C25D
:1019F00001F212C202F213C203F2F0EC32F000C2A2
:101A0000A4F301C2A5F302C2A6F303C2A7F3050E15
:101A10000201046FA30E056F8B0E066F3E0E076F5B
:101A20008CC314F28DC315F28EC316F28FC317F256
:101A3000A4C310F2A5C311F2A6C312F2A7C313F2F6
:101A40009DEC2FF010C200F211C201F212C202F29C
:101A500013C203F2F0EC32F000C254F301C255F3AA
:101A600002C256F303C257F3AB0E0201046FAA0E73
:101A7000056FAA0E066F3E0E076F8CC314F28DC35E
:101A800015F28EC316F28FC317F254C310F255C36A
:101A900011F256C312F257C313F29DEC2FF010C28D
:101AA00000F211C201F212C202F213C203F2F0EC10
:101AB00032F000C248F301C249F302C24AF303C242
:101AC0004BF3B70E0201046F6D0E056FDB0E066F50
:101AD0003E0E076F8CC314F28DC315F28EC316F23F
:101AE0008FC317F248C310F249C311F24AC312F26E
:101AF0004BC313F29DEC2FF010C200F211C201F2A1
:101B000012C202F213C203F2F0EC32F000C238F358
:101B100001C239F302C23AF303C23BF39A0E020147
:101B2000046F990E056F190E066F3F0E076F8CC379
:101B300014F28DC315F28EC316F28FC317F238C399
:101B400010F239C311F23AC312F23BC313F29DEC07
:101B50002FF010C200F211C201F212C202F213C23F
:101B600003F2F0EC32F000C200F301C201F302C252
:101B700002F303C203F38CC314F28DC315F28EC3B8
:101B800016F28FC317F28CC310F28DC311F28EC3FD
:101B900012F28FC313F29DEC2FF010C204F311C2A6
:101BA00005F312C206F313C207F300C310F201C318
:101BB00011F202C312F203C313F204C314F205C3F9
:101BC00015F206C316F207C317F29DEC2FF010C2F0
:101BD0004CF311C24DF312C24EF313C24FF330C394
:101BE00014F231C315F232C316F233C317F25CC3D9
:101BF00004F25DC305F25EC306F25FC307F26CC375
:101C000000F26DC301F26EC302F26FC303F2F0EC97
:101C100032F000C210F201C211F202C212F203C28B
:101C200013F29DEC2FF010C258F311C259F312C2F7
:101C30005AF313C25BF34CC300F24DC301F24EC31F
:101C400002F24FC303F258C304F259C305F25AC358
:101C500006F25BC307F2F0EC32F000C24CF301C2B3
:101C60004DF302C24EF303C24FF36CC310F26DC3C7
:101C700011F26EC312F26FC313F26CC314F26DC390
:101C800015F26EC316F26FC317F29DEC2FF010C25F
:101C90008CF311C28DF312C28EF313C28FF3000EB8
:101CA0000201046F000E056F400E066F400E076FB5
:101CB0008CC300F28DC301F28EC302F28FC303F214
:101CC000F0EC32F000C258F301C259F302C25AF3E9
:101CD00003C25BF358C300F259C301F25AC302F2C4
:101CE0005BC303F24CC304F24DC305F24EC306F2CC
:101CF0004FC307F2F0EC32F000C268F301C269F39F
:101D000002C26AF303C26BF368C3B8F369C3B9F3E1
:101D10006AC3BAF36BC3BBF3B8C390F3B9C391F30F
:101D2000BAC392F3BBC393F3000E03019015B86FCF
:101D3000F00E9115B96FFF0E9215BA6FFF0E931545
:101D4000BB6FB8C368F3B9C369F3BAC36AF3BBC363
:101D50006BF3000E0201046F000E056F400E066F5C
:101D6000C00E076F68C300F269C301F26AC302F2D2
:101D70006BC303F2F0EC32F000C23CF301C23DF35E
:101D800002C23EF303C23FF38CC32DF28DC32EF289
:101D90008EC32FF28FC330F23CC329F23DC32AF227
:101DA0003EC32BF23FC32CF24FEC3EF029C240F36E
:101DB0002AC241F32BC242F32CC243F34CC329F293
:101DC0004DC32AF24EC32BF24FC32CF240C32DF267
:101DD00041C32EF242C32FF243C330F24FEC3EF028
:101DE00029C234F32AC235F32BC236F32CC237F39F
:101DF0006CC310F26DC311F26EC312F26FC313F213
:101E000068C314F269C315F26AC316F26BC317F202
:101E10009DEC2FF010C274F311C275F312C276F369
:101E200013C277F368C314F269C315F26AC316F2DA
:101E30006BC317F230C310F231C311F232C312F286
:101E400033C313F29DEC2FF010C200F211C201F265
:101E500012C202F213C203F25CC314F25DC315F2A4
:101E60005EC316F25FC317F234C310F235C311F22A
:101E700036C312F237C313F29DEC2FF010C204F2F6
:101E800011C205F212C206F213C207F2F0EC32F0F0
:101E900000C278F301C279F302C27AF303C27BF382
:101EA00074C300F275C301F276C302F277C303F282
:101EB00078C304F279C305F27AC306F27BC307F252
:101EC000F0EC32F000C29CF301C29DF302C29EF31B
:101ED00003C29FF39CC3B8F39DC3B9F39EC3BAF387
:101EE0009FC3BBF3B8C390F3B9C391F3BAC392F3E2
:101EF000BBC393F3000E03019015B86FF00E91155C
:101F0000B96FFF0E9215BA6FFF0E9315BB6FB8C372
:101F10009CF3B9C39DF3BAC39EF3BBC39FF374C3D1
:101F20002DF275C32EF276C32FF277C330F29CC325
:101F300029F29DC32AF29EC32BF29FC32CF24FECD1
:101F40003EF029C294F32AC295F32BC296F32CC219
:101F500097F378C329F279C32AF27AC32BF27BC3B1
:101F60002CF294C32DF295C32EF296C32FF297C391
:101F700030F24FEC3EF029C264F32AC265F32BC263
:101F800066F32CC267F39CC310F29DC311F29EC38B
:101F900012F29FC313F2000E0201146F400E156F70
:101FA000760E166F3F0E176F9DEC2FF010C220F3C8
:101FB00011C221F312C222F313C223F34F0E020106
:101FC000146F380E156F760E166F3F0E176F64C3C1
:101FD00010F265C311F266C312F267C313F29DECEF
:101FE0002FF010C204F211C205F212C206F213C29F
:101FF00007F2C60E0201146F230E156FF60E166F50
:10200000B80E176F9CC310F29DC311F29EC312F25B
:102010009FC313F29DEC2FF010C200F211C201F227
:1020200012C202F213C203F2F0EC32F000C258F313
:1020300001C259F302C25AF303C25BF358C300F260
:1020400059C301F25AC302F25BC303F2A0C376F292
:10205000A1C377F20201D89076377737D8907637D8
:102060007737010E7625F66E080E7721F76E090098
:10207000F5CF04F20900F5CF05F20900F5CF06F21D
:102080000A00F5CF07F2F0EC32F000C224F301C2EF
:1020900025F302C226F303C227F37CC300F27DC3FB
:1020A00001F27EC302F27FC303F2010E71EC3AF03B
:1020B00000C2B0F301C2B1F302C2B2F303C2B3F380
:1020C00024C304F225C305F226C306F227C307F290
:1020D00020C300F221C301F222C302F223C303F2A0
:1020E000F0EC32F000C258F301C259F302C25AF3C5
:1020F00003C25BF3A0C376F2A1C377F20201D890CA
:1021000076377737D89076377737090E7625F66E9B
:10211000080E7721F76E0900F5CF04F20900F5CF1C
:1021200005F20900F5CF06F20A00F5CF07F258C311
:1021300000F259C301F25AC302F25BC303F2F0EC9E
:1021400032F000C208F301C209F302C20AF303C26B
:102150000BF308C300F209C301F20AC302F20BC376
:1021600003F2B0C304F2B1C305F2B2C306F2B3C3C3
:1021700007F2F0EC32F000C280F301C281F302C238
:1021800082F303C283F380C3B8F381C3B9F382C37C
:10219000BAF383C3BBF3B8C390F3B9C391F3BAC323
:1021A00092F3BBC393F3000E03019015B86FF00ECA
:1021B0009115B96FFF0E9215BA6FFF0E9315BB6F95
:1021C000B8C380F3B9C381F3BAC382F3BBC383F34B
:1021D000B0C32DF2B1C32EF2B2C32FF2B3C330F2AB
:1021E00080C329F281C32AF282C32BF283C32CF26B
:1021F0004FEC3EF029C294F32AC295F32BC296F31A
:102200002CC297F3A0C376F2A1C377F20201D89053
:1022100076377737D89076377737090E7625F66E8A
:10222000080E7721F76E0900F5CF2DF20900F5CFE2
:102230002EF20900F5CF2FF20A00F5CF30F294C349
:1022400029F295C32AF296C32BF297C32CF24FECD6
:102250003EF029C240F32AC241F32BC242F32CC202
:1022600043F320C32DF221C32EF222C32FF223C346
:1022700030F240C329F241C32AF242C32BF243C3D6
:102280002CF24FEC3EF029C20CF32AC20DF32BC204
:102290000EF32CC20FF324C329F225C32AF226C35E
:1022A0002BF227C32CF20CC32DF20DC32EF20EC35A
:1022B0002FF20FC330F24FEC3EF029C21CF32AC2BA
:1022C0001DF32BC21EF32CC21FF372C2B8F373C2EC
:1022D000B9F374C2BAF375C2BBF3B8C390F3B9C310
:1022E00091F3BAC392F3BBC393F3000E03019015AD
:1022F000B86FF00E9115B96FFF0E9215BA6FFF0E01
:102300009315BB6FB8C328F3B9C329F3BAC32AF333
:10231000BBC32BF380C314F281C315F282C316F240
:1023200083C317F228C32DF229C32EF22AC32FF23A
:102330002BC330F272C229F273C22AF274C22BF29A
:1023400075C22CF24FEC3EF029C210F22AC211F2F3
:102350002BC212F22CC213F29DEC2FF010C210F31C
:1023600011C211F312C212F313C213F310C300F21D
:1023700011C301F212C302F213C303F21CC314F21D
:102380001DC315F21EC316F21FC317F272C210F25C
:1023900073C211F274C212F275C213F29DEC2FF0E7
:1023A00010C204F211C205F212C206F213C207F201
:1023B000F0EC32F000C264F301C265F302C266F3CE
:1023C00003C267F328C310F229C311F22AC312F221
:1023D0002BC313F280C314F281C315F282C316F229
:1023E00083C317F29DEC2FF010C29CF311C29DF332
:1023F00012C29EF313C29FF364C300F265C301F2DD
:1024000066C302F267C303F29CC304F29DC305F2E4
:102410009EC306F29FC307F2F0EC32F000C2B4F3A1
:1024200001C2B5F302C2B6F303C2B7F3B4C3B8F343
:10243000B5C3B9F3B6C3BAF3B7C3BBF3B8C3ACF310
:10244000B9C3ADF3BAC3AEF3BBC3AFF30301AFBFC0
:1024500040D0AC05000EAD59000EAE59430EAF5939
:10246000D8A037D0CA0E0201146FF20E156F490EB4
:10247000166F710E176F88C310F289C311F28AC3E9
:1024800012F28BC313F29DEC2FF010C2A4F311C211
:10249000A5F312C2A6F313C2A7F3A4C310F2A5C3F7
:1024A00011F2A6C312F2A7C313F2CA0E0201146FEF
:1024B000F20E156F490E166F710E176F9DEC2FF00F
:1024C00010C26EF211C26FF212C270F213C271F238
:1024D0001200430EAF19AC11AD11AE11D8A470D0DB
:1024E0009CC32DF29DC32EF29EC32FF29FC330F2E8
:1024F000B4C329F2B5C32AF2B6C32BF2B7C32CF288
:102500004FEC3EF029C231F22AC232F22BC233F232
:102510002CC234F23C0E0201046FAA0E056F380E75
:10252000066F330E076F64C300F265C301F266C322
:1025300002F267C303F2F0EC32F000C235F201C2DE
:1025400036F202C237F203C238F2B7EC3CF00201B5
:10255000D8B0F1D0CA0E146FF20E156F490E166F77
:10256000710E176F88C310F289C311F28AC312F279
:102570008BC313F29DEC2FF010C2A4F311C2A5F38C
:1025800012C2A6F313C2A7F3A4C310F2A5C311F29B
:10259000A6C312F2A7C313F2CA0E0201146FF20E01
:1025A000156F490E166F710E176F9DEC2FF010C24C
:1025B0006EF211C26FF212C270F213C271F2120007
:1025C000FF0EAC150201766FFF0E0301AD1502017F
:1025D000776FFF0E0301AE150201786F7F0E0301C6
:1025E000AF150201796F79BF3FD07605000E77599C
:1025F000160E7859430E7959D8A036D0600E146F54
:10260000420E156FA20E166F0D0E176F88C310F2D3
:1026100089C311F28AC312F28BC313F29DEC2FF01F
:1026200010C2A4F311C2A5F312C2A6F313C2A7F3FA
:10263000A4C310F2A5C311F2A6C312F2A7C313F2EA
:10264000600E0201146F420E156FA20E166F0D0E72
:10265000176F9DEC2FF010C26EF211C26FF212C212
:1026600070F213C271F21200160E0301AE1963E18B
:10267000C30EAF19AC11AD11D8A45DD09CC32DF21F
:102680009DC32EF29EC32FF29FC330F2B4C329F232
:10269000B5C32AF2B6C32BF2B7C32CF24FEC3EF00F
:1026A00029C231F22AC232F22BC233F22CC234F2E6
:1026B00064C335F265C336F266C337F267C338F2D6
:1026C000B7EC3CF00201D8A036D0600E146F420E79
:1026D000156FA20E166F0D0E176F88C310F289C307
:1026E00011F28AC312F28BC313F29DEC2FF010C2C9
:1026F000A4F311C2A5F312C2A6F313C2A7F3A4C395
:1027000010F2A5C311F2A6C312F2A7C313F2600E12
:102710000201146F420E156FA20E166F0D0E176F89
:102720009DEC2FF010C26EF211C26FF212C270F265
:1027300013C271F21200FF0E0301AC152C6FFF0ED5
:10274000AD152D6FFF0EAE152E6F7F0EAF152F6FCF
:10275000170E0201766F2CC377F22DC378F22EC3C9
:1027600079F22FC37AF2766701D007D07A357A33BF
:10277000793378337733762FF6D7810E02017725B8
:102780000301A06FFF0E020178210301A16FFF0E6C
:10279000020179210301A26FFF0E02017A210301D8
:1027A000A36F000E7C6F000E7D6F000E7E6F000E1B
:1027B0007F6F2FBFFCD02C05000E2D59000E2E5917
:1027C0003F0E2F59D8A0F3D0A0C376F2010E02011C
:1027D0007627000E776F000E786F800E796F000EEF
:1027E0007A6F766701D007D07A357A3379337833C8
:1027F0007733762FF6D70301AC5102017725030119
:102800007C6FAD510201782103017D6FAE51020151
:10281000792103017E6FAF5102017A2103017F6F9D
:10282000810E0201766FFF0E776FFF0E786FFF0E3D
:10283000796F170E7A6F7CC37BF27DC37CF27EC307
:102840007DF27FC37EF27A6701D007D07E357E337A
:102850007D337C337B337A2FF6D702017B5176258B
:102860000301A06F000E020177210301A16F000E8A
:10287000020178210301A26F000E020179210301F8
:10288000A36FA0C376F2FF0E0201776FFF0E786F81
:102890007F0E796F000E7A6F766701D007D07A3598
:1028A0007A33793378337733762FF6D70201771D71
:1028B0007B6F781D7C6F791D7D6F7A1D7E6F0301A4
:1028C0007C5102017B150301B86F7D5102017C151B
:1028D0000301B96F7E5102017D150301BA6F7F516B
:1028E00002017E150301BB6FB8C3B0F3B9C3B1F3E6
:1028F000BAC3B2F3BBC3B3F3A05117080201766F9A
:10290000FF0E03017C150201776FFF0E03017D1599
:102910000201786F7F0E03017E150201796F000EB0
:1029200003017F1502017A6F000E77117B6F000E95
:1029300078117C6F800E79117D6F000E7A117E6F99
:10294000766701D007D07E357E337D337C337B3391
:10295000762FF6D77BC27CF37CC27DF37DC27EF3FB
:102960007EC27FF30301AFAF08D07F1F7E1F7D1FA4
:102970007C6D000E7D237E237F239CC329F29DC3A3
:102980002AF29EC32BF29FC32CF2B0C32DF2B1C327
:102990002EF2B2C32FF2B3C330F24FEC3EF029C295
:1029A0009CF32AC29DF32BC29EF32CC29FF364C3F7
:1029B00000F265C301F266C302F267C303F29CC36F
:1029C00004F29DC305F29EC306F29FC307F2F0EC2A
:1029D00032F000C2B0F301C2B1F302C2B2F303C2DB
:1029E000B3F3B0C3B8F3B1C3B9F3B2C3BAF3B3C36B
:1029F000BBF3B8C390F3B9C391F3BAC392F3BBC3AB
:102A000093F3000E03019015B86F800E9115B96F06
:102A1000FF0E9215BA6FFF0E9315BB6FB8C3B0F3DC
:102A2000B9C3B1F3BAC3B2F3BBC3B3F3B0C310F2CB
:102A3000B1C311F2B2C312F2B3C313F2000E02011A
:102A4000146F720E156F310E166F3F0E176F9DECDF
:102A50002FF010C274F311C275F312C276F313C2D1
:102A600077F39CC32DF29DC32EF29EC32FF29FC31A
:102A700030F2B0C329F2B1C32AF2B2C32BF2B3C30E
:102A80002CF24FEC3EF029C294F32AC295F32BC2EC
:102A900096F32CC297F3180E0201146F720E156F85
:102AA000310E166F3F0E176F94C32DF295C32EF2A1
:102AB00096C32FF297C330F264C329F265C32AF29A
:102AC00066C32BF267C32CF24FEC3EF029C210F222
:102AD0002AC211F22BC212F22CC213F29DEC2FF07B
:102AE00010C214F311C215F312C216F313C217F376
:102AF00014C300F215C301F216C302F217C303F2A6
:102B00008C0E0201146FBE0E156FBF0E166F350EC0
:102B1000176FB0C310F2B1C311F2B2C312F2B3C354
:102B200013F29DEC2FF010C204F211C205F212C292
:102B300006F213C207F2F0EC32F000C278F301C2E1
:102B400079F302C27AF303C27BF374C300F275C354
:102B500001F276C302F277C303F278C304F279C3B9
:102B600005F27AC306F27BC307F2F0EC32F000C242
:102B7000B4F301C2B5F302C2B6F303C2B7F374C330
:102B80002DF275C32EF276C32FF277C330F2B4C3A1
:102B900029F2B5C32AF2B6C32BF2B7C32CF24FEC1D
:102BA0003EF029C294F32AC295F32BC296F32CC2AD
:102BB00097F378C329F279C32AF27AC32BF27BC345
:102BC0002CF294C32DF295C32EF296C32FF297C325
:102BD00030F24FEC3EF029C244F32AC245F32BC237
:102BE00046F32CC247F3B4C310F2B5C311F2B6C317
:102BF00012F2B7C313F2B4C314F2B5C315F2B6C3DD
:102C000016F2B7C317F29DEC2FF010C2B0F311C249
:102C1000B1F312C2B2F313C2B3F30E0E0201046F8A
:102C2000EA0E056FDD0E066FB50E076F4C0E146FC2
:102C3000BB0E156F310E166F330E176FB0C310F247
:102C4000B1C311F2B2C312F2B3C313F29DEC2FF071
:102C500010C200F211C201F212C202F213C203F258
:102C6000F0EC32F000C2A4F301C2A5F302C2A6F355
:102C700003C2A7F3550E0201046FB30E056F8A0E4F
:102C8000066F380E076FB0C314F2B1C315F2B2C3AA
:102C900016F2B3C317F2A4C310F2A5C311F2A6C370
:102CA00012F2A7C313F29DEC2FF010C200F211C272
:102CB00001F212C202F213C203F2F0EC32F000C2CF
:102CC00054F301C255F302C256F303C257F3610E27
:102CD0000201046F0B0E056F360E066FBB0E076FF9
:102CE000B0C314F2B1C315F2B2C316F2B3C317F2F4
:102CF00054C310F255C311F256C312F257C313F264
:102D00009DEC2FF010C200F211C201F212C202F2C9
:102D100013C203F2F0EC32F000C248F301C249F3EF
:102D200002C24AF303C24BF3AB0E0201046FAA0EB8
:102D3000056F2A0E066F3E0E076FB0C314F2B1C3C3
:102D400015F2B2C316F2B3C317F248C310F249C367
:102D500011F24AC312F24BC313F29DEC2FF010C2D2
:102D600000F211C201F212C202F213C203F2F0EC3D
:102D700032F000C238F301C239F302C23AF303C29F
:102D80003BF3B4C329F2B5C32AF2B6C32BF2B7C3DF
:102D90002CF2B0C314F2B1C315F2B2C316F2B3C32E
:102DA00017F238C310F239C311F23AC312F23BC31F
:102DB00013F29DEC2FF010C22DF211C22EF212C2AE
:102DC0002FF213C230F24FEC3EF029C280F32AC238
:102DD00081F32BC282F32CC283F3000E0201046F35
:102DE000000E056F000E066FC00E076F80C300F265
:102DF00081C301F282C302F283C303F2F0EC32F02A
:102E000000C235F201C236F202C237F203C238F212
:102E100080C314F281C315F282C316F283C317F282
:102E2000B4C310F2B5C311F2B6C312F2B7C313F2B2
:102E30009DEC2FF010C231F211C232F212C233F205
:102E400013C234F2FDEC35F031C23CF332C23DF333
:102E500033C23EF334C23FF344C304F245C305F228
:102E600046C306F247C307F244C314F245C315F242
:102E700046C316F247C317F2B4C310F2B5C311F23A
:102E8000B6C312F2B7C313F29DEC2FF010C200F2DA
:102E900011C201F212C202F213C203F2F0EC32F0DC
:102EA00000C218F301C219F302C21AF303C21BF3E2
:102EB0003CC329F23DC32AF23EC32BF23FC32CF29E
:102EC00018C32DF219C32EF21AC32FF21BC330F20E
:102ED0004FEC3EF029C24CF32AC24DF32BC24EF305
:102EE0002CC24FF3B4C32DF2B5C32EF2B6C32FF2EA
:102EF000B7C330F24CC329F24DC32AF24EC32BF2B2
:102F00004FC32CF24FEC3EF029C294F32AC295F342
:102F10002BC296F32CC297F3000E0201296F000E0C
:102F20002A6F800E2B6F3F0E2C6F94C32DF295C32A
:102F30002EF296C32FF297C330F24FEC3EF029C227
:102F4000B4F32AC2B5F32BC2B6F32CC2B7F3B4C3A1
:102F5000B8F3B5C3B9F3B6C3BAF3B7C3BBF3B8C3D9
:102F6000ACF3B9C3ADF3BAC3AEF3BBC3AFF37CC329
:102F700076F27DC377F27EC378F27FC379F2170EC3
:102F8000D89002017637773778377937E82EF8D737
:102F900076510301AC27020177510301AD230201F1
:102FA00078510301AE23020179510301AF23170EBB
:102FB0000201766FACC377F2ADC378F2AEC379F29B
:102FC000AFC37AF2766701D007D07A357A33793396
:102FD00078337733762FF6D702017ABF07D07A514C
:102FE000791178111AE17705D8B017D0B4C329F256
:102FF000B5C32AF2B6C32BF2B7C32CF27CC32DF2B1
:103000007DC32EF286EC38F029C2B4F32AC2B5F3A0
:103010002BC2B6F32CC2B7F310D0ACC3B8F3ADC318
:10302000B9F3AEC3BAF3AFC3BBF3B8C3B4F3B9C318
:10303000B5F3BAC3B6F3BBC3B7F388C310F289C301
:1030400011F28AC312F28BC313F2B4C314F2B5C3E4
:1030500015F2B6C316F2B7C317F29DEC2FF010C2EB
:103060006EF211C26FF212C270F213C271F212004C
:1030700088C0B8F189C0B9F18AC0BAF18BC0BBF180
:10308000B8C168F1B9C169F1BAC16AF1BBC16BF1EC
:103090008CC0B8F18DC0B9F18EC0BAF18FC0BBF150
:1030A000B8C18CF1B9C18DF1BAC18EF1BBC18FF13C
:1030B000FF0E01016815A86FFF0E6915A96FFF0EBD
:1030C0006A15AA6F7F0E6B15AB6FFF0E8C159C6F88
:1030D000FF0E8D159D6FFF0E8E159E6F7F0E8F1547
:1030E0009F6F9C519D119E119F11D8A40AD0000E74
:1030F0000001886F000E896F800E8A6F3F0E8B6F04
:103100001200800E6A1910E13F0E6B1968116911E7
:10311000D8A40AD0000E0001886F000E896F800EBF
:103120008A6F3F0E8B6F1200ABBF09D0A805000E4F
:10313000A959800EAA597F0EAB59D8B00BD09FBFAA
:1031400024D09C05000E9D59800E9E597F0E9F59DC
:10315000D8A01BD088C001F089C002F08AC003F05B
:103160008BC004F08CC005F08DC006F08EC007F057
:103170008FC008F077EC34F001C088F002C089F00D
:1031800003C08AF004C08BF01200000E606F000EC6
:10319000616F000E626F000E636F6BAF90D09FBFC8
:1031A0000ED0800E9E5D4B0E9F59D8A008D0020E07
:1031B000606F000E616F000E626F000E7FD09FBFC8
:1031C0007ED0800E9E5D3F0E9F59D8A078D0170EFE
:1031D0004B6E9CC14CF09DC14DF09EC14EF09FC105
:1031E0004FF04B6601D007D04F344F324E324D3244
:1031F0004C324B2EF6D7810E4C240101A46FFF0EEA
:103200004D20A56FFF0E4E20A66FFF0E4F20A76F1B
:10321000A45117084B6E9CC14CF09DC14DF09EC14E
:103220004EF09FC14FF04B6601D007D04F344F3264
:103230004E324D324C324B2EF6D74CC0ACF14DC015
:10324000ADF14EC0AEF14FC0AFF10101A45117086E
:103250004B6EACC14CF0ADC14DF0AEC14EF0AFC144
:103260004FF04B2A05D0D8904C364D364E364F365F
:103270004B2EF9D79C514C1822E19D514D181FE15E
:103280009E514E181CE19F514F18D8A418D0010E22
:10329000AC154B6E000EAD154C6E000EAE154D6E9E
:1032A000000EAF154E6E4B500208606F000E4C546E
:1032B000616F000E4D54626F000E4E54636F800EAE
:1032C0009E1958E17F0E9F199C119D11D8A452D0D0
:1032D000800EAA1910E13F0EAB19A811A911D8A4AC
:1032E0000AD0000E0001886F000E896F800E8A6F71
:1032F0003F0E8B6F1200ABBF1ED0A805000EA95960
:10330000800EAA593F0EAB59D8A015D08FAF0AD066
:10331000000E0001886F000E896F000E8A6F000E8C
:103320008B6F12008CC088F08DC089F08EC08AF03F
:103330008FC08BF012008FAF13D08CC001F08DC006
:1033400002F08EC003F08FC004F0FFEC3EF001C02D
:1033500088F002C089F003C08AF004C08BF012002C
:10336000000E0001886F000E896F000E8A6F000E3C
:103370008B6F1200800E9E192CE13F0E9F199C113D
:103380009D11D8A426D08FAF1BD0000E326E000E38
:10339000336E800E346E3F0E356E88C036F089C0B5
:1033A00037F08AC038F08BC039F042EC37F032C0C9
:1033B00088F033C089F034C08AF035C08BF0120039
:1033C00088C088F089C089F08AC08AF08BC08BF0F1
:1033D0001200400E8F198C118D118E11D8A41BD0A4
:1033E00088C011F089C012F08AC013F08BC014F0AD
:1033F00088C015F089C016F08AC017F08BC018F08D
:1034000047EC31F011C088F012C089F013C08AF087
:1034100014C08BF012003F0E8F198C118D118E117C
:10342000D8B46BBF13D088C03EF089C03FF08AC0CB
:1034300040F08BC041F06EEC2BF03EC088F03FC0F6
:1034400089F040C08AF041C08BF0120088C001F0C2
:1034500089C002F08AC003F08BC004F0CDEC3EF0CE
:1034600001C078F102C079F103C07AF104C07BF1A8
:10347000800E0101AA1906E17F0EAB19A811A9114E
:10348000D8B40FD0A851A911AA11AB11D8B409D042
:10349000800EAA1905E13F0EAB19A811A911D8A4F5
:1034A000A5D078C1B4F179C1B5F17AC1B6F17BC1CB
:1034B000B7F18FAF1AD0000E326E000E336E800E51
:1034C000346E3F0E356EB4C136F0B5C137F0B6C1BB
:1034D00038F0B7C139F042EC37F032C0B4F133C044
:1034E000B5F134C0B6F135C0B7F101016BAF75D09D
:1034F000000EA8254B6E000EA9214C6E800EAA214D
:103500004D6EC00EAB214E6E60514B104F6E61512F
:103510004C10506E62514D10516E63514E10526EF0
:103520004F50501051105210D8A43FD0B4C12EF0BB
:10353000B5C12FF0B6C130F0B7C131F0B4C12AF037
:10354000B5C12BF0B6C12CF0B7C12DF073EC3EF035
:103550002AC032F02BC033F02CC034F02DC035F02F
:10356000B4C12EF0B5C12FF0B6C130F0B7C131F003
:10357000B4C12AF0B5C12BF0B6C12CF0B7C12DF003
:1035800073EC3EF02AC036F02BC037F02CC038F078
:103590002DC039F042EC37F032C0B4F133C0B5F190
:1035A00034C0B6F135C0B7F118D0600561116211B1
:1035B0006311D8A412D0B4C101F0B5C102F0B6C1F4
:1035C00003F0B7C104F0FFEC3EF001C0B4F102C05B
:1035D000B5F103C0B6F104C0B7F1B4C188F0B5C10C
:1035E00089F0B6C18AF0B7C18BF01200000E906F5F
:1035F000000E916F800E926F3F0E936F6BAF53D0A2
:103600006051611162116311D8A43FD088C02EF0BF
:1036100089C02FF08AC030F08BC031F088C02AF00A
:1036200089C02BF08AC02CF08BC02DF073EC3EF0DB
:103630002AC032F02BC033F02CC034F02DC035F04E
:1036400088C02EF089C02FF08AC030F08BC031F0D6
:1036500088C02AF089C02BF08AC02CF08BC02DF0D6
:1036600073EC3EF02AC036F02BC037F02CC038F097
:103670002DC039F042EC37F032C088F033C089F009
:1036800034C08AF035C08BF0120060056111621100
:103690006311D8A408D0000E906F000E916F800EB9
:1036A000926FBF0E936F9FBF6BD29C05000E9D590A
:1036B000000E9E594D0E9F59D8A062D2ABBF0AD0C2
:1036C000F80EA85DFF0EA9597F0EAA593F0EAB59FF
:1036D000D8B06CD08FBF35D0600E156E420E166E0E
:1036E000A20E176E0D0E186E90C111F091C112F05E
:1036F00092C113F093C114F047EC31F011C054F1B2
:1037000012C055F113C056F114C057F154C111F055
:1037100055C112F056C113F057C114F0600E156E6A
:10372000420E166EA20E176E0D0E186E47EC31F09B
:1037300011C088F012C089F013C08AF014C08BF059
:103740001200CA0E156EF20E166E490E176E710E2D
:10375000186E90C111F091C112F092C113F093C193
:1037600014F047EC31F011C054F112C055F113C000
:1037700056F114C057F154C111F055C112F056C1A1
:1037800013F057C114F0CA0E156EF20E166E490EE4
:10379000176E710E186E47EC31F011C088F012C030
:1037A00089F013C08AF014C08BF01200ABBF7DD03B
:1037B000080EA85D000EA959800EAA593F0EAB59FC
:1037C000D8A073D08FBF07D08F518E118D1138E1E3
:1037D0008C05D8B035D0600E156E420E166EA20E56
:1037E000176E0D0E186E90C111F091C112F092C1BA
:1037F00013F093C114F047EC31F011C054F112C032
:1038000055F113C056F114C057F154C111F055C110
:1038100012F056C113F057C114F0600E156E420E2F
:10382000166EA20E176E0D0E186E47EC31F011C019
:1038300088F012C089F013C08AF014C08BF0120017
:10384000CA0E156EF20E166E490E176E710E186EB8
:1038500090C111F091C112F092C113F093C114F014
:1038600047EC31F011C054F112C055F113C056F1BC
:1038700014C057F154C111F055C112F056C113F0E4
:1038800057C114F0CA0E156EF20E166E490E176E61
:10389000710E186E47EC31F011C088F012C089F03B
:1038A00013C08AF014C08BF0120078C101F079C106
:1038B00002F07AC103F07BC104F0000E056E000E29
:1038C000066E800E076EBF0E086E77EC34F001C0F6
:1038D000B0F102C0B1F103C0B2F104C0B3F1000E07
:1038E000156E000E166E800E176E3E0E186EB0C16D
:1038F00011F0B1C112F0B2C113F0B3C114F047EC32
:1039000031F011C02EF012C02FF013C030F014C0EF
:1039100031F0AB0E2A6EAA0E2B6EAA0E2C6E3E0E46
:103920002D6E73EC3EF02AC054F12BC055F12CC023
:1039300056F12DC057F1B0C115F0B1C116F0B2C1AA
:1039400017F0B3C118F0B0C111F0B1C112F0B2C19B
:1039500013F0B3C114F047EC31F011C02CF112C0D8
:103960002DF113C02EF114C02FF1B0C115F0B1C16B
:1039700016F0B2C117F0B3C118F054C111F055C11F
:1039800012F056C113F057C114F047EC31F011C0DA
:103990002EF012C02FF013C030F014C031F0000E22
:1039A0002A6E000E2B6E000E2C6E3F0E2D6E73ECE9
:1039B0003EF02AC028F12BC029F12CC02AF12DC0DD
:1039C0002BF12CC111F02DC112F02EC113F02FC11B
:1039D00014F028C115F029C116F02AC117F02BC127
:1039E00018F047EC31F011C058F112C059F113C072
:1039F0005AF114C05BF1B0C111F0B1C112F0B2C103
:103A000013F0B3C114F0000E156EAA0E166EB80EA8
:103A1000176E3F0E186E47EC31F011C07CF112C0EA
:103A20007DF113C07EF114C07FF1700E156EA50EEE
:103A3000166EEC0E176E360E186EB0C111F0B1C1D5
:103A400012F0B2C113F0B3C114F047EC31F011C061
:103A50002AF012C02BF013C02CF014C02DF03B0E36
:103A6000156EAA0E166EB80E176E3F0E186E58C160
:103A700011F059C112F05AC113F05BC114F047ECB8
:103A800031F011C02EF012C02FF013C030F014C06E
:103A900031F073EC3EF02AC080F12BC081F12CC0D4
:103AA00082F12DC083F17CC101F07DC102F07EC1A5
:103AB00003F07FC104F080C105F081C106F082C12E
:103AC00007F083C108F077EC34F001C088F102C040
:103AD00089F103C08AF104C08BF188C1B8F189C1B2
:103AE000B9F18AC1BAF18BC1BBF1B8C198F1B9C1C2
:103AF00099F1BAC19AF1BBC19BF1000E0101981571
:103B0000B86FF00E9915B96FFF0E9A15BA6FFF0EC8
:103B10009B15BB6FB8C188F1B9C189F1BAC18AF1EF
:103B2000BBC18BF17CC12EF07DC12FF07EC130F086
:103B30007FC131F088C12AF089C12BF08AC12CF0F5
:103B40008BC12DF073EC3EF02AC038F12BC039F157
:103B50002CC03AF12DC03BF180C12AF081C12BF07D
:103B600082C12CF083C12DF038C12EF039C12FF065
:103B70003AC130F03BC131F073EC3EF0E1EF24F09C
:103B8000000E846F000E856F000E866F000E876F2B
:103B9000ABBF06D0AB5137E1800EAA5DD8B033D0B1
:103BA00078C111F079C112F07AC113F07BC114F021
:103BB000000E156E000E166E800E176E4B0E186EF0
:103BC00047EC31F011C078F112C079F113C07AF1ED
:103BD00014C07BF1E80E01018427FF0E8523FF0E40
:103BE0008623FF0E872378C1B8F179C1B9F17AC174
:103BF000BAF17BC1BBF1B8C1A8F1B9C1A9F1BAC191
:103C0000AAF1BBC1ABF1170E4B6EA8C14CF0A9C114
:103C10004DF0AAC14EF0ABC14FF04B6601D007D0BA
:103C20004F344F324E324D324C324B2EF6D7810E3E
:103C30004C24506EFF0E4D20516EFF0E4E20526EE2
:103C4000FF0E4F20536E50500101842751508523A1
:103C50005250862353508723FF0EA815AC6FFF0EDA
:103C6000A915AD6F7F0EAA15AE6F000EAB15AF6F25
:103C7000000EAC11A86F000EAD11A96F800EAE1131
:103C8000AA6F3F0EAF11AB6FAFBF0AD0AF510AE1C1
:103C9000720EAC5DC40EAD591C0EAE59D8B002D038
:103CA000000E0DD0AFBF0AD0AF5111E1D70EAC5D01
:103CB000B30EAD595D0EAE59D8B009D0010EA46F48
:103CC000000EA56F000EA66F000EA76F16D0000E97
:103CD000A46F000EA56F000EA66F000EA76F010E59
:103CE0008427000E852386238723000EA827000E35
:103CF000A923800EAA23FF0EAB23A8C1B8F1A9C146
:103D0000B9F1AAC1BAF1ABC1BBF1B8C178F1B9C17F
:103D100079F1BAC17AF1BBC17BF178C12AF079C1DE
:103D20002BF07AC12CF07BC12DF0A4C14BF0A5C1C2
:103D30004CF0D8904B364C36D8904B364C36690EFA
:103D40004B24F66E080E4C20F76E0900F5CF2EF0CE
:103D50000900F5CF2FF00900F5CF30F00A00F5CFBC
:103D600031F073EC3EF02AC07CF12BC07DF12CC009
:103D70007EF12DC07FF1000E326E000E336E800E8C
:103D8000346E3F0E356E78C105F079C106F07AC108
:103D900007F07BC108F0A4C14BF0A5C14CF0D8904E
:103DA0004B364C36D8904B364C36690E4B24F66E5B
:103DB000080E4C20F76E0900F5CF01F00900F5CF91
:103DC00002F00900F5CF03F00A00F5CF04F077EC1C
:103DD00034F001C036F002C037F003C038F004C040
:103DE00039F042EC37F032C080F133C081F134C099
:103DF00082F135C083F17CC111F07DC112F07EC12A
:103E000013F07FC114F080C115F081C116F082C19A
:103E100017F083C118F047EC31F011C064F112C003
:103E200065F113C066F114C067F164C174F165C136
:103E300075F166C176F167C177F174C1B8F175C1EA
:103E4000B9F176C1BAF177C1BBF1B8C198F1B9C186
:103E500099F1BAC19AF1BBC19BF1000E010198150D
:103E6000B86FF00E9915B96FFF0E9A15BA6FFF0E65
:103E70009B15BB6FB8C174F1B9C175F1BAC176F1C8
:103E8000BBC177F1A8C14BF0A9C14CF0AAC14DF05C
:103E9000ABC14EF04E344E324D324C324B32000EEE
:103EA0004B144F6EF00E4C14506EFF0E4D14516EAD
:103EB000FF0E4E14526E000E4F10986F000E5010F1
:103EC000996F000E51109A6F200E52109B6FA4C173
:103ED0004BF0A5C14CF0A6C14DF0A7C14EF0150E98
:103EE000D8904B364C364D364E36E82EF9D7985191
:103EF0004B244F6E99514C20506E9A514D20516E6B
:103F00009B514E20526E000E4F24B86F000E502071
:103F1000B96F400E5120BA6F000E5220BB6FB8C16E
:103F200070F1B9C171F1BAC172F1BBC173F1A4C131
:103F30004BF0A5C14CF0D8904B364C36D8904B3650
:103F40004C36690E4B24F66E080E4C20F76E0900B5
:103F5000F5CF2EF00900F5CF2FF00900F5CF30F0A6
:103F60000A00F5CF31F070C12AF071C12BF072C197
:103F70002CF073C12DF073EC3EF02AC038F12BC049
:103F800039F12CC03AF12DC03BF178C12AF079C14A
:103F90002BF07AC12CF07BC12DF038C12EF039C145
:103FA0002FF03AC130F03BC131F073EC3EF02AC043
:103FB00050F12BC051F12CC052F12DC053F170C102
:103FC00015F071C116F072C117F073C118F074C109
:103FD00011F075C112F076C113F077C114F047ECFF
:103FE00031F011C02EF012C02FF013C030F014C009
:103FF00031F07CC12AF07DC12BF07EC12CF07FC155
:104000002DF073EC3EF02AC038F12BC039F12CC0F2
:104010003AF12DC03BF150C115F051C116F052C11B
:1040200017F053C118F074C111F075C112F076C1C8
:1040300013F077C114F047EC31F011C02EF012C02C
:104040002FF013C030F014C031F038C12AF039C15C
:104050002BF03AC12CF03BC12DF073EC3EF02AC09E
:104060002CF12BC02DF12CC02EF12DC02FF12CC125
:1040700011F02DC112F02EC113F02FC114F080C128
:1040800015F081C116F082C117F083C118F047EC1A
:1040900031F011C04CF112C04DF113C04EF114C0FB
:1040A0004FF164C111F065C112F066C113F067C130
:1040B00014F064C115F065C116F066C117F067C150
:1040C00018F047EC31F011C094F112C095F113C013
:1040D00096F114C097F1550E056E320E066E6C0EF9
:1040E000076E3E0E086E420E156EF10E166E530EE2
:1040F000176E3E0E186E94C111F095C112F096C164
:1041000013F097C114F047EC31F011C001F012C068
:1041100002F013C003F014C004F077EC34F001C0D7
:1041200054F102C055F103C056F104C057F1050E19
:10413000056EA30E066E8B0E076E3E0E086E94C1C2
:1041400015F095C116F096C117F097C118F054C13B
:1041500011F055C112F056C113F057C114F047ECDD
:1041600031F011C001F012C002F013C003F014C00E
:1041700004F077EC34F001C02CF102C02DF103C043
:104180002EF104C02FF1AB0E056EAA0E066EAA0E1C
:10419000076E3E0E086E94C115F095C116F096C1DB
:1041A00017F097C118F02CC111F02DC112F02EC1DB
:1041B00013F02FC114F047EC31F011C001F012C020
:1041C00002F013C003F014C004F077EC34F001C027
:1041D00028F102C029F103C02AF104C02BF1B70E67
:1041E000056E6D0E066EDB0E076E3E0E086E94C1F8
:1041F00015F095C116F096C117F097C118F028C1B7
:1042000011F029C112F02AC113F02BC114F047ECB0
:1042100031F011C001F012C002F013C003F014C05D
:1042200004F077EC34F001C01CF102C01DF103C0B2
:104230001EF104C01FF19A0E056E990E066E190E3E
:10424000076E3F0E086E94C115F095C116F096C129
:1042500017F097C118F01CC111F01DC112F01EC15A
:1042600013F01FC114F047EC31F011C001F012C07F
:1042700002F013C003F014C004F077EC34F001C076
:1042800000F102C001F103C002F104C003F194C1C6
:1042900015F095C116F096C117F097C118F094C1AA
:1042A00011F095C112F096C113F097C114F047ECCC
:1042B00031F011C004F112C005F113C006F114C0B1
:1042C00007F100C111F001C112F002C113F003C1E6
:1042D00014F004C115F005C116F006C117F007C1AE
:1042E00018F047EC31F011C05CF112C05DF113C061
:1042F0005EF114C05FF14CC115F04DC116F04EC116
:1043000017F04FC118F064C105F065C106F066C131
:1043100007F067C108F074C101F075C102F076C101
:1043200003F077C104F077EC34F001C011F002C063
:1043300012F003C013F004C014F047EC31F011C0C8
:1043400030F112C031F113C032F114C033F15CC14D
:1043500001F05DC102F05EC103F05FC104F030C145
:1043600005F031C106F032C107F033C108F077EC37
:1043700034F001C05CF102C05DF103C05EF104C025
:104380005FF174C111F075C112F076C113F077C1FD
:1043900014F074C115F075C116F076C117F077C12D
:1043A00018F047EC31F011C094F112C095F113C030
:1043B00096F114C097F1000E056E000E066E400EC9
:1043C000076E400E086E94C101F095C102F096C1CF
:1043D00003F097C104F077EC34F001C030F102C073
:1043E00031F103C032F104C033F130C101F031C109
:1043F00002F032C103F033C104F05CC105F05DC1CD
:1044000006F05EC107F05FC108F077EC34F001C040
:1044100070F102C071F103C072F104C073F170C198
:10442000B8F171C1B9F172C1BAF173C1BBF1B8C1D0
:1044300098F1B9C199F1BAC19AF1BBC19BF1000ED3
:1044400001019815B86FF00E9915B96FFF0E9A1506
:10445000BA6FFF0E9B15BB6FB8C170F1B9C171F196
:10446000BAC172F1BBC173F1000E056E000E066E8B
:10447000400E076EC00E086E70C101F071C102F0EF
:1044800072C103F073C104F077EC34F001C020F185
:1044900002C021F103C022F104C023F194C12EF027
:1044A00095C12FF096C130F097C131F020C12AF0AC
:1044B00021C12BF022C12CF023C12DF073EC3EF072
:1044C0002AC024F12BC025F12CC026F12DC027F1E4
:1044D0005CC12AF05DC12BF05EC12CF05FC12DF0F4
:1044E00024C12EF025C12FF026C130F027C131F0B4
:1044F00073EC3EF02AC050F12BC051F12CC052F1A8
:104500002DC053F174C111F075C112F076C113F0D2
:1045100077C114F070C115F071C116F072C117F0B7
:1045200073C118F047EC31F011C07CF112C07DF17D
:1045300013C07EF114C07FF170C115F071C116F087
:1045400072C117F073C118F04CC111F04DC112F0D7
:104550004EC113F04FC114F047EC31F011C001F01F
:1045600012C002F013C003F014C004F064C115F0CF
:1045700065C116F066C117F067C118F050C111F09F
:1045800051C112F052C113F053C114F047EC31F095
:1045900011C005F012C006F013C007F014C008F0F7
:1045A00077EC34F001C080F102C081F103C082F1E8
:1045B00004C083F17CC101F07DC102F07EC103F033
:1045C0007FC104F080C105F081C106F082C107F00F
:1045D00083C108F077EC34F001C0A0F102C0A1F172
:1045E00003C0A2F104C0A3F1A0C1B8F1A1C1B9F107
:1045F000A2C1BAF1A3C1BBF1B8C198F1B9C199F197
:10460000BAC19AF1BBC19BF1000E01019815B86FB8
:10461000F00E9915B96FFF0E9A15BA6FFF0E9B1524
:10462000BB6FB8C1A0F1B9C1A1F1BAC1A2F1BBC1C0
:10463000A3F17CC12EF07DC12FF07EC130F07FC18F
:1046400031F0A0C12AF0A1C12BF0A2C12CF0A3C16E
:104650002DF073EC3EF02AC038F12BC039F12CC09C
:104660003AF12DC03BF180C12AF081C12BF082C10B
:104670002CF083C12DF038C12EF039C12FF03AC192
:1046800030F03BC131F073EC3EF02AC06CF12BC02E
:104690006DF12CC06EF12DC06FF1A0C111F0A1C160
:1046A00012F0A2C113F0A3C114F0000E156E400E5B
:1046B000166E760E176E3F0E186E47EC31F011C075
:1046C0003CF112C03DF113C03EF114C03FF14F0E5A
:1046D000156E380E166E760E176E3F0E186E6CC184
:1046E00011F06DC112F06EC113F06FC114F047EC00
:1046F00031F011C005F012C006F013C007F014C06D
:1047000008F0C60E156E230E166EF60E176EB80E56
:10471000186EA0C111F0A1C112F0A2C113F0A3C183
:1047200014F047EC31F011C001F012C002F013C0D8
:1047300003F014C004F077EC34F001C030F102C093
:1047400031F103C032F104C033F130C101F031C1A5
:1047500002F032C103F033C104F0A4C14BF0A5C193
:104760004CF0D8904B364C36D8904B364C36010E28
:104770004B24F66E080E4C20F76E0900F5CF05F0BD
:104780000900F5CF06F00900F5CF07F00A00F5CFD4
:1047900008F077EC34F001C040F102C041F103C0F1
:1047A00042F104C043F184C101F085C102F086C129
:1047B00003F087C104F0010E13EC3BF001C0B0F12F
:1047C00002C0B1F103C0B2F104C0B3F140C105F0C1
:1047D00041C106F042C107F043C108F03CC101F0FD
:1047E0003DC102F03EC103F03FC104F077EC34F06C
:1047F00001C030F102C031F103C032F104C033F125
:10480000A4C14BF0A5C14CF0D8904B364C36D89093
:104810004B364C36090E4B24F66E080E4C20F76EC4
:104820000900F5CF05F00900F5CF06F00900F5CF36
:1048300007F00A00F5CF08F030C101F031C102F0F5
:1048400032C103F033C104F077EC34F001C008F159
:1048500002C009F103C00AF104C00BF108C101F064
:1048600009C102F00AC103F00BC104F0B0C105F0A8
:10487000B1C106F0B2C107F0B3C108F077EC34F073
:1048800001C088F102C089F103C08AF104C08BF134
:1048900088C1B8F189C1B9F18AC1BAF18BC1BBF144
:1048A000B8C198F1B9C199F1BAC19AF1BBC19BF1F4
:1048B000000E01019815B86FF00E9915B96FFF0E33
:1048C0009A15BA6FFF0E9B15BB6FB8C188F1B9C1BD
:1048D00089F1BAC18AF1BBC18BF1B0C12EF0B1C16F
:1048E0002FF0B2C130F0B3C131F088C12AF089C1D4
:1048F0002BF08AC12CF08BC12DF073EC3EF02AC056
:1049000038F12BC039F12CC03AF12DC03BF1A4C1D4
:104910004BF0A5C14CF0D8904B364C36D8904B3666
:104920004C36090E4B24F66E080E4C20F76E09002B
:10493000F5CF2EF00900F5CF2FF00900F5CF30F0BC
:104940000A00F5CF31F038C12AF039C12BF03AC155
:104950002CF03BC12DF073EC3EF02AC024F12BC0AB
:1049600025F12CC026F12DC027F13CC12EF03DC110
:104970002FF03EC130F03FC131F024C12AF025C1F3
:104980002BF026C12CF027C12DF073EC3EF02AC08D
:104990000CF12BC00DF12CC00EF12DC00FF140C158
:1049A0002AF041C12BF042C12CF043C12DF00CC1C3
:1049B0002EF00DC12FF00EC130F00FC131F073ECAD
:1049C0003EF02AC034F12BC035F12CC036F12DC099
:1049D00037F18CC0B8F18DC0B9F18EC0BAF18FC07B
:1049E000BBF1B8C198F1B9C199F1BAC19AF1BBC193
:1049F0009BF1000E01019815B86FF00E9915B96F73
:104A0000FF0E9A15BA6FFF0E9B15BB6FB8C144F12C
:104A1000B9C145F1BAC146F1BBC147F188C115F032
:104A200089C116F08AC117F08BC118F044C12EF06D
:104A300045C12FF046C130F047C131F08CC02AF09B
:104A40008DC02BF08EC02CF08FC02DF073EC3EF09B
:104A50002AC011F02BC012F02CC013F02DC014F09E
:104A600047EC31F011C010F112C011F113C012F176
:104A700014C013F110C101F011C102F012C103F012
:104A800013C104F034C115F035C116F036C117F06A
:104A900037C118F08CC011F08DC012F08EC013F029
:104AA0008FC014F047EC31F011C005F012C006F0D1
:104AB00013C007F014C008F077EC34F001C06CF1BB
:104AC00002C06DF103C06EF104C06FF144C111F07A
:104AD00045C112F046C113F047C114F088C115F06A
:104AE00089C116F08AC117F08BC118F047EC31F07C
:104AF00011C0A0F112C0A1F113C0A2F114C0A3F122
:104B00006CC101F06DC102F06EC103F06FC104F021
:104B1000A0C105F0A1C106F0A2C107F0A3C108F031
:104B200077EC34F001C0B4F102C0B5F103C0B6F1C6
:104B300004C0B7F1B4C1B8F1B5C1B9F1B6C1BAF1A9
:104B4000B7C1BBF1B8C1ACF1B9C1ADF1BAC1AEF1F9
:104B5000BBC1AFF10101AFBF3ED0AC05000EAD59F6
:104B6000000EAE59430EAF59D8A035D0CA0E156EFF
:104B7000F20E166E490E176E710E186E90C111F07E
:104B800091C112F092C113F093C114F047EC31F0CF
:104B900011C054F112C055F113C056F114C057F1B1
:104BA00054C111F055C112F056C113F057C114F0A1
:104BB000CA0E156EF20E166E490E176E710E186E35
:104BC00047EC31F011C088F012C089F013C08AF0B0
:104BD00014C08BF01200430EAF19AC11AD11AE1121
:104BE000D8A46DD0A0C12EF0A1C12FF0A2C130F089
:104BF000A3C131F0B4C12AF0B5C12BF0B6C12CF07D
:104C0000B7C12DF073EC3EF02AC032F02BC033F068
:104C10002CC034F02DC035F03C0E056EAA0E066E89
:104C2000380E076E330E086E6CC101F06DC102F0D4
:104C30006EC103F06FC104F077EC34F001C036F0C0
:104C400002C037F003C038F004C039F089EC3DF001
:104C5000D8B0E5D0CA0E156EF20E166E490E176E5C
:104C6000710E186E90C111F091C112F092C113F043
:104C700093C114F047EC31F011C054F112C055F15A
:104C800013C056F114C057F154C111F055C112F0C0
:104C900056C113F057C114F0CA0E156EF20E166EFF
:104CA000490E176E710E186E47EC31F011C088F086
:104CB00012C089F013C08AF014C08BF01200FF0EEE
:104CC000AC154B6EFF0EAD154C6EFF0EAE154D6E56
:104CD0007F0EAF154E6E4EBE3ED04B04000E4C58AC
:104CE000160E4D58430E4E58D8A035D0600E156E96
:104CF000420E166EA20E176E0D0E186E90C111F0B8
:104D000091C112F092C113F093C114F047EC31F04D
:104D100011C054F112C055F113C056F114C057F12F
:104D200054C111F055C112F056C113F057C114F01F
:104D3000600E156E420E166EA20E176E0D0E186ED8
:104D400047EC31F011C088F012C089F013C08AF02E
:104D500014C08BF01200160EAE1961E1C30EAF192C
:104D6000AC11AD11D8A45BD0A0C12EF0A1C12FF021
:104D7000A2C130F0A3C131F0B4C12AF0B5C12BF00B
:104D8000B6C12CF0B7C12DF073EC3EF02AC032F062
:104D90002BC033F02CC034F02DC035F06CC136F090
:104DA0006DC137F06EC138F06FC139F089EC3DF05C
:104DB000D8A035D0600E156E420E166EA20E176E7C
:104DC0000D0E186E90C111F091C112F092C113F046
:104DD00093C114F047EC31F011C054F112C055F1F9
:104DE00013C056F114C057F154C111F055C112F05F
:104DF00056C113F057C114F0600E156E420E166EB8
:104E0000A20E176E0D0E186E47EC31F011C088F02F
:104E100012C089F013C08AF014C08BF01200FF0E8C
:104E20000101AC15486FFF0EAD15496FFF0EAE15B1
:104E30004A6F7F0EAF154B6F170E4B6E48C14CF08B
:104E400049C14DF04AC14EF04BC14FF04B6601D005
:104E500007D04F344F324E324D324C324B2EF6D7B4
:104E6000810E4C240101A46FFF0E4D20A56FFF0E93
:104E70004E20A66FFF0E4F20A76F000E846F000E0E
:104E8000856F000E866F000E876F4BBFD8D0480528
:104E9000000E4959000E4A593F0E4B59D8A0CFD0A9
:104EA000A4C14BF0010E4B26000E4C6E000E4D6E51
:104EB000800E4E6E000E4F6E4B6601D007D04F3401
:104EC0004F324E324D324C324B2EF6D70101AC519F
:104ED0004C24846FAD514D20856FAE514E20866FAE
:104EE000AF514F20876F810E4B6EFF0E4C6EFF0E41
:104EF0004D6EFF0E4E6E170E4F6E84C150F085C181
:104F000051F086C152F087C153F04F6601D007D0EF
:104F1000533453325232513250324F2EF6D7505012
:104F20004B240101A46F000E4C20A56F000E4D20F4
:104F3000A66F000E4E20A76FA4C14BF0FF0E4C6E63
:104F4000FF0E4D6E7F0E4E6E000E4F6E4B6601D003
:104F500007D04F344F324E324D324C324B2EF6D7B3
:104F60004C1C506E4D1C516E4E1C526E4F1C536E9D
:104F7000010184515014B86F85515114B96F865195
:104F80005214BA6F87515314BB6FB8C1B0F1B9C195
:104F9000B1F1BAC1B2F1BBC1B3F1A45117084B6E64
:104FA000FF0E84154C6EFF0E85154D6E7F0E861517
:104FB0004E6E000E87154F6E000E4C10506E000E98
:104FC0004D10516E800E4E10526E000E4F10536EEB
:104FD0004B6601D007D053345332523251325032E3
:104FE0004B2EF6D750C084F151C085F152C086F1E6
:104FF00053C087F10101AFAF08D0871F861F851FFF
:10500000846D000E852386238723A0C12AF0A1C1C9
:105010002BF0A2C12CF0A3C12DF0B0C12EF0B1C174
:105020002FF0B2C130F0B3C131F073EC3EF02AC0C2
:10503000A0F12BC0A1F12CC0A2F12DC0A3F16CC135
:1050400001F06DC102F06EC103F06FC104F0A0C1A8
:1050500005F0A1C106F0A2C107F0A3C108F077ECEA
:1050600034F001C0B0F102C0B1F103C0B2F104C02C
:10507000B3F1B0C1B8F1B1C1B9F1B2C1BAF1B3C1C4
:10508000BBF1B8C198F1B9C199F1BAC19AF1BBC1EC
:105090009BF1000E01019815B86F800E9915B96F3C
:1050A000FF0E9A15BA6FFF0E9B15BB6FB8C1B0F11A
:1050B000B9C1B1F1BAC1B2F1BBC1B3F1B0C111F024
:1050C000B1C112F0B2C113F0B3C114F0000E156EED
:1050D000720E166E310E176E3F0E186E47EC31F0E1
:1050E00011C07CF112C07DF113C07EF114C07FF1BC
:1050F000A0C12EF0A1C12FF0A2C130F0A3C131F0A8
:10510000B0C12AF0B1C12BF0B2C12CF0B3C12DF067
:1051100073EC3EF02AC038F12BC039F12CC03AF1C3
:105120002DC03BF1180E156E720E166E310E176EF5
:105130003F0E186E38C12EF039C12FF03AC130F051
:105140003BC131F06CC12AF06DC12BF06EC12CF067
:105150006FC12DF073EC3EF02AC011F02BC012F09D
:105160002CC013F02DC014F047EC31F011C014F135
:1051700012C015F113C016F114C017F114C101F0DB
:1051800015C102F016C103F017C104F08C0E156EA4
:10519000BE0E166EBF0E176E350E186EB0C111F032
:1051A000B1C112F0B2C113F0B3C114F047EC31F049
:1051B00011C005F012C006F013C007F014C008F0CB
:1051C00077EC34F001C080F102C081F103C082F1BC
:1051D00004C083F17CC101F07DC102F07EC103F007
:1051E0007FC104F080C105F081C106F082C107F0E3
:1051F00083C108F077EC34F001C0B4F102C0B5F11E
:1052000003C0B6F104C0B7F17CC12EF07DC12FF010
:105210007EC130F07FC131F0B4C12AF0B5C12BF0AE
:10522000B6C12CF0B7C12DF073EC3EF02AC038F1B6
:105230002BC039F12CC03AF12DC03BF180C12AF0CE
:1052400081C12BF082C12CF083C12DF038C12EF02A
:1052500039C12FF03AC130F03BC131F073EC3EF070
:105260002AC058F12BC059F12CC05AF12DC05BF166
:10527000B4C111F0B5C112F0B6C113F0B7C114F04A
:10528000B4C115F0B5C116F0B6C117F0B7C118F02A
:1052900047EC31F011C0B0F112C0B1F113C0B2F15E
:1052A00014C0B3F10E0E056EEA0E066EDD0E076E2B
:1052B000B50E086E4C0E156EBB0E166E310E176EC7
:1052C000330E186EB0C111F0B1C112F0B2C113F0BB
:1052D000B3C114F047EC31F011C001F012C002F07C
:1052E00013C003F014C004F077EC34F001C054F1A3
:1052F00002C055F103C056F104C057F1550E056EBA
:10530000B30E066E8A0E076E380E086EB0C115F029
:10531000B1C116F0B2C117F0B3C118F054C111F009
:1053200055C112F056C113F057C114F047EC31F0DB
:1053300011C001F012C002F013C003F014C004F059
:1053400077EC34F001C02CF102C02DF103C02EF136
:1053500004C02FF1610E056E0B0E066E360E076E41
:10536000BB0E086EB0C115F0B1C116F0B2C117F096
:10537000B3C118F02CC111F02DC112F02EC113F0E1
:105380002FC114F047EC31F011C001F012C002F04F
:1053900013C003F014C004F077EC34F001C028F11E
:1053A00002C029F103C02AF104C02BF1AB0E056E37
:1053B000AA0E066E2A0E076E3E0E086EB0C115F0DC
:1053C000B1C116F0B2C117F0B3C118F028C111F085
:1053D00029C112F02AC113F02BC114F047EC31F0AF
:1053E00011C001F012C002F013C003F014C004F0A9
:1053F00077EC34F001C01CF102C01DF103C01EF1B6
:1054000004C01FF1B4C12AF0B5C12BF0B6C12CF015
:10541000B7C12DF0B0C115F0B1C116F0B2C117F08F
:10542000B3C118F01CC111F01DC112F01EC113F060
:105430001FC114F047EC31F011C02EF012C02FF054
:1054400013C030F014C031F073EC3EF02AC088F184
:105450002BC089F12CC08AF12DC08BF1000E056E96
:10546000000E066E000E076EC00E086E88C101F0B9
:1054700089C102F08AC103F08BC104F077EC34F0EB
:1054800001C036F002C037F003C038F004C039F074
:1054900088C115F089C116F08AC117F08BC118F0C8
:1054A000B4C111F0B5C112F0B6C113F0B7C114F018
:1054B00047EC31F011C032F012C033F013C034F0B9
:1054C00014C035F042EC37F032C020F133C021F186
:1054D00034C022F135C023F158C105F059C106F09E
:1054E0005AC107F05BC108F058C115F059C116F058
:1054F0005AC117F05BC118F0B4C111F0B5C112F078
:10550000B6C113F0B7C114F047EC31F011C001F08F
:1055100012C002F013C003F014C004F077EC34F0B2
:1055200001C018F102C019F103C01AF104C01BF147
:1055300020C12AF021C12BF022C12CF023C12DF073
:1055400018C12EF019C12FF01AC130F01BC131F073
:1055500073EC3EF02AC05CF12BC05DF12CC05EF113
:105560002DC05FF1B4C12EF0B5C12FF0B6C130F03F
:10557000B7C131F05CC12AF05DC12BF05EC12CF0E7
:105580005FC12DF073EC3EF02AC038F12BC039F129
:105590002CC03AF12DC03BF1000E2A6E000E2B6E8E
:1055A000800E2C6E3F0E2D6E38C12EF039C12FF0BB
:1055B0003AC130F03BC131F073EC3EF02AC0B4F197
:1055C0002BC0B5F12CC0B6F12DC0B7F1B4C1B8F104
:1055D000B5C1B9F1B6C1BAF1B7C1BBF1B8C1ACF14F
:1055E000B9C1ADF1BAC1AEF1BBC1AFF184C14BF0ED
:1055F00085C14CF086C14DF087C14EF0170ED89092
:105600004B364C364D364E36E82EF9D74B5001010D
:10561000AC274C50AD234D50AE234E50AF23170E48
:105620004B6EACC14CF0ADC14DF0AEC14EF0AFC150
:105630004FF04B6601D007D04F344F324E324D32CF
:105640004C324B2EF6D74FBE07D04F504E104D1058
:105650001AE14C04D8B017D0B4C12AF0B5C12BF070
:10566000B6C12CF0B7C12DF084C12EF085C12FF04A
:105670007EEC39F02AC0B4F12BC0B5F12CC0B6F1E4
:105680002DC0B7F110D0ACC1B8F1ADC1B9F1AEC108
:10569000BAF1AFC1BBF1B8C1B4F1B9C1B5F1BAC18A
:1056A000B6F1BBC1B7F190C111F091C112F092C136
:1056B00013F093C114F0B4C115F0B5C116F0B6C122
:1056C00017F0B7C118F047EC31F011C088F012C0E4
:1056D00089F013C08AF014C08BF012003EC06CF049
:1056E0003FC06DF040C06EF041C06FF06CC084F000
:1056F0006DC085F06EC086F06FC087F0000E0001AF
:105700008415426E000E8515436E800E8615446E1C
:105710007F0E8715456E800E441833E17F0E4518C5
:1057200042104310D8A42DD03EC015F03FC016F053
:1057300040C017F041C018F03EC011F03FC012F059
:1057400040C013F041C014F047EC31F011C001F03B
:1057500012C002F013C003F014C004F03EC005F004
:105760003FC006F040C007F041C008F077EC34F0CD
:1057700001C03EF002C03FF003C040F004C041F061
:10578000120087BF07D087518611851134E1840547
:10579000D8B031D0FF0E8415426EFF0E8515436ED2
:1057A000FF0E8615446E7F0E8715456E42504310DE
:1057B00044104510D8A409D03EC03EF03FC03FF091
:1057C00040C040F041C041F0120087AF14D0000E3D
:1057D00002019A6F210E996F7D0E016E080E026E06
:1057E00028EC3FF001C03EF002C03FF003C040F0A3
:1057F00004C041F01200170E426E84C043F085C011
:1058000044F086C045F087C046F0426601D007D01C
:1058100046344632453244324332422EF6D743C0F4
:105820007CF044C07DF045C07EF046C07FF00001B2
:105830007C517D117E117F11D8A42AD0000E686F93
:10584000000E696F000E6A6F000E6B6F0BD0D89060
:105850008437853786378737010E6827000E69231E
:105860006A236B2386AFF3D7FF0E6825426EFF0EC7
:105870006921436EFF0E6A21446EFF0E6B21456E57
:1058800042507C5F43507D5B44507E5B45507F5B64
:10589000810E7C27FF0E7D23FF0E7E23FF0E7F23CC
:1058A000FF0E8415426EFF0E8515436E7F0E861522
:1058B000446E000E8715456E000E4210846F000E78
:1058C0004310856F800E4410866F000E4510876F61
:1058D0007CA108D084518427855185238651862355
:1058E000875187237F357F337E337D337C338451EB
:1058F0008427855185238651862387518723000E6F
:10590000646F000E656F000E666F000E676F64C0F7
:1059100070F065C071F066C072F067C073F0000E81
:10592000806F000E816F000E826F010E836F43D077
:1059300080516425746F81516521756F8251662194
:10594000766F83516721776F7451845D75518559E6
:10595000765186598751800A426E7751800A4258A3
:10596000D8A01CD080517425646F81517521656F5A
:1059700082517621666F83517721676F7451845FFE
:105980007551855B7651865B7751875B80517027B7
:10599000815171238251722383517323845184274F
:1059A000855185238651862387518723D890833359
:1059B0008233813380338051811182118311D8A4C5
:1059C000B7D78451851186118711D8B455D0000EF0
:1059D000786F000E796F800E7A6F3F0E7B6F78C004
:1059E00032F079C033F07AC034F07BC035F0000E6D
:1059F000366E000E376E800E386E3F0E396E89ECB3
:105A00003DF0D8A039D0000E0001786F000E796FFC
:105A1000800E7A6F3F0E7B6F000E326E000E336E7B
:105A2000800E346E3F0E356E78C036F079C037F098
:105A30007AC038F07BC039F089EC3DF0D8B007D09F
:105A4000020E00017027000E7123722314D0010E84
:105A500000017015426E000E7115436E000E721536
:105A6000446E000E7315456E4250702743507123EB
:105A7000445072234550732370C042F071C043F00C
:105A800072C044F073C045F045344532443243326D
:105A90004232000E42240001846F000E4320856FC5
:105AA000000E4420866F3F0E4520876F7CC042F079
:105AB0007DC043F07EC044F07FC045F0170ED89003
:105AC0004236433644364536E82EF9D742508427CD
:105AD00043508523445086234550872384C06CF06F
:105AE00085C06DF086C06EF087C06FF06CC078F036
:105AF0006DC079F06EC07AF06FC07BF078C03EF078
:105B000079C03FF07AC040F07BC041F012003DC246
:105B100052F23EC253F23FC254F240C255F252C258
:105B20006AF253C26BF254C26CF255C26DF2000EAF
:105B300002016A15416F000E6B15426F800E6C15E5
:105B4000436F7F0E6D15446F800E431933E17F0E56
:105B5000441941114211D8A42DD03DC214F23EC2C5
:105B600015F23FC216F240C217F23DC210F23EC219
:105B700011F23FC212F240C213F29DEC2FF010C29C
:105B800000F211C201F212C202F213C203F23DC2CC
:105B900004F23EC205F23FC206F240C207F2F0EC48
:105BA00032F000C23DF201C23EF202C23FF203C235
:105BB00040F212006DBF07D06D516C116B1133E1D3
:105BC0006A05D8B030D0FF0E6A15416FFF0E6B1515
:105BD000426FFF0E6C15436F7F0E6D15446F415180
:105BE000421143114411D8A409D03DC23DF23EC236
:105BF0003EF23FC23FF240C240F212006DAF13D0FE
:105C0000000E9A6F210E996F7D0E006F080E016FC6
:105C100016EC3FF000C23DF201C23EF202C23FF27A
:105C200003C240F21200170E416F6AC242F26BC209
:105C300043F26CC244F26DC245F2416701D007D015
:105C400045354533443343334233412FF6D742C2BF
:105C500062F243C263F244C264F245C265F20201D9
:105C60006251631164116511D8A42AD0000E4E6FE1
:105C7000000E4F6F000E506F000E516F0BD0D8907A
:105C80006A376B376C376D37010E4E27000E4F2386
:105C9000502351236CAFF3D7FF0E4E25416FFF0EFB
:105CA0004F21426FFF0E5021436FFF0E5121446F71
:105CB0004151625F4251635B4351645B4451655B98
:105CC000810E6227FF0E6323FF0E6423FF0E652300
:105CD000FF0E6A15416FFF0E6B15426F7F0E6C153C
:105CE000436F000E6D15446F000E41116A6F000E78
:105CF00042116B6F800E43116C6F000E44116D6F7B
:105D000062A108D06A516A276B516B236C516C23D6
:105D10006D516D23653565336433633362336A5186
:105D20006A276B516B236C516C236D516D23000EF0
:105D30004A6F000E4B6F000E4C6F000E4D6F4AC243
:105D400056F24BC257F24CC258F24DC259F2000EF5
:105D5000666F000E676F000E686F010E696F43D0AB
:105D600066514A255A6F67514B215B6F68514C2130
:105D70005C6F69514D215D6F5A516A5D5B516B5982
:105D80005C516C596D51800A416F5D51800A4159D7
:105D9000D8A01CD066515A254A6F67515B214B6FC2
:105DA00068515C214C6F69515D214D6F5A516A5F9A
:105DB0005B516B5B5C516C5B5D516D5B6651562753
:105DC0006751572368515823695159236A516A27EB
:105DD0006B516B236C516C236D516D23D8906933DB
:105DE0006833673366336651671168116911D8A447
:105DF000B7D76A516B116C116D11D8B454D0000E25
:105E00005E6F000E5F6F800E606F3F0E616F5EC24F
:105E100031F25FC232F260C233F261C234F2000E7C
:105E2000356F000E366F800E376F3F0E386FB7EC50
:105E30003CF00201D8A037D0000E5E6F000E5F6FFD
:105E4000800E606F3F0E616F000E316F000E326F7B
:105E5000800E336F3F0E346F5EC235F25FC236F292
:105E600060C237F261C238F2B7EC3CF00201D8B040
:105E700006D0020E5627000E5723582313D0010ECA
:105E80005615416F000E5715426F000E5815436F9F
:105E9000000E5915446F4151562742515723435123
:105EA00058234451592356C241F257C242F258C2B4
:105EB00043F259C244F2443544334333423341330D
:105EC000000E41256A6F000E42216B6F000E4321C8
:105ED0006C6F3F0E44216D6F62C241F263C242F2A9
:105EE00064C243F265C244F2170ED890413742377C
:105EF00043374437E82EF9D741516A2742516B2383
:105F000043516C2344516D236AC252F26BC253F267
:105F10006CC254F26DC255F252C25EF253C25FF2CD
:105F200054C260F255C261F25EC23DF25FC23EF2FF
:105F300060C23FF261C240F2120002011351800BB5
:105F40001C6F13511325226F12BF22812251D8B426
:105F50000DD02229D8A408D0000E106F000E116FAA
:105F6000000E126F000E136F128F08D0000E106F0C
:105F7000000E116F000E126F000E136F1751800B81
:105F80001C1B17511725216F16BF21812151D8B431
:105F90000DD02129D8A408D0000E146F000E156F63
:105FA000000E166F000E176F168F08D0000E146FBC
:105FB000000E156F000E166F000E176F2151D8B42A
:105FC00003D02251D8A409D0000E106F000E116F1B
:105FD000000E126F000E136F120016511003F3CF54
:105FE00027F2F4CF28F227511D6F1E6B1F6B206B19
:105FF0002851236F246B256B266B15511103F3CFAA
:1060000027F2F4CF28F227511D27000E1E231F234D
:10601000202328512327000E24232523262314512F
:106020001203F3CF27F2F4CF28F227511D27000ED9
:106030001E231F23202328512327000E242325233A
:1060400026231FC220F21EC21FF21DC21EF21D6BAC
:1060500014511103F3CF27F2F4CF28F227511D2753
:1060600028511E23000E1F23000E2023155110035C
:10607000F3CF27F2F4CF28F227511D2728511E23F2
:10608000000E1F23000E20231FC220F21EC21FF28B
:106090001DC21EF21D6B14511003F3CF27F2F4CF73
:1060A00028F227511D2728511E23000E1F23000E02
:1060B000202316511103F3CF27F2F4CF28F22751F2
:1060C000232728512423000E2523000E26231551B3
:1060D0001203F3CF27F2F4CF28F2275123272851B8
:1060E0002423000E2523000E262316511203F3CF7E
:1060F00027F2F4CF28F22751186F2851196F1A6B25
:106100001B6B1AC21BF219C21AF218C219F2186BD1
:1061100018512327195124231A5125231B512623B3
:106120001DC218F21EC219F21FC21AF220C21BF2BF
:10613000190E05D0D8901B331A3319331833E82EB3
:10614000F9D718512327195124231A5125231B51FC
:1061500026231FC220F21EC21FF21DC21EF21D6B9B
:10616000215122C218F2196B1827000E1923820E32
:106170001825276FFF0E1921286F0FD0D8902337CD
:1061800024372537263720BF2381D8901D371E3767
:106190001F3720372707D8A0280725AFEFD7000ED5
:1061A000216F20AF17D0FF0E1D15186FFF0E1E15A3
:1061B000196FFF0E1F151A6F7F0E20151B6F1851D8
:1061C00019111A111B11D8B403D0010E216F02D07E
:1061D00023B1FBD72151D8B41FD0010E2327000EC5
:1061E00024232523262326A117D023C218F224C254
:1061F00019F225C21AF226C21BF21B351B331A33C1
:106200001933183318C223F219C224F21AC225F224
:106210001BC226F2274B282B28BF0DD0285103E1A3
:106220002729D8A008D0000E236F000E246F800EFF
:10623000256F7F0E20D028BF05D028510EE12705FD
:10624000D8B00BD0000E236F000E246F000E256F08
