:040000001AEF3FF0C4
:107E1800F00E9316F00E9312F19E12003132334198
:107E280034353642373839432A302344240EF66E27
:107E38007E0EF76E000EF86E00EE15F010EE10F0E4
:107E48000900F5CFEEFFE550E150FAE1000EF86EBB
:107E580000012FEF3FF0000E146E0CEC3FF0F00E17
:107E6800936E000E146E66EC3FF0146E1450D8A496
:107E780009D0FCD79590FAD79592F8D79582F6D77E
:107E88009568F4D714502A0AD8B4F8D71B0AD8B47E
:107E9800F1D7030AD8B4F0D7010AD8B4EFD7070A44
:107EA800D8B4ECD7010AD8B4E9D7030AD8B4E6D7CE
:107EB800010AD8B4E3D70F0AD8B4E0D7010AD8B476
:107EC800DDD7DED720EE15F010EE01F0100EDECF74
:107ED800E6FFE82EFCD7000E136E000E126E000EA1
:107EE800116E000E136E000E126E1350800A800F72
:107EF800040ED8B4125CD8B07DD013501210D8A498
:107F08001AD0FE0E8A6EA60EE82EFED700D002D03A
:107F180001C011F081B803D0FBD702C011F081BABB
:107F280003D0FBD703C011F081BC03D0FBD704C03A
:107F380011F081AEFCD712041310D8A41AD0FD0E8C
:107F48008A6EA60EE82EFED700D002D005C011F02A
:107F580081B803D0FBD706C011F081BA03D0FBD794
:107F680007C011F081BC03D0FBD708C011F081AE67
:107F7800FCD71250020A1310D8A41AD0FB0E8A6E2E
:107F8800A60EE82EFED700D002D009C011F081B8A5
:107F980003D0FBD70AC011F081BA03D0FBD70BC0BE
:107FA80011F081BC03D0FBD70CC011F081AEFCD717
:107FB8001250030A1310D8A41AD0F70E8A6EA60E10
:107FC800E82EFED700D002D00DC011F081B803D042
:107FD800FBD70EC011F081BA03D0FBD70FC011F048
:107FE80081BC03D0FBD710C011F081AEFCD7124A78
:087FF800132A7BD7115012007F
:020000040020DA
:08000000FFFFFFFFFFFFFFFF00
:020000040030CA
:0E0000000002181EFF8080FF0FC00FE00F40AF
:00000001FF
