:020000040000FA
:04000000B0EF1FF04E
:1008000000313D2B20333D2D20373D2A2031353D11
:100810002F0053656C656363696F6E3A2025303332
:1008200064004F7065726163696F6E205072726F01
:10083000004E756D6265723A25302E303366005277
:10084000657374613D2025302E3066004E756D62F3
:1008500065723A25302E33660053756D613D202553
:10086000302E3066004D756C743D2025302E30667C
:10087000004469763D2025302E3066004E756D654A
:10088000726F32004E656C5072726F0025302E30E0
:10089000662A0025302E30662B0025302E30662F3C
:1008A000004461746F310043616C6375004375618E
:1008B0006C00576F6C6F00494E46004E414E006908
:0B08C0006E66006E616E006C6600004A
:1008CC00000E00017B6F000E7A6F30C08CF031C0CF
:1008DC008DF032C08EF033C08FF08FAF16D0000E7B
:1008EC007B6F010E7A6F8CC001F08DC002F08EC050
:1008FC0003F08FC004F084EC1FF001C08CF002C038
:10090C008DF003C08EF004C08FF0000E0001936FC9
:10091C00000E926FCAC07FF0CBC080F07A517B1171
:10092C00D8A402D05EA413D07A517B11D8A404D0E1
:10093C00000E656F2B0E03D0000E656F2D0E646FCD
:10094C0064C000F1924B932B7F07D8A080078CC01A
:10095C0001F08DC002F08EC003F08FC004F05AEC91
:10096C001BF001040210D8A44CD0BF0E356EFF0E44
:10097C00366E3450376E386A35503726365038223A
:10098C00385006E11A0E375CD8B002D0010E01D0F7
:10099C00000E0001666F676B66516711D8B40DD0FD
:1009AC00000E9225016E010E9321026EB70E036E9E
:1009BC00080E046E66EC1EF00CD0000E9225016E33
:1009CC00010E9321026EBF0E036E080E046E66ECD0
:1009DC001EF00001FD0E7F27FF0E80232EC011F0AC
:1009EC002FC012F0000E136E010E146E7FC015F0A6
:1009FC0080C016F0BEEC1CF011C02EF012C02FF00F
:100A0C0012008CC001F08DC002F08EC003F08FC0BC
:100A1C0004F05AEC1BF001500210D8A435D0BF0ED4
:100A2C00356EFF0E366E3450376E386A35503726B9
:100A3C0036503822385006E11A0E375CD8B002D046
:100A4C00010E01D0000E0001686F696B68516911CD
:100A5C00D8B40DD0000E9225016E010E9321026EBA
:100A6C00BB0E036E080E046E66EC1EF0B2D7000EC1
:100A7C009225016E010E9321026EC30E036E080EB9
:100A8C00046E66EC1EF0A5D7000E0001946F000EEC
:100A9C00956F800E966F3F0E976F000E916F000E44
:100AAC00906F8CC001F08DC002F08EC003F08FC02F
:100ABC0004F0000E056E000E066E000E076E000EA2
:100ACC00086E09EC1DF0D8A01ED076D094C001F0B1
:100ADC0095C002F096C003F097C004F0000E056EAE
:100AEC00000E066E200E076E410E086E65EC10F0BF
:100AFC0001C094F002C095F003C096F004C097F0CA
:100B0C000001904B912B8CC01AF08DC01BF08EC045
:100B1C001CF08FC01DF0000E056E000E066E200E30
:100B2C00076E410E086E94C001F095C002F096C09D
:100B3C0003F097C004F065EC10F001C01EF002C089
:100B4C001FF003C020F004C021F0F2EC1AF0D8A082
:100B5C001FD0BCD794C001F095C002F096C003F032
:100B6C0097C004F0000E056E000E066E200E076E88
:100B7C00410E086E94EC13F001C094F002C095F095
:100B8C0003C096F004C097F000019007D8A091071D
:100B9C008CC01AF08DC01BF08EC01CF08FC01DF0E5
:100BAC0094C01EF095C01FF096C020F097C021F0A5
:100BBC00F2EC1AF0D8A0CED734C007F0086AB7EC24
:100BCC001EF007500001816F81C07EF0670E811905
:100BDC00D8A419D0CC51CD11D8A404D0000ECD6F0F
:100BEC00010ECC6FCDBF05D0CD5108E1CC05D8B0EE
:100BFC0005D0000E7D6F060E7C6F08D0CCC07CF04B
:100C0C00CDC07DF003D0CDAFF9D7F3D7670E8119E6
:100C1C00D8A422D091AF06D0FC0E905DFF0E915956
:100C2C00D8A018D0FF0E356EFF0E366E7CC037F094
:100C3C007DC038F035503726365038229051375C0D
:100C4C003850800A396E9151800A3958D8A002D098
:100C5C00660E01D0650E7E6F7CC074F07DC075F0A1
:100C6C00670E8119D8A405D0660E7E19D8B491AF41
:100C7C0002D0744B752B660E7E19D8A416D091AF8A
:100C8C000CD0000E946F000E956F800E966F3F0E79
:100C9C00976F000E916F000E906F670E8119D8B48C
:100CAC0004D09051742791517523000E8B6F000E58
:100CBC008A6F8CC082F08DC083F08EC084F08FC0A0
:100CCC0085F094C060F095C061F096C062F097C05A
:100CDC0063F07BD082C001F083C002F084C003F0CB
:100CEC0085C004F094C005F095C006F096C007F0DE
:100CFC0097C008F094EC13F001C01AF002C01BF07E
:100D0C0003C01CF004C01DF0FAEC15F01AC086F0FC
:100D1C001BC087F01CC088F01DC089F086C001F094
:100D2C0087C002F088C003F089C004F0C0EC1BF04F
:100D3C0001C078F002C079F082C01AF083C01BF0B9
:100D4C0084C01CF085C01DF094C005F095C006F061
:100D5C0096C007F097C008F086C001F087C002F07B
:100D6C0088C003F089C004F065EC10F001C01EF0DF
:100D7C0002C01FF003C020F004C021F0DDEC1EF017
:100D8C001AC082F01BC083F01CC084F01DC085F01B
:100D9C0094C001F095C002F096C003F097C004F027
:100DAC00000E056E000E066E200E076E410E086ECC
:100DBC0094EC13F001C094F002C095F003C096F0CF
:100DCC0004C097F000018A4B8B2B74518A5D8B51B8
:100DDC00800A356E7551800A3558D8A07BD794C0DF
:100DEC0001F095C002F096C003F097C004F0000E1D
:100DFC00056E000E066EA00E076E400E086E65ECBA
:100E0C0010F001C086F002C087F003C088F004C067
:100E1C0089F082C01AF083C01BF084C01CF085C01E
:100E2C001DF086C01EF087C01FF088C020F089C05E
:100E3C0021F0F2EC1AF0D8B003D0000E000118D05B
:100E4C0082C001F083C002F084C003F085C004F0BE
:100E5C0086C005F087C006F088C007F089C008F08E
:100E6C0009EC1DF0D8A00BD0000178B108D0000E11
:100E7C00866F000E876F000E886F000E896F8CC016
:100E8C0001F08DC002F08EC003F08FC004F086C05C
:100E9C0005F087C006F088C007F089C008F00EEC9A
:100EAC0012F001C082F002C083F003C084F004C0D1
:100EBC0085F060C094F061C095F062C096F063C09C
:100ECC0097F0650E00017E19D8B405D090C076F06D
:100EDC0091C077F004D0000E776F000E766F000E85
:100EEC00736F000E726F000E716F000E706F000E3C
:100EFC008B6F000E8A6FC7D082C001F083C002F0E6
:100F0C0084C003F085C004F094C005F095C006F0D1
:100F1C0096C007F097C008F094EC13F001C01AF0DB
:100F2C0002C01BF003C01CF004C01DF0FAEC15F05D
:100F3C001AC086F01BC087F01CC088F01DC089F059
:100F4C0086C001F087C002F088C003F089C004F0AD
:100F5C00C0EC1BF001C078F002C079F05EB80DD087
:100F6C00000178517911D8A408D0670E8119D8B432
:100F7C0077AF03D0704B712B3AD0000172517311C3
:100F8C00D8B477AF22D0000E9225D96E010E9321E2
:100F9C00DA6E2E0EDF6E924B932B7F07D8A0800754
:100FAC00000E736F010E726F10D0000E9225D96E69
:100FBC00010E9321DA6E300EDF6E924B932B7F076E
:100FCC00D8A080077007D8A0710770517111D8A4F0
:100FDC00ECD7000E9225D96E010E9321DA6E785162
:100FEC00300FDF6E924B932B7F07D8A0800782C007
:100FFC001AF083C01BF084C01CF085C01DF094C097
:10100C0005F095C006F096C007F097C008F086C0B2
:10101C0001F087C002F088C003F089C004F065ECD1
:10102C0010F001C01EF002C01FF003C020F004C07D
:10103C0021F0DDEC1EF01AC082F01BC083F01CC046
:10104C0084F01DC085F094C001F095C002F096C0EC
:10105C0003F097C004F0000E056E000E066E200E15
:10106C00076E410E086E94EC13F001C094F002C0B0
:10107C0095F003C096F004C097F000017607D8A055
:10108C0077078A4B8B2B74518A5D8B51800A356E96
:10109C007551800A3558D8B008D093BF2DD79351CD
:1010AC0004E14B0E925DD8A027D772517311D8B4BE
:1010BC005EA80AD0000E9225D96E010E9321DA6E2D
:1010CC002E0EDF6E924B932B000E9225D96E010ED5
:1010DC009321DA6E000EDF6E650E7E19D8A47ED4D5
:1010EC00000E8B6F4F0E8A6F000E8A25D96E010E83
:1010FC008B21DA6E000EDF6E000E7B6F000E7A6FA6
:10110C0091AF08D0000E7B6F010E7A6F906D911F1E
:10111C00D8B0912B000E7D6F020E7C6F2BD08A07FE
:10112C00D8A08B07000E8A25D96E010E8B21DA6EA2
:10113C0090C001F091C002F0000E046E0A0E036E16
:10114C00CBEC1DF00150300FDF6E90C001F091C060
:10115C0002F0000E046E0A0E036E4EEC1DF001C080
:10116C0090F002C091F000017C07D8A07D077F07AA
:10117C00D8A0800790519111D8A4D1D77DBF05D0AC
:10118C007D51CDE17C05D8B0CAD78A07D8A08B0792
:10119C007A517B11D8A404D0000E6B6F2B0E03D0A8
:1011AC00000E6B6F2D0E6A6F000E8A25D96E010E24
:1011BC008B21DA6E6AC0DFFF7F07D8A080078A0711
:1011CC00D8A08B07BF0E356EFF0E366E3450376EBF
:1011DC00386A3550372636503822385006E11A0E08
:1011EC00375CD8B002D0010E01D0000E6E6F6F6B61
:1011FC006E516F11D8A404D0000E6D6F650E03D024
:10120C00000E6D6F450E6C6F000E8A25D96E010EA7
:10121C008B21DA6E6CC0DFFF7F07D8A08007000E31
:10122C009225016E010E9321026E000E8A25036E2B
:10123C00010E8B21046E66EC1EF0F4EF04F0000E30
:10124C00956E9368948094826FEC1AF0010EDFEC2B
:10125C0019F00C0EDFEC19F0020E5D6E040E5C6ED4
:10126C00BA0EE82EFED75C2EFCD75D2EFAD700D036
:10127C0012D0010E046EB20E056E080E066E010E33
:10128C0090EC1DF0010E046EA70E056E080E066E96
:10129C00020E90EC1DF082B2ECD7010EDFEC19F0CF
:1012AC00020E5D6E040E5C6EBA0EE82EFED75C2E3E
:1012BC00FCD75D2EFAD700D0020E5D6E040E5C6E6C
:1012CC00BA0EE82EFED75C2EFCD75D2EFAD700D0D6
:1012DC00010E046EA10E056E080E066E010E90EC4A
:1012EC001DF02CD08150016E026A036A046A000E54
:1012FC0019EC18F001C0C4F002C0C5F003C0C6F070
:10130C0004C0C7F0E40E0001B06F000EB16F4C0EBC
:10131C00B26F080EB36FC4C0B4F0C5C0B5F0C6C090
:10132C00B6F0C7C0B7F08FEC1EF0010E046EE40EE1
:10133C00056E000E066E020E03EC1EF082B2D2D7C2
:10134C00010EDFEC19F0020E5D6E040E5C6EBA0E2F
:10135C00E82EFED75C2EFCD75D2EFAD700D0060EF9
:10136C005D6E130E5C6EAE0EE82EFED75C2EFCD7B7
:10137C005D2EFAD7010E046E7C0E056E080E066EFD
:10138C00010E90EC1DF02CD08150016E026A036AA4
:10139C00046A000E19EC18F001C0C0F002C0C1F0D4
:1013AC0003C0C2F004C0C3F0D40E0001B06F000E35
:1013BC00B16F310EB26F080EB36FC0C0B4F0C1C0C4
:1013CC00B5F0C2C0B6F0C3C0B7F08FEC1EF0010E82
:1013DC00046ED40E056E000E066E020E03EC1EF0AB
:1013EC0082B2D2D7010EDFEC19F0020E5D6E040E44
:1013FC005C6EBA0EE82EFED75C2EFCD75D2EFAD7AB
:10140C0000D0010E046EAD0E056E080E066E010EB8
:10141C0090EC1DF0010E046E220E056E080E066E89
:10142C00020E90EC1DF0150E5D6E4B0E5C6EBE0E3A
:10143C00E82EFED75C2EFCD75D2EFAD700D0010E1D
:10144C00DFEC19F0020E5D6E040E5C6EBA0EE82E27
:10145C00FED75C2EFCD75D2EFAD700D025D081CFDD
:10146C00D2F00001D36B010E046E010E056E080E56
:10147C00066E010E90EC1DF0500E0001B06F010EC7
:10148C00B16F120EB26F080EB36FD2C0B4F0D3C0EE
:10149C00B5F08FEC1EF0010E046E500E056E010EB1
:1014AC00066E020E03EC1EF082B2D9D7010EDFECF1
:1014BC0019F0050E5D6E0F0E5C6EF10EE82EFED768
:1014CC005C2EFCD75D2EFAD700F006D3010EDFECB4
:1014DC0019F0020E5D6E040E5C6EBA0EE82EFED78D
:1014EC005C2EFCD75D2EFAD700D06ED0C4C001F0B4
:1014FC00C5C002F0C6C003F0C7C004F0C0C005F000
:10150C00C1C006F0C2C007F0C3C008F00EEC12F068
:10151C0001C0F4F002C0F5F003C0F6F004C0F7F01F
:10152C00E40E0001B06F000EB16F930EB26F080E97
:10153C00B36FC4C0B4F0C5C0B5F0C6C0B6F0C7C078
:10154C00B7F08FEC1EF0D40E0001B06F000EB16F2F
:10155C005F0EB26F080EB36FC0C0B4F0C1C0B5F06F
:10156C00C2C0B6F0C3C0B7F08FEC1EF0600E000125
:10157C00B06F010EB16F590EB26F080EB36FF4C09D
:10158C00B4F0F5C0B5F0F6C0B6F0F7C0B7F08FEC1C
:10159C001EF0010E046EE40E056E000E066E010EBA
:1015AC0003EC1EF0040E046ED40E056E000E066ED7
:1015BC00010E03EC1EF0010E046E600E056E010EA2
:1015CC00066E020E03EC1EF082B290D70B0E5D6E0F
:1015DC00260E5C6E5E0EE82EFED75C2EFCD75D2EC2
:1015EC00FAD7010EDFEC19F067D6C4C01AF0C5C0EB
:1015FC001BF0C6C01CF0C7C01DF0C0C01EF0C1C09F
:10160C001FF0C2C020F0C3C021F0F2EC1AF0D8B029
:10161C009BD0010EDFEC19F0020E5D6E040E5C6EB9
:10162C00BA0EE82EFED75C2EFCD75D2EFAD700D072
:10163C0088D0C4C01AF0C5C01BF0C6C01CF0C7C00F
:10164C001DF0C0C01EF0C1C01FF0C2C020F0C3C04E
:10165C0021F0DDEC1EF01AC0F4F01BC0F5F01CC03C
:10166C00F6F01DC0F7F0F4C001F0F5C002F0F6C0C2
:10167C0003F0F7C004F0000E056E000E066E800E2F
:10168C00076EBF0E086E65EC10F001C0F4F002C0DE
:10169C00F5F003C0F6F004C0F7F0E40E0001B06FF3
:1016AC00000EB16F930EB26F080EB36FC4C0B4F0DE
:1016BC00C5C0B5F0C6C0B6F0C7C0B7F08FEC1EF011
:1016CC00D40E0001B06F000EB16F5F0EB26F080E3A
:1016DC00B36FC0C0B4F0C1C0B5F0C2C0B6F0C3C0E7
:1016EC00B7F08FEC1EF0600E0001B06F010EB16F01
:1016FC003F0EB26F080EB36FF4C0B4F0F5C0B5F086
:10170C00F6C0B6F0F7C0B7F08FEC1EF0010E046E09
:10171C00E40E056E000E066E010E03EC1EF0040EB8
:10172C00046ED40E056E000E066E010E03EC1EF058
:10173C00010E046E600E056E010E066E020E03ECB9
:10174C001EF082A26FD075D7C4C01AF0C5C01BF0B2
:10175C00C6C01CF0C7C01DF0C0C01EF0C1C01FF039
:10176C00C2C020F0C3C021F0DDEC1EF01AC0F4F0B2
:10177C001BC0F5F01CC0F6F01DC0F7F0E40E000124
:10178C00B06F000EB16F930EB26F080EB36FC4C082
:10179C00B4F0C5C0B5F0C6C0B6F0C7C0B7F08FEC9A
:1017AC001EF0D40E0001B06F000EB16F5F0EB26F61
:1017BC00080EB36FC0C0B4F0C1C0B5F0C2C0B6F073
:1017CC00C3C0B7F08FEC1EF0600E0001B06F010EBD
:1017DC00B16F3F0EB26F080EB36FF4C0B4F0F5C02A
:1017EC00B5F0F6C0B6F0F7C0B7F08FEC1EF0010EF6
:1017FC00046EE40E056E000E066E010E03EC1EF078
:10180C00040E046ED40E056E000E066E010E03EC73
:10181C001EF0010E046E600E056E010E066E020EB9
:10182C0003EC1EF00B0E5D6E260E5C6E5E0EE82E4B
:10183C00FED75C2EFCD75D2EFAD7010EDFEC19F02B
:10184C003BD5010EDFEC19F0020E5D6E040E5C6EE2
:10185C00BA0EE82EFED75C2EFCD75D2EFAD700D040
:10186C006ED0C4C001F0C5C002F0C6C003F0C7C042
:10187C0004F0C0C005F0C1C006F0C2C007F0C3C080
:10188C0008F065EC10F001C0F4F002C0F5F003C0F4
:10189C00F6F004C0F7F0E40E0001B06F000EB16F6B
:1018AC008C0EB26F080EB36FC4C0B4F0C5C0B5F0E7
:1018BC00C6C0B6F0C7C0B7F08FEC1EF0D40E000156
:1018CC00B06F000EB16F5F0EB26F080EB36FC0C079
:1018DC00B4F0C1C0B5F0C2C0B6F0C3C0B7F08FEC65
:1018EC001EF0600E0001B06F010EB16F650EB26F8D
:1018FC00080EB36FF4C0B4F0F5C0B5F0F6C0B6F096
:10190C00F7C0B7F08FEC1EF0010E046EE40E056EFE
:10191C00000E066E010E03EC1EF0060E046ED40EC5
:10192C00056E000E066E010E03EC1EF0010E046E29
:10193C00600E056E010E066E020E03EC1EF082B2F6
:10194C0090D70B0E5D6E260E5C6E5E0EE82EFED7EB
:10195C005C2EFCD75D2EFAD7010EDFEC19F0ACD45F
:10196C00010EDFEC19F0020E5D6E040E5C6EBA0E09
:10197C00E82EFED75C2EFCD75D2EFAD700D0C0C067
:10198C0001F0C1C002F0C2C003F0C3C004F0000EED
:10199C00056E000E066E000E076E000E086E09EC4A
:1019AC001DF0D8B00AD094D0010E046E840E056ED2
:1019BC00080E066E010E90EC1DF082A289D4F4D7AD
:1019CC00C4C001F0C5C002F0C6C003F0C7C004F02B
:1019DC00C0C005F0C1C006F0C2C007F0C3C008F01B
:1019EC0094EC13F001C0F4F002C0F5F003C0F6F073
:1019FC0004C0F7F0E40E0001B06F000EB16F9A0E48
:101A0C00B26F080EB36FC4C0B4F0C5C0B5F0C6C099
:101A1C00B6F0C7C0B7F08FEC1EF0D40E0001B06F5B
:101A2C00000EB16F5F0EB26F080EB36FC0C0B4F092
:101A3C00C1C0B5F0C2C0B6F0C3C0B7F08FEC1EF099
:101A4C00600E0001B06F010EB16F710EB26F080E17
:101A5C00B36FF4C0B4F0F5C0B5F0F6C0B6F0F7C093
:101A6C00B7F08FEC1EF0010E046EE40E056E000E46
:101A7C00066E010E03EC1EF0040E046ED40E056E01
:101A8C00000E066E010E03EC1EF0010E046E600ECD
:101A9C00056E010E066E020E03EC1EF00B0E5D6E53
:101AAC00260E5C6E5E0EE82EFED75C2EFCD75D2EED
:101ABC00FAD7010EDFEC19F0020E5D6E040E5C6EAF
:101ACC00BA0EE82EFED75C2EFCD75D2EFAD700D0CE
:101ADC0082A26EEF09F074D7D2C05CF0D3C05DF077
:101AEC005D50000AD8A400EF00F05C50010AD8B495
:101AFC00EDD4020AD8B479D5040AD8B4A2D6080A0F
:101B0C00D8B42ED700EF00F042C0D9FF43C0DAFFA3
:101B1C00DECFF6FFDDCFF7FF0800F550250AD8A47D
:101B2C00B4D242C0D9FF43C0DAFFDE2A000EDD2258
:101B3C00000E0001CB6F000ECA6FCAC05EF0CBC0A6
:101B4C005FF0CC69CD69000EA16F000E14D05E80E1
:101B5C0042C0D9FF43C0DAFFDE2A000EDD222ED0B0
:101B6C005E82F6D75E84F4D75E86F2D75E88F0D7B5
:101B7C00000EA16F010EA06F21D042C0D9FF43C04F
:101B8C00DAFFDECFF6FFDDCFF7FF0800F550466E2B
:101B9C00476A4750000AD8A4EBD74650200AD8B45D
:101BAC00E3D7030AD8B4E2D7080AD8B4DBD7060ABD
:101BBC00D8B4CDD71D0AD8B4D3D7DAD7A051A11138
:101BCC00D8B4DBD75EB05E9242C0D9FF43C0DAFF17
:101BDC00DECFF6FFDDCFF7FF0800F5502A0AD8A4B8
:101BEC0023D042C0D9FF43C0DAFFDE2A000EDD222B
:101BFC0044C0D9FF45C0DAFFDFCF46F0020EDE2627
:101C0C00DFCF47F0000EDD2246C0D9FF47C0DAFF18
:101C1C00DECFCAF0DDCFCBF0CBAF40D05E80CA6D4B
:101C2C00CB1FD8B0CB2B3AD042C0D9FF43C0DAFF80
:101C3C00DECF08F0DDCF09F079EC17F008C0CAF060
:101C4C0009C0CBF007D042C0D9FF43C0DAFFDE2A6F
:101C5C00000EDD22D00E466EFF0E476E42C0D9FF3D
:101C6C0043C0DAFFDECFF6FFDDCFF7FF0800F550FB
:101C7C00486E496A4650482647504922495006E169
:101C8C000A0E485CD8B002D0010E01D0000E000143
:101C9C00A26FA36BA251A311D8A4D5D742C0D9FF70
:101CAC0043C0DAFFDECFF6FFDDCFF7FF0800F550BB
:101CBC002E0AD8A46ED0000ECD6F000ECC6F42C091
:101CCC00D9FF43C0DAFFDE2A000EDD2242C0D9FF65
:101CDC0043C0DAFFDECFF6FFDDCFF7FF0800F5508B
:101CEC002A0AD8A41CD042C0D9FF43C0DAFFDE2A8E
:101CFC00000EDD2244C0D9FF45C0DAFFDFCF46F02D
:101D0C00020EDE26DFCF47F0000EDD2246C0D9FFE3
:101D1C0047C0DAFFDECFCCF0DDCFCDF03AD042C0F9
:101D2C00D9FF43C0DAFFDECF08F0DDCF09F079EC44
:101D3C0017F008C0CCF009C0CDF007D042C0D9FFD5
:101D4C0043C0DAFFDE2A000EDD22D00E466EFF0EF7
:101D5C00476E42C0D9FF43C0DAFFDECFF6FFDDCFBE
:101D6C00F7FF0800F550486E496A46504826475020
:101D7C004922495006E10A0E485CD8B002D0010E47
:101D8C0001D0000E0001A46FA56BA451A511D8A41D
:101D9C00D5D742C0D9FF43C0DAFFDECFF6FFDDCF87
:101DAC00F7FF0800F550076E086AB7EC1EF00750F5
:101DBC000001AC6FAC51D8B435D042C0D9FF43C090
:101DCC00DAFFDECF46F0DDCF47F0010E4626000EDF
:101DDC00472246C0F6FF47C0F7FF0800F550076ED4
:101DEC00086AB7EC1EF007500001AD6FAD51D8B4C6
:101DFC0019D042C0D9FF43C0DAFFDECF46F0DDCFA9
:101E0C0047F0020E4626000E472246C0F6FF47C09A
:101E1C00F7FF0800F550076E086AB7EC1EF0075084
:101E2C000001AE6F42C0D9FF43C0DAFFDECFF6FF30
:101E3C00DDCFF7FF0800F550640AD8B40DD042C0CE
:101E4C00D9FF43C0DAFFDECFF6FFDDCFF7FF080086
:101E5C00F550690AD8A43FD042C0D9FF43C0DAFF7D
:101E6C00DE2A000EDD2244C0D9FF45C0DAFFDFCFE9
:101E7C0046F0020EDE26DFCF47F0000EDD2246C014
:101E8C00D9FF47C0DAFFDECF98F0DDCF99F0000E16
:101E9C0099BFFF0E9A6F9B6F9C6F9D6F9E6F9F6F8C
:101EAC0040C01CF041C01DF098C01EF099C01FF03E
:101EBC009AC020F09BC021F09CC022F09DC023F062
:101ECC009EC024F09FC025F0D8EC14F01CC040F04C
:101EDC001DC041F01200660EAC19D8A43FD042C010
:101EEC00D9FF43C0DAFFDECFF6FFDDCFF7FF0800E6
:101EFC00F5CFAFF042C0D9FF43C0DAFFDE2A000EA7
:101F0C00DD2244C0D9FF45C0DAFFDFCF46F0040E16
:101F1C00DE26DFCF47F0000EDD2246C0D9FF47C0DA
:101F2C00DAFFDECFA8F0DECFA9F0DECFAAF0DECF4D
:101F3C00ABF040C02EF041C02FF0A8C030F0A9C0CB
:101F4C0031F0AAC032F0ABC033F0AFC034F066EC65
:101F5C0004F02EC040F02FC041F01200AC0E016E08
:101F6C00000E026EC70E036E080E046E000E066E97
:101F7C00020E056E1DEC1CF001500210D8A456D0B8
:101F8C0042C0D9FF43C0DAFFDECF46F0DDCF47F0C9
:101F9C00010E4626000E472246C0F6FF47C0F7FF4B
:101FAC000800F5CFAFF0BF0E466EFF0E476E42C075
:101FBC00D9FF43C0DAFFDECFF6FFDDCFF7FF080015
:101FCC00F550486E496A46504826475049224950B8
:101FDC0006E11A0E485CD8B002D0010E01D0000EFA
:101FEC000001A66FA76BA651A71144C0D9FF45C02D
:101FFC00DAFFDFCF46F0040EDE26DFCF47F0000E0F
:10200C00DD2246C0D9FF47C0DAFFDECFA8F0DECF15
:10201C00A9F0DECFAAF0DECFABF0020E42C0D9FFA2
:10202C0043C0DAFFDE26000EDD2283D742C0D9FF83
:10203C0043C0DAFFDECFF6FFDDCFF7FF0800F55027
:10204C00250AD8A416D042C0D9FF43C0DAFFDE2A35
:10205C00000EDD22000E026E250E016E40C003F054
:10206C0041C004F06EEC1CF0000E416E010E406E8F
:10207C00120042C0D9FF43C0DAFFDE2A000EDD2277
:10208C00000E416E000E406E120042C0D9FF43C0DC
:10209C00DAFFDECFF6FFDDCFF7FF0800F550016E5B
:1020AC00026A40C003F041C004F06EEC1CF042C068
:1020BC00D9FF43C0DAFFDE2A000EDD22D5D704504B
:1020CC00800B0D6E04500424136E03BE138013504A
:1020DC00D8B40DD01328D8A408D0000E016E000E71
:1020EC00026E000E036E000E046E038E08D0000EFE
:1020FC00016E000E026E000E036E000E046E085090
:10210C00800B0D1A08500824126E07BE1280125054
:10211C00D8B40DD01228D8A408D0000E056E000E2D
:10212C00066E000E076E000E086E078E08D0000EAD
:10213C00056E000E066E000E076E000E086E125035
:10214C00D8B403D01350D8A409D0000E016E000EE1
:10215C00026E000E036E000E046E12000750010298
:10216C00F3CF18F0F4CF19F018500E6E0F6A106AF6
:10217C00116A1950146E156A166A176A0650020213
:10218C00F3CF18F0F4CF19F018500E26000E0F22D2
:10219C001022112219501426000E15221622172275
:1021AC0005500302F3CF18F0F4CF19F018500E2697
:1021BC00000E0F221022112219501426000E152287
:1021CC001622172210C011F00FC010F00EC00FF025
:1021DC000E6A05500202F3CF18F0F4CF19F0185024
:1021EC000E2619500F22000E1022000E112206503E
:1021FC000102F3CF18F0F4CF19F018500E26195035
:10220C000F22000E1022000E112210C011F00FC070
:10221C0010F00EC00FF00E6A05500102F3CF18F04B
:10222C00F4CF19F018500E2619500F22000E102260
:10223C00000E112207500202F3CF18F0F4CF19F060
:10224C001850142619501522000E1622000E1722B3
:10225C0006500302F3CF18F0F4CF19F018501426DF
:10226C0019501522000E1622000E172207500302D9
:10227C00F3CF18F0F4CF19F01850096E19500A6EFC
:10228C000B6A0C6A0BC00CF00AC00BF009C00AF008
:10229C00096A095014260A5015220B5016220C50AC
:1022AC0017220EC009F00FC00AF010C00BF011C0BD
:1022BC000CF0190E05D0D8900C320B320A320932C0
:1022CC00E82EF9D7095014260A5015220B50162265
:1022DC000C50172210C011F00FC010F00EC00FF0F0
:1022EC000E6A125013C009F00A6A0926000E0A225F
:1022FC00820E0924186EFF0E0A20196E0FD0D8908A
:10230C00143615361636173611BE1480D8900E3684
:10231C000F36103611361806D8A0190616AEEFD7A0
:10232C00000E126E11AE17D0FF0E0E14096EFF0EBA
:10233C000F140A6EFF0E10140B6E7F0E11140C6E20
:10234C0009500A100B100C10D8B403D0010E126EE9
:10235C0002D014B0FBD71250D8B41FD0010E1426E3
:10236C00000E15221622172217A017D014C009F040
:10237C0015C00AF016C00BF017C00CF00C340C3260
:10238C000B320A32093209C014F00AC015F00BC026
:10239C0016F00CC017F0184A192A19BE0DD0195096
:1023AC0003E11828D8A008D0000E146E000E156E8C
:1023BC00800E166E7F0E20D019BE05D019500EE17E
:1023CC001804D8B00BD0000E146E000E156E000E53
:1023DC00166E000E176E000E0D6E0FD018C013F097
:1023EC00FF0E1416FF0E15167F0E1616000E17167E
:1023FC0013B0168ED8901330176E0D50171214C0E0
:10240C0001F015C002F016C003F017C004F0120062
:10241C000450800B0D6E045004240F6E03BE0F800D
:10242C000F50D8B40DD00F28D8A408D0000E016ED0
:10243C00000E026E000E036E000E046E038E06D0AC
:10244C00000E016E000E026E000E036E000E046E86
:10245C000850800B0E6E0D500E18D8A40D8C085021
:10246C0008240E6E07BE0E800E50D8B40DD00E2868
:10247C00D8A408D0000E056E000E066E000E076E76
:10248C00000E086E078E06D0000E056E000E066E4E
:10249C00000E076E000E086E0F500E5CD8B022D0E6
:1024AC000DAC02D0800E0D1A0FC010F00EC00FF044
:1024BC0010C00EF001C010F005C001F010C005F006
:1024CC0002C010F006C002F010C006F003C010F0FD
:1024DC0007C003F010C007F004C010F008C004F0EF
:1024EC0010C008F0000E106E0F500EC009F00A6AF2
:1024FC00095E000E0A5A0ABE2CD00A5004E11A0ECC
:10250C00095CD8A026D00150021003100410D8B4D6
:10251C0002D0010E01D0000E106E000E016E000EE6
:10252C00026E000E036E000E046E0EC00FF015D07E
:10253C0010A005D0D89010300109106E02D0D890A0
:10254C00103201B0108E04340432033202320132E4
:10255C000F2A0E500F5CD8A0EBD70DBC28D00F5013
:10256C00D8A409D0000E016E000E026E000E036E90
:10257C00000E046E12000550012606500222075070
:10258C0003220850042204A071D010A005D0D890CA
:10259C0010300109106E02D0D890103201B0108E9C
:1025AC00043404320332023201320F2A5FD0055058
:1025BC00015C06500258075003580450800A096EFB
:1025CC000850800A0958D8B025D00150055C096E16
:1025DC00025006580A6E035007580B6E04500858E8
:1025EC000C6EFF0E0924016EFF0E0A20026EFF0E08
:1025FC000B20036EFF0E0C20046E800E0D1A106C57
:10260C001050D8A40FD0010E0126000E0222032276
:10261C00042208D00550015E0650025A0750035A96
:10262C000850045A0150021003100410D8A41CD0F6
:10263C001050D8A419D0000E016E000E026E000EC0
:10264C00036E000E046E1200D8900136023603366B
:10265C00043610BE018010A002D0D88001D0D890D2
:10266C0010360F50D8A40F0603AEEED7000E0E6E28
:10267C0010AE0BD010C009F07F0E0916D8B403D0E1
:10268C00010E0E6E02D001B0FBD70E50D8B420D084
:10269C00010E0126000E02220322042204A018D0EF
:1026AC0001C009F002C00AF003C00BF004C00CF02A
:1026BC000C340C320B320A32093209C001F00AC058
:1026CC0002F00BC003F00CC004F00F28D8A40F2AA2
:1026DC000F28D8B403D00F50D8A40DD0000E016E23
:1026EC00000E026E000E036E000E046E0F50D8A486
:1026FC0002D0000E0D6E0FA002D0038E01D0039EEF
:10270C00D8900F30046E0DBE048E01C001F002C0D3
:10271C0002F003C003F004C004F012000450800B5C
:10272C00116E04500424186E03BE18801850D8B4CF
:10273C000DD01828D8A408D0000E016E000E026E21
:10274C00000E036E000E046E038E06D0000E016E9A
:10275C00000E026E000E036E000E046E0850800B0D
:10276C00111A08500824196E07BE19801950D8B4D4
:10277C000DD01928D8A408D0000E056E000E066ED8
:10278C00000E076E000E086E078E06D0000E056E4A
:10279C00000E066E000E076E000E086E0550061039
:1027AC0007100810D8A417D0000E016E000E026E90
:1027BC00000E036E000E046E800E03127F0E0412C8
:1027CC001150041201C001F002C002F003C003F06A
:1027DC0004C004F012001850D8A409D0000E016EE9
:1027EC00000E026E000E036E000E046E12001950E5
:1027FC0018C009F00A6A095E000E0A5A7F0E0924F5
:10280C00126E000E0A20136E01C00DF002C00EF005
:10281C0003C00FF004C010F0000E016E000E026E2B
:10282C00000E036E000E046E000E146E000E156E7C
:10283C00000E166E000E176E000E196E28D0195071
:10284C00D8B411D0D8900D360E360F361036D8902D
:10285C00013602360336043617BE0180D890143682
:10286C0015361636173605500D5C06500E580750A7
:10287C000F5808501058D8A009D0178C05500D5E71
:10288C0006500E5A07500F5A0850105A192A190E92
:10289C001964D5D70D500E100F101010D8B411D0DC
:1028AC0014800FD0D890013602360336043617BE8A
:1028BC000180D89014361536163617361206D8A065
:1028CC00130603AEEFD7000E196E17AE17D0FF0E1E
:1028DC001414096EFF0E15140A6EFF0E16140B6EEF
:1028EC007F0E17140C6E09500A100B100C10D8B474
:1028FC0003D0010E196E02D001B0FBD71950D8B419
:10290C001FD0010E0126000E02220322042204A075
:10291C0017D001C009F002C00AF003C00BF004C0CC
:10292C000CF00C340C320B320A32093209C001F0B3
:10293C000AC002F00BC003F00CC004F0124A132AB8
:10294C0013BE10D0135003E11228D8A00BD0000EE8
:10295C00136E1268000E016E000E026E000E036EF6
:10296C00000E046E13BE05D0135011E11204D8B042
:10297C000ED0000E136E000E126E000E016E000EC5
:10298C00026E000E036E000E046E000E116E12C06D
:10299C0018F018A002D0038E01D0039ED8901830E6
:1029AC00046E0ED71EC036F01FC037F020C038F0B2
:1029BC0021C039F022C03AF023C03BF024C03CF0D7
:1029CC0025C03DF03DAE02D0010E01D0000E346E9C
:1029DC00356A34503510D8B410D03D1E3C1E3B1E09
:1029EC003A1E391E381E371E366C000E372238221E
:1029FC0039223A223B223C223D220001CDAF5E928D
:102A0C00CDBF05D0CD5108E1CC05D8B005D0000E16
:102A1C00316E010E306E04D0CCC030F0CDC031F030
:102A2C00CAC032F0CBC033F034503510D8A402D029
:102A3C005EA403D03206D8A03306000E3F6E4F0EB4
:102A4C003E6E000E01014F6F7CD03E06D8A03F06B3
:102A5C00000E3E24D96E010E3F20DA6E36C001F016
:102A6C0037C002F038C003F039C004F03AC005F0AA
:102A7C003BC006F03CC007F03DC008F00A0E096EE2
:102A8C00000E0A6E000E0B6E000E0C6E000E0D6E1C
:102A9C00000E0E6E000E0F6E000E106E4DEC19F047
:102AAC0001C026F002C027F003C028F004C029F0B2
:102ABC0005C02AF006C02BF007C02CF008C02DF082
:102ACC0026C013F028C014F03BEC1FF01350300F4D
:102ADC00DF6E3006D8A031063206D8A0330636C0D9
:102AEC0001F037C002F038C003F039C004F03AC02E
:102AFC0005F03BC006F03CC007F03DC008F00A0EE4
:102B0C00096E000E0A6E000E0B6E000E0C6E000E9F
:102B1C000D6E000E0E6E000E0F6E000E106ED5ECCC
:102B2C0016F001C036F002C037F003C038F004C014
:102B3C0039F005C03AF006C03BF007C03CF008C0C5
:102B4C003DF03FBE1FD03F5003E13E04D8A01AD049
:102B5C0036503710381039103A103B103C103D10DD
:102B6C00D8A473D731BE05D0315002E13004D8B0AF
:102B7C006CD733BE07D0335003E13204D8A002D057
:102B8C005EB263D734503510D8A402D05EA417D0EF
:102B9C003E06D8A03F0634503510D8A404D0000E01
:102BAC002F6E2B0E03D0000E2F6E2D0E2E6E000EE0
:102BBC003E24D96E010E3F20DA6E2EC0DFFF1CC002
:102BCC0011F01DC012F0000E3E24136E010E3F20BA
:102BDC00146E32C015F033C016F0BEEC1CF011C0F0
:102BEC001CF012C01DF01200B8C02AF0B9C02BF0B6
:102BFC00BAC02CF0BBC02DF01AC02AF01BC02BF0B1
:102C0C001CC02CF01DC02DF0810E1E6EFF0E1F6E11
:102C1C002AC020F02BC021F02CC022F02DC023F0B4
:102C2C00180E05D0D8902332223221322032E82ED1
:102C3C00F9D720501E24286E000E1F20296E29BEA5
:102C4C000FD0295004E1170E285CD8A009D01AC067
:102C5C001AF01BC01BF01CC01CF01DC01DF0120094
:102C6C0029BE5ED028C01EF0FF0E1F6EFF0E206E18
:102C7C007F0E216E000E226E1E6601D007D022340C
:102C8C002232213220321F321E2EF6D71FC024F0E2
:102C9C0020C025F021C026F022C027F024502A1491
:102CAC001E6E25502B141F6E26502C14206E275090
:102CBC002D14216E1E501F1020102110D8B4C7D710
:102CCC002AC01EF02BC01FF02CC020F02DC021F00C
:102CDC00200E05D0D890213220321F321E32E82E21
:102CEC00F9D71E501F1020102110D8B408D0245032
:102CFC002A2625502B2226502C2227502D22241CEC
:102D0C001E6E251C1F6E261C206E271C216E1E504D
:102D1C002A161F502B1620502C1621502D1636D04B
:102D2C002AC01EF02BC01FF02CC020F02DC021F0AB
:102D3C00200E05D0D890213220321F321E32E82EC0
:102D4C00F9D71E501F1020102110D8A408D0000E47
:102D5C002A6E000E2B6E000E2C6E000E16D0D89024
:102D6C002A341E6E2B341F6E2C34206E2D34216EA3
:102D7C001E501F1020102110D8B408D0000E2A6E3F
:102D8C00000E2B6E800E2C6EBF0E2D6E2AC01AF00C
:102D9C002BC01BF02CC01CF02DC01DF01200000E1F
:102DAC00126E10AE12D0101E0F1E0E1E0D1E0C1E1B
:102DBC000B1E0A1E096C000E0A220B220C220D227D
:102DCC000E220F221022010E126E08AE12D0081E17
:102DDC00071E061E051E041E031E021E016C000E9D
:102DEC000222032204220522062207220822010EB7
:102DFC00121A20EE13F0070EDE6AE806FDE2095007
:102E0C000A100B100C100D100E100F101010D8B45F
:102E1C0046D0010E116E0AD0D89009360A360B3600
:102E2C000C360D360E360F361036112A10AEF4D77E
:102E3C00D89013361436153616361736183619360A
:102E4C001A360950015C0A5002580B5003580C50AA
:102E5C0004580D5005580E5006580F500758105076
:102E6C000858D8A011D00950015E0A50025A0B50D4
:102E7C00035A0C50045A0D50055A0E50065A0F5056
:102E8C00075A1050085A1380D89010320F320E3255
:102E9C000D320C320B320A320932112EC9D71250B4
:102EAC00D8B410D01A1E191E181E171E161E151E69
:102EBC00141E136C000E142215221622172218222F
:102ECC0019221A2213C001F014C002F015C003F02D
:102EDC0016C004F017C005F018C006F019C007F0B2
:102EEC001AC008F01200000E166E000E156E000EC1
:102EFC000F6E000E0E6E02D0084A092A010E146ED7
:102F0C0008C0F6FF09C0F7FF0800F550200AD8B436
:102F1C0018D0F70E0A6EFF0E0B6E08C0F6FF09C034
:102F2C00F7FF0800F5500C6E0D6A0A500C260B507A
:102F3C000D220D5004E1050E0C5CD8A002D0000E41
:102F4C00146E14C010F0116A10501110D8B408D0BF
:102F5C00D3D7000E0F6E010E0E6E084A092A2ED022
:102F6C0008C0F6FF09C0F7FF0800F5500A6E0B6A9F
:102F7C000B50000AD8A422D00A502B0AD8B4EDD793
:102F8C00060AD8B4E6D71AD015C001F016C002F064
:102F9C00000E046E0A0E036EC3EC1FF008C0F6FFA1
:102FAC0009C0F7FF0800F550015E000E025A300E02
:102FBC000124156E000E0220166ECFD7D00E0A6EAD
:102FCC00FF0E0B6E08C0F6FF09C0F7FF0800F550A6
:102FDC000C6E0D6A0A500C260B500D220D5006E19A
:102FEC000A0E0C5CD8B002D0010E01D0000E126E8D
:102FFC00136A12501310D8A4C7D70E500F10D8A4B0
:10300C000DD015C00AF016C00BF00A1E0B1E0A4A92
:10301C000B2A0AC008F00BC009F0120015C008F00A
:10302C0016C009F01200096E0950D8A404AE1AD0CB
:10303C0001C005F002C006F003C007F004C008F0A0
:10304C00051E061E071E081E052A000E0622072254
:10305C00082205C00BF006C00CF007C00DF008C02C
:10306C000EF008D001C00BF002C00CF003C00DF044
:10307C0004C00EF00150021003100410D8A409D0A3
:10308C00000E016E000E026E000E036E000E046E3A
:10309C001200960E0A6E06D00A2AD8900E320D3205
:1030AC000C320B32000E0B14056E000E0C14066E57
:1030BC00000E0D14076EFE0E0E14086E0550061051
:1030CC0007100810D8B40DD0E7D70A2A010E0B262A
:1030DC00000E0C220D220E22D8900E320D320C3224
:1030EC000B32000E0B14056E000E0C14066E000E47
:1030FC000D14076EFF0E0E14086E05500610071007
:10310C000810D8B407D0E1D70A06D8900B360C3685
:10311C000D360E360DBE03D0020E0A60F5D70AA08E
:10312C000D9ED8900A320AC005F0066A076A086A32
:10313C0005C008F0076A066A056A05500B120650AE
:10314C000C1207500D1208500E120950D8A404AEE0
:10315C0001D00E8E0BC001F00CC002F00DC003F0BC
:10316C000EC004F01200036E839A8388016A03AECA
:10317C0001D0012A010E0116014601460146835079
:10318C000118F70B0118836E03C001F0060E026ED6
:10319C00D8900132022EFCD7010E011601460146D1
:1031AC0083500118FB0B0118836E03C001F0050E50
:1031BC00026ED8900132022EFCD7010E0116014688
:1031CC0083500118FD0B0118836E03C001F0013A06
:1031DC000F0E0116010E011683500118FE0B01187B
:1031EC00836E030EE82EFED700F0838A030EE82EC2
:1031FC00FED700F0839A03C001F0D8900132D8902A
:10320C000132D8900132010E0116014601460146E9
:10321C0083500118F70B0118836E03C001F0D8908E
:10322C000132D8900132010E01160146014683503D
:10323C000118FB0B0118836E03C001F0D89001320A
:10324C00010E0116014683500118FD0B0118836E07
:10325C0003C001F0010E011683500118FE0B01187A
:10326C00836E030EE82EFED700F0838A030EE82E41
:10327C00FED700F0839A030EE82EFED700F00F0E57
:10328C00016E480EE82EFED7012EFCD71200000E60
:10329C00126E08AE12D0081E071E061E051E041E56
:1032AC00031E021E016C000E0222032204220522C0
:1032BC00062207220822010E126E10AE10D0101E2C
:1032CC000F1E0E1E0D1E0C1E0B1E0A1E096C000E70
:1032DC000A220B220C220D220E220F221022095040
:1032EC000A100B100C100D100E100F101010D8B47B
:1032FC003CD0010E116E0AD0D89009360A360B3626
:10330C000C360D360E360F361036112A10AEF4D799
:10331C000950015C0A5002580B5003580C500458C9
:10332C000D5005580E5006580F500758105008589D
:10333C00D8A010D00950015E0A50025A0B50035A03
:10334C000C50045A0D50055A0E50065A0F50075A7D
:10335C001050085AD89010320F320E320D320C32F7
:10336C000B320A320932112ED3D71250D8B410D0E6
:10337C00081E071E061E051E041E031E021E016CDF
:10338C00000E022203220422052206220722082212
:10339C0001C001F002C002F003C003F004C004F04D
:1033AC0005C005F006C006F007C007F008C008F01D
:1033BC001200036E839A8398016A03AE01D0012A2E
:1033CC00010E011601460146014683500118F70B08
:1033DC000118836E03C001F0060E026ED890013204
:1033EC00022EFCD7010E011601460146835001182E
:1033FC00FB0B0118836E03C001F0050E026ED89012
:10340C000132022EFCD7010E011601468350011821
:10341C00FD0B0118836E03C001F0013A0F0E01166B
:10342C00010E011683500118FE0B0118836E030E5A
:10343C00E82EFED700F0838A030EE82EFED700F0AC
:10344C00839A03C001F0D8900132D8900132D89001
:10345C000132010E01160146014601468350011846
:10346C00F70B0118836E03C001F0D8900132D8908D
:10347C000132010E01160146014683500118FB0B67
:10348C000118836E03C001F0D8900132010E0116B1
:10349C00014683500118FD0B0118836E03C001F027
:1034AC00010E011683500118FE0B0118836E030EDA
:1034BC00E82EFED700F0838A030EE82EFED700F02C
:1034CC00839A0F0E016E480EE82EFED7012EFCD704
:1034DC0012009596959495929590959A95988396B9
:1034EC00839483928390839A83980F0E046E480E74
:1034FC00E82EFED7042EFCD70F0E046E480EE82ED5
:10350C00FED7042EFCD70F0E046E480EE82EFED705
:10351C00042EFCD70F0E046E480EE82EFED7042E98
:10352C00FCD70F0E046E480EE82EFED7042EFCD7E7
:10353C000F0E046E480EE82EFED7042EFCD7010E9B
:10354C00056E8396839483828380839A8398839673
:10355C00839483828380838A8398030EE82EFED71C
:10356C0000F08396839483828380839A83980F0ED2
:10357C00046E480EE82EFED7042EFCD7052A030E47
:10358C000564DFD78396839483828390839A839890
:10359C008396839483828390838A8398030EE82E88
:1035AC00FED700F08396839483828390839A8398CA
:1035BC000F0E046E480EE82EFED7042EFCD7280EF4
:1035CC00DFEC19F0100EDFEC19F0010EDFEC19F046
:1035DC000F0EDFEC19F01200000E1A14226E000E02
:1035EC001B14236E800E1C14246E7F0E1D14256E6E
:1035FC002250231024102510D8A408D0000E1A6EC7
:10360C00000E1B6E000E1C6E000E1D6E000E1E14A6
:10361C00226E000E1F14236E800E2014246E7F0E5B
:10362C002114256E2250231024102510D8A408D064
:10363C00000E1E6E000E1F6E000E206E000E216E10
:10364C001DAE09D01A6C1B1ED8B01B2A1C1ED8B07C
:10365C001C2A800E1D5621AE09D01E6C1F1ED8B020
:10366C001F2A201ED8B0202A800E2156000E1A1AAE
:10367C00000E1B1A000E1C1A800E1D1A000E1E1AAC
:10368C00000E1F1A000E201A800E211A1E501A5CF2
:10369C001F501B5820501C5821501D58D8B002D018
:1036AC00D8901200D8801200BCC00BF0BDC00CF03A
:1036BC00BEC00DF0BFC00EF001C00BF002C00CF08C
:1036CC0003C00DF004C00EF00BC005F00CC006F0EA
:1036DC000DC007F00EC008F0180E05D0D8900832B7
:1036EC00073206320532E82EF9D70550096E0A6A00
:1036FC0009500A10D8A419D0D8900B34056E0C348C
:10370C00066E0D34076E0E34086E05500610071049
:10371C000810D8A405D0000E026E020E016E120025
:10372C00000E026E030E016E120009280A10D8A4B6
:10373C001CD00BC005F00CC006F00DC007F00EC07D
:10374C0008F0090ED8900536063607360836E82EEE
:10375C00F9D70550061007100810D8A402D0010E96
:10376C0001D0000E016E026A1200000E026E040EF1
:10377C00016E1200033404340A6E0A50D8A409D026
:10378C00000E016E000E026E000E036E000E046E33
:10379C00120001C005F002C006F003C007F004C01F
:1037AC0008F0200E05D0D8900832073206320532C8
:1037BC00E82EF9D70550096E038EFF0E0116FF0E89
:1037CC000216FF0E0316000E0416960E0A5E0AAEC3
:1037DC000DD00A50800A970FD8A0D2D7D8900432B7
:1037EC000332023201320A3EF9D70DD01F0E0A64A1
:1037FC0007D0C6D7D89001360236033604360A06EF
:10380C000A50D8A4F7D70950D8B408D0041E031E08
:10381C00021E016C000E02220322042201C001F0E0
:10382C0002C002F003C003F004C004F0120001C097
:10383C0008F002C009F003C00AF004C00BF0050642
:10384C00D8A0060605280FE10628D8A40CD0000E37
:10385C00026E000E016E1200084A092A0A4A0B2A4F
:10386C000506D8A0060608C0D9FF09C0DAFFDF504C
:10387C00D8B41CD00AC0F6FF0BC0F7FF0800F550F7
:10388C000009D8B413D005500610D8B40FD008C016
:10389C00D9FF09C0DAFFDF50076E0AC0F6FF0BC074
:1038AC00F7FF0800F5500718D8B4D6D708C0D9FFD1
:1038BC0009C0DAFFDF50076E0AC0F6FF0BC0F7FF36
:1038CC000800F550075C016E026AD8A002061200CF
:1038DC0003500410D8B404D003500410D8A404D05E
:1038EC000150D6EC1FF0120020EE04F00350D92644
:1038FC000450DA22DE50DE10D8B416D020EE04F0DC
:10390C000350D9260450DA2210EE02F00350E126BF
:10391C000450E222DE50E65CE650800A096EDE506E
:10392C00800A0958D8B0120020EE02F00350D926B4
:10393C000450DA22DECF05F0DDCF06F003C0D9FF4C
:10394C0004C0DAFFDECF07F0DDCF08F00550072406
:10395C00D96E06500820DA6E01C0DFFF20EE02F0AF
:10396C000350D9260450DA22DE2A000EDD22120082
:10397C005EA00AD013C00AF014C00BF011C00CF0FA
:10398C0012C00DF01FEC1FF016BE05D015C01AF0BA
:10399C0016C01BF004D0000E1B6E000E1A6E000E2B
:1039AC00196E000E186E0CD0000E026E200E016EF9
:1039BC0011C003F012C004F06EEC1CF0184A192A66
:1039CC001A50185C1950800A176E1B50800A175831
:1039DC00D8A0EAD75EB00AD013C00AF014C00BF01E
:1039EC0011C00CF012C00DF01FEC1FF013C001F051
:1039FC0014C002F09BEC1FF01A500124116E1B50E6
:103A0C000220126E1200000E0114096E000E021438
:103A1C000A6E800E03140B6E7F0E04140C6E09508C
:103A2C000A100B100C10D8A408D0000E016E000E5A
:103A3C00026E000E036E000E046E000E0514096E6D
:103A4C00000E06140A6E800E07140B6E7F0E0814FF
:103A5C000C6E09500A100B100C10D8A408D0000ED4
:103A6C00056E000E066E000E076E000E086E0550F9
:103A7C0001180AE10650021807E10750031804E187
:103A8C0008500418D8B402D0D8901200D880120074
:103A9C00000E066E04AE06D0036C041ED8B0042AC9
:103AAC00010E066E02AE06D0016C021ED8B0022AC0
:103ABC00010E061A000E086E000E076E035004105D
:103ACC00D8B41CD0010E056E04D0D8900336043641
:103ADC00052A04AEFAD7D890073608360350015C95
:103AEC0004500258D8A005D00350015E0450025A6D
:103AFC000780D89004320332052EEDD70650D8B487
:103B0C0004D0076C081ED8B0082A07C001F008C002
:103B1C0002F01200096E0DD00450800F08D0045032
:103B2C00C00F05D00450940F02D00450D40F0A6E6D
:103B3C0014D00950076E086A0850000AD8A40DD09A
:103B4C000750010AD8B4E8D7030AD8B4E8D7010A59
:103B5C00D8B4E8D7070AD8B4E8D70A50DFEC19F084
:103B6C000AD005C0F6FF06C0F7FF0800F550B9EC07
:103B7C0018F0054A062A05C0F6FF06C0F7FF080034
:103B8C00F5500009D8B41200ECD7000E066E02AE48
:103B9C0006D0016C021ED8B0022A010E066E04AECD
:103BAC0004D0036C041ED8B0042A03500410D8B4FB
:103BBC0018D0010E056E04D0D89003360436052AB1
:103BCC0004AEFAD70350015C04500258D8A004D0BC
:103BDC000350015E0450025AD89004320332052E71
:103BEC00F1D70650D8B404D0016C021ED8B0022A0A
:103BFC0001C001F002C002F01200096E0DD0045099
:103C0C00800F08D00450C00F05D00450940F02D080
:103C1C000450D40F0A6E14D00950076E086A08506D
:103C2C00000AD8A40DD00750010AD8B4E8D7030A6B
:103C3C00D8B4E8D7010AD8B4E8D7070AD8B4E8D77B
:103C4C000A50DFEC19F009D005C0D9FF06C0DAFF25
:103C5C00DF50B9EC18F0054A062A05C0D9FF06C09A
:103C6C00DAFFDF50D8B41200EFD74CC050F04DC083
:103C7C0051F0000E0001C96F000EC86F13D04AC07E
:103C8C0040F04BC041F0500E426E000E436E4EC0E1
:103C9C0044F04FC045F08AEC0DF040500001C827AD
:103CAC004150C92350C0F6FF51C0F7FF0800F55032
:103CBC000009D8A4E4D7C8C04AF0C9C04BF0120020
:103CCC0003C007F004C008F001C009F002C00AF0FC
:103CDC000750056E0850066E074A082A05C0F6FF05
:103CEC0006C0F7FFF86A09C0D9FF0AC0DAFF094A13
:103CFC000A2A070EF76403D00800F55005D0F6CF5A
:103D0C00E1FFF7CFE2FFE750DF6EDF50D8B41200CF
:103D1C00DFD7B40E546E000E556EB0C056F0B1C065
:103D2C0057F0000E596E000E586E000E5B6E000EB2
:103D3C005A6E560E4A6E000E4B6EB2C04CF0B3C0AB
:103D4C004DF0540E4E6E000E4F6E3BEC1EF0585064
:103D5C000001B025D96E5950B121DA6E000EDF6E1C
:103D6C001200BF0E096EFF0E0A6E07C00BF008C0E2
:103D7C000CF009500B260A500C220C5006E11A0EBE
:103D8C000B5CD8B002D0010E01D0000E0D6E0E6A85
:103D9C000D500E10D8B406D0200E0710076E085028
:103DAC00086E120007C007F008C008F01200000EE1
:103DBC001E1A000E1F1A000E201A800E211A1AC08D
:103DCC0001F01BC002F01CC003F01DC004F01EC0AB
:103DDC0005F01FC006F020C007F021C008F00EEC63
:103DEC0012F001C01AF002C01BF003C01CF004C09A
:103DFC001DF01200010E076E200E01180210D8B42F
:103E0C0014D0F70E036EFF0E046E01C005F002C055
:103E1C0006F00350052604500622065004E1050E58
:103E2C00055CD8A002D0000E076E07C001F0026A34
:103E3C001200000E106E000E0F6E0BD00EC001F0B3
:103E4C00026A0CC003F00DC004F06EEC1CF00F4ABB
:103E5C00102A0F500A24D96E10500B20DA6EDF5046
:103E6C000E6E0E50D8B41200E9D714BE05D0145003
:103E7C0010E11304D8B00DD013C015F014C016F017
:103E8C00151E161E154A162A15C013F016C014F06E
:103E9C00120013C013F014C014F01200BF0E036E06
:103EAC00FF0E046E01C005F002C006F0035005269B
:103EBC0004500622065006E11A0E055CD8B002D05A
:103ECC00010E01D0000E016E026A1200D00E036EBC
:103EDC00FF0E046E01C005F002C006F0035005266B
:103EEC0004500622065006E10A0E055CD8B002D03A
:103EFC00010E01D0000E016E026A12000150021078
:103F0C0003100410D8B408D0000E011A000E021AC7
:103F1C00000E031A800E041A01C001F002C002F058
:103F2C0003C003F004C004F0120001C003F002C08F
:103F3C0004F002D0014A022A01C0D9FF02C0DAFF04
:103F4C00DF50D8A4F7D70350015C016E045002581F
:103F5C00026E120001EE00F0700EEE6AE806FDE152
:103F6C0000EEB8F0400EEE6AE806FDE15F6A5E6AAC
:103F7C00000EF86E000125EF09F001500302F3CF9B
:103F8C0005F0F4CF06F001500402F350062602505F
:103F9C000302F350062605C001F006C002F0120021
:023FAC00120001
:020000040020DA
:08000000FFFFFFFFFFFFFFFF00
:020000040030CA
:0E000000000C181EFF8481FF0FC00FE00F40A0
:00000001FF
