:0400000040EF3FF09E
:107E8000000EF86E000191EF3FF0300E016EFE0E15
:107E9000816E81B802D02A0E016E81BA02D0300EF6
:107EA000016E81BC02D0230E016E81BE02D0440E51
:107EB000016EFD0E816E81B802D0370E016E81BA5F
:107EC00002D0380E016E81BC02D0390E016E81BE27
:107ED00002D0430E016EFB0E816E81B802D0340ECB
:107EE000016E81BA02D0350E016E81BC02D0360E11
:107EF000016E81BE02D0420E016EF70E816E81B816
:107F000002D0310E016E81BA02D0320E016E81BCF8
:107F100002D0330E016E81BE02D0410E016E0150BF
:107F20001200000E026E0E0EC06E000EC26EF19EAA
:107F3000F00E936E000E956ECB6894940C0EBD6E91
:107F4000070ECA6E000EBE6EBD9ABD9845EC3FF09E
:107F5000026E33D0010E836E190EF5D7020E836EBA
:107F6000330E0BD0030E836E4D0EEDD7040E836ED1
:107F7000660E0FD0050E836E800EBE6EBD9A04D0C5
:107F8000060E836E990E0FD0BD88E0D7070E836E64
:107F9000B30EBE6EBD8AD9D7080E836ECE0ED3D770
:107FA000090E836EE60EBE6E06D00A0E836ECAD729
:107FB0000B0E836EBE68BD8AE7D70250310AD8B473
:107FC000C9D7030AD8B4CAD7010AD8B4CBD7070A8D
:107FD000D8B4CCD7010AD8B4CDD7030AD8B4D0D7F7
:107FE000010AD8B4D3D70F0AD8B4D6D7010AD8B467
:107FF000D7D7780AD8B4DCD7030AD8B4D6D7A6D74F
:020000040020DA
:08000000FFFFFFFFFFFFFFFF00
:020000040030CA
:0E0000000002181EFF8080FF0FC00FE00F40AF
:00000001FF
