:020000040000FA
:060000000A128A110E280D
:10000800FE00030E83120313BF000A08C0000A1281
:100018008A118A2C0A128A111128FB01FC01831308
:10002800203084003B300A128A11642683010A12A8
:100038008A111E28003083120313C100C2000A125D
:100048008A1147260A128A110A128A1174210A1281
:100058008A1101300A128A11F1220A128A110C300F
:100068000A128A11F1220A128A110230831203132A
:10007800CC008630CB009830CA00CA0B4128CB0B85
:100088004128CC0B412800008316031788018901F9
:100098000130831603138100F03086008501831236
:1000A800031386018501C401C40A4630CA004A0800
:1000B800C50001300A128A11B3250A128A111030BC
:1000C80083120313CC003930CB000D30CA00CA0BA1
:1000D8006B28CB0B6B28CC0B6B2801300A128A11CA
:1000E800F1220A128A11023083120313CC008630DF
:1000F800CB009830CA00CA0B7F28CB0B7F28CC0BCB
:100108007F2800002A308312031329060319572871
:100118000A128A11A7230A128A1183120313C4012F
:10012800C40A0130CA004A08C50001300A128A11FF
:10013800B3250A128A1183120313C401C40A513069
:10014800CA004A08C50002300A128A11B3250A12E9
:100158008A113030831203132902031CB7283A305E
:100168002902031CBB2841302906031D49292908F7
:10017800CA004A08A8005730CA004A08C10029081E
:10018800CB00CC014B08C2004C08C3002A300A122D
:100198008A1160250A128A11073083120313CA00D4
:1001A8004A08C4002A30CB004B08C50002300A12A6
:1001B8008A1101260A128A1149290130F2280230CF
:1001C800F2280330F2280430F2280530F2280630ED
:1001D800F2280730F2280830F228093085008628EE
:1001E800850101300A128A11F1220A128A1102309D
:1001F80083120313CC008630CB009830CA00CA0B98
:100208000329CB0B0329CC0B032900001F29C401A8
:10021800C40A10301629C401C40A1E301629C401A4
:10022800C40A2C30CA004A08C50001300A128A11D3
:10023800B3250A128A1183120313C401C40A3A307F
:10024800CA004A08C50001300A128A11B3250A12E9
:100258008A11831203132308003A031944291F291A
:100268002108003A031939291F292008013A0319DE
:100278000B29033A03190F29013A031913291F29D6
:100288002208003A031934291F2983120313280866
:10029800CA00CB014B08003A0319532986284A089B
:1002A800313A0319E128033A0319E328013A0319FB
:1002B800E528073A0319E728013A0319E928033A18
:1002C8000319EB28013A0319ED280F3A0319EF280F
:1002D800013A0319F128783A0319F4288628862860
:1002E8008316031388110811881008108812081241
:1002F8008312031388110811881008108812081235
:10030800163083120313C5006B30C400C40B8A294E
:10031800C50B8A298F29163083120313C5006B3049
:10032800C400C40B9529C50B95299A291630831248
:100338000313C5006B30C400C40BA029C50BA0294A
:10034800A529163083120313C5006B30C400C40BF3
:10035800AB29C50BAB29B029163083120313C5008E
:100368006B30C400C40BB629C50BB629BB2916309F
:1003780083120313C5006B30C400C40BC129C50B1D
:10038800C129C62983120313C601C60A8811081198
:10039800881408148812081288110811881408147F
:1003A80088160812043083120313C400C40BDA2918
:1003B800831203138811081188140814881208126C
:1003C800163083120313C5006B30C400C40BEA292E
:1003D800C50BEA29EF29013083120313C40044082E
:1003E800C60704304602031CCA298811081188145C
:1003F8000810881208128811081188140810881625
:100408000812043083120313C400C40B092A831290
:10041800031388110811881408108812081216305E
:1004280083120313C5006B30C400C40B192AC50B13
:10043800192A1E2A28300A128A11F1220A128A1150
:1004480010300A128A11F1220A128A1101300A1296
:100458008A11F1220A128A110F300A128A11F12226
:10046800080083120313C300881208164308C1004A
:1004780007300310C10CFF3E031D3D2A4108013916
:10048800C200C20DC20DC20D08084206F739420665
:1004980088004308C10006300310C10CFF3E031D4D
:1004A800502A41080139C200C20DC20D080842068F
:1004B800FB39420688004308C10005300310C10C0F
:1004C800FF3E031D622A41080139C200C20D080817
:1004D8004206FD39420688004308C1000430031073
:1004E800C10CFF3E031D732A01304105C2000808F4
:1004F8004206FE3942068800023083120313C10007
:10050800C10B842A00008312031388160430831257
:100518000313C100C10B8E2A8312031388124308E8
:10052800C10003300310C10CFF3E031D962A410889
:100538000139C200C20DC20DC20D08084206F739C2
:10054800420688004308C10002300310C10CFF3E78
:10055800031DA92A41080139C200C20DC20D0808AD
:100568004206FB39420688004308C1000310410CCB
:100578000139C200C20D08084206FD39420688004A
:1005880001304305C10008084106FE3941068800CC
:10059800023083120313C100C10BD02A000083125A
:1005A80003138816043083120313C100C10BDA2A1F
:1005B800831203138812043083120313C100C10B82
:1005C800E32A163083120313C2006B30C100C10B3B
:1005D800EB2AC20BEB2AF02A080083120313C3008C
:1005E800881208124308C10007300310C10CFF3EEF
:1005F800031DF92A41080139C200C20DC20DC20DFE
:1006080008084206F739420688004308C100063048
:100618000310C10CFF3E031D0C2B41080139C20019
:10062800C20DC20D08084206FB394206880043087D
:10063800C10005300310C10CFF3E031D1E2B4108ED
:100648000139C200C20D08084206FD394206880079
:100658004308C10004300310C10CFF3E031D2F2BBB
:1006680001304105C20008084206FE3942068800EA
:10067800023083120313C100C10B402B0000831208
:1006880003138816043083120313C100C10B4A2BCD
:100698008312031388124308C10003300310C10CEE
:1006A800FF3E031D522B41080139C200C20DC20D85
:1006B800C20D08084206F739420688004308C100FF
:1006C80002300310C10CFF3E031D652B41080139A0
:1006D800C200C20DC20D08084206FB394206880056
:1006E8004308C1000310410C0139C200C20D0808BB
:1006F8004206FD394206880001304305C10008085A
:100708004106FE3941068800023083120313C100F6
:10071800C10B8C2B0000831203138816043083123C
:100728000313C100C10B962B8312031388121630D2
:1007380083120313C2006B30C100C10BA12BC20B83
:10074800A12BA62B080083120313A901F030860001
:10075800F03006060319182CFE308600061AB82B4E
:100768002A30C1004108A900861ABE2B3030C100CA
:100778004108A900061BC42B2330C1004108A90069
:10078800861BCA2B4430C1004108A900FD308600F1
:10079800061AD22B3730C1004108A900861AD82B77
:1007A8003830C1004108A900061BDE2B3930C100D2
:1007B8004108A900861BE42B4330C1004108A90069
:1007C800FB308600061AEC2B3430C1004108A90022
:1007D800861AF22B3530C1004108A900061BF82BF8
:1007E8003630C1004108A900861BFE2B4230C100EB
:1007F8004108A900F7308600061A062C3130C100DE
:100808004108A900861A0C2C3230C1004108A90001
:10081800061B122C3330C1004108A900861B182C76
:100828004130C1004108A900F0308600F0300606CA
:10083800031908001A2C0310720D730DF4007408C4
:10084800FA007A08031D312C0030F3000030F20062
:100858000030F1000030F00008007008F400710862
:10086800F5007208F6007308F7001F300310F70C44
:10087800F60CF50CF40CFF3E031D3A2C7408F80036
:100888007808F900F217FF30F005FF30F105FF3066
:10089800F2050030F3059630FA02FA1F682C7A0840
:1008A800803A973E031C282C01300310F30CF20CFD
:1008B800F10CF00CFF3E031D592C0130F4007408B4
:1008C800FA0703197B2C582C20307A020318282C9D
:1008D8007A0803197B2C0130F4000310F00DF10D98
:1008E800F20DF30DF40B712C0130FA026C2C79081F
:1008F80003190800F009F109F209F309F00A0319CC
:10090800F10A0319F20A0319F30A08008C1DE82CEE
:100918001412141B912C941F9B2C1308BB00BC01B0
:100928003B08FB003C08FC001413941314168316B0
:100938000313941E1419BF2C831203131308BB004E
:10094800BC013B08FB003C08FC0083160313141C85
:10095800A92C831203131308BB00BC01BD01BE01FF
:100968003E08A3003D08A2003C08A1003B08A000E7
:1009780014169411E62C941E141DE62C83120313EE
:100988001308BB00BC013B08FB003C08FC008316B5
:1009980003131410831203132708F3002608F20028
:1009A8002508F1002408F0000A128A111F240A12EF
:1009B8008A11700883120313930014168316031305
:1009C8001418E22C83128C1140088A003F0E830011
:0609D800FE0E7E0E090078
:100A000005308A000408840A8207003453346C34A9
:100A100065346334633469346F346E346134203444
:100A20006C346F3473342034003449346E3466349B
:100A30006F3472346D346134633469346F346E34BE
:100A400020343134003449346E3466346F347234B7
:100A50006D346134633469346F346E34203432342D
:100A6000003449346E3466346F3472346D3461341A
:100A7000633469346F346E34203433340034493491
:100A80006E3466346F3472346D3461346334693477
:100A90006F346E3400344234693465346E347634E5
:100AA00065346E34693464346F3400344C346534E6
:100AB000643473343A3400342034253463340034DD
:100AC00083120313C9004230C4004408C700013038
:100AD000C107FF30410784000A128A1100250A125B
:100AE0008A11C4004408C80048080319AE2D2530F7
:100AF00048060319932D872D4708840083130008A7
:100B0000C4004408C8000230C4004408C7074808AD
:100B1000C400490884004408831380000130C400E5
:100B20004408C907672D0130C107FF304107840021
:100B30000A128A1100250A128A11C800C400C501D0
:100B40004508003A0319A52D872D4408003A0319DA
:100B5000AE2D633A03197C2D872D672D490884003B
:100B600083138001080083120313C800C62D4408B4
:100B7000803EC22D4408C03EC22D4408943EC22D82
:100B80004408D43EC6004608C900DC2D4808C6000B
:100B9000C7014708003A0319CE2DDC2D4608013A5B
:100BA0000319B72D033A0319BA2D013A0319BD2DC4
:100BB000073A0319C02DDC2D49080A128A11F122C7
:100BC0000A128A1183120313450884000A128A113B
:100BD00000250A128A11003A03190800450884000A
:100BE0000A128A1100250A128A110A128A11352264
:100BF0000A128A11013083120313C6004608C50782
:100C0000E22D83120313C800142E4408803E102ED8
:100C10004408C03E102E4408943E102E4408D43E92
:100C2000C6004608C9002A2E4808C600C701470862
:100C3000003A03191C2E2A2E4608013A0319052EE4
:100C4000033A0319082E013A03190B2E073A031928
:100C50000E2E2A2E49080A128A11F1220A128A112E
:100C60008312031345088400831300080319080046
:100C70004508840000080A128A1135220A128A11D6
:100C8000013083120313C6004608C507302E80309A
:100C9000831603139400831203134108831603136E
:100CA000930036308312031394000130831603132C
:100CB0009100871507168B170B17831203138C11DE
:100CC000831603138C15080064008001840A04064F
:080CD000031900340406652E2F
:04400E00E2E0FFFFEE
:00000001FF
