:020000040000FA
:0400000007EF00F016
:100008001B8209ED00F043EF00F006009EA626D003
:10001800C698C6BC02D0C6AE06D0C9CF13F0146AC3
:10002800C69CC69EC688C7AAC7B40BD0C9CF13F052
:10003800146AC7A0FED7C9CF17F0186AC688C69633
:100048000CD0C7AAC7A409D0C9CF13F0146AC790A7
:1000580015C0C9FFC688C7B0FED79E961B9211006F
:10006800800EC76E19C0C8FF360EC66E010EC56E6B
:1000780093829380F28EF28C9E969D86120000EEFB
:1000880001F0180EEE6AE806FDE11B901B920001D4
:100098004EEF00F0000E1A6E300E196E34EC00F0C0
:0600A8000F0EC16EFFD730
:020000040020DA
:08000000FFFFFFFFFFFFFFFF00
:020000040030CA
:0E000000000C181EFF8481FF0FC00FE00F40A0
:00000001FF
