:020000040000FA
:0400000043EF2AF0B0
:10548400120000EE60F0650EEE6AE806FDE15E6A69
:105494005D6A000EF86E0001DBEF35F0F00E926EDF
:1054A400000E806E000E0001686F000E696F000E22
:1054B4006A6F000E6B6F120001C003F002C004F0AB
:1054C40002D0014A022A01C0D9FF02C0DAFFDF502C
:1054D400D8A4F7D70350015C016E04500258026E41
:1054E400120014BE05D0145010E11304D8B00DD02E
:1054F40013C015F014C016F0151E161E154A162AF0
:1055040015C013F016C014F0120013C013F014C029
:1055140014F01200000E106E000E0F6E0BD00EC0B1
:1055240001F0026A0CC003F00DC004F030EC2DF061
:105534000F4A102A0F500A24D96E10500B20DA6E2D
:10554400DF500E6E0E50D8B41200E9D700016E5130
:105554006F11D8A405D06EC01FF06FC020F006D024
:10556400FF0E6E251F6EFF0E6F21206E1EC072F09F
:10557400000E736F1CC011F01DC012F0720E136E7A
:10558400000E146E1FC015F020C016F0E5EC2CF0D0
:1055940011C01CF012C01DF01200C90E0001CF6F23
:1055A400000ED06FC5C0D1F0C6C0D2F0000ED46FCB
:1055B400000ED36F000ED66F000ED56FD10E516E54
:1055C400000E526EC7C053F0C8C054F0CF0E556ED3
:1055D400000E566E23EC2BF00001D351C525D96E75
:1055E400D451C621DA6E000EDF6E1200000E096E71
:1055F400000E0A6E000E0B6E000E0C6E01A008D099
:105604000550092606500A2207500B2208500C2286
:10561400D8900536063607360836D8900432033259
:10562400023201320150021003100410D8A4E6D74C
:1056340009C001F00AC002F00BC003F00CC004F072
:10564400120053C057F054C058F0000E00016D6FA3
:10565400000E6C6F13D051C040F052C041F0570E91
:10566400426E000E436E55C044F056C045F0C6EC81
:1056740033F0405000016C2741506D2357C0F6FFB2
:1056840058C0F7FF0800F5500009D8A4E4D76CC04F
:1056940051F06DC052F01200096E0DD00450800F0D
:1056A40008D00450C00F05D00450940F02D0045009
:1056B400D40F0A6E14D00950076E086A0850000A05
:1056C400D8A40DD00750010AD8B4E8D7030AD8B437
:1056D400E8D7010AD8B4E8D7070AD8B4E8D70A50FB
:1056E4008FEC2FF009D005C0D9FF06C0DAFFDF50D8
:1056F40040EC31F0054A062A05C0D9FF06C0DAFF9E
:10570400DF50D8B41200EFD7096E0DD00450800FCB
:1057140008D00450C00F05D00450940F02D0045098
:10572400D40F0A6E14D00950076E086A0850000A94
:10573400D8A40DD00750010AD8B4E8D7030AD8B4C6
:10574400E8D7010AD8B4E8D7070AD8B4E8D70A508A
:105754008FEC2FF00AD005C0F6FF06C0F7FF080053
:10576400F55040EC31F0054A062A05C0F6FF06C0A4
:10577400F7FF0800F5500009D8B41200ECD7808078
:10578400808280948096140E016E7A0EE82EFED7E5
:10579400012EFCD7010E00016827000E69236A233D
:1057A4006B238090808280848096140E016E7A0E22
:1057B400E82EFED7012EFCD7010E00016827000E4B
:1057C40069236A236B238090809280848086140EE0
:1057D400016E7A0EE82EFED7012EFCD7010E0001D1
:1057E4006827000E69236A236B238080809280944B
:1057F4008086140E016E7A0EE82EFED7012EFCD799
:10580400010E00016827000E69236A236B2312002E
:105814008080809280948086140E016E7A0EE82E29
:10582400FED7012EFCD7010E00016827000E692364
:105834006A236B238090809280848086140E016E8C
:105844007A0EE82EFED7012EFCD7010E0001682740
:10585400000E69236A236B23809080828084809663
:10586400140E016E7A0EE82EFED7012EFCD7010E1F
:1058740000016827000E69236A236B2380808082DD
:1058840080948096140E016E7A0EE82EFED7012EB7
:10589400FCD7010E00016827000E69236A236B23DD
:1058A40012008080809280948096140E016E7A0E8D
:1058B400E82EFED7012EFCD7010E00016827000E4A
:1058C40069236A236B238090808280948096140ECF
:1058D400016E7A0EE82EFED7012EFCD7010E0001D0
:1058E4006827000E69236A236B238090809280844A
:1058F4008096140E016E7A0EE82EFED7012EFCD788
:10590400010E00016827000E69236A236B2380902F
:10591400809280948086140E016E7A0EE82EFED753
:10592400012EFCD7010E00016827000E69236A23AB
:105934006B2312008080809280948096140E016EF6
:105944007A0EE82EFED7012EFCD7010E000168273F
:10595400000E69236A236B23809080928094808652
:10596400140E016E7A0EE82EFED7012EFCD7010E1E
:1059740000016827000E69236A236B2380908092BC
:1059840080848096140E016E7A0EE82EFED7012EC6
:10599400FCD7010E00016827000E69236A236B23DC
:1059A4008090808280948096140E016E7A0EE82E88
:1059B400FED7012EFCD7010E00016827000E6923D3
:1059C4006A236B2312005DA00AD013C00AF014C02E
:1059D4000BF011C00CF012C00DF08CEC2AF016BEC6
:1059E40005D015C01AF016C01BF004D0000E1B6EB3
:1059F400000E1A6E000E196E000E186E0CD0000EFA
:105A0400026E200E016E11C003F012C004F030ECDF
:105A14002DF0184A192A1A50185C1950800A176E6A
:105A24001B50800A1758D8A0EAD75DB00AD013C01B
:105A34000AF014C00BF011C00CF012C00DF08CEC85
:105A44002AF013C001F014C002F05EEC2AF01A50E0
:105A54000124116E1B500220126E12000350041018
:105A6400D8B404D003500410D8A404D0015042EC9C
:105A74002AF0120020EE04F00350D9260450DA2252
:105A8400DE50DE10D8B416D020EE04F00350D92630
:105A94000450DA2210EE02F00350E1260450E22210
:105AA400DE50E65CE650800A096EDE50800A095832
:105AB400D8B0120020EE02F00350D9260450DA22A6
:105AC400DECF05F0DDCF06F003C0D9FF04C0DAFF56
:105AD400DECF07F0DDCF08F005500724D96E06505D
:105AE4000820DA6E01C0DFFF20EE02F00350D92651
:105AF4000450DA22DE2A000EDD2212000F041010F8
:105B0400D8A424D0000E0001686F000E696F000E47
:105B14006A6F000E6B6F02D0C1EC2BF00B500001CA
:105B2400685D0C5069590D506A596B51800A116EA9
:105B34000E50800A1158D8A0EFD7000E686F000EDF
:105B4400696F000E6A6F000E6B6F1200020E0F1861
:105B54001010D8A41CD0000E0001686F000E696FED
:105B6400000E6A6F000E6B6F02D00AEC2CF00B5023
:105B74000001685D0C5069590D506A596B51800AD7
:105B8400116E0E50800A1158D8B0D7D7EED7000E38
:105B94000001686F000E696F000E6A6F000E6B6F74
:105BA400010E8FEC2FF0020E126E860E116E990EFE
:105BB400E82EFED7112EFCD7122EFAD700F0040ED1
:105BC400046EE60E056E7F0E066E010E86EC2BF05B
:105BD400020E046E830E056E7F0E066E020E86ECB8
:105BE4002BF0100E126E390E116E0E0EE82EFED72B
:105BF400112EFCD7122EFAD7010E8FEC2FF01200C3
:105C04000F041010D8A424D0000E0001686F000EF9
:105C1400696F000E6A6F000E6B6F02D01EEC30F0DD
:105C24000B500001685D0C5069590D506A596B5155
:105C3400800A116E0E50800A1158D8A0EFD7000EBA
:105C4400686F000E696F000E6A6F000E6B6F1200B2
:105C5400020E0F181010D8A41CD0000E0001686F9B
:105C6400000E696F000E6A6F000E6B6F02D0AFEC0E
:105C740030F00B500001685D0C5069590D506A59A1
:105C84006B51800A116E0E50800A1158D8B0D7D7C4
:105C9400EED7000E0001686F000E696F000E6A6F88
:105CA400000E6B6F010E8FEC2FF0020E126E860E3B
:105CB400116E990EE82EFED7112EFCD7122EFAD7AC
:105CC40000F0040E046EE60E056E7F0E066E010EE5
:105CD40086EC2BF0020E046E830E056E7F0E066EAC
:105CE400020E86EC2BF0100E126E390E116E0E0E93
:105CF400E82EFED7112EFCD7122EFAD7010E8FEC08
:105D04002FF012000F041010D8A424D0000E0001AC
:105D1400686F000E696F000E6A6F000E6B6F02D021
:105D240053EC2CF00B500001685D0C5069590D5078
:105D34006A596B51800A116E0E50800A1158D8A00E
:105D4400EFD7000E686F000E696F000E6A6F000EC9
:105D54006B6F1200020E0F181010D8A41CD0000E86
:105D64000001686F000E696F000E6A6F000E6B6FA2
:105D740002D09CEC2CF00B500001685D0C5069596A
:105D84000D506A596B51800A116E0E50800A1158D9
:105D9400D8B0D7D7EED7000E0001686F000E696F38
:105DA400000E6A6F000E6B6F010E8FEC2FF0020E67
:105DB400126E860E116E990EE82EFED7112EFCD7A8
:105DC400122EFAD700F0040E046EE60E056E7F0E56
:105DD400066E010E86EC2BF0020E046E830E056E29
:105DE4007F0E066E020E86EC2BF0100E126E390E2C
:105DF400116E0E0EE82EFED7112EFCD7122EFAD7F6
:105E0400010E8FEC2FF01200959695949592959033
:105E1400959A95988396839483928390839A839892
:105E2400160E046E6C0EE82EFED7042EFCD700D09E
:105E3400160E046E6C0EE82EFED7042EFCD700D08E
:105E4400160E046E6C0EE82EFED7042EFCD700D07E
:105E5400160E046E6C0EE82EFED7042EFCD700D06E
:105E6400160E046E6C0EE82EFED7042EFCD700D05E
:105E7400160E046E6C0EE82EFED7042EFCD700D04E
:105E8400010E056E8396839483828380839A83981C
:105E94008396839483828380838A8398050EE82E75
:105EA400FED78396839483828380839A8398160E85
:105EB400046E6C0EE82EFED7042EFCD700D0052A03
:105EC400030E0564DFD78396839483828390839A39
:105ED40083988396839483828390838A8398050E20
:105EE400E82EFED78396839483828390839A839843
:105EF400160E046E6C0EE82EFED7042EFCD700D0CE
:105F0400280E8FEC2FF0100E8FEC2FF0010E8FEC7B
:105F14002FF00F0E8FEC2FF01200036E839A8398EC
:105F2400016A03AE01D0012A010E011601460146A1
:105F3400014683500118F70B0118836E03C001F06A
:105F4400060E026ED8900132022EFCD7010E011605
:105F54000146014683500118FB0B0118836E03C0F0
:105F640001F0050E026ED8900132022EFCD7010E0C
:105F74000116014683500118FD0B0118836E03C0FE
:105F840001F0013A0F0E0116010E0116835001189B
:105F9400FE0B0118836E030EE82EFED700F0838AF1
:105FA400050EE82EFED7839A03C001F0D890013283
:105FB400D8900132D8900132010E011601460146F3
:105FC400014683500118F70B0118836E03C001F0DA
:105FD400D8900132D8900132010E011601460146D3
:105FE40083500118FB0B0118836E03C001F0D89095
:105FF4000132010E0116014683500118FD0B0118F0
:10600400836E03C001F0010E011683500118FE0BCC
:106014000118836E030EE82EFED700F0838A050E66
:10602400E82EFED7839A160E016E6C0EE82EFED76C
:10603400012EFCD700D0120080808092809480963C
:10604400140E016E7A0EE82EFED7012EFCD7010E37
:1060540000016827000E69236A236B2380808082F5
:1060640080948096140E016E7A0EE82EFED7012ECF
:10607400FCD7010E00016827000E69236A236B23F5
:106084008090808280948096140E016E7A0EE82EA1
:10609400FED7012EFCD7010E00016827000E6923EC
:1060A4006A236B238080808280848096140E016E24
:1060B4007A0EE82EFED7012EFCD7010E00016827C8
:1060C400000E69236A236B238090809280848096DB
:1060D400140E016E7A0EE82EFED7012EFCD7010EA7
:1060E40000016827000E69236A236B238090809245
:1060F40080848086140E016E7A0EE82EFED7012E5F
:10610400FCD7010E00016827000E69236A236B2364
:106114008090809280948086140E016E7A0EE82E10
:10612400FED7012EFCD7010E00016827000E69235B
:106134006A236B238080809280948086140E016E83
:106144007A0EE82EFED7012EFCD7010E0001682737
:10615400000E69236A236B2312008080809280944E
:106164008096140E016E7A0EE82EFED7012EFCD70F
:10617400010E00016827000E69236A236B238080C7
:10618400809280948086140E016E7A0EE82EFED7DB
:10619400012EFCD7010E00016827000E69236A2333
:1061A4006B238090809280948086140E016E7A0E08
:1061B400E82EFED7012EFCD7010E00016827000E41
:1061C40069236A236B238090809280848086140ED6
:1061D400016E7A0EE82EFED7012EFCD7010E0001C7
:1061E4006827000E69236A236B2380908092808441
:1061F4008096140E016E7A0EE82EFED7012EFCD77F
:10620400010E00016827000E69236A236B23809026
:10621400808280848096140E016E7A0EE82EFED75A
:10622400012EFCD7010E00016827000E69236A23A2
:106234006B238090808280948096140E016E7A0E77
:10624400E82EFED7012EFCD7010E00016827000EB0
:1062540069236A236B238080808280948096140E45
:10626400016E7A0EE82EFED7012EFCD7010E000136
:106274006827000E69236A236B231200036E839A36
:106284008388016A03AE01D0012A010E011601467A
:106294000146014683500118F70B0118836E03C0B1
:1062A40001F0060E026ED8900132022EFCD7010EC8
:1062B40001160146014683500118FB0B0118836E39
:1062C40003C001F0050E026ED8900132022EFCD7F5
:1062D400010E0116014683500118FD0B0118836E4F
:1062E40003C001F0013A0F0E0116010E011683508E
:1062F4000118FE0B0118836E030EE82EFED700F082
:10630400838A050EE82EFED7839A03C001F0D89045
:106314000132D8900132D8900132010E01160146A3
:106324000146014683500118F70B0118836E03C020
:1063340001F0D8900132D8900132010E01160146C5
:10634400014683500118FB0B0118836E03C001F052
:10635400D8900132010E0116014683500118FD0B3D
:106364000118836E03C001F0010E01168350011859
:10637400FE0B0118836E030EE82EFED700F0838A0D
:10638400050EE82EFED7839A050EE82EFED7160ECC
:10639400016E6C0EE82EFED7012EFCD700D0120041
:1063A400000E126E08AE12D0081E071E061E051E31
:1063B400041E031E021E016C000E0222032204228C
:1063C4000522062207220822010E126E10AE10D0FA
:1063D400101E0F1E0E1E0D1E0C1E0B1E0A1E096C17
:1063E400000E0A220B220C220D220E220F22102252
:1063F40009500A100B100C100D100E100F10101075
:10640400D8B43CD0010E116E0AD0D89009360A36A1
:106414000B360C360D360E360F361036112A10AEEA
:10642400F4D70950015C0A5002580B5003580C5021
:1064340004580D5005580E5006580F500758105068
:106444000858D8A010D00950015E0A50025A0B50C7
:10645400035A0C50045A0D50055A0E50065A0F5048
:10646400075A1050085AD89010320F320E320D329B
:106474000C320B320A320932112ED3D71250D8B44F
:1064840010D0081E071E061E051E041E031E021E33
:10649400016C000E02220322042205220622072296
:1064A400082201C001F002C002F003C003F004C0DE
:1064B40004F005C005F006C006F007C007F008C0E8
:1064C40008F01200000E126E10AE12D0101E0F1E35
:1064D4000E1E0D1E0C1E0B1E0A1E096C000E0A2237
:1064E4000B220C220D220E220F221022010E126EFC
:1064F40008AE12D0081E071E061E051E041E031E2B
:10650400021E016C000E022203220422052206222E
:1065140007220822010E121A20EE13F0070EDE6A7B
:10652400E806FDE209500A100B100C100D100E10B5
:106534000F101010D8B446D0010E116E0AD0D890A6
:1065440009360A360B360C360D360E360F36103633
:10655400112A10AEF4D7D8901336143615361636E1
:106564001736183619361A360950015C0A50025883
:106574000B5003580C5004580D5005580E50065833
:106584000F50075810500858D8A011D00950015E78
:106594000A50025A0B50035A0C50045A0D50055A13
:1065A4000E50065A0F50075A1050085A1380D890AC
:1065B40010320F320E320D320C320B320A320932E3
:1065C400112EC9D71250D8B410D01A1E191E181E75
:1065D400171E161E151E141E136C000E14221522EF
:1065E40016221722182219221A2213C001F014C0ED
:1065F40002F015C003F016C004F017C005F018C06F
:1066040006F019C007F01AC008F01200000E0001CD
:10661400646F000E656F000E666F000E676FF00EFC
:10662400816EF00E8118D8B4A8D0FE0E816E81B8A8
:1066340008D02A0E646F000E656F000E666F000EA0
:10664400676F81BA08D0300E646F000E656F000E5C
:10665400666F000E676F81BC08D0230E646F000E56
:10666400656F000E666F000E676F81BE08D0440E22
:10667400646F000E656F000E666F000E676FFD0E8F
:10668400816E81B808D0370E646F000E656F000EFE
:10669400666F000E676F81BA08D0380E646F000E03
:1066A400656F000E666F000E676F81BC08D0390EEF
:1066B400646F000E656F000E666F000E676F81BE1B
:1066C40008D0430E646F000E656F000E666F000EF7
:1066D400676FFB0E816E81B808D0340E646F000EB4
:1066E400656F000E666F000E676F81BA08D0350EB5
:1066F400646F000E656F000E666F000E676F81BCDD
:1067040008D0360E646F000E656F000E666F000EC3
:10671400676F81BE08D0420E646F000E656F000E75
:10672400666F000E676FF70E816E81B808D0310E68
:10673400646F000E656F000E666F000E676F81BA9E
:1067440008D0320E646F000E656F000E666F000E87
:10675400676F81BC08D0330E646F000E656F000E46
:10676400666F000E676F81BE08D0410E646F000E25
:10677400656F000E666F000E676FF00E8A6EF00E86
:106784008118D8B41200FBD742C0D9FF43C0DAFF46
:10679400DECFF6FFDDCFF7FF0800F550250AD8A4B9
:1067A400CDD042C0D9FF43C0DAFFDE2A000EDD227D
:1067B400000E00016F6F000E6E6F6EC05DF06FC053
:1067C4005EF07069716942C0D9FF43C0DAFFDECF61
:1067D400F6FFDDCFF7FF0800F550630AD8A426D0F2
:1067E40042C0D9FF43C0DAFFDE2A000EDD2244C0D6
:1067F400D9FF45C0DAFFDFCF46F0020EDE26DFCF39
:1068040047F0000EDD2246C0D9FF47C0DAFFDF5053
:10681400506E40C01CF041C01DF050C01EF0A8ECEA
:106824002AF01CC040F01DC041F0120042C0D9FF44
:1068340043C0DAFFDECFF6FFDDCFF7FF0800F550E7
:10684400640AD8B40DD042C0D9FF43C0DAFFDECF0A
:10685400F6FFDDCFF7FF0800F550690AD8A43FD052
:1068640042C0D9FF43C0DAFFDE2A000EDD2244C055
:10687400D9FF45C0DAFFDFCF46F0020EDE26DFCFB8
:1068840047F0000EDD2246C0D9FF47C0DAFFDECF55
:1068940048F0DDCF49F0000E49BEFF0E4A6E4B6E44
:1068A4004C6E4D6E4E6E4F6E40C01CF041C01DF0DC
:1068B40048C01EF049C01FF04AC020F04BC021F070
:1068C4004CC022F04DC023F04EC024F04FC025F040
:1068D400BAEC34F01CC040F01DC041F0120042C0BC
:1068E400D9FF43C0DAFFDECFF6FFDDCFF7FF0800A4
:1068F400F550250AD8A416D042C0D9FF43C0DAFF08
:10690400DE2A000EDD22000E026E250E016E40C04E
:1069140003F041C004F030EC2DF0000E416E010E86
:10692400406E120042C0D9FF43C0DAFFDE2A000ED7
:10693400DD22000E416E000E406E120042C0D9FFEF
:1069440043C0DAFFDECFF6FFDDCFF7FF0800F550D6
:10695400016E026A40C003F041C004F030EC2DF037
:1069640042C0D9FF43C0DAFFDE2A000EDD22D5D7AC
:106974001EC036F01FC037F020C038F021C039F0F7
:1069840022C03AF023C03BF024C03CF025C03DF0C7
:106994003DAE02D0010E01D0000E346E356A345083
:1069A4003510D8B410D03D1E3C1E3B1E3A1E391E75
:1069B400381E371E366C000E3722382239223A220E
:1069C4003B223C223D22000171AF5D9271BF05D094
:1069D400715108E17005D8B005D0000E316E010E7A
:1069E400306E04D070C030F071C031F06EC032F03F
:1069F4006FC033F034503510D8A402D05DA403D056
:106A04003206D8A03306000E3F6E1F0E3E6E000EF7
:106A1400916F7CD03E06D8A03F06720E3E24D96EFC
:106A2400000E3F20DA6E36C001F037C002F038C0E5
:106A340003F039C004F03AC005F03BC006F03CC096
:106A440007F03DC008F00A0E096E000E0A6E000E33
:106A54000B6E000E0C6E000E0D6E000E0E6E000E10
:106A64000F6E000E106ED2EC31F001C026F002C0A1
:106A740027F003C028F004C029F005C02AF006C09E
:106A84002BF007C02CF008C02DF026C013F028C04E
:106A940014F073EC2AF01350300FDF6E3006D8A0D8
:106AA40031063206D8A0330636C001F037C002F0F2
:106AB40038C003F039C004F03AC005F03BC006F01A
:106AC4003CC007F03DC008F00A0E096E000E0A6EC5
:106AD400000E0B6E000E0C6E000E0D6E000E0E6E90
:106AE400000E0F6E000E106E64EC32F001C036F032
:106AF40002C037F003C038F004C039F005C03AF0E2
:106B040006C03BF007C03CF008C03DF03FBE1FD0BC
:106B14003F5003E13E04D8A01AD036503710381045
:106B240039103A103B103C103D10D8A473D731BE35
:106B340005D0315002E13004D8B06CD733BE07D051
:106B4400335003E13204D8A002D05DB263D734508D
:106B54003510D8A402D05DA417D03E06D8A03F06B5
:106B640034503510D8A404D0000E2F6E2B0E03D051
:106B7400000E2F6E2D0E2E6E720E3E24D96E000E58
:106B84003F20DA6E2EC0DFFF1CC011F01DC012F0D2
:106B9400720E3E24136E000E3F20146E32C015F0A8
:106BA40033C016F0E5EC2CF011C01CF012C01DF03F
:106BB40012000F0EC16EF19EF00E936E000E836EE6
:106BC400000E806E50EC2AF006EC2FF0010E8FECD4
:106BD4002FF00C0E8FEC2FF0020E5A6E860E596EAB
:106BE400990EE82EFED7592EFCD75A2EFAD700F06C
:106BF400030E046E990E056E7F0E066E010E86EC72
:106C04002BF0040E046EAF0E056E7F0E066E020EA0
:106C140086EC2BF01F0E5A6E710E596E1E0EE82E66
:106C2400FED7592EFCD75A2EFAD700D0010E8FEC7E
:106C34002FF0020E5A6E860E596E990EE82EFED76C
:106C4400592EFCD75A2EFAD700F0010E046E8E0E80
:106C5400056E7F0E066E010E86EC2BF0010E046E9F
:106C6400FE0E056E7E0E066E020E86EC2BF01F0ED7
:106C74005A6E710E596E1E0EE82EFED7592EFCD791
:106C84005A2EFAD700D0010E8FEC2FF0020E5A6E56
:106C9400860E596E990EE82EFED7592EFCD75A2E21
:106CA400FAD700F0010E046ECD0E056E7F0E066E4F
:106CB400010E86EC2BF0010E046E0C0E056E7F0E99
:106CC400066E020E86EC2BF01F0E5A6E710E596E74
:106CD4001E0EE82EFED7592EFCD75A2EFAD700D016
:106CE400000E0001DC6F000ED96F000E646F000E01
:106CF400656F000E666F000E676F000EDB6F000E8F
:106D0400DA6F000EDD6F000EDE6F000EDF6F000E17
:106D1400E06F000EDC6F010E8FEC2FF0020E5A6E46
:106D2400860E596E990EE82EFED7592EFCD75A2E90
:106D3400FAD700F0010E046ED60E056E7F0E066EB5
:106D4400010E86EC2BF0000E0001D86F0A0ED76FEF
:106D5400D8BF19D0D85103E1D705D8A014D0180E44
:106D64008FEC2FF0070E5A6E170E596E6A0EE82E2E
:106D7400FED7592EFCD75A2EFAD700D00001D707D8
:106D8400D8A0D807E5D7010E8FEC2FF0020E5A6E6B
:106D9400860E596E990EE82EFED7592EFCD75A2E20
:106DA400FAD700F0010E046E4C0E056E7F0E066ECF
:106DB400010E86EC2BF0010E046EA70E056E7E0EFE
:106DC400066E020E86EC2BF01F0E5A6E710E596E73
:106DD4001E0EE82EFED7592EFCD75A2EFAD700D015
:106DE400010E8FEC2FF0020E5A6E860E596E990E1C
:106DF400E82EFED7592EFCD75A2EFAD700F0010EF2
:106E0400046EB70E056E7E0E066E010E86EC2BF038
:106E140030D008EC33F0410E00016419651166119D
:106E24006711D8B40ED0420E64196511661167114A
:106E3400D8B407D0430E6419651166116711D8A43C
:106E440018D064C0D9F0B40EC56F000EC66FF80E2A
:106E5400C76F7F0EC86FD9C0C9F0CA6BCFEC2AF0D8
:106E6400010E046EB40E056E000E066E020E4EEC9C
:106E74002BF02A0E00016419651166116711D8A45C
:106E8400C8D7010E8FEC2FF0020E5A6E860E596E83
:106E9400990EE82EFED7592EFCD75A2EFAD700F0B9
:106EA4002EEF3FF0000E646F000E656F000E666FEC
:106EB400000E676F000ED96F010E046E780E056E1A
:106EC4007F0E066E010E86EC2BF0010E046E870E0B
:106ED400056E7E0E066E020E86EC2BF0100E5A6EB8
:106EE400390E596E0E0EE82EFED7592EFCD75A2EA7
:106EF400FAD7010E8FEC2FF0020E5A6E860E596EE1
:106F0400990EE82EFED7592EFCD75A2EFAD700F048
:106F1400010E046EE20E056E7E0E066E010E86EC08
:106F24002BF0010E046E970E056E7E0E066E020E99
:106F340086EC2BF0100E5A6E390E596E0E0EE82E9A
:106F4400FED7592EFCD75A2EFAD7010E8FEC2FF00C
:106F5400020E5A6E860E596E990EE82EFED7592EE1
:106F6400FCD75A2EFAD700F0010E046E4C0E056EB3
:106F74007F0E066E010E86EC2BF0010E046EA70E3A
:106F8400056E7E0E066E020E86EC2BF0100E5A6E07
:106F9400390E596E0E0EE82EFED7592EFCD75A2EF6
:106FA400FAD7010E8FEC2FF0020E5A6E860E596E30
:106FB400990EE82EFED7592EFCD75A2EFAD700F098
:106FC400020E046E1A0E056E7F0E066E010E86EC1E
:106FD4002BF0010E046EED0E056E7F0E066E020E92
:106FE40086EC2BF03AD008EC33F0310E0001641932
:106FF400651166116711D8B407D0320E6419651192
:1070040066116711D8A429D064C0DCF0A30EC56F43
:10701400000EC66FF70EC76F7F0EC86FDCC0C9F0D5
:10702400CA6BCFEC2AF0050E046EA30E056E000E9B
:10703400066E020E4EEC2BF0310E0001DC19D8A4C2
:1070440004D0000EDB6F010E07D0320EDC19D8A479
:1070540004D0000EDB6F020EDA6F2A0E00016419F1
:10706400651166116711D8A4BED7000E646F000EB7
:10707400656F000E666F000E676F010E8FEC2FF0C8
:10708400020E5A6E860E596E990EE82EFED7592EB0
:10709400FCD75A2EFAD700F0010E046EE20E056EEC
:1070A4007E0E066E010E86EC2BF0010E046EA40E0D
:1070B400056E7F0E066E020E86EC2BF0100E5A6ED5
:1070C400390E596E0E0EE82EFED7592EFCD75A2EC5
:1070D400FAD7010E8FEC2FF0020E5A6E860E596EFF
:1070E400990EE82EFED7592EFCD75A2EFAD700F067
:1070F400010E046E4C0E056E7F0E066E010E86ECBC
:107104002BF0010E046EA70E056E7E0E066E020EA7
:1071140086EC2BF0100E5A6E390E596E0E0EE82EB8
:10712400FED7592EFCD75A2EFAD7010E8FEC2FF02A
:10713400020E5A6E860E596E990EE82EFED7592EFF
:10714400FCD75A2EFAD700F0EDD008EC33F0010E3C
:10715400046E410E056E7F0E066E010E86EC2BF05A
:10716400010E046EDF0E056E7F0E066E020E86ECB7
:107174002BF0000167516611651104E1300E645D66
:10718400D8A04ED06751661165114AE13A0E645D8C
:10719400D8B046D0DDC001F0DEC002F0DFC003F09D
:1071A400E0C004F00A0E056E000E066E000E076EB7
:1071B400000E086EF8EC2AF0000164510124596EA7
:1071C400655102205A6E665103205B6E675104209C
:1071D4005C6ED00E5924DD6FFF0E5A20DE6FFF0E59
:1071E4005B20DF6FFF0E5C20E06F920EC56F000E18
:1071F400C66FFB0EC76F7F0EC86FDDC0C9F0DEC05F
:10720400CAF0DFC0CBF0E0C0CCF0CFEC2AF0070E20
:10721400046E920E056E000E066E020E4EEC2BF0FE
:10722400DDC060F0DEC061F0DFC062F0E0C063F09A
:10723400000163BF77D06351621106E1290E605DDE
:10724400230E6159D8A06ED0000EDD6F000EDE6FE4
:10725400000EDF6F000EE06F000E606F000E616FB6
:10726400000E626F000E636F010E8FEC2FF0020EA2
:107274005A6E860E596E990EE82EFED7592EFCD7FB
:107284005A2EFAD700F0010E046E270E056E7F0EFB
:10729400066E010E86EC2BF0010E046EC30E056E15
:1072A4007F0E066E020E86EC2BF01F0E5A6E710EC8
:1072B400596E1E0EE82EFED7592EFCD75A2EFAD739
:1072C40000D0010E8FEC2FF0020E5A6E860E596E0E
:1072D400990EE82EFED7592EFCD75A2EFAD700F075
:1072E400010E046EC60E056E7E0E066E010E86EC51
:1072F4002BF0010E046E340E056E7F0E066E020E28
:1073040086EC2BF01F0E5A6E710E596E1E0EE82E6F
:10731400FED7592EFCD75A2EFAD700D0010E8FEC87
:107324002FF006D72A0E0001641965116611671142
:10733400D8A40BD7000E646F000E656F000E666F45
:10734400000E676F010E8FEC2FF0020E5A6E860E40
:10735400596E990EE82EFED7592EFCD75A2EFAD71D
:1073640000F0010E046EF00E056E7E0E066E010E28
:1073740086EC2BF060C00BF061C00CF062C00DF025
:1073840063C00EF0DAC00FF0DBC010F080EC2DF01B
:10739400000E806EA5D4000E646F000E656F000EA3
:1073A400666F000E676F000ED96F010E046E620ED9
:1073B400056E7F0E066E010E86EC2BF0010E046E38
:1073C400870E056E7E0E066E020E86EC2BF0100EF6
:1073D4005A6E390E596E0E0EE82EFED7592EFCD772
:1073E4005A2EFAD7010E8FEC2FF0020E5A6E860E2B
:1073F400596E990EE82EFED7592EFCD75A2EFAD77D
:1074040000F0010E046EE20E056E7E0E066E010E95
:1074140086EC2BF0010E046E970E056E7E0E066E42
:10742400020E86EC2BF0100E5A6E390E596E0E0EAB
:10743400E82EFED7592EFCD75A2EFAD7010E8FEC20
:107444002FF0020E5A6E860E596E990EE82EFED754
:10745400592EFCD75A2EFAD700F0010E046E4C0EAA
:10746400056E7F0E066E010E86EC2BF0010E046E87
:10747400A70E056E7E0E066E020E86EC2BF0100E25
:107484005A6E390E596E0E0EE82EFED7592EFCD7C1
:107494005A2EFAD7010E8FEC2FF0020E5A6E860E7A
:1074A400596E990EE82EFED7592EFCD75A2EFAD7CC
:1074B40000F0020E046E1A0E056E7F0E066E010EAB
:1074C40086EC2BF0010E046EED0E056E7F0E066E3B
:1074D400020E86EC2BF03AD008EC33F0310E0001AA
:1074E4006419651166116711D8B407D0320E641996
:1074F400651166116711D8A429D064C0DCF0A30E0D
:10750400C56F000EC66FF70EC76F7F0EC86FDCC065
:10751400C9F0CA6BCFEC2AF0050E046EA30E056EFB
:10752400000E066E020E4EEC2BF0310E0001DC193B
:10753400D8A404D0000EDB6F010E07D0320EDC1984
:10754400D8A404D0000EDB6F020EDA6F2A0E0001FD
:107554006419651166116711D8A4BED7000E646F53
:10756400000E656F000E666F000E676F010E8FECE4
:107574002FF0020E5A6E860E596E990EE82EFED723
:10758400592EFCD75A2EFAD700F0010E046EE20EE3
:10759400056E7E0E066E010E86EC2BF0010E046E57
:1075A400A40E056E7F0E066E020E86EC2BF0100EF6
:1075B4005A6E390E596E0E0EE82EFED7592EFCD790
:1075C4005A2EFAD7010E8FEC2FF0020E5A6E860E49
:1075D400596E990EE82EFED7592EFCD75A2EFAD79B
:1075E40000F0010E046E4C0E056E7F0E066E010E49
:1075F40086EC2BF0010E046EA70E056E7E0E066E51
:10760400020E86EC2BF0100E5A6E390E596E0E0EC9
:10761400E82EFED7592EFCD75A2EFAD7010E8FEC3E
:107624002FF0020E5A6E860E596E990EE82EFED772
:10763400592EFCD75A2EFAD700F0EDD008EC33F0CF
:10764400010E046E410E056E7F0E066E010E86EC71
:107654002BF0010E046EDF0E056E7F0E066E020E19
:1076640086EC2BF0000167516611651104E1300EC0
:10767400645DD8A04ED06751661165114AE13A0E97
:10768400645DD8B046D0DDC001F0DEC002F0DFC0DA
:1076940003F0E0C004F00A0E056E000E066E000E44
:1076A400076E000E086EF8EC2AF000016451012404
:1076B400596E655102205A6E665103205B6E675104
:1076C40004205C6ED00E5924DD6FFF0E5A20DE6F4D
:1076D400FF0E5B20DF6FFF0E5C20E06F920EC56F24
:1076E400000EC66FFB0EC76F7F0EC86FDDC0C9F0FA
:1076F400DEC0CAF0DFC0CBF0E0C0CCF0CFEC2AF0A3
:10770400070E046E920E056E000E066E020E4EEC0F
:107714002BF0DDC060F0DEC061F0DFC062F0E0C0DD
:1077240063F0000163BF77D06351621106E1290E53
:10773400605D230E6159D8A06ED0000EDD6F000E7F
:10774400DE6F000EDF6F000EE06F000E606F000E44
:10775400616F000E626F000E636F010E8FEC2FF0ED
:10776400020E5A6E860E596E990EE82EFED7592EC9
:10777400FCD75A2EFAD700F0010E046E270E056EC0
:107784007F0E066E010E86EC2BF0010E046EC30E06
:10779400056E7F0E066E020E86EC2BF01F0E5A6EDF
:1077A400710E596E1E0EE82EFED7592EFCD75A2E96
:1077B400FAD700D0010E8FEC2FF0020E5A6E860E0F
:1077C400596E990EE82EFED7592EFCD75A2EFAD7A9
:1077D40000F0010E046EC60E056E7E0E066E010EDE
:1077E40086EC2BF0010E046E340E056E7F0E066ED1
:1077F400020E86EC2BF01F0E5A6E710E596E1E0E81
:10780400E82EFED7592EFCD75A2EFAD700D0010EF7
:107814008FEC2FF006D72A0E00016419651166114A
:107824006711D8A40BD7000E646F000E656F000EAD
:10783400666F000E676F010E8FEC2FF0020E5A6E0A
:10784400860E596E990EE82EFED7592EFCD75A2E65
:10785400FAD700F0010E046EF00E056E7E0E066E71
:10786400010E86EC2BF060C00BF061C00CF062C01E
:107874000DF063C00EF0DAC00FF0DBC010F084EC42
:107884002EF086D5000E646F000E656F000E666FD5
:10789400000E676F000ED96F010E046E6D0E056E3B
:1078A4007F0E066E010E86EC2BF0010E046E870E21
:1078B400056E7E0E066E020E86EC2BF0100E5A6ECE
:1078C400390E596E0E0EE82EFED7592EFCD75A2EBD
:1078D400FAD7010E8FEC2FF0020E5A6E860E596EF7
:1078E400990EE82EFED7592EFCD75A2EFAD700F05F
:1078F400010E046EE20E056E7E0E066E010E86EC1F
:107904002BF0010E046E970E056E7E0E066E020EAF
:1079140086EC2BF0100E5A6E390E596E0E0EE82EB0
:10792400FED7592EFCD75A2EFAD7010E8FEC2FF022
:10793400020E5A6E860E596E990EE82EFED7592EF7
:10794400FCD75A2EFAD700F0010E046E4C0E056EC9
:107954007F0E066E010E86EC2BF0010E046EA70E50
:10796400056E7E0E066E020E86EC2BF0100E5A6E1D
:10797400390E596E0E0EE82EFED7592EFCD75A2E0C
:10798400FAD7010E8FEC2FF0020E5A6E860E596E46
:10799400990EE82EFED7592EFCD75A2EFAD700F0AE
:1079A400020E046E1A0E056E7F0E066E010E86EC34
:1079B4002BF0010E046EED0E056E7F0E066E020EA8
:1079C40086EC2BF03AD008EC33F0310E0001641948
:1079D400651166116711D8B407D0320E64196511A8
:1079E40066116711D8A429D064C0DCF0A30EC56F5A
:1079F400000EC66FF70EC76F7F0EC86FDCC0C9F0EC
:107A0400CA6BCFEC2AF0050E046EA30E056E000EB1
:107A1400066E020E4EEC2BF0310E0001DC19D8A4D8
:107A240004D0000EDB6F010E07D0320EDC19D8A48F
:107A340004D0000EDB6F020EDA6F2A0E0001641907
:107A4400651166116711D8A4BED7000E646F000ECD
:107A5400656F000E666F000E676F010E8FEC2FF0DE
:107A6400020E5A6E860E596E990EE82EFED7592EC6
:107A7400FCD75A2EFAD700F0010E046EE20E056E02
:107A84007E0E066E010E86EC2BF0010E046EA40E23
:107A9400056E7F0E066E020E86EC2BF0100E5A6EEB
:107AA400390E596E0E0EE82EFED7592EFCD75A2EDB
:107AB400FAD7010E8FEC2FF0020E5A6E860E596E15
:107AC400990EE82EFED7592EFCD75A2EFAD700F07D
:107AD400010E046E4C0E056E7F0E066E010E86ECD2
:107AE4002BF0010E046EA70E056E7E0E066E020EBE
:107AF40086EC2BF0100E5A6E390E596E0E0EE82ECF
:107B0400FED7592EFCD75A2EFAD7010E8FEC2FF040
:107B1400020E5A6E860E596E990EE82EFED7592E15
:107B2400FCD75A2EFAD700F0EDD008EC33F0010E52
:107B3400046E410E056E7F0E066E010E86EC2BF070
:107B4400010E046EDF0E056E7F0E066E020E86ECCD
:107B54002BF0000167516611651104E1300E645D7C
:107B6400D8A04ED06751661165114AE13A0E645DA2
:107B7400D8B046D0DDC001F0DEC002F0DFC003F0B3
:107B8400E0C004F00A0E056E000E066E000E076ECD
:107B9400000E086EF8EC2AF0000164510124596EBD
:107BA400655102205A6E665103205B6E67510420B2
:107BB4005C6ED00E5924DD6FFF0E5A20DE6FFF0E6F
:107BC4005B20DF6FFF0E5C20E06F920EC56F000E2E
:107BD400C66FFB0EC76F7F0EC86FDDC0C9F0DEC075
:107BE400CAF0DFC0CBF0E0C0CCF0CFEC2AF0070E37
:107BF400046E920E056E000E066E020E4EEC2BF015
:107C0400DDC060F0DEC061F0DFC062F0E0C063F0B0
:107C1400000163BF77D06351621106E1290E605DF4
:107C2400230E6159D8A06ED0000EDD6F000EDE6FFA
:107C3400000EDF6F000EE06F000E606F000E616FCC
:107C4400000E626F000E636F010E8FEC2FF0020EB8
:107C54005A6E860E596E990EE82EFED7592EFCD711
:107C64005A2EFAD700F0010E046E270E056E7F0E11
:107C7400066E010E86EC2BF0010E046EC30E056E2B
:107C84007F0E066E020E86EC2BF01F0E5A6E710EDE
:107C9400596E1E0EE82EFED7592EFCD75A2EFAD74F
:107CA40000D0010E8FEC2FF0020E5A6E860E596E24
:107CB400990EE82EFED7592EFCD75A2EFAD700F08B
:107CC400010E046EC60E056E7E0E066E010E86EC67
:107CD4002BF0010E046E340E056E7F0E066E020E3E
:107CE40086EC2BF01F0E5A6E710E596E1E0EE82E86
:107CF400FED7592EFCD75A2EFAD700D0010E8FEC9E
:107D04002FF006D72A0E0001641965116611671158
:107D1400D8A40BD7000E646F000E656F000E666F5B
:107D2400000E676F010E8FEC2FF0020E5A6E860E56
:107D3400596E990EE82EFED7592EFCD75A2EFAD733
:107D440000F0010E046EF00E056E7E0E066E010E3E
:107D540086EC2BF060C00BF061C00CF062C00DF03B
:107D640063C00EF0DAC00FF0DBC010F002EC2EF0AE
:107D7400CAEF39F0000E646F000E656F000E666F77
:107D8400000E676F010E8FEC2FF0020E5A6E860EF6
:107D9400596E990EE82EFED7592EFCD75A2EFAD7D3
:107DA40000F0010E046EF20E056E7F0E066E010EDB
:107DB40086EC2BF0010E046E570E056E7F0E066ED8
:107DC400020E86EC2BF0100E5A6E390E596E0E0E02
:107DD400E82EFED7592EFCD75A2EFAD7010E8FEC77
:107DE4002FF0020E5A6E860E596E990EE82EFED7AB
:107DF400592EFCD75A2EFAD700F0010E046ED40E79
:107E0400056E7E0E066E010E86EC2BF0010E046EDE
:107E1400B90E056E7F0E066E020E86EC2BF01F0E59
:107E24005A6E710E596E1E0EE82EFED7592EFCD7CF
:107E34005A2EFAD700D0010E8FEC2FF0020E5A6E94
:107E4400860E596E990EE82EFED7592EFCD75A2E5F
:107E5400FAD700F072EF36F00001D951596E5A6A20
:107E64005A50000AD8A486D75950410AD8B454EFBE
:107E740037F0030AD8B4CDEF39F0010AD8B402D5EB
:107E840079D7002A2A2A2A2A2A2A2A2A2A2A2A2A7C
:107E94002A2A0073656E7469646F206465206769BB
:107EA400726F006375616E646F207465726D696EC4
:107EB400657300413A465320423A575320433A48A7
:107EC4005300496E74656E74616C6F2064652000A4
:107ED40053656C656363696F6E6120646500536507
:107EE4006C656363696F6E6120656C004D6F746FC0
:107EF4007220476972616E646F004D6F746F7220F7
:107F040061207061736F73004573206C6F2071750D
:107F1400652068617900313A4445522020323A495B
:107F24005A510056616C6F72206D6178696D6F00F3
:107F34006E7565766F2068756D616E6F004E756D38
:107F440065726F206465200050726573696F6E619D
:107F5400202A00494E434F52524543544F00574143
:107F640056452053544550530048414C46205354E1
:107F74004550530046554C4C2053544550530069CA
:107F84006E636F72726563746100436F6E74726FB7
:107F94006C206465004269656E76656E69646F0085
:107FA4004E206465207061736F730048756D616E57
:107FB4006F203A33006E7565766F20582C5000613F
:107FC4006C63616E7A61646F00556E69706F6C6189
:107FD40072004F7063696F6E6573005061736F73E5
:107FE4003A004F7063696F6E004F50543A00444139
:0C7FF400544F002025630020256400008D
:020000040020DA
:08000000FFFFFFFFFFFFFFFF00
:020000040030CA
:0E000000000C181EFF8481FF0FC00FE00F40A0
:00000001FF
