:020000040000FA
:04000000E8EF3EF0F7
:107DB9006D065B7E7F79065F5F4F151577153E4F20
:107DC9000E406070787C7EB90EF66E7D0EF76E00FF
:107DD9000EF86E00EE01F010EE17F00900F5CFEE87
:107DE900FFE550E150FAE1000EF86E0001FDEF3EAB
:107DF900F0000E956E938093829384000E1B6E00A3
:107E09000E1A6E819081928194000E836E81A081F9
:107E1900A206D081A404D0000E1B6E010E1A6E8139
:107E2900B081B206D081A404D0000E1B6E020E1AD6
:107E39006E81B081A2CDD081B4CBD0000E1B6E0370
:107E49000E1A6EC6D0000E1D6E000E1C6E000E1F9F
:107E59006E000E1E6E0A0E1E24D96E000E1F20DA49
:107E69006EDF50836E0B0E196E260E186E5E0EE8CD
:107E79002EFED7182EFCD7192EFAD781B081B2065B
:107E8900D081A404D0000E1B6E020E08D081B081EF
:107E9900A20BD081B409D0000E1B6E030E1A6E001E
:107EA9000E1D6E010E1C6E0AD01E4A1F2A1FBED25D
:107EB900D71F5004E1080E1E5CD8A0CCD71C041DA6
:107EC90010D8B4A4D7C3D7000E1D6E000E1C6E00C7
:107ED9000E1B6E000E1A6E000E1F6E000E1E6E0136
:107EE9000E1E24D96E000E1F20DA6EDF50836E0B32
:107EF9000E196E260E186E5E0EE82EFED7182EFC91
:107F0900D7192EFAD781A081A206D081A404D00066
:107F19000E1B6E010E08D081B081A20BD081B4096D
:107F2900D0000E1B6E030E1A6E000E1D6E010E1C84
:107F39006E0AD01E4A1F2A1FBED2D71F5004E1095C
:107F49000E1E5CD8A0CCD71C041D10D8A4C0D70025
:107F59000E1D6E000E1C6E000E1F6E000E1E6E12A0
:107F69000E1E24D96E000E1F20DA6EDF50836E06B6
:107F79000E196E130E186EAE0EE82EFED7182EFCD3
:107F8900D7192EFAD781A081A206D081A404D000E6
:107F99000E1B6E010E08D081B081B20BD081A409ED
:107FA900D0000E1B6E020E1A6E000E1D6E010E1C05
:107FB9006E0AD01E4A1F2A1FBED2D71F5004E106DF
:107FC9000E1E5CD8A0CCD71C041D10D8B41FD7C373
:107FD900D71AC018F01BC019F01950000AD8A416F6
:107FE900D71850010AD8B42ED7030AD8B46CD701D0
:077FF9000AD8B4ADD70BD785
:020000040020DA
:08000000FFFFFFFFFFFFFFFF00
:020000040030CA
:0E000000000C181EFF8481FF0FC00FE00F40A0
:00000001FF
