:020000040000FA
:0400000007EF00F016
:0A0008005282B2ED12F0DFEF19F0A2
:100800000054656D70657261747572613A00252ED1
:10081000336600494E46004E414E00696E66006EDA
:07082000616E006C66000030
:10082800000E0001976F000E966F72C0A8F073C09B
:10083800A9F074C0AAF075C0ABF0ABAF16D0000E2B
:10084800976F010E966FA8C00EF0A9C00FF0AAC04E
:1008580010F0ABC011F028EC1AF00EC0A8F00FC0D1
:10086800A9F010C0AAF011C0ABF0000E0001AF6FE4
:10087800000EAE6F4AC09BF04BC09CF0965197118A
:10088800D8A402D04EA413D096519711D8A404D05E
:10089800000E816F2B0E03D0000E816F2D0E806F1E
:1008A80080C082F1AE4BAF2B9B07D8A09C07A8C095
:1008B8000EF0A9C00FF0AAC010F0ABC011F0BFEC49
:1008C80015F00E040F10D8A44CD0BF0E0001776F9E
:1008D800FF0E786F7651796F7A6B77517927785157
:1008E8007A237A5106E11A0E795DD8B002D0010E4A
:1008F80001D0000E826F836B82518311D8B40DD062
:10090800820EAE250E6E010EAF210F6E130E106E05
:10091800080E116E32EC19F00CD0820EAE250E6E58
:10092800010EAF210F6E1B0E106E080E116E32EC09
:1009380019F00001FD0E9B27FF0E9C2370C01EF0CE
:1009480071C01FF0820E206E010E216E9BC022F036
:100958009CC023F023EC17F01EC070F01FC071F08C
:100968001200A8C00EF0A9C00FF0AAC010F0ABC0CA
:1009780011F0BFEC15F00E500F10D8A435D0BF0EF3
:100988000001776FFF0E786F7651796F7A6B775128
:10099800792778517A237A5106E11A0E795DD8B011
:1009A80002D0010E01D0000E846F856B8451851131
:1009B800D8B40DD0820EAE250E6E010EAF210F6E8B
:1009C800170E106E080E116E32EC19F0B2D7820EA7
:1009D800AE250E6E010EAF210F6E1F0E106E080EA3
:1009E800116E32EC19F0A5D7000E0001B06F000EA1
:1009F800B16F800EB26F3F0EB36F000EAD6F000E79
:100A0800AC6FA8C00EF0A9C00FF0AAC010F0ABC020
:100A180011F0000E126E000E136E000E146E000E12
:100A2800156E6EEC17F0D8A01ED076D0B0C00EF0C0
:100A3800B1C00FF0B2C010F0B3C011F0000E126ECA
:100A4800000E136E200E146E410E156EABEC0AF0FC
:100A58000EC0B0F00FC0B1F010C0B2F011C0B3F0CA
:100A68000001AC4BAD2BA8C027F0A9C028F0AAC044
:100A780029F0ABC02AF0000E126E000E136E200E85
:100A8800146E410E156EB0C00EF0B1C00FF0B2C0BA
:100A980010F0B3C011F0ABEC0AF00EC02BF00FC091
:100AA8002CF010C02DF011C02EF0EFEC14F0D8A0EF
:100AB8001FD0BCD7B0C027F0B1C028F0B2C029F011
:100AC800B3C02AF0000E2B6E000E2C6E200E2D6E79
:100AD800410E2E6EDAEC0DF027C0B0F028C0B1F050
:100AE80029C0B2F02AC0B3F00001AC07D8A0AD0706
:100AF800A8C027F0A9C028F0AAC029F0ABC02AF0E6
:100B0800B0C02BF0B1C02CF0B2C02DF0B3C02EF0A5
:100B1800EFEC14F0D8A0CED776C014F0156A5BECD1
:100B280019F0145000019D6F9DC09AF0670E9D1931
:100B3800D8A419D04C504D10D8A404D0000E4D6E36
:100B4800010E4C6E4DBE05D04D5008E14C04D8B096
:100B580005D0000E996F060E986F08D04CC098F01B
:100B68004DC099F003D04DAEF9D7F3D7670E9D1954
:100B7800D8A422D0ADAF06D0FC0EAC5DFF0EAD59A7
:100B8800D8A018D0FF0E776FFF0E786F98C079F055
:100B980099C07AF07751792778517A23AC51795DE9
:100BA8007A51800A7B6FAD51800A7B59D8A002D058
:100BB800660E01D0650E9A6F98C090F099C091F0BA
:100BC800670E9D19D8A405D0660E9A19D8B4ADAF92
:100BD80002D0904B912B660E9A19D8A416D0ADAFBF
:100BE8000CD0000EB06F000EB16F800EB26F3F0ECA
:100BF800B36F000EAD6F000EAC6F670E9D19D8B4C1
:100C080004D0AC519027AD519123000EA76F000E70
:100C1800A66FA8C09EF0A9C09FF0AAC0A0F0ABC064
:100C2800A1F0B0C07CF0B1C07DF0B2C07EF0B3C01E
:100C38007FF07BD09EC027F09FC028F0A0C029F08D
:100C4800A1C02AF0B0C02BF0B1C02CF0B2C02DF07A
:100C5800B3C02EF0DAEC0DF027C040F028C041F008
:100C680029C042F02AC043F01EEC0FF040C0A2F0A9
:100C780041C0A3F042C0A4F043C0A5F0A2C00EF04A
:100C8800A3C00FF0A4C010F0A5C011F025EC16F019
:100C98000EC094F00FC095F09EC027F09FC028F0BA
:100CA800A0C029F0A1C02AF0B0C012F0B1C013F062
:100CB800B2C014F0B3C015F0A2C00EF0A3C00FF07C
:100CC800A4C010F0A5C011F0ABEC0AF00EC02BF0D8
:100CD8000FC02CF010C02DF011C02EF081EC19F0CF
:100CE80027C09EF028C09FF029C0A0F02AC0A1F01C
:100CF800B0C027F0B1C028F0B2C029F0B3C02AF0C4
:100D0800000E2B6E000E2C6E200E2D6E410E2E6ED8
:100D1800DAEC0DF027C0B0F028C0B1F029C0B2F06D
:100D28002AC0B3F00001A64BA72B9051A65DA7518E
:100D3800800A776F9151800A7759D8A07BD7B0C0C5
:100D48000EF0B1C00FF0B2C010F0B3C011F0000E39
:100D5800126E000E136EA00E146E400E156EABECE4
:100D68000AF00EC0A2F00FC0A3F010C0A4F011C08A
:100D7800A5F09EC027F09FC028F0A0C029F0A1C010
:100D88002AF0A2C02BF0A3C02CF0A4C02DF0A5C05F
:100D98002EF0EFEC14F0D8B003D0000E000118D0FC
:100DA8009EC00EF09FC00FF0A0C010F0A1C011F0BF
:100DB800A2C012F0A3C013F0A4C014F0A5C015F08F
:100DC8006EEC17F0D8A00BD0000194B108D0000E3B
:100DD800A26F000EA36F000EA46F000EA56FA8C02F
:100DE8000EF0A9C00FF0AAC010F0ABC011F0A2C05D
:100DF80012F0A3C013F0A4C014F0A5C015F054EC71
:100E08000CF00EC09EF00FC09FF010C0A0F011C0F3
:100E1800A1F07CC0B0F07DC0B1F07EC0B2F07FC060
:100E2800B3F0650E00019A19D8B405D0ACC092F0A1
:100E3800ADC093F004D0000E936F000E926F000EB9
:100E48008F6F000E8E6F000E8D6F000E8C6F000E70
:100E5800A76F000EA66FC7D09EC027F09FC028F0CE
:100E6800A0C029F0A1C02AF0B0C02BF0B1C02CF06E
:100E7800B2C02DF0B3C02EF0DAEC0DF027C040F070
:100E880028C041F029C042F02AC043F01EEC0FF000
:100E980040C0A2F041C0A3F042C0A4F043C0A5F0F6
:100EA800A2C00EF0A3C00FF0A4C010F0A5C011F0AE
:100EB80025EC16F00EC094F00FC095F04EB80DD08A
:100EC800000194519511D8A408D0670E9D19D8B483
:100ED80093AF03D08C4B8D2B3AD000018E518F11DC
:100EE800D8B493AF22D0820EAE25D96E010EAF21B1
:100EF800DA6E2E0EDF6EAE4BAF2B9B07D8A09C0789
:100F0800000E8F6F010E8E6F10D0820EAE25D96E37
:100F1800010EAF21DA6E300EDF6EAE4BAF2B9B07A2
:100F2800D8A09C078C07D8A08D078C518D11D8A408
:100F3800ECD7820EAE25D96E010EAF21DA6E945130
:100F4800300FDF6EAE4BAF2B9B07D8A09C079EC01F
:100F580027F09FC028F0A0C029F0A1C02AF0B0C097
:100F680012F0B1C013F0B2C014F0B3C015F0A2C0B3
:100F78000EF0A3C00FF0A4C010F0A5C011F0ABECA8
:100F88000AF00EC02BF00FC02CF010C02DF011C0CD
:100F98002EF081EC19F027C09EF028C09FF029C0E0
:100FA800A0F02AC0A1F0B0C027F0B1C028F0B2C0AC
:100FB80029F0B3C02AF0000E2B6E000E2C6E200E06
:100FC8002D6E410E2E6EDAEC0DF027C0B0F028C061
:100FD800B1F029C0B2F02AC0B3F000019207D8A03E
:100FE8009307A64BA72B9051A65DA751800A776F50
:100FF8009151800A7759D8B008D0AFBF2DD7AF51DB
:1010080004E14B0EAE5DD8A027D78E518F11D8B40E
:101018004EA80AD0820EAE25D96E010EAF21DA6E27
:101028002E0EDF6EAE4BAF2B820EAE25D96E010EA3
:10103800AF21DA6E000EDF6E650E9A19D8A47ED441
:10104800000EA76F4F0EA66F820EA625D96E010E51
:10105800A721DA6E000EDF6E000E976F000E966FF6
:10106800ADAF08D0000E976F010E966FAC6DAD1F37
:10107800D8B0AD2B000E996F020E986F2BD0A60733
:10108800D8A0A707820EA625D96E010EA721DA6E71
:10109800ACC00EF0ADC00FF0000E116E0A0E106E4F
:1010A8006AEC18F00E50300FDF6EACC00EF0ADC019
:1010B8000FF0000E116E0A0E106EB3EC17F00EC092
:1010C800ACF00FC0ADF000019807D8A099079B07B6
:1010D800D8A09C07AC51AD11D8A4D1D799BF05D0E1
:1010E8009951CDE19805D8B0CAD7A607D8A0A707C7
:1010F80096519711D8A404D0000E876F2B0E03D0F9
:10110800000E876F2D0E866F820EA625D96E010EF2
:10111800A721DA6E86C0DFFF9B07D8A09C07A60729
:10112800D8A0A707BF0E776FFF0E786F7651796F3B
:101138007A6B7751792778517A237A5106E11A0E1A
:10114800795DD8B002D0010E01D0000E8A6F8B6B8A
:101158008A518B11D8A404D0000E896F650E03D074
:10116800000E896F450E886F820EA625D96E010E76
:10117800A721DA6E88C0DFFF9B07D8A09C07820EE4
:10118800AE250E6E010EAF210F6E820EA625106ED3
:10119800010EA721116E32EC19F0A2EF04F0B6C0CF
:1011A800D9FFB7C0DAFFDECFF6FFDDCFF7FF0800C3
:1011B800F550250AD8A4B1D1B6C0D9FFB7C0DAFF17
:1011C800DE2A000EDD22000E4B6E000E4A6E4AC06B
:1011D8004EF04BC04FF04C684D68B6C0D9FFB7C051
:1011E800DAFFDECFF6FFDDCFF7FF0800F5502E0A55
:1011F800D8A46ED0000E4D6E000E4C6EB6C0D9FF4E
:10120800B7C0DAFFDE2A000EDD22B6C0D9FFB7C0AC
:10121800DAFFDECFF6FFDDCFF7FF0800F5502A0A28
:10122800D8A41CD0B6C0D9FFB7C0DAFFDE2A000E9A
:10123800DD22B8C0D9FFB9C0DAFFDFCFBAF0020E9D
:10124800DE26DFCFBBF0000EDD22BAC0D9FFBBC05F
:10125800DAFFDECF4CF0DDCF4DF03AD0B6C0D9FF83
:10126800B7C0DAFFDECF15F0DDCF16F072EC11F063
:1012780015C04CF016C04DF007D0B6C0D9FFB7C0A6
:10128800DAFFDE2A000EDD22D00E0001BA6FFF0E53
:10129800BB6FB6C0D9FFB7C0DAFFDECFF6FFDDCF30
:1012A800F7FF0800F550BC6FBD6BBA51BC27BB51A6
:1012B800BD23BD5106E10A0EBC5DD8B002D0010EB7
:1012C80001D0000EBE6FBF6BBE51BF11D8A4D5D7D9
:1012D800B6C0D9FFB7C0DAFFDECFF6FFDDCFF7FF24
:1012E8000800F550146E156A5BEC19F014500001F3
:1012F800C66FC651D8B435D0B6C0D9FFB7C0DAFF6B
:10130800DECFBAF0DDCFBBF0010EBA27000EBB234B
:10131800BAC0F6FFBBC0F7FF0800F550146E156A97
:101328005BEC19F014500001C76FC751D8B419D03D
:10133800B6C0D9FFB7C0DAFFDECFBAF0DDCFBBF059
:10134800020EBA27000EBB23BAC0F6FFBBC0F7FFD8
:101358000800F550146E156A5BEC19F01450000182
:10136800C86F660EC619D8A43FD0B6C0D9FFB7C09B
:10137800DAFFDECFF6FFDDCFF7FF0800F5CFC9F0C3
:10138800B6C0D9FFB7C0DAFFDE2A000EDD22B8C02A
:10139800D9FFB9C0DAFFDFCFBAF0040EDE26DFCFFF
:1013A800BBF0000EDD22BAC0D9FFBBC0DAFFDECF2A
:1013B800C2F0DECFC3F0DECFC4F0DECFC5F0B4C0DC
:1013C80070F0B5C071F0C2C072F0C3C073F0C4C091
:1013D80074F0C5C075F0C9C076F014EC04F070C0A4
:1013E800B4F071C0B5F01200C60E0E6E000E0F6E8E
:1013F800230E106E080E116E000E136E020E126E82
:1014080082EC16F00E500F10D8A456D0B6C0D9FFF3
:10141800B7C0DAFFDECFBAF0DDCFBBF0010E0001B6
:10142800BA27000EBB23BAC0F6FFBBC0F7FF0800FF
:10143800F5CFC9F0BF0EBA6FFF0EBB6FB6C0D9FFAC
:10144800B7C0DAFFDECFF6FFDDCFF7FF0800F550B3
:10145800BC6FBD6BBA51BC27BB51BD23BD5106E162
:101468001A0EBC5DD8B002D0010E01D0000EC06FBC
:10147800C16BC051C111B8C0D9FFB9C0DAFFDFCF05
:10148800BAF0040EDE26DFCFBBF0000EDD22BAC0B4
:10149800D9FFBBC0DAFFDECFC2F0DECFC3F0DECFAC
:1014A800C4F0DECFC5F0020EB6C0D9FFB7C0DAFF70
:1014B800DE26000EDD2283D7B6C0D9FFB7C0DAFF1B
:1014C800DECFF6FFDDCFF7FF0800F550250AD8A4D8
:1014D80017D0B6C0D9FFB7C0DAFFDE2A000EDD226A
:1014E800000E0F6E250E0E6EB4C010F0B5C011F0D0
:1014F800D3EC16F0000E0001B56F010EB46F1200A8
:10150800B6C0D9FFB7C0DAFFDE2A000EDD22000E12
:101518000001B56F000EB46F1200B6C0D9FFB7C096
:10152800DAFFDECFF6FFDDCFF7FF0800F5500E6ECD
:101538000F6AB4C010F0B5C011F0D3EC16F0B6C005
:10154800D9FFB7C0DAFFDE2A000EDD22D3D711504B
:10155800800B1A6E11501124206E10BE208020506E
:10156800D8B40DD02028D8A408D0000E0E6E000ED6
:101578000F6E000E106E000E116E108E08D0000E49
:101588000E6E000E0F6E000E106E000E116E1550CE
:10159800800B1A1A155015241B6E14BE1B801B5085
:1015A800D8B40DD01B28D8A408D0000E126E000E97
:1015B800136E000E146E000E156E148E08D0000EF9
:1015C800126E000E136E000E146E000E156E1B5078
:1015D800D8B403D02050D8A409D0000E0E6E000E47
:1015E8000F6E000E106E000E116E120014500E02D7
:1015F800F3CF25F0F4CF26F025501C6E1D6A1E6A25
:101608001F6A2650216E226A236A246A13500F0229
:10161800F3CF25F0F4CF26F025501C26000E1D220E
:101628001E221F2226502126000E22222322242297
:1016380012501002F3CF25F0F4CF26F025501C26C7
:10164800000E1D221E221F2226502126000E2222B5
:10165800232224221EC01FF01DC01EF01CC01DF036
:101668001C6A12500F02F3CF25F0F4CF26F0255054
:101678001C2626501D22000E1E22000E1F2213506B
:101688000E02F3CF25F0F4CF26F025501C26265065
:101698001D22000E1E22000E1F221EC01FF01DC09C
:1016A8001EF01CC01DF01C6A12500E02F3CF25F06C
:1016B800F4CF26F025501C2626501D22000E1E228F
:1016C800000E1F2214500F02F3CF25F0F4CF26F09E
:1016D8002550212626502222000E2322000E2422E5
:1016E80013501002F3CF25F0F4CF26F02550212611
:1016F80026502222000E2322000E2422145010020B
:10170800F3CF25F0F4CF26F02550166E2650176E2D
:10171800186A196A18C019F017C018F016C017F01F
:10172800166A1650212617502222185023221950C3
:1017380024221CC016F01DC017F01EC018F01FC0D0
:1017480019F0190E05D0D8901932183217321632FE
:10175800E82EF9D716502126175022221850232296
:10176800195024221EC01FF01DC01EF01CC01DF001
:101778001C6A1B5020C016F0176A1626000E172286
:10178800820E1624256EFF0E1720266E0FD0D890D5
:1017980021362236233624361FBE2180D8901C36A7
:1017A8001D361E361F362506D8A0260623AEEFD7CF
:1017B800000E1B6E1FAE17D0FF0E1C14166EFF0E08
:1017C8001D14176EFF0E1E14186E7F0E1F14196E4F
:1017D8001650171018101910D8B403D0010E1B6E2C
:1017E80002D021B0FBD71B50D8B41FD0010E212640
:1017F800000E22222322242224A017D021C016F072
:1018080022C017F023C018F024C019F01934193277
:1018180018321732163216C021F017C022F018C03D
:1018280023F019C024F0254A262A26BE0DD02650BA
:1018380003E12528D8A008D0000E216E000E226EE4
:10184800800E236E7F0E20D026BE05D026500EE1D6
:101858002504D8B00BD0000E216E000E226E000EAB
:10186800236E000E246E000E1A6E0FD025C020F0D5
:10187800FF0E2116FF0E22167F0E2316000E2416C9
:1018880020B0238ED8902030246E1A50241221C004
:101898000EF022C00FF023C010F024C011F0120087
:1018A8001150800B1A6E115011241C6E10BE1C8032
:1018B8001C50D8B40DD01C28D8A408D0000E0E6E29
:1018C800000E0F6E000E106E000E116E108E06D0F8
:1018D800000E0E6E000E0F6E000E106E000E116ED2
:1018E8001550800B1B6E1A501B18D8A41A8C155053
:1018F80015241B6E14BE1B801B50D8B40DD01B289A
:10190800D8A408D0000E126E000E136E000E146ECE
:10191800000E156E148E06D0000E126E000E136E99
:10192800000E146E000E156E1C501B5CD8B022D031
:101938001AAC02D0800E1A1A1CC01DF01BC01CF075
:101948001DC01BF00EC01DF012C00EF01DC012F01D
:101958000FC01DF013C00FF01DC013F010C01DF014
:1019680014C010F01DC014F011C01DF015C011F006
:101978001DC015F0000E1D6E1C501BC016F0176A16
:10198800165E000E175A17BE2CD0175004E11A0E17
:10199800165CD8A026D00E500F1010101110D8B415
:1019A80002D0010E01D0000E1D6E000E0E6E000E4C
:1019B8000F6E000E106E000E116E1BC01CF015D0BD
:1019C8001DA005D0D8901D3001091D6E02D0D890F9
:1019D8001D320EB01D8E1134113210320F320E32FC
:1019E8001C2A1B501C5CD8A0EBD71ABC28D01C5052
:1019F800D8A409D0000E0E6E000E0F6E000E106EE9
:101A0800000E116E120012500E2613500F221450A1
:101A180010221550112211A071D01DA005D0D89008
:101A28001D3001091D6E02D0D8901D320EB01D8EDA
:101A38001134113210320F320E321C2A5FD012507C
:101A48000E5C13500F58145010581150800A166E1F
:101A58001550800A1658D8B025D00E50125C166E54
:101A68000F501358176E10501458186E11501558FF
:101A7800196EFF0E16240E6EFF0E17200F6EFF0E46
:101A88001820106EFF0E1920116E800E1A1A1D6C88
:101A98001D50D8A40FD0010E0E26000E0F221022C2
:101AA800112208D012500E5E13500F5A1450105ABB
:101AB8001550115A0E500F1010101110D8A41CD028
:101AC8001D50D8A419D0000E0E6E000E0F6E000E19
:101AD800106E000E116E1200D8900E360F361036AA
:101AE80011361DBE0E801DA002D0D88001D0D8901E
:101AF8001D361C50D8A41C0610AEEED7000E1B6E67
:101B08001DAE0BD01DC016F07F0E1616D8B403D02C
:101B1800010E1B6E02D00EB0FBD71B50D8B420D0DC
:101B2800010E0E26000E0F221022112211A018D02D
:101B38000EC016F00FC017F010C018F011C019F041
:101B48001934193218321732163216C00EF017C06F
:101B58000FF018C010F019C011F01C28D8A41C2AC6
:101B68001C28D8B403D01C50D8A40DD0000E0E6E7B
:101B7800000E0F6E000E106E000E116E1C50D8A4D1
:101B880002D0000E1A6E1CA002D0108E01D0109E3A
:101B9800D8901C30116E1ABE118E0EC00EF00FC0F8
:101BA8000FF010C010F011C011F012002A50800B75
:101BB800376E2A502A243E6E29BE3E803E50D8B445
:101BC8000DD03E28D8A408D0000E276E000E286E2F
:101BD800000E296E000E2A6E298E06D0000E276E82
:101BE800000E286E000E296E000E2A6E2E50800BF5
:101BF800371A2E502E243F6E2DBE3F803F50D8B44A
:101C08000DD03F28D8A408D0000E2B6E000E2C6EE5
:101C1800000E2D6E000E2E6E2D8E06D0000E2B6E31
:101C2800000E2C6E000E2D6E000E2E6E2B502C10FA
:101C38002D102E10D8A417D0000E276E000E286E77
:101C4800000E296E000E2A6E800E29127F0E2A12AF
:101C580037502A1227C027F028C028F029C029F0B9
:101C68002AC02AF012003E50D8A409D0000E276ED0
:101C7800000E286E000E296E000E2A6E12003F50CC
:101C88003EC02FF0306A2F5E000E305A7F0E2F2490
:101C9800386E000E3020396E27C033F028C034F07B
:101CA80029C035F02AC036F0000E276E000E286EC7
:101CB800000E296E000E2A6E000E3A6E000E3B6E64
:101CC800000E3C6E000E3D6E000E3F6E28D03F5059
:101CD800D8B411D0D8903336343635363636D89015
:101CE8002736283629362A363DBE2780D8903A36F8
:101CF8003B363C363D362B50335C2C5034582D50F7
:101D080035582E503658D8A009D03D8C2B50335E0C
:101D18002C50345A2D50355A2E50365A3F2A190E07
:101D28003F64D5D73350341035103610D8B411D09D
:101D38003A800FD0D8902736283629362A363DBE25
:101D48002780D8903A363B363C363D363806D8A000
:101D5800390629AEEFD7000E3F6E3DAE17D0FF0E05
:101D68003A142F6EFF0E3B14306EFF0E3C14316E8A
:101D78007F0E3D14326E2F50301031103210D8B40F
:101D880003D0010E3F6E02D027B0FBD73F50D8B426
:101D98001FD0010E2726000E282229222A222AA037
:101DA80017D027C02FF028C030F029C031F02AC042
:101DB80032F032343232313230322F322FC027F003
:101DC80030C028F031C029F032C02AF0384A392A08
:101DD80039BE10D0395003E13828D8A00BD0000EF6
:101DE800396E3868000E276E000E286E000E296EB8
:101DF800000E2A6E39BE05D0395011E13804D8B02A
:101E08000ED0000E396E000E386E000E276E000ED2
:101E1800286E000E296E000E2A6E000E376E38C02E
:101E28003EF03EA002D0298E01D0299ED8903E30A7
:101E38002A6E0ED7DAC06CF0DBC06DF0DCC06EF035
:101E4800DDC06FF040C06CF041C06DF042C06EF074
:101E580043C06FF0810E0001606FFF0E616F6CC0B0
:101E680062F06DC063F06EC064F06FC065F0180E6C
:101E780005D0D8906533643363336233E82EF9D7DD
:101E8800625160256A6F000E61216B6F6BBF0FD0C6
:101E98006B5104E1170E6A5DD8A009D040C040F02C
:101EA80041C041F042C042F043C043F012006BBF52
:101EB8005FD06AC060F0FF0E616FFF0E626F7F0E29
:101EC800636F000E646F606701D007D064356433B8
:101ED800633362336133602FF6D761C066F062C046
:101EE80067F063C068F064C069F0000166516C1562
:101EF800606F67516D15616F68516E15626F69513A
:101F08006F15636F6051611162116311D8B4C6D740
:101F18006CC060F06DC061F06EC062F06FC063F0BD
:101F2800200E05D0D8906333623361336033E82ED6
:101F3800F9D76051611162116311D8B408D06651A4
:101F48006C2767516D2368516E2369516F23661D95
:101F5800606F671D616F681D626F691D636F6051F7
:101F68006C1761516D1762516E1763516F1736D038
:101F78006CC060F06DC061F06EC062F06FC063F05D
:101F8800200E05D0D8906333623361336033E82E76
:101F9800F9D76051611162116311D8A408D0000EFD
:101FA8006C6F000E6D6F000E6E6F000E16D0D8901D
:101FB8006C35606F6D35616F6E35626F6F35636F4D
:101FC8006051611162116311D8B408D0000E6C6FB2
:101FD800000E6D6F800E6E6FBF0E6F6F6CC040F09D
:101FE8006DC041F06EC042F06FC043F012009380A4
:101FF80066EC14F0010ED7EC13F00C0ED7EC13F0CE
:10200800020E0001D96F860ED86F990EE82EFED702
:10201800D82FFCD7D92FFAD7000E8C6E819067EC99
:102028001AF0000E0F6E020E0E6E30EC18F094903F
:1020380094928B908B92000E0001DE6F000EDF6F82
:10204800000EE06F000EE16F000E0001E96F000E58
:10205800E86FE8C040F0E9C041F0C9EC10F0000EAC
:102068000001D86F010ED96FD890E835D96EE935DF
:10207800DA6ED890D936DA36D851D926D951DA223B
:1020880040C0DEFF41C0DEFF42C0DEFF43C0DEFFCE
:10209800000ED86F010ED96FD890E835D96EE935A2
:1020A800DA6ED890D936DA36D851D926D951DA220B
:1020B800DECF0EF0DECF0FF0DECF10F0DECF11F066
:1020C800DEC012F0DFC013F0E0C014F0E1C015F07C
:1020D80054EC0CF00EC0DEF00FC0DFF010C0E0F0E2
:1020E80011C0E1F00C0E0001D86FAF0EE82EFED73C
:1020F800D82FFCD70001E84BE92BE9BFAAD7E95153
:1021080004E1020EE85DD8A0A4D7DEC027F0DFC046
:1021180028F0E0C029F0E1C02AF0000E2B6E000E76
:102128002C6E400E2D6E400E2E6EDAEC0DF027C090
:10213800DEF028C0DFF029C0E0F02AC0E1F0EA0EA6
:102148000001D06F000ED16F0E0ED26F080ED36F44
:10215800DEC0D4F0DFC0D5F0E0C0D6F0E1C0D7F0E3
:10216800DAEC18F0010E116E010E126E080E136EE5
:10217800010EF5EC17F0010E116EEA0E126E000E4C
:10218800136E020EA2EC18F05FD741BE0FD041507B
:1021980004E10D0E405CD8A009D0000E406E000E80
:1021A800416E000E426E000E436E120040C060F099
:1021B800000160476047C2506019C30B6019C26EC6
:1021C800C280C28288D0C3CF0EF0C4CF0FF0106A8D
:1021D800116A000E12EC12F0300E0001606F010E51
:1021E800616FD8904034D96E4134DA6ED890D936C0
:1021F800DA366051D9266151DA220EC0DEFF0FC0EF
:10220800DEFF10C0DEFF11C0DEFF000E126E000EF2
:10221800136EA00E146E400E156E300E606F010E18
:10222800616FD8904034D96E4134DA6ED890D9367F
:10223800DA366051D9266151DA22DECF0EF0DECFD0
:102248000FF0DECF10F0DECF11F0ABEC0AF00EC0CD
:1022580027F00FC028F010C029F011C02AF0000E96
:102268002B6EC00E2C6E7F0E2D6E440E2E6EDAEC89
:102278000DF0300E0001626F010E636FD89040348C
:10228800D96E4134DA6ED890D936DA366251D92609
:102298006351DA2227C0DEFF28C0DEFF29C0DEFF37
:1022A8002AC0DEFF300E606F010E616FD890403497
:1022B800D96E4134DA6ED890D936DA366051D926DB
:1022C8006151DA22DECF40F0DECF41F0DECF42F0BE
:1022D800DECF43F01200C2A2120075D7000E236EA3
:1022E800000E226E000E1C6E000E1B6E02D0154AE8
:1022F800162A010E216E15C0F6FF16C0F7FF08005A
:10230800F550200AD8B418D0F70E176EFF0E186EC5
:1023180015C0F6FF16C0F7FF0800F550196E1A6AC7
:102328001750192618501A221A5004E1050E195C84
:10233800D8A002D0000E216E21C01DF01E6A1D50CB
:102348001E10D8B408D0D3D7000E1C6E010E1B6E19
:10235800154A162A2ED015C0F6FF16C0F7FF08003A
:10236800F550176E186A1850000AD8A422D01750D2
:102378002B0AD8B4EDD7060AD8B4E6D71AD022C0AB
:102388000EF023C00FF0000E116E0A0E106E54EC02
:102398001AF015C0F6FF16C0F7FF0800F5500E5EDC
:1023A800000E0F5A300E0E24226E000E0F20236EE0
:1023B800CFD7D00E176EFF0E186E15C0F6FF16C0D9
:1023C800F7FF0800F550196E1A6A175019261850A9
:1023D8001A221A5006E10A0E195CD8B002D0010E72
:1023E80001D0000E1F6E206A1F502010D8A4C7D736
:1023F8001B501C10D8A40DD022C017F023C018F011
:10240800171E181E174A182A17C015F018C016F0FC
:10241800120022C015F023C016F01200166E1650D6
:10242800D8A411AE1AD00EC012F00FC013F010C00D
:1024380014F011C015F0121E131E141E151E122AB8
:10244800000E13221422152212C018F013C019F01E
:1024580014C01AF015C01BF008D00EC018F00FC039
:1024680019F010C01AF011C01BF00E500F10101008
:102478001110D8A409D0000E0E6E000E0F6E000EBB
:10248800106E000E116E1200960E176E06D0172AE7
:10249800D8901B321A3219321832000E1814126EE4
:1024A800000E1914136E000E1A14146EFE0E1B146F
:1024B800156E1250131014101510D8B40DD0E7D79C
:1024C800172A010E1826000E19221A221B22D8904C
:1024D8001B321A3219321832000E1814126E000EFE
:1024E8001914136E000E1A14146EFF0E1B14156EB9
:1024F8001250131014101510D8B407D0E1D71706CE
:10250800D890183619361A361B361ABE03D0020E62
:102518001760F5D717A01A9ED890173217C012F077
:10252800136A146A156A12C015F0146A136A126ADB
:10253800125018121350191214501A1215501B1257
:102548001650D8A411AE01D01B8E18C00EF019C0B9
:102558000FF01AC010F01BC011F012000600F2A410
:102568008ED0000E016E000E026E200E036E400E1D
:10257800046E00C105F001C106F002C107F003C1F5
:1025880008F057EC15F0D8B00ED08B80080E0D6E01
:10259800CA0EE82EFED70D2EFCD78B90000ED76EF4
:1025A8002D0ED66EF29400C101F001C102F002C1F5
:1025B80003F003C104F0000E056E000E066E200E37
:1025C800076E400E086E57EC15F0D8B00FD08B8010
:1025D800040E0D6EE40EE82EFED70D2EFCD700D0AB
:1025E8008B90000ED76E210ED66EF294000E016EFF
:1025F800000E026E200E036E400E046E04C105F03C
:1026080005C106F006C107F007C108F057EC15F040
:10261800D8B00FD08B82040E0D6EE40EE82EFED7D4
:102628000D2EFCD700D08B92000ED76E210ED66EE1
:10263800F29404C101F005C102F006C103F007C11C
:1026480004F0000E056E000E066E200E076E400E9A
:10265800086E57EC15F0D8B00DD08B82080E0D6EB1
:10266800CA0EE82EFED70D2EFCD78B92000ED76E21
:102678002D0E03D0000ED76E150ED66EF294529220
:102688001100106E839A83880E6A10AE01D00E2A4C
:10269800010E0E160E460E460E4683500E18F70B08
:1026A8000E18836E10C00EF0060E0F6ED8900E3204
:1026B8000F2EFCD7010E0E160E460E4683500E182E
:1026C800FB0B0E18836E10C00EF0050E0F6ED8901F
:1026D8000E320F2EFCD7010E0E160E4683500E1822
:1026E800FD0B0E18836E10C00EF00E3A0F0E0E166C
:1026F800010E0E1683500E18FE0B0E18836E030E75
:10270800E82EFED700F0838A050EE82EFED7839ABE
:1027180010C00EF0D8900E32D8900E32D8900E32EB
:10272800010E0E160E460E460E4683500E18F70B77
:102738000E18836E10C00EF0D8900E32D8900E325C
:10274800010E0E160E460E4683500E18FB0B0E1881
:10275800836E10C00EF0D8900E32010E0E160E4683
:1027680083500E18FD0B0E18836E10C00EF0010E6C
:102778000E1683500E18FE0B0E18836E030EE82EED
:10278800FED700F0838A050EE82EFED7839A050E41
:10279800E82EFED7160E0E6E6C0EE82EFED70E2E05
:1027A800FCD700D01200106E839A83980E6A10AE80
:1027B80001D00E2A010E0E160E460E460E46835006
:1027C8000E18F70B0E18836E10C00EF0060E0F6E63
:1027D800D8900E320F2EFCD7010E0E160E460E465E
:1027E80083500E18FB0B0E18836E10C00EF0050EEA
:1027F8000F6ED8900E320F2EFCD7010E0E160E4615
:1028080083500E18FD0B0E18836E10C00EF00E3A92
:102818000F0E0E16010E0E1683500E18FE0B0E1814
:10282800836E030EE82EFED700F0838A050EE82E8D
:10283800FED7839A10C00EF0D8900E32D8900E3280
:10284800D8900E32010E0E160E460E460E468350D6
:102858000E18F70B0E18836E10C00EF0D8900E32BB
:10286800D8900E32010E0E160E460E4683500E18E4
:10287800FB0B0E18836E10C00EF0D8900E32010EAE
:102888000E160E4683500E18FD0B0E18836E10C0E0
:102898000EF0010E0E1683500E18FE0B0E18836EE6
:1028A800030EE82EFED700F0838A050EE82EFED729
:1028B800839A160E0E6E6C0EE82EFED70E2EFCD7DF
:1028C80000D012009596959495929590959A959822
:1028D8008396839483928390839A8398160E116EBD
:1028E8006C0EE82EFED7112EFCD700D0160E116EF6
:1028F8006C0EE82EFED7112EFCD700D0160E116EE6
:102908006C0EE82EFED7112EFCD700D0160E116ED5
:102918006C0EE82EFED7112EFCD700D0160E116EC5
:102928006C0EE82EFED7112EFCD700D0160E116EB5
:102938006C0EE82EFED7112EFCD700D0010E126EB9
:102948008396839483828380839A839883968394DF
:1029580083828380838A8398050EE82EFED7839628
:10296800839483828380839A8398160E116E6C0EEB
:10297800E82EFED7112EFCD700D0122A030E1264BF
:10298800DFD78396839483828390839A83988396F0
:10299800839483828390838A8398050EE82EFED7DA
:1029A8008396839483828390839A8398160E116EFC
:1029B8006C0EE82EFED7112EFCD700D0280ED7ECCF
:1029C80013F0100ED7EC13F0010ED7EC13F00F0E26
:1029D800D7EC13F01200000E27142F6E000E2814E7
:1029E800306E800E2914316E7F0E2A14326E2F50ED
:1029F800301031103210D8A408D0000E276E000E07
:102A0800286E000E296E000E2A6E000E2B142F6EF3
:102A1800000E2C14306E800E2D14316E7F0E2E1485
:102A2800326E2F50301031103210D8A408D0000E5A
:102A38002B6E000E2C6E000E2D6E000E2E6E2AAE22
:102A480009D0276C281ED8B0282A291ED8B0292AD0
:102A5800800E2A562EAE09D02B6C2C1ED8B02C2AEC
:102A68002D1ED8B02D2A800E2E56000E271A000EC5
:102A7800281A000E291A800E2A1A000E2B1A000E88
:102A88002C1A000E2D1A800E2E1A2B50275C2C5053
:102A980028582D5029582E502A58D8B002D0D890EE
:102AA8001200D8801200000E0114096E000E0214E4
:102AB8000A6E800E03140B6E7F0E04140C6E095000
:102AC8000A100B100C10D8A408D0000E016E000ECE
:102AD800026E000E036E000E046E000E0514096EE1
:102AE800000E06140A6E800E07140B6E7F0E081473
:102AF8000C6E09500A100B100C10D8A408D0000E48
:102B0800056E000E066E000E076E000E086E04AE0F
:102B180009D0016C021ED8B0022A031ED8B0032ABD
:102B2800800E045608AE09D0056C061ED8B0062AD9
:102B3800071ED8B0072A800E0856000E011A000E8C
:102B4800021A000E031A800E041A000E051A000E4F
:102B5800061A000E071A800E081A0550015C065066
:102B680002580750035808500458D8B002D0D890DB
:102B78001200D880120046C018F047C019F048C0AB
:102B88001AF049C01BF00EC018F00FC019F010C0A1
:102B98001AF011C01BF018C012F019C013F01AC0B7
:102BA80014F01BC015F0180E05D0D8901532143249
:102BB80013321232E82EF9D71250166E176A1650D1
:102BC8001710D8A419D0D8901834126E1934136E6F
:102BD8001A34146E1B34156E12501310141015107D
:102BE800D8A405D0000E0F6E020E0E6E1200000E55
:102BF8000F6E030E0E6E120016281710D8A41CD0E4
:102C080018C012F019C013F01AC014F01BC015F048
:102C1800090ED8901236133614361536E82EF9D721
:102C28001250131014101510D8A402D0010E01D0A0
:102C3800000E0E6E0F6A1200000E0F6E040E0E6E5E
:102C4800120010341134176E1750D8A409D0000E92
:102C58000E6E000E0F6E000E106E000E116E12003A
:102C68000EC012F00FC013F010C014F011C015F010
:102C7800200E05D0D8901532143213321232E82EB5
:102C8800F9D71250166E108EFF0E0E16FF0E0F1685
:102C9800FF0E1016000E1116960E175E17AE0DD009
:102CA8001750800A970FD8A0D2D7D8901132103277
:102CB8000F320E32173EF9D70DD01F0E176407D00A
:102CC800C6D7D8900E360F3610361136170617505D
:102CD800D8A4F7D71650D8B408D0111E101E0F1E4E
:102CE8000E6C000E0F22102211220EC00EF00FC023
:102CF8000FF010C010F011C011F012000EC015F046
:102D08000FC016F010C017F011C018F01206D8A0A6
:102D1800130612280FE11328D8A40CD0000E0F6E4A
:102D2800000E0E6E1200154A162A174A182A1206A5
:102D3800D8A0130615C0D9FF16C0DAFFDF50D8B4E3
:102D48001CD017C0F6FF18C0F7FF0800F55000099F
:102D5800D8B413D012501310D8B40FD015C0D9FF5F
:102D680016C0DAFFDF50146E17C0F6FF18C0F7FF61
:102D78000800F5501418D8B4D6D715C0D9FF16C016
:102D8800DAFFDF50146E17C0F6FF18C0F7FF08000F
:102D9800F550145C0E6E0F6AD8A00F061200105082
:102DA8001110D8B404D010501110D8A404D00E506B
:102DB80075EC1AF0120020EE04F01050D9261150CC
:102DC800DA22DE50DE10D8B416D020EE04F010500F
:102DD800D9261150DA2210EE02F01050E1261150D7
:102DE800E222DE50E65CE650800A166EDE50800A6B
:102DF8001658D8B0120020EE02F01050D926115003
:102E0800DA22DECF12F0DDCF13F010C0D9FF11C0E7
:102E1800DAFFDECF14F0DDCF15F012501424D96E8E
:102E280013501520DA6E0EC0DFFF20EE02F01050AE
:102E3800D9261150DA22DE2A000EDD2212004EA019
:102E48000AD020C017F021C018F01EC019F01FC00A
:102E58001AF0C3EC19F023BE05D022C027F023C016
:102E680028F004D0000E286E000E276E000E266E85
:102E7800000E256E0CD0000E0F6E200E0E6E1EC0BA
:102E880010F01FC011F0D3EC16F0254A262A27505F
:102E9800255C2650800A246E2850800A2458D8A021
:102EA800EAD74EB00AD020C017F021C018F01EC0D3
:102EB80019F01FC01AF0C3EC19F020C00EF021C0A1
:102EC8000FF03FEC1AF027500E241E6E28500F20EA
:102ED8001F6E1200000E0E14166E000E0F14176EE1
:102EE800800E1014186E7F0E1114196E16501710DC
:102EF80018101910D8A408D0000E0E6E000E0F6E10
:102F0800000E106E000E116E000E1214166E000EDA
:102F18001314176E800E1414186E7F0E1514196E84
:102F28001650171018101910D8A408D0000E126ED9
:102F3800000E136E000E146E000E156E12500E1851
:102F48000AE113500F1807E11450101804E1155046
:102F58001118D8B402D0D8901200D8801200000EF0
:102F6800136E11AE06D0106C111ED8B0112A010EC6
:102F7800136E0FAE06D00E6C0F1ED8B00F2A010EBE
:102F8800131A000E156E000E146E10501110D8B4DE
:102F98001CD0010E126E04D0D89010361136122AA9
:102FA80011AEFAD7D8901436153610500E5C115061
:102FB8000F58D8A005D010500E5E11500F5A14802B
:102FC800D89011321032122EEDD71350D8B404D045
:102FD800146C151ED8B0152A14C00EF015C00FF0C9
:102FE8001200166E0DD01150800F08D01150C00F6E
:102FF80005D01150940F02D01150D40F176E14D071
:103008001650146E156A1550000AD8A40DD0145025
:10301800010AD8B4E8D7030AD8B4E8D7010AD8B463
:10302800E8D7070AD8B4E8D71750D7EC13F00AD076
:1030380012C0F6FF13C0F7FF0800F55045EC13F077
:10304800124A132A12C0F6FF13C0F7FF0800F55002
:103058000009D8B41200ECD70E500F08126E0F50AA
:10306800D8A0E82A0008136ECF0EC116C150121856
:10307800F00B1218C16EC08EC050C70B1009C06E7D
:10308800C050F80B0509C06E09D0010E05D0030E1B
:1030980003D0070E01D00F0E926E15D00EC010F09F
:1030A8000FC011F01150000AD8A40DD01050010A19
:1030B800D8B4EBD7030AD8B4EAD7010AD8B4E9D709
:1030C800070AD8B4E8D7000E896E1200000E136EF6
:1030D8000FAE06D00E6C0F1ED8B00F2A010E136E5D
:1030E80011AE04D0106C111ED8B0112A1050111056
:1030F800D8B418D0010E126E04D0D89010361136FC
:10310800122A11AEFAD710500E5C11500F58D8A0E1
:1031180004D010500E5E11500F5AD8901132103250
:10312800122EF1D71350D8B404D00E6C0F1ED8B09D
:103138000F2A0EC00EF00FC00FF01200166E0DD041
:103148001150800F08D01150C00F05D01150940FA6
:1031580002D01150D40F176E14D01650146E156A81
:103168001550000AD8A40DD01450010AD8B4E8D7D5
:10317800030AD8B4E8D7010AD8B4E8D7070AD8B4FC
:10318800E8D71750D7EC13F009D012C0D9FF13C0F5
:10319800DAFFDF5045EC13F0124A132A12C0D9FFA8
:1031A80013C0DAFFDF50D8B41200EFD7D40E0101F4
:1031B800D46F000ED56FD0C0D6F1D1C0D7F1000EB4
:1031C800D96F000ED86F000EDB6F000EDA6FD60EC7
:1031D8000001CA6F010ECB6FD2C0CCF0D3C0CDF0C6
:1031E800D40ECE6F010ECF6F07EC19F00101D85144
:1031F8000001D025D96E0101D9510001D121DA6E23
:10320800000EDF6E1200CCC044F0CDC045F0000EB9
:103218000001E76F000EE66F13D0CAC0B4F0CBC050
:10322800B5F0440EB66F000EB76FCEC0B8F0CFC081
:10323800B9F0D3EC08F00001B451E627B551E72303
:1032480044C0F6FF45C0F7FF0800F5500009D8A4B0
:10325800E4D7E6C0CAF0E7C0CBF0120010C014F003
:1032680011C015F00EC016F00FC017F01450126EF2
:103278001550136E144A152A12C0F6FF13C0F7FF33
:10328800F86A16C0D9FF17C0DAFF164A172A070EC0
:10329800F76403D00800F55005D0F6CFE1FFF7CF6B
:1032A800E2FFE750DF6EDF50D8B41200DFD7BF0E61
:1032B800166EFF0E176E14C018F015C019F01650D0
:1032C800182617501922195006E11A0E185CD8B0A2
:1032D80002D0010E01D0000E1A6E1B6A1A501B1084
:1032E800D8B406D0200E1410146E1550156E1200A6
:1032F80014C014F015C015F01200000E2B1A000EA1
:103308002C1A000E2D1A800E2E1A27C00EF028C077
:103318000FF029C010F02AC011F02BC012F02CC0F9
:1033280013F02DC014F02EC015F054EC0CF00EC0A4
:1033380027F00FC028F010C029F011C02AF01200A1
:10334800010E146E200E0E180F10D8B414D0F70EFC
:10335800106EFF0E116E0EC012F00FC013F0105059
:10336800122611501322135004E1050E125CD8A046
:1033780002D0000E146E14C00EF00F6A1200000E78
:103388001D6E000E1C6E0BD01BC00EF00F6A19C00C
:1033980010F01AC011F0D3EC16F01C4A1D2A1C506C
:1033A8001724D96E1D501820DA6EDF501B6E1B5083
:1033B800D8B41200E9D701EE00F0D20EEE6AE806A2
:1033C800FDE100EEDAF0210EEE6AE806FDE100EE1E
:1033D80046F00C0EEE6AE806FDE152905292000E9D
:1033E800F86E0001FBEF0FF0BF0E106EFF0E116EAE
:1033F8000EC012F00FC013F01050122611501322F5
:10340800135006E11A0E125CD8B002D0010E01D09A
:10341800000E0E6E0F6A1200D00E106EFF0E116EA7
:103428000EC012F00FC013F01050122611501322C4
:10343800135006E10A0E125CD8B002D0010E01D07A
:10344800000E0E6E0F6A12000E500F1010101110A1
:10345800D8B408D0000E0E1A000E0F1A000E101A5B
:10346800800E111A0EC00EF00FC00FF010C010F031
:1034780011C011F012000EC010F00FC011F002D0F0
:103488000E4A0F2A0EC0D9FF0FC0DAFFDF50D8A4AA
:10349800F7D710500E5C0E6E11500F580F6E1200B9
:1034A8000E501002F3CF12F0F4CF13F00E501102A9
:1034B800F35013260F501002F350132612C00EF0CB
:1034C80013C00FF01200F29EF28CF28AF294D59A91
:1034D800070ED512D596000ED76E150ED66EF28E43
:0434E80012001200BC
:020000040020DA
:08000000FFFFFFFFFFFFFFFF00
:020000040030CA
:0E000000000C181EFF8481FF0FC00FE00F40A0
:00000001FF
