:0400000040EF3FF09E
:107E8000000EF86E000191EF3FF0300E016EFE0E15
:107E9000816E81B802D02A0E016E81BA02D0300EF6
:107EA000016E81BC02D0230E016E81BE02D0440E51
:107EB000016EFD0E816E81B802D0370E016E81BA5F
:107EC00002D0380E016E81BC02D0390E016E81BE27
:107ED00002D0430E016EFB0E816E81B802D0340ECB
:107EE000016E81BA02D0350E016E81BC02D0360E11
:107EF000016E81BE02D0420E016EF70E816E81B816
:107F000002D0310E016E81BA02D0320E016E81BCF8
:107F100002D0330E016E81BE02D0410E016E0150BF
:107F20001200000E026E0E0EC06E000EC26EF19EAA
:107F3000F00E936E000E956E050ECB6E94940C0EA3
:107F4000BD6E070ECA6E000EBE6EBD9ABD9845ECA2
:107F50003FF0026E32D0010E836E000E25D0020E6D
:107F6000836E010E0DD0BD88F2D7030E836E020E14
:107F7000EBD7040E836E020E0DD0050E836E030E3A
:107F8000BE6EBD9AF0D7060E836E030E0DD0070E9F
:107F9000836E040EBE6EBD8AD9D7080E836E050EA1
:107FA000D3D7090E836E050EBE6EBD8ADCD70A0ECE
:107FB000836EC9D70B0E836ECAD70250310AD8B46C
:107FC000CAD7030AD8B4CBD7010AD8B4CED7070A88
:107FD000D8B4CFD7010AD8B4D0D7030AD8B4D3D7EE
:107FE000010AD8B4D4D70F0AD8B4D7D7010AD8B465
:107FF000D8D7780AD8B4DBD7030AD8B4DBD7A7D749
:020000040020DA
:08000000FFFFFFFFFFFFFFFF00
:020000040030CA
:0E0000000002181EFF8080FF0FC00FE00F40AF
:00000001FF
