:020000040000FA
:04000000B1EF25F047
:104B6000120001EE00F0830EEE6AE806FDE100EEB1
:104B7000C4F0350EEE6AE806FDE1000EF86E0001A5
:104B800049EF3AF001500302F3CF05F0F4CF06F0FD
:104B900001500402F350062602500302F350062689
:104BA00005C001F006C002F0120001C003F002C00F
:104BB00004F002D0014A022A01C0D9FF02C0DAFF84
:104BC000DF50D8A4F7D70350015C016E045002589F
:104BD000026E12000150021003100410D8B408D065
:104BE000000E011A000E021A000E031A800E041A9B
:104BF00001C001F002C002F003C003F004C004F0E1
:104C00001200D00E036EFF0E046E01C005F002C04C
:104C100006F00350052604500622065006E10A0E4F
:104C2000055CD8B002D0010E01D0000E016E026A00
:104C30001200BF0E036EFF0E046E01C005F002C02D
:104C400006F00350052604500622065006E11A0E0F
:104C5000055CD8B002D0010E01D0000E016E026AD0
:104C60001200000E106E000E0F6E0BD00EC001F081
:104C7000026A0CC003F00DC004F0B1EC28F00F4A3A
:104C8000102A0F500A24D96E10500B20DA6EDF5014
:104C90000E6E0E50D8B41200E9D7010E076E200E2A
:104CA00001180210D8B414D0F70E036EFF0E046E74
:104CB00001C005F002C006F003500526045006228C
:104CC000065004E1050E055CD8A002D0000E076E68
:104CD00007C001F0026A1200000E2E1A000E2F1AF1
:104CE000000E301A800E311A2AC01AF02BC01BF0A9
:104CF0002CC01CF02DC01DF02EC01EF02FC01FF0C8
:104D000030C020F031C021F044EC30F01AC02AF05D
:104D10001BC02BF01CC02CF01DC02DF01200BF0ECC
:104D2000096EFF0E0A6E07C00BF008C00CF00950A8
:104D30000B260A500C220C5006E11A0E0B5CD8B060
:104D400002D0010E01D0000E0D6E0E6A0D500E1035
:104D5000D8B406D0200E0710076E0850086E120057
:104D600007C007F008C008F0120003C007F004C035
:104D700008F001C009F002C00AF00750056E0850A3
:104D8000066E074A082A05C0F6FF06C0F7FFF86A54
:104D900009C0D9FF0AC0DAFF094A0A2A070EF764D8
:104DA00003D00800F55005D0F6CFE1FFF7CFE2FFC2
:104DB000E750DF6EDF50D8B41200DFD7B00E00012D
:104DC000B66F000EB76FACC0B8F0ADC0B9F0000E52
:104DD000BB6F000EBA6F000EBD6F000EBC6FB80E39
:104DE000A66F000EA76FAEC0A8F0AFC0A9F0B60EB8
:104DF000AA6F000EAB6F07EC27F00001BA51AC258B
:104E0000D96EBB51AD21DA6E000EDF6E1200A8C064
:104E10005DF0A9C05EF0000E0001E16F000EE06FD2
:104E200013D0A6C053F0A7C054F05D0E556E000E0F
:104E3000566EAAC057F0ABC058F073EC33F0535025
:104E40000001E0275450E1235DC0F6FF5EC0F7FF8C
:104E50000800F5500009D8A4E4D7E0C0A6F0E1C0EE
:104E6000A7F01200096E0DD00450800F08D0045036
:104E7000C00F05D00450940F02D00450D40F0A6E16
:104E800014D00950076E086A0850000AD8A40DD043
:104E90000750010AD8B4E8D7030AD8B4E8D7010A02
:104EA000D8B4E8D7070AD8B4E8D70A5006EC2BF0F4
:104EB00009D005C0D9FF06C0DAFFDF5095EC2BF012
:104EC000054A062A05C0D9FF06C0DAFFDF50D8B46C
:104ED0001200EFD7000E066E02AE06D0016C021E65
:104EE000D8B0022A010E066E04AE04D0036C041E74
:104EF000D8B0042A03500410D8B418D0010E056E9F
:104F000004D0D89003360436052A04AEFAD70350ED
:104F1000015C04500258D8A004D00350015E045034
:104F2000025AD89004320332052EF1D70650D8B475
:104F300004D0016C021ED8B0022A01C001F002C0E8
:104F400002F01200096E0DD00450800F08D00450FA
:104F5000C00F05D00450940F02D00450D40F0A6E35
:104F600014D00950076E086A0850000AD8A40DD062
:104F70000750010AD8B4E8D7030AD8B4E8D7010A21
:104F8000D8B4E8D7070AD8B4E8D70A5006EC2BF013
:104F90000AD005C0F6FF06C0F7FF0800F55095ECF3
:104FA0002BF0054A062A05C0F6FF06C0F7FF0800E9
:104FB000F5500009D8B41200ECD7000E066E04AE0E
:104FC00006D0036C041ED8B0042A010E066E02AE91
:104FD00006D0016C021ED8B0022A010E061A000E7D
:104FE000086E000E076E03500410D8B41CD0010EDA
:104FF000056E04D0D89003360436052A04AEFAD7DD
:10500000D890073608360350015C04500258D8A0E7
:1050100005D00350015E0450025A0780D890043234
:105020000332052EEDD70650D8B404D0076C081E05
:10503000D8B0082A07C001F008C002F01200000E24
:105040000114096E000E02140A6E800E03140B6E1A
:105050007F0E04140C6E09500A100B100C10D8A40B
:1050600008D0000E016E000E026E000E036E000EE0
:10507000046E000E0514096E000E06140A6E800EF2
:1050800007140B6E7F0E08140C6E09500A100B10DB
:105090000C10D8A408D0000E056E000E066E000E8F
:1050A000076E000E086E055001180AE1065002183E
:1050B00007E10750031804E108500418D8B402D0DF
:1050C000D8901200D88012000001E6A10AD013C0C7
:1050D0000AF014C00BF011C00CF012C00DF031EC4E
:1050E00026F016BE05D015C01AF016C01BF004D06D
:1050F000000E1B6E000E1A6E000E196E000E186E5A
:105100000CD0000E026E200E016E11C003F012C012
:1051100004F0B1EC28F0184A192A1A50185C1950FA
:10512000800A176E1B50800A1758D8A0EAD70001D2
:10513000E6B10AD013C00AF014C00BF011C00CF095
:1051400012C00DF031EC26F013C001F014C002F0D3
:10515000D5EC25F01A500124116E1B500220126E5E
:10516000120003500410D8B404D003500410D8A483
:1051700004D00150B0EC25F0120020EE04F00350F2
:10518000D9260450DA22DE50DE10D8B416D020EE34
:1051900004F00350D9260450DA2210EE02F0035036
:1051A000E1260450E222DE50E65CE650800A096EF9
:1051B000DE50800A0958D8B0120020EE02F00350E9
:1051C000D9260450DA22DECF05F0DDCF06F003C089
:1051D000D9FF04C0DAFFDECF07F0DDCF08F00550BD
:1051E0000724D96E06500820DA6E01C0DFFF20EEDA
:1051F00002F00350D9260450DA22DE2A000EDD2206
:10520000120001C008F002C009F003C00AF004C097
:105210000BF00506D8A0060605280FE10628D8A43D
:105220000CD0000E026E000E016E1200084A092A10
:105230000A4A0B2A0506D8A0060608C0D9FF09C0ED
:10524000DAFFDF50D8B41CD00AC0F6FF0BC0F7FF5E
:105250000800F5500009D8B413D005500610D8B492
:105260000FD008C0D9FF09C0DAFFDF50076E0AC0AF
:10527000F6FF0BC0F7FF0800F5500718D8B4D6D7D3
:1052800008C0D9FF09C0DAFFDF50076E0AC0F6FF79
:105290000BC0F7FF0800F550075C016E026AD8A04A
:1052A00002061200033404340A6E0A50D8A409D04E
:1052B000000E016E000E026E000E036E000E046EF4
:1052C000120001C005F002C006F003C007F004C0E0
:1052D00008F0200E05D0D890083207320632053289
:1052E000E82EF9D70550096E038EFF0E0116FF0E4A
:1052F0000216FF0E0316000E0416960E0A5E0AAE84
:105300000DD00A50800A970FD8A0D2D7D890043277
:105310000332023201320A3EF9D70DD01F0E0A6461
:1053200007D0C6D7D89001360236033604360A06AF
:105330000A50D8A4F7D70950D8B408D0041E031EC9
:10534000021E016C000E02220322042201C001F0A1
:1053500002C002F003C003F004C004F01200C8C091
:105360000BF0C9C00CF0CAC00DF0CBC00EF001C0EC
:105370000BF002C00CF003C00DF004C00EF00BC027
:1053800005F00CC006F00DC007F00EC008F0180EB6
:1053900005D0D8900832073206320532E82EF9D708
:1053A0000550096E0A6A09500A10D8A419D0D8907D
:1053B0000B34056E0C34066E0D34076E0E34086E19
:1053C0000550061007100810D8A405D0000E026E74
:1053D000020E016E1200000E026E030E016E12002C
:1053E00009280A10D8A41CD00BC005F00CC006F088
:1053F0000DC007F00EC008F0090ED890053606362D
:1054000007360836E82EF9D70550061007100810A1
:10541000D8A402D0010E01D0000E016E026A120063
:10542000000E026E040E016E1200000E1A14226E9F
:10543000000E1B14236E800E1C14246E7F0E1D1490
:10544000256E2250231024102510D8A408D0000E59
:105450001A6E000E1B6E000E1C6E000E1D6E000EEE
:105460001E14226E000E1F14236E800E2014246E54
:105470007F0E2114256E2250231024102510D8A44D
:1054800008D0000E1E6E000E1F6E000E206E000E65
:10549000216E1DAE09D01A6C1B1ED8B01B2A1C1E13
:1054A000D8B01C2A800E1D5621AE09D01E6C1F1EBE
:1054B000D8B01F2A201ED8B0202A800E2156000EF8
:1054C0001A1A000E1B1A000E1C1A800E1D1A000E4E
:1054D0001E1A000E1F1A000E201A800E211A1E50CE
:1054E0001A5C1F501B5820501C5821501D58D8B012
:1054F00002D0D8901200D88012009596959495927B
:105500009590959A95988396839483928390839AA5
:105510008398160E046E6C0EE82EFED7042EFCD770
:1055200000D0160E046E6C0EE82EFED7042EFCD7AB
:1055300000D0160E046E6C0EE82EFED7042EFCD79B
:1055400000D0160E046E6C0EE82EFED7042EFCD78B
:1055500000D0160E046E6C0EE82EFED7042EFCD77B
:1055600000D0160E046E6C0EE82EFED7042EFCD76B
:1055700000D0010E056E8396839483828380839A84
:1055800083988396839483828380838A8398050E8D
:10559000E82EFED78396839483828380839A8398B0
:1055A000160E046E6C0EE82EFED7042EFCD700D02B
:1055B000052A030E0564DFD7839683948382839044
:1055C000839A83988396839483828390838A839833
:1055D000050EE82EFED78396839483828390839A68
:1055E0008398160E046E6C0EE82EFED7042EFCD7A0
:1055F00000D0280E06EC2BF0100E06EC2BF0010E5E
:1056000006EC2BF00F0E06EC2BF01200036E839AC3
:105610008398016A03AE01D0012A010E01160146EA
:105620000146014683500118F70B0118836E03C031
:1056300001F0060E026ED8900132022EFCD7010E48
:1056400001160146014683500118FB0B0118836EB9
:1056500003C001F0050E026ED8900132022EFCD775
:10566000010E0116014683500118FD0B0118836ECF
:1056700003C001F0013A0F0E0116010E011683500E
:105680000118FE0B0118836E030EE82EFED700F002
:10569000838A050EE82EFED7839A03C001F0D890C6
:1056A0000132D8900132D8900132010E0116014624
:1056B0000146014683500118F70B0118836E03C0A1
:1056C00001F0D8900132D8900132010E0116014646
:1056D000014683500118FB0B0118836E03C001F0D3
:1056E000D8900132010E0116014683500118FD0BBE
:1056F0000118836E03C001F0010E011683500118DA
:10570000FE0B0118836E030EE82EFED700F0838A8D
:10571000050EE82EFED7839A160E016E6C0EE82E4B
:10572000FED7012EFCD700D01200036E839A838827
:10573000016A03AE01D0012A010E0116014601469D
:10574000014683500118F70B0118836E03C001F066
:10575000060E026ED8900132022EFCD7010E011601
:105760000146014683500118FB0B0118836E03C0EC
:1057700001F0050E026ED8900132022EFCD7010E08
:105780000116014683500118FD0B0118836E03C0FA
:1057900001F0013A0F0E0116010E01168350011897
:1057A000FE0B0118836E030EE82EFED700F0838AED
:1057B000050EE82EFED7839A03C001F0D89001327F
:1057C000D8900132D8900132010E011601460146EF
:1057D000014683500118F70B0118836E03C001F0D6
:1057E000D8900132D8900132010E011601460146CF
:1057F00083500118FB0B0118836E03C001F0D89091
:105800000132010E0116014683500118FD0B0118EB
:10581000836E03C001F0010E011683500118FE0BC8
:105820000118836E030EE82EFED700F0838A050E62
:10583000E82EFED7839A050EE82EFED7160E016ECF
:105840006C0EE82EFED7012EFCD700D01200096E98
:105850000950D8A404AE1AD001C005F002C006F069
:1058600003C007F004C008F0051E061E071E081E30
:10587000052A000E06220722082205C00BF006C0EA
:105880000CF007C00DF008C00EF008D001C00BF0FE
:1058900002C00CF003C00DF004C00EF00150021065
:1058A00003100410D8A409D0000E016E000E026E81
:1058B000000E036E000E046E1200960E0A6E06D0E5
:1058C0000A2AD8900E320D320C320B32000E0B1415
:1058D000056E000E0C14066E000E0D14076EFE0E03
:1058E0000E14086E0550061007100810D8B40DD01D
:1058F000E7D70A2A010E0B26000E0C220D220E22DB
:10590000D8900E320D320C320B32000E0B14056E95
:10591000000E0C14066E000E0D14076EFF0E0E1412
:10592000086E0550061007100810D8B407D0E1D74C
:105930000A06D8900B360C360D360E360DBE03D047
:10594000020E0A60F5D70AA00D9ED8900A320AC04E
:1059500005F0066A076A086A05C008F0076A066A61
:10596000056A05500B1206500C1207500D12085014
:105970000E120950D8A404AE01D00E8E0BC001F057
:105980000CC002F00DC003F00EC004F01200000EB7
:10599000166E000E156E000E0F6E000E0E6E02D00B
:1059A000084A092A010E146E08C0F6FF09C0F7FF65
:1059B0000800F550200AD8B418D0F70E0A6EFF0E72
:1059C0000B6E08C0F6FF09C0F7FF0800F5500C6E1B
:1059D0000D6A0A500C260B500D220D5004E1050EE5
:1059E0000C5CD8A002D0000E146E14C010F0116A26
:1059F00010501110D8B408D0D3D7000E0F6E010E7E
:105A00000E6E084A092A2ED008C0F6FF09C0F7FF1B
:105A10000800F5500A6E0B6A0B50000AD8A422D079
:105A20000A502B0AD8B4EDD7060AD8B4E6D71AD054
:105A300015C001F016C002F0000E046E0A0E036ECF
:105A4000C2EC25F008C0F6FF09C0F7FF0800F550CA
:105A5000015E000E025A300E0124156E000E022067
:105A6000166ECFD7D00E0A6EFF0E0B6E08C0F6FF73
:105A700009C0F7FF0800F5500C6E0D6A0A500C269D
:105A80000B500D220D5006E10A0E0C5CD8B002D06E
:105A9000010E01D0000E126E136A12501310D8A41A
:105AA000C7D70E500F10D8A40DD015C00AF016C0DD
:105AB0000BF00A1E0B1E0A4A0B2A0AC008F00BC084
:105AC00009F0120015C008F016C009F01200000E0F
:105AD0000001CC6F000ECD6F000ECE6F000ECF6FA9
:105AE000F00E816EF00E8118D8B4A8D0FE0E816E33
:105AF00081B808D02A0ECC6F000ECD6F000ECE6F8D
:105B0000000ECF6F81BA08D0300ECC6F000ECD6F73
:105B1000000ECE6F000ECF6F81BC08D0230ECC6F6D
:105B2000000ECD6F000ECE6F000ECF6F81BE08D07D
:105B3000440ECC6F000ECD6F000ECE6F000ECF6FF7
:105B4000FD0E816E81B808D0370ECC6F000ECD6F80
:105B5000000ECE6F000ECF6F81BA08D0380ECC6F1A
:105B6000000ECD6F000ECE6F000ECF6F81BC08D03F
:105B7000390ECC6F000ECD6F000ECE6F000ECF6FC2
:105B800081BE08D0430ECC6F000ECD6F000ECE6FDD
:105B9000000ECF6FFB0E816E81B808D0340ECC6F33
:105BA000000ECD6F000ECE6F000ECF6F81BA08D001
:105BB000350ECC6F000ECD6F000ECE6F000ECF6F86
:105BC00081BC08D0360ECC6F000ECD6F000ECE6FAC
:105BD000000ECF6F81BE08D0420ECC6F000ECD6F8D
:105BE000000ECE6F000ECF6FF70E816E81B808D019
:105BF000310ECC6F000ECD6F000ECE6F000ECF6F4A
:105C000081BA08D0320ECC6F000ECD6F000ECE6F71
:105C1000000ECF6F81BC08D0330ECC6F000ECD6F5D
:105C2000000ECE6F000ECF6F81BE08D0410ECC6F3C
:105C3000000ECD6F000ECE6F000ECF6FF00E8A6E8D
:105C4000F00E8118D8B41200FBD7C4C043F0C5C011
:105C500044F0C6C045F0C7C046F033C043F034C07E
:105C600044F035C045F036C046F0810E376EFF0E69
:105C7000386E43C039F044C03AF045C03BF046C0EE
:105C80003CF0180E05D0D8903C323B323A323932D3
:105C9000E82EF9D739503724416E000E3820426E75
:105CA00042BE0FD0425004E1170E415CD8A009D08B
:105CB00033C033F034C034F035C035F036C036F080
:105CC000120042BE5ED041C037F0FF0E386EFF0EAC
:105CD000396E7F0E3A6E000E3B6E376601D007D0EC
:105CE0003B343B323A3239323832372EF6D738C06D
:105CF0003DF039C03EF03AC03FF03BC040F03D506F
:105D00004314376E3E504414386E3F504514396E7C
:105D1000405046143A6E3750381039103A10D8B403
:105D2000C7D743C037F044C038F045C039F046C04B
:105D30003AF0200E05D0D8903A3239323832373224
:105D4000E82EF9D73750381039103A10D8B408D0A7
:105D50003D5043263E5044223F504522405046226B
:105D60003D1C376E3E1C386E3F1C396E401C3A6E2F
:105D70003750431638504416395045163A50461697
:105D800036D043C037F044C038F045C039F046C083
:105D90003AF0200E05D0D8903A32393238323732C4
:105DA000E82EF9D73750381039103A10D8A408D057
:105DB000000E436E000E446E000E456E000E16D0AF
:105DC000D8904334376E4434386E4534396E463497
:105DD0003A6E3750381039103A10D8B408D0000E47
:105DE000436E000E446E800E456EBF0E466E43C07D
:105DF00033F044C034F045C035F046C036F01200F0
:105E00001D50800B2A6E1D501D24316E1CBE31802A
:105E10003150D8B40DD03128D8A408D0000E1A6E55
:105E2000000E1B6E000E1C6E000E1D6E1C8E06D02A
:105E3000000E1A6E000E1B6E000E1C6E000E1D6E04
:105E40002150800B2A1A21502124326E20BE32802C
:105E50003250D8B40DD03228D8A408D0000E1E6E0F
:105E6000000E1F6E000E206E000E216E208E06D0DA
:105E7000000E1E6E000E1F6E000E206E000E216EB4
:105E80001E501F1020102110D8A417D0000E1A6E1B
:105E9000000E1B6E000E1C6E000E1D6E800E1C127E
:105EA0007F0E1D122A501D121AC01AF01BC01BF0C3
:105EB0001CC01CF01DC01DF012003150D8A409D028
:105EC000000E1A6E000E1B6E000E1C6E000E1D6E74
:105ED0001200325031C022F0236A225E000E235A93
:105EE0007F0E22242B6E000E23202C6E1AC026F06B
:105EF0001BC027F01CC028F01DC029F0000E1A6E30
:105F0000000E1B6E000E1C6E000E1D6E000E2D6E20
:105F1000000E2E6E000E2F6E000E306E000E326ED2
:105F200028D03250D8B411D0D8902636273628360B
:105F30002936D8901A361B361C361D3630BE1A80CC
:105F4000D8902D362E362F3630361E50265C1F50F8
:105F500027582050285821502958D8A009D0308CD3
:105F60001E50265E1F50275A2050285A2150295A69
:105F7000322A190E3264D5D726502710281029103E
:105F8000D8B411D02D800FD0D8901A361B361C36BD
:105F90001D3630BE1A80D8902D362E362F3630362C
:105FA0002B06D8A02C061CAEEFD7000E326E30AEFA
:105FB00017D0FF0E2D14226EFF0E2E14236EFF0E2F
:105FC0002F14246E7F0E3014256E225023102410BF
:105FD0002510D8B403D0010E326E02D01AB0FBD710
:105FE0003250D8B41FD0010E1A26000E1B221C22DC
:105FF0001D221DA017D01AC022F01BC023F01CC008
:1060000024F01DC025F025342532243223322232DB
:1060100022C01AF023C01BF024C01CF025C01DF0C4
:106020002B4A2C2A2CBE10D02C5003E12B28D8A0B0
:106030000BD0000E2C6E2B68000E1A6E000E1B6E1D
:10604000000E1C6E000E1D6E2CBE05D02C5011E1F2
:106050002B04D8B00ED0000E2C6E000E2B6E000E4E
:106060001A6E000E1B6E000E1C6E000E1D6E000ED2
:106070002A6E2BC031F031A002D01C8E01D01C9EA4
:10608000D89031301D6E0ED71D50800B266E1D50DE
:106090001D24286E1CBE28802850D8B40DD0282876
:1060A000D8A408D0000E1A6E000E1B6E000E1C6ED7
:1060B000000E1D6E1C8E06D0000E1A6E000E1B6E9A
:1060C000000E1C6E000E1D6E2150800B276E265098
:1060D0002718D8A4268C21502124276E20BE278083
:1060E0002750D8B40DD02728D8A408D0000E1E6E93
:1060F000000E1F6E000E206E000E216E208E06D048
:10610000000E1E6E000E1F6E000E206E000E216E21
:106110002850275CD8B022D026AC02D0800E261A98
:1061200028C029F027C028F029C027F01AC029F07C
:106130001EC01AF029C01EF01BC029F01FC01BF0A2
:1061400029C01FF01CC029F020C01CF029C020F07D
:106150001DC029F021C01DF029C021F0000E296EBC
:10616000285027C022F0236A225E000E235A23BE45
:106170002CD0235004E11A0E225CD8A026D01A504D
:106180001B101C101D10D8B402D0010E01D0000E3F
:10619000296E000E1A6E000E1B6E000E1C6E000E95
:1061A0001D6E27C028F015D029A005D0D890293021
:1061B0000109296E02D0D89029321AB0298E1D34D7
:1061C0001D321C321B321A32282A2750285CD8A0D4
:1061D000EBD726BC28D02850D8A409D0000E1A6EC0
:1061E000000E1B6E000E1C6E000E1D6E12001E5067
:1061F0001A261F501B2220501C2221501D221DA098
:1062000071D029A005D0D89029300109296E02D07B
:10621000D89029321AB0298E1D341D321C321B32FF
:106220001A32282A5FD01E501A5C1F501B5820506B
:106230001C581D50800A226E2150800A2258D8B066
:1062400025D01A501E5C226E1B501F58236E1C5006
:106250002058246E1D502158256EFF0E22241A6EE0
:10626000FF0E23201B6EFF0E24201C6EFF0E252028
:106270001D6E800E261A296C2950D8A40FD0010E4D
:106280001A26000E1B221C221D2208D01E501A5E48
:106290001F501B5A20501C5A21501D5A1A501B10B7
:1062A0001C101D10D8A41CD02950D8A419D0000E41
:1062B0001A6E000E1B6E000E1C6E000E1D6E12007C
:1062C000D8901A361B361C361D3629BE1A8029A0D6
:1062D00002D0D88001D0D89029362850D8A42806DA
:1062E0001CAEEED7000E276E29AE0BD029C022F0CF
:1062F0007F0E2216D8B403D0010E276E02D01AB03A
:10630000FBD72750D8B420D0010E1A26000E1B222E
:106310001C221D221DA018D01AC022F01BC023F081
:106320001CC024F01DC025F0253425322432233230
:10633000223222C01AF023C01BF024C01CF025C05A
:106340001DF02828D8A4282A2828D8B403D02850FB
:10635000D8A40DD0000E1A6E000E1B6E000E1C6E1F
:10636000000E1D6E2850D8A402D0000E266E28A064
:1063700002D01C8E01D01C9ED89028301D6E26BEE7
:106380001D8E1AC01AF01BC01BF01CC01CF01DC0D3
:106390001DF012000450800B0D6E04500424136E87
:1063A00003BE13801350D8B40DD01328D8A408D03E
:1063B000000E016E000E026E000E036E000E046EE3
:1063C000038E08D0000E016E000E026E000E036EEA
:1063D000000E046E0850800B0D1A08500824126E2F
:1063E00007BE12801250D8B40DD01228D8A408D0FD
:1063F000000E056E000E066E000E076E000E086E93
:10640000078E08D0000E056E000E066E000E076E99
:10641000000E086E1250D8B403D01350D8A409D07F
:10642000000E016E000E026E000E036E000E046E72
:10643000120007500102F3CF18F0F4CF19F01850F2
:106440000E6E0F6A106A116A1950146E156A166A78
:10645000176A06500202F3CF18F0F4CF19F0185063
:106460000E26000E0F221022112219501426000EA3
:1064700015221622172205500302F3CF18F0F4CF8D
:1064800019F018500E26000E0F221022112219505A
:106490001426000E15221622172210C011F00FC06C
:1064A00010F00EC00FF00E6A05500202F3CF18F084
:1064B000F4CF19F018500E2619500F22000E10229A
:1064C000000E112206500102F3CF18F0F4CF19F09C
:1064D00018500E2619500F22000E1022000E112205
:1064E00010C011F00FC010F00EC00FF00E6A055072
:1064F0000102F3CF18F0F4CF19F018500E261950FE
:106500000F22000E1022000E112207500202F3CFBC
:1065100018F0F4CF19F01850142619501522000E57
:106520001622000E172206500302F3CF18F0F4CF04
:1065300019F01850142619501522000E1622000EBC
:10654000172207500302F3CF18F0F4CF19F01850B8
:10655000096E19500A6E0B6A0C6A0BC00CF00AC067
:106560000BF009C00AF0096A095014260A501522D6
:106570000B5016220C5017220EC009F00FC00AF063
:1065800010C00BF011C00CF0190E05D0D8900C32D1
:106590000B320A320932E82EF9D7095014260A5074
:1065A00015220B5016220C50172210C011F00FC0EC
:1065B00010F00EC00FF00E6A125013C009F00A6AF4
:1065C0000926000E0A22820E0924186EFF0E0A20E8
:1065D000196E0FD0D890143615361636173611BEF0
:1065E0001480D8900E360F36103611361806D8A003
:1065F000190616AEEFD7000E126E11AE17D0FF0EB1
:106600000E14096EFF0E0F140A6EFF0E10140B6E9F
:106610007F0E11140C6E09500A100B100C10D8B418
:1066200003D0010E126E02D014B0FBD71250D8B4B2
:106630001FD0010E1426000E15221622172217A0B5
:1066400017D014C009F015C00AF016C00BF017C01F
:106650000CF00C340C320B320A32093209C014F03F
:106660000AC015F00BC016F00CC017F0184A192A12
:1066700019BE0DD0195003E11828D8A008D0000E7B
:10668000146E000E156E800E166E7F0E20D019BE91
:1066900005D019500EE11804D8B00BD0000E146EBE
:1066A000000E156E000E166E000E176E000E0D6EAB
:1066B0000FD018C013F0FF0E1416FF0E15167F0E24
:1066C0001616000E171613B0168ED8901330176ECC
:1066D0000D50171214C001F015C002F016C003F0DF
:1066E00017C004F0120055C0D9FF56C0DAFFDECF44
:1066F000F6FFDDCFF7FF0800F550250AD8A4F1D149
:1067000055C0D9FF56C0DAFFDE2A000EDD22000E8A
:106710000001E36F000EE26FE2C0E6F0E3C0E7F0D5
:10672000E469E569000E996F000E14D0E68155C04A
:10673000D9FF56C0DAFFDE2A000EDD222ED0E68316
:10674000F6D7E685F4D7E687F2D7E689F0D7000ECC
:10675000996F010E986F21D055C0D9FF56C0DAFF4E
:10676000DECFF6FFDDCFF7FF0800F550596E5A6A0D
:106770005A50000AD8A4EBD75950200AD8B4E3D70E
:10678000030AD8B4E2D7080AD8B4DBD7060AD8B4CB
:10679000CDD71D0AD8B4D3D7DAD798519911D8B428
:1067A000DBD7E6B1E69355C0D9FF56C0DAFFDECF9E
:1067B000F6FFDDCFF7FF0800F5502E0AD8A46ED003
:1067C000000EE56F000EE46F55C0D9FF56C0DAFF2A
:1067D000DE2A000EDD2255C0D9FF56C0DAFFDECF1B
:1067E000F6FFDDCFF7FF0800F5502A0AD8A41CD029
:1067F00055C0D9FF56C0DAFFDE2A000EDD2257C091
:10680000D9FF58C0DAFFDFCF59F0020EDE26DFCF06
:106810005AF0000EDD2259C0D9FF5AC0DAFFDECF90
:10682000E4F0DDCFE5F03AD055C0D9FF56C0DAFF2D
:10683000DECF08F0DDCF09F0C7EC2CF008C0E4F0A3
:1068400009C0E5F007D055C0D9FF56C0DAFFDE2AEF
:10685000000EDD22D00E596EFF0E5A6E55C0D9FFC4
:1068600056C0DAFFDECFF6FFDDCFF7FF0800F550A8
:106870005B6E5C6A59505B265A505C225C5006E1A4
:106880000A0E5B5CD8B002D0010E01D0000E0001F0
:106890009A6F9B6B9A519B11D8A4D5D755C0D9FF3D
:1068A00056C0DAFFDECFF6FFDDCFF7FF0800F55068
:1068B000076E086A8FEC26F007500001A26FA25104
:1068C000D8B435D055C0D9FF56C0DAFFDECF59F065
:1068D000DDCF5AF0010E5926000E5A2259C0F6FF9C
:1068E0005AC0F7FF0800F550076E086A8FEC26F0D3
:1068F00007500001A36FA351D8B419D055C0D9FFD8
:1069000056C0DAFFDECF59F0DDCF5AF0020E59261D
:10691000000E5A2259C0F6FF5AC0F7FF0800F55082
:10692000076E086A8FEC26F007500001A46F660E10
:10693000A219D8A43FD055C0D9FF56C0DAFFDECF88
:10694000F6FFDDCFF7FF0800F5CFA5F055C0D9FF62
:1069500056C0DAFFDE2A000EDD2257C0D9FF58C02C
:10696000DAFFDFCF59F0040EDE26DFCF5AF0000E3B
:10697000DD2259C0D9FF5AC0DAFFDECF9EF0DECF4C
:106980009FF0DECFA0F0DECFA1F053C047F054C09F
:1069900048F09EC049F09FC04AF0A0C04BF0A1C093
:1069A0004CF0A5C04DF08BEC35F047C053F048C01B
:1069B00054F01200A20E016E000E026EFB0E036E6A
:1069C0007F0E046E000E066E020E056E01EC29F0BD
:1069D00001500210D8A456D055C0D9FF56C0DAFFD6
:1069E000DECF59F0DDCF5AF0010E5926000E5A22A3
:1069F00059C0F6FF5AC0F7FF0800F5CFA5F0BF0E4B
:106A0000596EFF0E5A6E55C0D9FF56C0DAFFDECF61
:106A1000F6FFDDCFF7FF0800F5505B6E5C6A59505A
:106A20005B265A505C225C5006E11A0E5B5CD8B0C3
:106A300002D0010E01D0000E00019C6F9D6B9C5195
:106A40009D1157C0D9FF58C0DAFFDFCF59F0040EAF
:106A5000DE26DFCF5AF0000EDD2259C0D9FF5AC022
:106A6000DAFFDECF9EF0DECF9FF0DECFA0F0DECFEC
:106A7000A1F0020E55C0D9FF56C0DAFFDE26000E87
:106A8000DD2283D755C0D9FF56C0DAFFDECFF6FF2F
:106A9000DDCFF7FF0800F550250AD8A416D055C061
:106AA000D9FF56C0DAFFDE2A000EDD22000E026E8C
:106AB000250E016E53C003F054C004F0B1EC28F071
:106AC000000E546E010E536E120055C0D9FF56C011
:106AD000DAFFDE2A000EDD22000E546E000E536E29
:106AE000120055C0D9FF56C0DAFFDECFF6FFDDCF6A
:106AF000F7FF0800F550016E026A53C003F054C05E
:106B000004F0B1EC28F055C0D9FF56C0DAFFDE2AF8
:106B1000000EDD22D5D7000E00017B6F000E7A6FCC
:106B200049C08CF04AC08DF04BC08EF04CC08FF045
:106B30008FAF16D0000E7B6F010E7A6F8CC001F004
:106B40008DC002F08EC003F08FC004F0EAEC25F097
:106B500001C08CF002C08DF003C08EF004C08FF035
:106B6000000E0001936F000E926FE2C07FF0E3C051
:106B700080F07A517B11D8A402D0E6A513D07A51C7
:106B80007B11D8A404D0000E656F2B0E03D0000E2D
:106B9000656F2D0E646F64C011F1924B932B7F07CC
:106BA000D8A080078CC001F08DC002F08EC003F029
:106BB0008FC004F0AFEC29F001040210D8A44CD02F
:106BC000BF0E4E6EFF0E4F6E4D50506E516A4E50BE
:106BD00050264F505122515006E11A0E505CD8B049
:106BE00002D0010E01D0000E0001666F676B665186
:106BF0006711D8B40DD0110E9225016E010E9321AC
:106C0000026EEB0E036E7F0E046EB5EC26F00CD018
:106C1000110E9225016E010E9321026EF30E036E8A
:106C20007F0E046EB5EC26F00001FD0E7F27FF0EEF
:106C3000802347C011F048C012F0110E136E010EF0
:106C4000146E7FC015F080C016F064EC28F011C0FF
:106C500047F012C048F012008CC001F08DC002F065
:106C60008EC003F08FC004F0AFEC29F00150021089
:106C7000D8A435D0BF0E4E6EFF0E4F6E4D50506EE5
:106C8000516A4E5050264F505122515006E11A0E73
:106C9000505CD8B002D0010E01D0000E0001686F28
:106CA000696B68516911D8B40DD0110E9225016E2F
:106CB000010E9321026EEF0E036E7F0E046EB5EC93
:106CC00026F0B2D7110E9225016E010E9321026EAD
:106CD000F70E036E7F0E046EB5EC26F0A5D7000EFE
:106CE0000001946F000E956F800E966F3F0E976FA8
:106CF000000E916F000E906F8CC001F08DC002F0FD
:106D00008EC003F08FC004F0000E056E000E066EFC
:106D1000000E076E000E086E1FEC28F0D8A01ED0E3
:106D200076D094C001F095C002F096C003F097C0F1
:106D300004F0000E056E000E066E200E076E410E6A
:106D4000086ECAEC31F001C094F002C095F003C0A7
:106D500096F004C097F00001904B912B8CC01AF074
:106D60008DC01BF08EC01CF08FC01DF0000E056E94
:106D7000000E066E200E076E410E086E94C001F0E4
:106D800095C002F096C003F097C004F0CAEC31F051
:106D900001C01EF002C01FF003C020F004C021F0AB
:106DA00015EC2AF0D8A01FD0BCD794C01AF095C01B
:106DB0001BF096C01CF097C01DF0000E1E6E000E5A
:106DC0001F6E200E206E410E216E00EC2FF01AC0B7
:106DD00094F01BC095F01CC096F01DC097F0000108
:106DE0009007D8A091078CC01AF08DC01BF08EC000
:106DF0001CF08FC01DF094C01EF095C01FF096C00F
:106E000020F097C021F015EC2AF0D8A0CED74DC0C5
:106E100007F0086A8FEC26F007500001816F81C0EF
:106E20007EF0670E8119D8A419D0E451E511D8A4D9
:106E300004D0000EE56F010EE46FE5BF05D0E5510B
:106E400008E1E405D8B005D0000E7D6F060E7C6F1A
:106E500008D0E4C07CF0E5C07DF003D0E5AFF9D701
:106E6000F3D7670E8119D8A422D091AF06D0FC0EBB
:106E7000905DFF0E9159D8A018D0FF0E4E6EFF0EF8
:106E80004F6E7CC050F07DC051F04E5050264F5098
:106E900051229051505C5150800A526E9151800A9B
:106EA0005258D8A002D0660E01D0650E7E6F7CC00D
:106EB00074F07DC075F0670E8119D8A405D0660EF8
:106EC0007E19D8B491AF02D0744B752B660E7E1923
:106ED000D8A416D091AF0CD0000E946F000E956F11
:106EE000800E966F3F0E976F000E916F000E906FA1
:106EF000670E8119D8B404D090517427915175232D
:106F0000000E8B6F000E8A6F8CC082F08DC083F0F4
:106F10008EC084F08FC085F094C060F095C061F0A1
:106F200096C062F097C063F07BD082C01AF083C035
:106F30001BF084C01CF085C01DF094C01EF095C0ED
:106F40001FF096C020F097C021F000EC2FF01AC07F
:106F500033F01BC034F01CC035F01DC036F025ECFA
:106F60002EF033C086F034C087F035C088F036C0CC
:106F700089F086C001F087C002F088C003F089C0A4
:106F800004F052EC29F001C078F002C079F082C020
:106F90002AF083C02BF084C02CF085C02DF094C063
:106FA00005F095C006F096C007F097C008F086C0BF
:106FB00001F087C002F088C003F089C004F0CAEC79
:106FC00031F001C02EF002C02FF003C030F004C039
:106FD00031F06CEC26F02AC082F02BC083F02CC07C
:106FE00084F02DC085F094C01AF095C01BF096C0B7
:106FF0001CF097C01DF0000E1E6E000E1F6E200EBE
:10700000206E410E216E00EC2FF01AC094F01BC0D0
:1070100095F01CC096F01DC097F000018A4B8B2B99
:1070200074518A5D8B51800A4E6E7551800A4E589C
:10703000D8A07BD794C001F095C002F096C003F0B1
:1070400097C004F0000E056E000E066EA00E076ECF
:10705000400E086ECAEC31F001C086F002C087F025
:1070600003C088F004C089F082C01AF083C01BF00E
:1070700084C01CF085C01DF086C01EF087C01FF0C4
:1070800088C020F089C021F015EC2AF0D8B003D0D8
:10709000000E000118D082C001F083C002F084C04D
:1070A00003F085C004F086C005F087C006F088C0F4
:1070B00007F089C008F01FEC28F0D8A00BD0000121
:1070C00078B108D0000E866F000E876F000E886FB3
:1070D000000E896F8CC01AF08DC01BF08EC01CF0A2
:1070E0008FC01DF086C01EF087C01FF088C020F042
:1070F00089C021F044EC30F01AC082F01BC083F04C
:107100001CC084F01DC085F060C094F061C095F093
:1071100062C096F063C097F0650E00017E19D8B486
:1071200005D090C076F091C077F004D0000E776F54
:10713000000E766F000E736F000E726F000E716F8F
:10714000000E706F000E8B6F000E8A6FC6D082C06B
:107150001AF083C01BF084C01CF085C01DF094C0E1
:107160001EF095C01FF096C020F097C021F000ECF3
:107170002FF01AC033F01BC034F01CC035F01DC016
:1071800036F025EC2EF033C086F034C087F035C0E1
:1071900088F036C089F086C001F087C002F088C050
:1071A00003F089C004F052EC29F001C078F002C06D
:1071B00079F00001E6B90CD078517911D8A408D043
:1071C000670E8119D8B477AF03D0704B712B39D0CB
:1071D00072517311D8B477AF22D0110E9225D96EA7
:1071E000010E9321DA6E2E0EDF6E924B932B7F07EA
:1071F000D8A08007000E736F010E726F10D0110EB1
:107200009225D96E010E9321DA6E300EDF6E924B0D
:10721000932B7F07D8A080077007D8A07107705103
:107220007111D8A4ECD7110E9225D96E010E9321BD
:10723000DA6E7851300FDF6E924B932B7F07D8A018
:10724000800782C02AF083C02BF084C02CF085C058
:107250002DF094C005F095C006F096C007F097C0D9
:1072600008F086C001F087C002F088C003F089C032
:1072700004F0CAEC31F001C02EF002C02FF003C0C0
:1072800030F004C031F06CEC26F02AC082F02BC044
:1072900083F02CC084F02DC085F094C01AF095C006
:1072A0001BF096C01CF097C01DF0000E1E6E000E65
:1072B0001F6E200E206E410E216E00EC2FF01AC0C2
:1072C00094F01BC095F01CC096F01DC097F0000113
:1072D0007607D8A077078A4B8B2B74518A5D8B5128
:1072E000800A4E6E7551800A4E58D8B008D093BFB0
:1072F0002ED7935104E14B0E925DD8A028D772513E
:107300007311D8B4E6A90AD0110E9225D96E010ED8
:107310009321DA6E2E0EDF6E924B932B110E922577
:10732000D96E010E9321DA6E000EDF6E650E7E19A6
:10733000D8A47FD4000E8B6F4F0E8A6F110E8A2552
:10734000D96E010E8B21DA6E000EDF6E000E7B6FA0
:10735000000E7A6F91AF08D0000E7B6F010E7A6F2E
:10736000906D911FD8B0912B000E7D6F020E7C6F37
:107370002BD08A07D8A08B07110E8A25D96E010E53
:107380008B21DA6E90C001F091C002F0000E046E05
:107390000A0E036E6AEC27F00150300FDF6E90C0CA
:1073A00001F091C002F0000E046E0A0E036EDDECD7
:1073B00027F001C090F002C091F000017C07D8A036
:1073C0007D077F07D8A0800790519111D8A4D1D70D
:1073D0007DBF05D07D51CDE17C05D8B0CAD78A07E5
:1073E000D8A08B077A517B11D8A404D0000E6B6F04
:1073F0002B0E03D0000E6B6F2D0E6A6F110E8A25B7
:10740000D96E010E8B21DA6E6AC0DFFF7F07D8A02C
:1074100080078A07D8A08B07BF0E4E6EFF0E4F6EF7
:107420004D50506E516A4E5050264F50512251507F
:1074300006E11A0E505CD8B002D0010E01D0000E49
:107440006E6F6F6B6E516F11D8A404D0000E6D6F0C
:10745000650E03D0000E6D6F450E6C6F110E8A2500
:10746000D96E010E8B21DA6E6CC0DFFF7F07D8A0CA
:107470008007110E9225016E010E9321026E110EEE
:107480008A25036E010E8B21046EB5EC26F019EFF0
:1074900036F0F19EF00E936E000E836E9280929401
:1074A00092969492949C0E0EC16EC30EC216C08E1C
:1074B000C050F80B0209C06EC050C70B2809C06E3F
:1074C000C2808B928B9C899489967DEC2AF0010E68
:1074D00006EC2BF00C0E06EC2BF0020E0001BF6F39
:1074E000860EBE6F990EE82EFED7BE2FFCD7BF2F9B
:1074F000FAD7030E046EB60E056E7F0E066E010EF1
:10750000A2EC27F0050E046EE40E056E7F0E066EEB
:10751000020EA2EC27F01F0E0001BF6F710EBE6FAE
:107520001E0EE82EFED7BE2FFCD7BF2FFAD700F0D5
:10753000010E06EC2BF0020E0001BF6F860EBE6F2F
:10754000990EE82EFED7BE2FFCD7BF2FFAD7010E1B
:10755000046E4F0E056E7F0E066E010EA2EC27F034
:10756000010E046EF50E056E7E0E066E020EA2EC86
:1075700027F01F0E0001BF6F710EBE6F1E0EE82EAA
:10758000FED7BE2FFCD7BF2FFAD700F0010E06ECB6
:107590002BF0020E0001BF6F860EBE6F990EE82E13
:1075A000FED7BE2FFCD7BF2FFAD7000E0001C06F49
:1075B000000EC16F000EC26F000EC36F000ECC6FC5
:1075C000000ECD6F000ECE6F000ECF6F000ED06F8D
:1075D000000ED16F000ED26F000ED36F000ED46F6D
:1075E000000ED56F000ED66F000ED76F14D1010EAE
:1075F000046E230E056E7F0E066E010EA2EC27F0C0
:1076000067EC2DF00001CF51CE11CD1104E1300E09
:10761000CC5DD8A068D0CF51CE11CD1164E13A0E27
:10762000CC5DD8B060D0000E056E000E066E200E48
:10763000076E410E086EC0C001F0C1C002F0C2C0AA
:1076400003F0C3C004F0CAEC31F001C01AF002C06C
:107650001BF003C01CF004C01DF0D00E0001CC25AF
:10766000016EFF0ECD21026EFF0ECE21036EFF0EC6
:10767000CF21046E000E27EC2CF001C01EF002C0DA
:107680001FF003C020F004C021F044EC30F01AC019
:10769000C0F01BC0C1F01CC0C2F01DC0C3F0C0C010
:1076A000D4F0C1C0D5F0C2C0D6F0C3C0D7F0E80E48
:1076B0000001AC6F000EAD6FD50EAE6F7F0EAF6FD9
:1076C000C0C0B0F0C1C0B1F0C2C0B2F0C3C0B3F02E
:1076D000DEEC26F0050E046EE80E056E000E066E5A
:1076E000020E32EC27F0000E1A6E000E1B6ECA0E50
:1076F0001C6E420E1D6EC0C01EF0C1C01FF0C2C085
:1077000020F0C3C021F015EC2AF0D8B084D0000ED0
:107710000001C06F000EC16F000EC26F000EC36F7C
:10772000000ED46F000ED56F000ED66F000ED76F0F
:10773000000ECC6F000ECD6F000ECE6F000ECF6F1F
:10774000010E06EC2BF0020E0001BF6F860EBE6F1D
:10775000990EE82EFED7BE2FFCD7BF2FFAD7010E09
:10776000046E840E056E7F0E066E010EA2EC27F0ED
:10777000010E046ECB0E056E7F0E066E020EA2EC9D
:1077800027F01F0E0001BF6F710EBE6F1E0EE82E98
:10779000FED7BE2FFCD7BF2FFAD700F0010E06ECA4
:1077A0002BF0020E0001BF6F860EBE6F990EE82E01
:1077B000FED7BE2FFCD7BF2FFAD7010E046E410EA5
:1077C000056E7F0E066E010EA2EC27F0010E046E10
:1077D000910E056E7F0E066E020EA2EC27F01F0EB4
:1077E0000001BF6F710EBE6F1E0EE82EFED7BE2FBA
:1077F000FCD7BF2FFAD700F0010E06EC2BF0020EDB
:107800000001BF6F860EBE6F990EE82EFED7BE2F09
:10781000FCD7BF2FFAD72A0E0001CC19CD11CE11FB
:10782000CF11D8A4E4D6010E06EC2BF0020E000115
:10783000BF6F860EBE6F990EE82EFED7BE2FFCD707
:10784000BF2FFAD7010E046E4F0E056E7F0E066E27
:10785000010EA2EC27F0010E046EE50E056E7E0E01
:10786000066E020EA2EC27F01F0E0001BF6F710E14
:10787000BE6F1E0EE82EFED7BE2FFCD7BF2FFAD745
:1078800000F0010E06EC2BF0020E0001BF6F860E19
:10789000BE6F990EE82EFED7BE2FFCD7BF2FFAD7AA
:1078A000000E0001C06F000EC16F000EC26F000E0F
:1078B000C36F000ECC6F000ECD6F000ECE6F000EAA
:1078C000CF6F56D1010E046E140E056E7F0E066E3C
:1078D000010EA2EC27F067EC2DF00001CF51CE1184
:1078E000CD1104E1300ECC5DD8A068D0CF51CE11BF
:1078F000CD1164E13A0ECC5DD8B060D0000E056EBB
:10790000000E066E200E076E410E086EC0C001F01C
:10791000C1C002F0C2C003F0C3C004F0CAEC31F031
:1079200001C01AF002C01BF003C01CF004C01DF01F
:10793000D00E0001CC25016EFF0ECD21026EFF0E90
:10794000CE21036EFF0ECF21046E000E27EC2CF02B
:1079500001C01EF002C01FF003C020F004C021F0DF
:1079600044EC30F01AC0C0F01BC0C1F01CC0C2F023
:107970001DC0C3F0C0C0D0F0C1C0D1F0C2C0D2F0B1
:10798000C3C0D3F0610E0001AC6F010EAD6FD50E18
:10799000AE6F7F0EAF6FC0C0B0F0C1C0B1F0C2C05B
:1079A000B2F0C3C0B3F0DEEC26F0050E046E610E3B
:1079B000056E010E066E020E32EC27F0000E1A6EF6
:1079C000000E1B6ECA0E1C6E420E1D6EC0C01EF055
:1079D000C1C01FF0C2C020F0C3C021F015EC2AF0D6
:1079E000D8A014D0D4C01AF0D5C01BF0D6C01CF05B
:1079F000D7C01DF0D0C01EF0D1C01FF0D2C020F003
:107A0000D3C021F015EC2AF0D8B0B2D0000E00019E
:107A1000C06F000EC16F000EC26F000EC36F000E6C
:107A2000D06F000ED16F000ED26F000ED36F000E1C
:107A3000CC6F000ECD6F000ECE6F000ECF6F010E1B
:107A400006EC2BF0020E0001BF6F860EBE6F990E82
:107A5000E82EFED7BE2FFCD7BF2FFAD7010E046E3B
:107A6000840E056E7F0E066E010EA2EC27F0010E4D
:107A7000046EAA0E056E7F0E066E020EA2EC27F0B3
:107A80001F0E0001BF6F710EBE6F1E0EE82EFED7D7
:107A9000BE2FFCD7BF2FFAD700F0010E06EC2BF05B
:107AA000020E0001BF6F860EBE6F990EE82EFED744
:107AB000BE2FFCD7BF2FFAD7010E046E320E056E13
:107AC0007F0E066E010EA2EC27F0010E046E770EFB
:107AD000056E7F0E066E020EA2EC27F01F0E00014F
:107AE000BF6F710EBE6F1E0EE82EFED7BE2FFCD7E5
:107AF000BF2FFAD700F0010E06EC2BF0020E0001AA
:107B0000BF6F860EBE6F990EE82EFED7BE2FFCD734
:107B1000BF2FFAD7010E046E410E056E7F0E066E62
:107B2000010EA2EC27F0010E046E910E056E7F0E81
:107B3000066E020EA2EC27F01F0E0001BF6F710E41
:107B4000BE6F1E0EE82EFED7BE2FFCD7BF2FFAD772
:107B500000F0010E06EC2BF0020E0001BF6F860E46
:107B6000BE6F990EE82EFED7BE2FFCD7BF2FFAD7D7
:107B70002A0E0001CC19CD11CE11CF11D8A4A2D656
:107B8000010E06EC2BF0020E0001BF6F860EBE6FD9
:107B9000990EE82EFED7BE2FFCD7BF2FFAD7000EC6
:107BA0000001CC6F000ECD6F000ECE6F000ECF6FB8
:107BB000F5D067EC2DF0C282EFD0C450016E026A9E
:107BC000036A046A000E27EC2CF001C0DCF002C04E
:107BD000DDF003C0DEF004C0DFF0C4500001BF6F71
:107BE000BE6BBEC001F0BFC002F0000E02BEFF0EB1
:107BF000036E046E010E27EC2CF001C0DCF002C015
:107C0000DDF003C0DEF004C0DFF0C350C4CFBEF02F
:107C10000001BF6BBE27000EBF23BEC001F0BFC076
:107C200002F0000E02BEFF0E036E046E010E27EC82
:107C30002CF001C0DCF002C0DDF003C0DEF004C0B7
:107C4000DFF0000E056E000E066EFA0E076E430E94
:107C5000086EDCC001F0DDC002F0DEC003F0DFC062
:107C600004F0CAEC31F001C01AF002C01BF003C0EE
:107C70001CF004C01DF0000E1E6EC00E1F6E7F0EA5
:107C8000206E440E216E00EC2FF01AC0D8F01BC0FD
:107C9000D9F01CC0DAF01DC0DBF0010E046E9E0EA0
:107CA000056E7F0E066E010EA2EC27F0720E00012B
:107CB000AC6F010EAD6FDD0EAE6F7F0EAF6FD8C033
:107CC000B0F0D9C0B1F0DAC0B2F0DBC0B3F0DEEC96
:107CD00026F0010E046E720E056E010E066E020E87
:107CE00032EC27F0D4C01AF0D5C01BF0D6C01CF07F
:107CF000D7C01DF0D8C01EF0D9C01FF0DAC020F0E8
:107D0000DBC021F015EC2AF0D8B003D08B82898437
:107D100043D0D8C01AF0D9C01BF0DAC01CF0DBC0C9
:107D20001DF0D4C01EF0D5C01FF0D6C020F0D7C0C3
:107D300021F015EC2AF0D8B019D0D0C01AF0D1C07B
:107D40001BF0D2C01CF0D3C01DF0D8C01EF0D9C0AB
:107D50001FF0DAC020F0DBC021F015EC2AF0D8B01B
:107D600005D08B928B9C8994899616D0D8C01AF036
:107D7000D9C01BF0DAC01CF0DBC01DF0D0C01EF073
:107D8000D1C01FF0D2C020F0D3C021F015EC2AF0F2
:107D9000D8B002D08B8C8986C2B20FD72A0E0001D0
:107DA000CC19CD11CE11CF11D8A403D78B928B9CB7
:107DB00089948996010E06EC2BF0020E0001BF6F2C
:107DC000860EBE6F990EE82EFED7BE2FFCD7BF2FB2
:107DD000FAD7020E046E6A0E056E7F0E066E010E55
:107DE000A2EC27F0010E046ED30E056E7E0E066E19
:107DF000020EA2EC27F01F0E0001BF6F710EBE6FC6
:107E00001E0EE82EFED7BE2FFCD7BF2FFAD700F0EC
:107E1000010E06EC2BF0020E0001BF6F860EBE6F46
:107E2000990EE82EFED7BE2FFCD7BF2FFAD7010E32
:107E3000046E050E056E7F0E066E010EA2EC27F095
:107E4000030E046E5D0E056E7F0E066E020EA2EC32
:107E500027F01F0E0001BF6F710EBE6F1E0EE82EC1
:107E6000FED7BE2FFCD7BF2FFAD700F0010E06ECCD
:107E70002BF0020E0001BF6F860EBE6F990EE82E2A
:107E8000FED7BE2FFCD7BF2FFAD7010E046EC10E4E
:107E9000056E7F0E066E010EA2EC27F0010E046E39
:107EA000D30E056E7E0E066E020EA2EC27F01F0E9C
:107EB0000001BF6F710EBE6F1E0EE82EFED7BE2FE3
:107EC000FCD7BF2FFAD700F0010E06EC2BF09BEF8A
:107ED0003AF0002A2A2A2A2A2A2A2A2A2A2A2A2A56
:107EE0002A2A2A20006C696D69746520696E6665AE
:107EF00072696F72006C696D697465205375706585
:107F000072696F720053656C656363696F6E61209F
:107F10006C61200058502054656D70204D494E20F2
:107F200058500058502054656D70204D41582058CD
:107F3000500054656D70204D494E206D61796F720F
:107F400000496E74656E74616C6F20646520005327
:107F5000656C656363696F6E6520656C0074656D43
:107F600070657261747572612000486F6C612048A1
:107F7000756D616E6F20007175652054656D7020A0
:107F80004D41580056616C6F72206D6178696D6F5C
:107F9000006E7565766F2068756D616E6F00546553
:107FA0006D706572617475726100616C63616E7A87
:107FB00061646F206F004269656E76656E69646FFB
:107FC000004465206E7565766F2000616C63616E9C
:107FD0007A61646F00433A25302E316600433A25BA
:107FE0002E33660048756D616E6F00494E46004E37
:0F7FF000414E00696E66006E616E006C660000A7
:020000040020DA
:08000000FFFFFFFFFFFFFFFF00
:020000040030CA
:0E000000000C181EFF8481FF0FC00FE00F40A0
:00000001FF
