:020000040000FA
:0400000007EF00F016
:100008001D8209ED00F044EF00F00600D9CF1BF087
:10001800DACF1CF0F2A42ED0000ED76E3C0ED66EAE
:10002800F294010E1726000E182219221A22280E01
:100038001718181019101A10D8A41CD0D8901534F5
:10004800D96E1634DA6E010ED926000EDA22DF5088
:10005800836E1506D8A0160616AE04D0000E166ECE
:10006800090E156E000E176E000E186E000E196E32
:10007800000E1A6E1CC0DAFF1BC0D9FF1D921100BA
:10008800EE0EF66E000EF76E000EF86E00EE01F042
:1000980010EE16F00900F5CFEEFFE550E150FAE159
:1000A8001A6A196A186A176A1D901D92000182EF70
:1000B80000F0F29ED58CD59AD598070ED512D58E1C
:1000C800D596F28AF294F28CF28E12000F0EC16E5F
:1000D800000E956E9290929292949296938093824B
:1000E8009384938612007E0030006D0079003B00F7
:1000F8005B005F007100FF00F30009006AEC00F08C
:100108005DEC00F0000ED76E3C0ED66E000E836ECE
:02011800FFD70F
:020000040020DA
:08000000FFFFFFFFFFFFFFFF00
:020000040030CA
:0E000000000C181EFF8481FF0FC00FE00F40A0
:00000001FF
